:020000040800F2
:10000000E8F301209D010008DD960008E9010008E1
:10001000959600086D1A00082D3D010800000000AB
:1000200000000000000000000000000045C00008C3
:10003000F32F00080000000029A9000899C6000855
:10004000B7010008B7010008B7010008B7010008B0
:10005000B7010008B7010008B7010008B7010008A0
:10006000B7010008B7010008B7010008B701000890
:10007000B7010008B7010008B7010008B701000880
:10008000B7010008B701000869120008F11A00085A
:10009000B51A0008B7010008DD1A0008916B0008C6
:1000A000B701000835C90008B7010008B70100080A
:1000B000B7010008B7010008B7010008257500085E
:1000C00001750008B7010008B7010008B701000872
:1000D000B7010008B7010008B7010008E5E400080F
:1000E000896B0008B7010008B7010008B7010008D4
:1000F000B7010008DDD00008B7010008B70100080B
:10010000B7010008B7010008B7010008B7010008EF
:10011000B7010008B7010008B7010008B7010008DF
:10012000B7010008B7010008B7010008B7010008CF
:10013000A92E0008B7010008B7010008611B0008DC
:10014000251B0008B70100084D1B0008D5970008C3
:10015000B7010008B7010008B70100085DE5000815
:10016000B7010008B7010008B7010008B70100088F
:10017000B7010008B7010008B7010008B70100087F
:10018000B7010008B7010008DFF80CD000F070FDDF
:100190000048004777A90108E8F301200648804796
:1001A00006480047FEE7FEE7FEE7FEE7FEE7FEE75C
:1001B000FEE7FEE7FEE7FEE7B1C700088901000899
:1001C00070B44FF000054FF000064FEA0242046899
:1001D000D4FA02F4C4FB945600F10400491EF6D18F
:1001E0002846314670BC70471EF0040F0CBFEFF379
:1001F0000880EFF309801AF05FB92DE9F05F05463A
:10020000002092469B4688460646814640241BE0D5
:10021000284641464746224600F08FFB53465A4641
:10022000C01A914110D311461846224600F076FBC1
:100230002D1A67EB01084F4622460120002100F0ED
:100240006DFB17EB00094E41201EA4F10104DFDC19
:10025000484631462A464346BDE8F09F004870476D
:1002600074C7010810B50446FFF7F8FF0068005D89
:1002700000F0010010BDA0F16101192900D820385B
:10028000704700000649074A0868504343F23902A4
:10029000104408604008704701490860704700003A
:1002A000AC0700206D4EC64140EA01039B0703D016
:1002B00009E008C9121F08C0042AFAD203E011F8A5
:1002C000013B00F8013B521EF9D27047D2B201E067
:1002D00000F8012B491EFBD270470022F6E710B54B
:1002E00013460A4604461946FFF7F0FF204610BDA4
:1002F000421E12F8013F002BFBD111F8013B02F81E
:10030000013B002BF9D1704710B5044604E00B788F
:1003100000F8013B03B1491C521EF8D2204610BD23
:10032000CAB2401E10F8011F8A4202D00029F9D13A
:1003300000207047421C10F8011B0029FBD1801AD5
:10034000704710B5002200E0521C835C8C5CA34215
:1003500001D1002BF8D1D8B2E1B2401A10BD03464A
:1003600011F8012B00F8012B002AF9D1184670472B
:1003700030B505460020034600E05B1C934205D2E1
:10038000EC5CC85C201A01D1002CF6D130BD10B550
:10039000484304461AF0F6FA002805D00021002C44
:1003A00002D0641E0155FAE710BD2DE9F0479146D1
:1003B0000F4680460446002614F8015B2DB1FFF776
:1003C0004DFF0068405DC007F6D12B2D02D02D2DCA
:1003D00018D0641E4A463946204600F0D0FA27B1AC
:1003E0003968A14201D1C7F8008071054FF00204BD
:1003F0000BD54042002803DD14F094FD0460A007F3
:10040000BDE8F08746F48066E4E70028F8DA14F0E7
:1004100089FD04606FF00040F2E72DE9F05F93463C
:100420000F4680460446002614F07CFDD0F800906C
:10043000824614F8015B2DB1FFF710FF0068405DA4
:10044000C007F6D12B2D02D02D2D1AD0641E00210D
:10045000CAF800105A463946204600F090FA014684
:1004600027B13868A04201D1C7F80080DAF800004F
:10047000022809D0CAF80090700505D54842BDE8A9
:10048000F09F46F48066E2E70846F8E770B5064656
:1004900014F048FD046805460A2200213046FFF7A3
:1004A00084FF2C6070BD2DE9FE4F804681EA030079
:1004B000C00F0C46009021F0004123F00045B8EB3E
:1004C0000200A94105D24046214690461C460B46F3
:1004D000024623F00040104347D0270DC7F30A001F
:1004E000C3F30A510290401A019040286BDAC3F31B
:1004F000130040F4801B0098924620B10023D2EBF9
:10050000030A63EB0B0B01985946C0F140025046B9
:1005100000F004FA06460D4650465946019A00F08E
:100520001CFA10EB08006141002487EA115284EAAA
:10053000E7731A4340D0009A62B3019A012A4FEA46
:10054000075215DC001B61EB02014FF0004202EA8A
:100550000752CDE90042001C41F5801132462B467E
:1005600000F0F0FA03B0BDE8F08F40462146F9E70D
:10057000001B61EB0201001C41F5801300185B4178
:100580002018A2F5001747EB030140EAD570B61911
:100590006D4111E06D084FEA360645EAC0754FEA35
:1005A0000752001B61EB0201001C41F58011490854
:1005B0004FEA30000019514132462B4603B0BDE8E6
:1005C000F04F00F0B0BA0098012240000023D0EBB9
:1005D000020263EBE073009821464FEAE074B8EB47
:1005E000000061EB0401E9E783F000435BE781F081
:1005F000004158E72DE9FE4F81EA030404F000446E
:1006000021F0004100944FF0000B23F0004350EA2A
:1006100001045ED052EA03045BD0C3F30A54C1F371
:100620000A552C44A4F2F3340194A0FB0254C1F304
:10063000130141F48011C3F3130343F4801301FB4E
:10064000024400FB034E840A970A44EA815447EAB5
:100650008357A4FB076802958D0A05FB07854FEABF
:10066000932C04FB0C542705029D4FEA065847EAD9
:100670001637B5EB08056EEB070C870E920E47EAAE
:10068000811742EA8312A7FB0201B6EB0B0164EB70
:1006900000042B0D43EA0C335E1844EB1C50DA4681
:1006A0005146E7FB0201C5F313044FEA0B3343EA5B
:1006B00014534FEA0432019C43EA0603A4F10C04EC
:1006C0000294009CCDE900B400F03CFA03B0BDE810
:1006D000F08F00200146F9E72DE9F04D81EA03048F
:1006E00004F0004B21F0004514464FF0000A23F0BF
:1006F000004150EA050220D054EA01021DD0C5F3A2
:100700000A570246C5F31303C1F31300C1F30A5697
:1007100040F4801543F48013A7EB0608101BD6465F
:1007200008F2FD3873EB050002D308F1010801E07F
:1007300092185B41B8F1000F03DA00200146BDE8D2
:10074000F08D00204FF48011064684460EE0171B02
:1007500073EB050705D3121B63EB050306434CEA55
:10076000010C49084FEA300092185B4150EA01073A
:10077000EDD152EA030012D082EA040083EA0501B7
:10078000084305D0101BAB4106D20122002306E02E
:1007900000224FF0004302E06FF0010253101AEB09
:1007A00006004CEB085110EB0A0041EB0B01BDE8D1
:1007B000F04D00F0B8B90EB5C10F80EAE070084402
:1007C000CA07002140F233438DE80E000A460B466B
:1007D00000F0B8F903B000BD0EB540F2334102910C
:1007E0000021CDE900110A460B4600F0ABF903B039
:1007F00000BD70B5C1F30A5201F000450024C1F3F9
:10080000130140F2FF3341F480119A4201DA0020D3
:1008100070BD40F233439A42A2F2334203DC5242AB
:1008200000F08BF800E090402C43F1D0404270BDC6
:10083000C1F30A5210B5C1F3130140F2FF3341F482
:1008400080119A4201DA002010BD40F233439A42EF
:10085000A2F2334203DC524200F06FF810BD904028
:1008600010BD00F0004230F000400AD0C10D01F58B
:100870006071C0F3160042EA0151C20840071143FB
:10088000704700200146704730B5041E71F1000426
:1008900004DB4FF00044404264EB0101141E73F18D
:1008A000000405DB1C464FF00043524263EB040397
:1008B0008B4208BF824230BD01F0004330B421F0CA
:1008C000004150EA010206D00A0DA2F56072C1F3A0
:1008D0001301002A02DC30BC00207047440F44EAB8
:1008E000C104C100E01830BC00EBC25000F0E4B815
:1008F00030B50B46014600202022012409E021FAF0
:1009000002F59D4205D303FA02F5491B04FA02F5EC
:100910002844151EA2F10102F1DC30BD202A04DBBF
:10092000203A00FA02F1002070479140C2F1200302
:1009300020FA03F3194390407047202A04DB203A41
:1009400021FA02F00021704721FA02F3D040C2F1EF
:1009500020029140084319467047202A06DBCB1736
:10096000203A41FA02F043EAE07306E041FA02F36A
:10097000D040C2F1200291400843194670472DE94A
:10098000F05F82460078002715468B460AF1010485
:10099000B946302801D09DB113E014F8010B0127AE
:1009A000782803D0582801D045B10AE00DB1102DA8
:1009B00007D10027102514F8010B02E0082500E0FC
:1009C0000A250026B0460EE005FB080005FB06F1EF
:1009D000012701EB10461FFA80F8B6F5803F00D3DF
:1009E000B94614F8010B294600F054F90028EBDA57
:1009F000BBF1000F05D00FB1641E00E05446CBF8E8
:100A00000040B9F1000F06D014F08CFA0221016009
:100A1000C81EBDE8F09F48EA0640FAE70FB400237D
:100A200000B589B00CA900910B996FF00042CB6022
:100A30001E4B06931E4B07930423CDE901321D4A3A
:100A4000089202466B46002000F0C6F909B05DF836
:100A500014FB70B586B006464FF0FF300091CDE92B
:100A60000101002015460C4604903246694604A850
:100A7000FFF7D4FF02460498211825B108B10846B3
:100A800000E020462860049800280DD0002A02DDEE
:100A90000098884208D0081B0094CDE90104324632
:100AA000694604A8FFF7BAFF06B070BD1110000830
:100AB0002F100008650200080029A8BF7047401CDD
:100AC000490008BF20F00100704710B4B0FA80FC64
:100AD00000FA0CF050EA010404BF10BC704749B1A1
:100AE000CCF1200421FA04F411FA0CF118BF012111
:100AF00021430843A3EB0C01CB1D4FEA00614FEAF1
:100B0000102042BF002010BC704700EBC3501044BF
:100B10000029A4BF10BC7047401C490008BF20F04A
:100B2000010010BC704710B5141E73F1000408DA00
:100B3000401C41F1000192185B411A4301D120F0A1
:100B4000010010BD2DE9F04D92469B4611B1B1FA5E
:100B500081F202E0B0FA80F220329046FFF7DEFE2A
:100B600004460F4640EA0A0041EA0B0153465A4642
:100B7000084313D0114653EA010019D0C8F14002CE
:100B80005046FFF7DAFE05460E46504659464246A5
:100B9000FFF7C4FE084305D0012004E02046394693
:100BA000BDE8F08D0020054346EAE0762C4337434C
:100BB0000A986305E40AA0EB08000022FD0A44EA53
:100BC00047540A3002D500200146E9E70105101913
:100BD0006941DDE9084500196941BDE8F04DA2E72A
:100BE00070B521F0004303430CD0C1F30A55002433
:100BF000D5EB040564EB0403D617AD1AB34102DB51
:100C00000020014670BD201841EB025170BDC1F3B8
:100C10000A52C1F3130140F2FF3341F480119A42AA
:100C200002DA00200146704740F233439A42A2F2B2
:100C3000334202DC5242FFF780BEFFF76FBE000076
:100C400030B5041E71F1000404DB4FF00044404253
:100C500064EB0101141E73F1000405DB1C464FF028
:100C60000043524263EB0403994208BF904230BDF7
:100C7000064C074D06E0E06840F0010394E80700E9
:100C800098471034AC42F6D3FFF782FA50CA0108F5
:100C900070CA01083A2800D2303820F02002412AD8
:100CA00001D3A2F13700884201D34FF0FF307047E3
:100CB0002DE9FF4F087883B09946FF2805D0491CDD
:100CC0002D2804D00024002008E000200BE001249F
:100CD000F9E700EB800003EB4000491C0B78FF2B89
:100CE000F7D104B1404200230293147819461D46FF
:100CF0002D2C01D02B2C04D1521C2D2C13D00024D0
:100D00000294AA461478FF2C0FD00A25A3FB05787D
:100D100001FB05814FF0000C03FB0C11521CE31981
:100D20004AEB0101EEE70124EAE7814453EA0100BE
:100D300002D019F5C87F06DA03980021C0E9001136
:100D400007B0BDE8F08F0025AE4E2F46DFF8B88221
:100D5000184600F0CEF9CDE90001B9F1000002DA41
:100D6000C9F1000400E004460023A74A1AEB030B74
:100D700042EB045A12E0E00707D02A4633463846D1
:100D80004146FFF737FC074688462A463346104659
:100D90001946FFF72FFC05460E466410002CEAD1D9
:100DA000DDE90001B9F1000F5A46534606DAFFF7B4
:100DB00093FC3A464346FFF78FFC05E0FFF71AFC29
:100DC0003A464346FFF716FC029A0AB181F0004109
:100DD000039AC2E90001B3E72DE9FF4F1F468DB02A
:100DE000D7E901464FF0FF382E2045464FF0000965
:100DF0000B90B9696D1C0E988847396A82468847FE
:100E00000028F6D1BAF1FF3F0AD024F4D064002EB6
:100E100011DDBAF12B0F08D0BAF12D0F0BD102E082
:100E2000404611B08DE744F48064B9696D1C0E989A
:100E300088478246761E6946600501D52D2000E070
:100E40002B208DF8000001F1010B0DF1200809E0C5
:100E5000B9696D1C0E98884782460F9844F4007457
:100E6000761E0560002E02DDBAF1300FF0D00B992E
:100E70008A453ED144F0800406E00F99681CA9F130
:100E8000010944F400740860B9696D1C761E0E985F
:100E9000884782463028F0D02BE00B998A4505D14F
:100EA000200603D444F08004761E18E0504615F066
:100EB0002DFA08B30DF11301761E44F400748B452E
:100EC00008D2AAF130000BF8010B200607D5A9F1D2
:100ED000010003E0200602D409F101008146A005CB
:100EE00002D50F99681C0860B9696D1C0E98884777
:100EF0008246002ED1DC53E0002E51DDBAF1650FA1
:100F000002D0BAF1450F4BD1A00549D5B9696D1C86
:100F100024F44074761E0E9888478246002E0CDD1D
:100F20002B2804D0BAF12D0F07D144F48074B9698D
:100F30006D1C0E9888478246761EE00501D52D214E
:100F400000E02B2108F8011BCDF82C8021E00DF1E9
:100F50002901761E44F4007488450CD2AAF13000B1
:100F600010F0FF0088F8000002D10B99884509D9DC
:100F700008F1010806E0E00501D5244801E042F24D
:100F80000F708146B9696D1C0E98884782460F988C
:100F90000560002E04DD504615F0B8F90028D6D1C2
:100FA000F9690E988847FF208BF8000088F8000048
:100FB0000020069007904B466A4608A906A8FFF74E
:100FC00077FEA00502D46FF001002AE714F0240F89
:100FD0000AD0E00714D1DDE906123868031D3B6032
:100FE0000068C0E900120BE0DDE90601FFF764FCD0
:100FF0000146E00704D13868021D3A6000680160CC
:1010000028460EE7000014400000F03FF1D8FFFF33
:10101000426842B1016811F8013B23B1521EC0E998
:101020000012184670470121C160881E704742684F
:101030005AB1C368016843B983688B4205D0491E21
:10104000521CC0E90012002070474FF0FF3070477B
:101050002DE9F04D00231A461B1A8A4103DB0020BC
:101060000146BDE8F08DC1F30A52C1F3130141F40A
:1010700080154FF0000BD10702D100186D41521EB0
:101080000027044640F2FF11384601EB620A3E4653
:101090008046024600204FF48011FFF74EFCC21933
:1010A0007141BB1846EB0100B4EB030C75EB000C6F
:1010B00004D3E41A65EB000517460E46241908F11F
:1010C00001006D4180463428E3DDF91946EB060046
:1010D000091BA84103D24FF0FF32134601E0002262
:1010E00013461BEB070046EB0A51BDE8F04DFFF736
:1010F0001ABD0EB540F2334202920022CDE9002221
:101100001346FFF71FFD03B000BD70B58C1810F833
:10111000015B15F0070301D110F8013B2A1106D13C
:1011200010F8012B03E010F8016B01F8016B5B1E56
:10113000F9D12B0705D40023521E0DD401F8013B31
:10114000FAE710F8013BCB1A921C03E013F8015B9D
:1011500001F8015B521EF9D5A142D8D3002070BD21
:101160000A4600214168024B194011434160704713
:10117000FFFD3FFF0A460021416821F01F01114396
:101180004160704741628262704700220A12D34375
:101190000360704721B1826842F00102826003E07F
:1011A000826822F001028260704700000021084A34
:1011B0001168084A1140D0E900231A4383681A4392
:1011C000C3681A431143044AC2F80413704700006D
:1011D00004230140E030FCFF0020014000210160B9
:1011E00041608160C160704721B1826842F48072C1
:1011F000826003E0826822F480728260704721B1CD
:10120000826842F40072826003E0826822F4007215
:10121000826070470A460021816821F44011114321
:101220008160704770B502460020002300240B1235
:10123000556801268E4005EA060415681D4015B163
:101240000CB1012000E0002070BD08B5024600206E
:101250000090009201F12800009B18440090009833
:10126000006880B208BD000010B54FF483713D489E
:10127000FFF7D8FF20B34FF483713A48FFF785FF9B
:1012800000BF39480068B0F8700000F4805080B9A1
:1012900035480068B0F86C0000F4805048B912F08E
:1012A00099FE31480068C06E40F480502E490968AC
:1012B000C86600BF00224FF483712A4800F05AF834
:1012C0004FF483712948FFF7ADFF20B34FF48371CA
:1012D0002648FFF75AFF00BF23480068B0F87000A7
:1012E00000F4805080B920480068B0F86C0000F429
:1012F000805048B912F06EFE1B480068C06E40F482
:10130000805019490968C86600BF00224FF48371F4
:10131000164800F02FF84FF483711548FFF782FF4D
:10132000F0B14FF483711248FFF72FFF00BF0E4852
:101330000068B0F8700000F4805080B90A48006876
:10134000B0F86C0000F4805048B912F043FE064833
:101350000068C06E40F4805003490968C86600BF49
:1013600010BD0000002001400000002000210140CD
:101370000022014010B50B460021D9B2012404FA25
:1013800001F11AB144680C43446002E044688C43A4
:10139000446010BD30B50246002000235068104C58
:1013A00020400D790C6844EA052420435060906881
:1013B0000C4C2040D1E903542C438D682C434D79CB
:1013C00044EA450420439060D06A20F470000C7D0C
:1013D000641EE4B2234340EA0350D06230BD0000F3
:1013E000FFFEFFFCFDF7FFC0F0B5044615460020E8
:1013F00000220026092911DDE068A1F10A0707EBA8
:10140000470C072707FA0CF29043A1F10A0707EBF4
:10141000470703FA07F21043E0600CE0206901EB94
:10142000410C072707FA0CF2904301EB410703FA3E
:1014300007F210432061A06BC0F30156EF1C06F1C8
:10144000010CA7EB0C0707EB870C1F2707FA0CF220
:101450009043EF1C06F1010CA7EB0C0707EB870785
:1014600001FA07F21043A063F0BD10B50A4600214F
:101470000023816B21F44011531E41EA0351816323
:1014800010BDF0B504460D4600200021092D11DDE8
:10149000E068A5F10A0606EB4607072606FA07F1FB
:1014A0008843A5F10A0606EB460603FA06F108434F
:1014B000E0600CE0206905EB4507072606FA07F116
:1014C000884305EB450603FA06F108432061072A25
:1014D0000FDA606B561E06EB86071F2606FA07F129
:1014E0008843561E06EB860605FA06F1084360633C
:1014F00022E00D2A0FDA206BD61F06EB86071F2687
:1015000006FA07F18843D61F06EB860605FA06F1B0
:101510000843206310E0E06AA2F10D0606EB86079F
:101520001F2606FA07F18843A2F10D0606EB860690
:1015300005FA06F10843E062F0BD816841F48001DC
:101540008160704700210160017141718160C1605B
:10155000016101210175704738B10849096841F4FA
:101560000001074AC2F8041306E00449096821F49F
:101570000001034AC2F8041370470000042301402D
:1015800000200140F0B585B005460C461A480168B8
:101590001A4815F0E7FC074614216846FEF79DFE41
:1015A0001748006800F57A70F86015480068061959
:1015B0001449096814224868294614F062FD14B9D8
:1015C000002005B0F0BD0FE00E490968142208683C
:1015D000694614F03AFD28B10098A42802D19DF87C
:1015E0000B00EEE715F01AFD05480068B042EBDB92
:1015F0004FF0FF30E5E7000000000020D59E000816
:10160000800200205001002070B501217F2009F0E8
:1016100087FE0BF06DF89C210120FEF7B8FECE4945
:10162000086008460068001D096808600020CA4973
:101630000968096888806420C74909680968C88002
:10164000C5490968096808820120C3490968096811
:1016500008804FF47A70C049096809684880BE491B
:101660000968096808810120BB490968096888720E
:101670000220B9490968096808770C20B649096849
:1016800009688881B44909680968C88140F65551DC
:10169000B148006800688182AF48006800684182F4
:1016A0000020AD4909680968C8820021AA4800687D
:1016B00000680183A8480068006841831E22A6488C
:1016C0000168091D00682230FEF7EEFD0021A248E6
:1016D00000688165A0480068016602219E48006894
:1016E00080F84C1040F655519B480068A0F848100F
:1016F0000C2199480068A0F8421097480068A0F8AB
:10170000401040F6B83194480068A0F8461092485E
:101710000068A0F8441000208F490968A1F87600FD
:101720003C208D490968A1F8820007F085FA4FF442
:10173000612007F019FD89490860002006F0C6FF06
:101740008749086006F0FCFD07F0E0FA4FF40E71DF
:101750000120FEF71CFE80490968C1F89800814805
:101760000068FEF799FD002450E0FEF78BFD642130
:1017700090FBF1F201FB120000F64B2004EB440158
:10178000794A02EB8101C880FEF77CFD642190FB61
:10179000F1F201FB120000F20D5004EB4401724A19
:1017A00002EB81018880002510E0FEF76BFD6421CB
:1017B00090FBF1F201FB120000F29E7004EB440179
:1017C000694A02EB810121F815006D1C022DECD352
:1017D000FEF758FD642190FBF1F201FB1200C630C8
:1017E00004EB4401604A02EB81014881FEF74AFDA7
:1017F000642190FBF1F201FB120000F6E54004EBDE
:101800004401594A02EB81010881641C012CACDBC4
:101810005248006830B1002354A25048016856482D
:1018200015F074FB5548006830B1002354A25348AA
:101830000168514815F06AFB5448006830B1002334
:1018400053A2524801684C4815F060FB002353A294
:1018500041480168534815F059FB002352A23E4805
:101860000168534815F052FB012352A23A4801681F
:10187000524815F04BFB002351A2374801685248EB
:1018800015F044FB012351A233480168524815F07A
:101890003DFB002351A21946534815F037FB0023A6
:1018A00052A23049534815F031FB0AF0FDFE0021E9
:1018B000294800680AF05EFD274800680AF052FDDA
:1018C0004FF4967012F071FB06F078FF2348006821
:1018D00015F00EFC7C2009F001FE012809D14648D4
:1018E00000684649B0FBF1F4214645A014F0FCFA2B
:1018F0001DE07D2009F0F2FD012803D147A014F07E
:10190000F3FA14E07E2009F0E9FD012803D148A094
:1019100014F0EAFA0BE07B2009F0E0FD012803D186
:1019200048A014F0E1FA02E07A2009F0D7FD09F0AE
:1019300057FD4AA016F016FD074909680122D1F8A3
:10194000980046A117F0C2FA45A01AF003FA002049
:1019500015F0CEFB70BD0000000000200400002048
:10196000500100208002002040180020434F4D31DC
:101970002070617273657200C5A80008080000201D
:10198000434F4D3320706172736572000C0000206C
:10199000434F4D36207061727365720043414E2093
:1019A0007478000089A7000843414E207278000037
:1019B000D59E0008737461747573000051AE000801
:1019C0006576656E74730000E5AB0008636861724C
:1019D00067657236000000002DA900087761746306
:1019E00068646F6700000000953F01086C656473D0
:1019F00000000000359200087005002040420F00F2
:101A00000D202E2E2E205357522072657365742C94
:101A10002025644D487A0D0A3E0000000D202E2E30
:101A20002E20495744472072657365740D0A3E00A5
:101A30000D202E2E2E205757444720726573657453
:101A40000D0A3E000D202E2E2E20706F776572201D
:101A50006F6E2072657365740D0A3E00303A0000A7
:101A6000406366672E696E690D00000008480068D3
:101A700015F03EFB0748006842F2107190FBF1F24E
:101A800001FB1204214604A014F02EFA00BFFEE769
:101A900004000020800200203A2530346420427582
:101AA000734661756C745F48616E646C65720D0A93
:101AB0003E00000000B585B06A460021054800F0F0
:101AC0009CF90549096814220868694614F0D9FA96
:101AD00005B000BD006400405001002003480068CC
:101AE00040F00400014908607047000004640040B1
:101AF00000B585B00949096814224868694614F0A0
:101B0000A4FA20B16946064800F0FFF904E000227B
:101B10000121034800F0DEF805B000BD50010020AF
:101B20000064004000B585B06A460021054800F019
:101B300064F90549096814220868694614F0A1FA95
:101B400005B000BD00680040500100200348006857
:101B500040F004000149086070470000046800403C
:101B600000B585B00949096814224868694614F02F
:101B70006CFA20B16946064800F0C7F904E000227B
:101B80000121034800F0A6F805B000BD5001002077
:101B90000068004010B504460B48844209D1012179
:101BA000480609F0EDFB00214FF0007009F0E8FB5A
:101BB00008E00121880609F0E3FB00214FF0806076
:101BC00009F0DEFB10BD00000064004010B50021EC
:101BD000837A012202FA03F13D4A126842F00102BF
:101BE0003B4B1A603A4A1C3212688A43384B1C330A
:101BF0001A60027BCAB9364A0C3212688A43344BE7
:101C00000C331A604288C38842EA0343304A4032A8
:101C1000847A42F834300288838842EA03432C4AAB
:101C20004032847A02EBC4025360027B012A19D14C
:101C3000274A0C3212680A43254B0C331A6042883B
:101C4000038842EA0343224A4032847A42F834301D
:101C5000C288838842EA03431D4A4032847A02EBF9
:101C6000C4025360C27A3AB9194A121D12688A43F3
:101C7000174B1B1D1A6006E0154A121D12680A4315
:101C8000134B1B1D1A60028932B9114A14321268B3
:101C90008A430F4B14331A600289012A06D10C4A79
:101CA000143212680A430A4B14331A60427B012A29
:101CB00006D1074A1C3212680A43054B1C331A60CE
:101CC000034A126822F00102014B1A6010BD0000A5
:101CD000006600401AB143690B43436102E0436967
:101CE0008B434361704730B50246002000231468DF
:101CF00024F002041460146844F00104146000E04D
:101D00005B1C546804F001041CB94FF6FF74A34235
:101D1000F6D1546804F001040CB900206CE08C7911
:101D2000012C04D1146844F08004146003E01468AA
:101D300024F080041460CC79012C04D1146844F0A0
:101D40004004146003E0146824F0400414600C7A2A
:101D5000012C04D1146844F02004146003E01468DA
:101D600024F0200414604C7A012C04D1146844F04F
:101D70001004146003E0146824F0100414608C7ADA
:101D8000012C04D1146844F00804146003E01468C2
:101D900024F008041460CC7A012C04D1146844F0B7
:101DA0000404146003E0146824F0040414608C78C4
:101DB000A407CD7844EA05640D7944EA05444D79D9
:101DC00044EA05540D886D1E2C43D461146824F038
:101DD00001041460002300E05B1C546804F001045B
:101DE0001CB14FF6FF74A342F6D1546804F001040D
:101DF0000CB1002000E0012030BD10B500F5D87313
:101E000003EB01131B6803F004031372137A53B935
:101E100000F5D87303EB01131B6840F2FF7404EA6A
:101E20005353136009E000F5D87303EB01131B68EB
:101E30006FF0604404EAD303536000F5D87303EBFA
:101E400001131B6803F00203537200F5D87303EB10
:101E500001135B6803F00F03937200F5D87303EB73
:101E600001135B681B0AD37400F5D87303EB0113ED
:101E70009B68D37200F5D87303EB01139B681C0AAF
:101E8000147300F5D87303EB01139B681C0C547397
:101E900000F5D87303EB01139B681B0E937300F5D9
:101EA000D87303EB0113DB68D37300F5D87303EB2E
:101EB0000113DB681C0A147400F5D87303EB0113DB
:101EC000DB681C0C547400F5D87303EB0113DB685A
:101ED0001B0E937421B9C36843F02003C36003E071
:101EE000036943F02003036110BD00218171C171BA
:101EF000017241728172C1728170C17003210171DE
:101F00000221417101210180704710B50246002075
:101F1000936803F08063B3F1806F00D110E09368A1
:101F200003F00063B3F1006F01D1012008E0936872
:101F300003F08053B3F1805F01D1022000E0042060
:101F4000042874D002F5C07303EB00131B6803F080
:101F5000010402F5C07303EB00131C600B7A7BB91C
:101F60004B7A0C8843EA445302F5C07404EB001426
:101F70002468234302F5C07404EB0014236010E0CE
:101F80000B7A4C6843EAC4034C7A234302F5C074CD
:101F900004EB00142468234302F5C07404EB00141E
:101FA00023608B7A03F00F038B7202F5C07303EB8F
:101FB00000135B6823F00F0402F5C07303EB0013FA
:101FC0005C6002F5C07303EB00135B688C7A2343FB
:101FD00002F5C07404EB001463608B7B1C064B7B22
:101FE00044EA03440B7B44EA0323CC7A234302F5FF
:101FF000C07404EB0014A3608B7C1C064B7C44EA89
:1020000003440B7C44EA0323CC7B234302F5C074D6
:1020100004EB0014E36002F5C07303EB00131B68CC
:1020200043F0010402F5C07303EB00131C6010BD04
:1020300010B50246002321B1012907D002290FD192
:1020400009E090681D4C00EA04030BE090681C4C0A
:1020500000EA040306E090681A4C00EA040301E079
:10206000002300BF00BF184C181BA34216D007DC8A
:1020700083B16FF08060184470B1022818D111E06C
:10208000B0F5007F10D0114C204448B1B0F5003FAE
:102090000ED10BE002230DE000230BE0002309E04A
:1020A000002307E0012305E0012303E0012301E011
:1020B000002300BF00BFD8B210BD00000300000421
:1020C0000003000800000310000100080001FFF7F2
:1020D00030B5A1B02B4800682B49086001212B487E
:1020E00000688C304FF0085202EB401080F87810F6
:1020F00027A013F0F9FE0D207623B0222CA100902A
:1021000001A812F0F1F801A800F074FF00BF00254B
:1021100012E01C4818F0CEF90446601C08B1052CEA
:1021200000D10BE005EB4501091D01AA88182246E4
:1021300023A112F0D9F86D1C082DEADB00BF002D99
:1021400002DD01A800F056FF14F068FF052CDED177
:10215000B0221DA101A812F0C7F801A800F04AFFA3
:1021600000210A4800688C304FF0085202EB401002
:1021700080F8781000200449086015A013F0B4FE20
:1021800021B030BD8C020020DC00002000000020C7
:102190000D0A2072656D6F746520636F6E736F6CCE
:1021A00065206F70656E2E2E2E200D0A3E000000F9
:1021B0003E25303358202530325820253032580003
:1021C00020253032580000003E25303358000000F2
:1021D0000D0A202E2E2E2E72656D6F746520636F92
:1021E0006E736F6C6520636C6F7365640D0A3E00DF
:1021F00010B502460B46002100BF04E052F8210052
:10220000034C2060491C9942F8D30148006810BD76
:1022100000300240012001498860704700300240D0
:10222000F1B586B0142101A8FEF757F808260DF184
:102230000F070699491C0846069105F04DF910B1A3
:10224000002007B0F0BD022106A819F038FA0446B4
:10225000042106A819F033FA2649098800EB014544
:10226000022106A819F02BFA06283ED2DFE800F07A
:102270000333343D35362048854201DA0020E0E75B
:10228000A22001903D6004208DF80E00002101A8DD
:10229000FFF778F9A3200190002617E0022106A895
:1022A00019F00DFAC2B23046761C0DF10F010A5436
:1022B000082E00D054B9F0B28DF80E00002664212B
:1022C00001A8FFF75FF908B10020BAE7201EA4F1CA
:1022D0000104E3D109E008E007E000BF042106A8FB
:1022E00019F0EDF90349086000BF00BF4FF0FF305F
:1022F000A7E7000000010020008000080FB430B5FF
:1023000089B01422424904A8FDF7CEFF0DA8019020
:102310004CE00198006802900198001D019002AC09
:1023200000250C9810F9011B0C90582923D008DCCB
:102330002E290DD045291BD049290FD0502924D151
:1023400013E063291BD069291DD077291DD118E01E
:10235000142204A80299FDF7A7FF16E02D48216872
:10236000016009B030BC5DF814FB402004900CE023
:102370004320049009E014F9010B049005E00125C5
:1023800003E0022501E0042500BF00BF0AE014F8C5
:10239000011B9DF81A20501CC0B28DF81A000DF1D7
:1023A0001B008154281EA5F10105F0D10C9800787E
:1023B0000028AED101901748006800B315480068A6
:1023C00014F096FE1349086013A0049913F08CFDD5
:1023D000002507E00DF11B00425D2E2111A013F036
:1023E00083FD6D1C9DF81A00A842F3DC0FA013F0CA
:1023F0007BFD0848006814F07BFE064908600C4924
:1024000009681422486804A913F03BFE00BFA8E73E
:1024100078C10108C4000020253032582E3C3C2EE3
:102420000000000025632530325800000D0A3E00F0
:102430005001002039B1084A1268012383401A4331
:10244000054B1A6006E0044A1268012383409A4350
:10245000014B1A60704700000074004010B5012164
:10246000480708F08DFF00214FF0005008F088FF6A
:1024700010BD000030B10749096841F00301054A69
:10248000116005E00349096821F00301014A116068
:10249000704700000474004008B501460020009019
:1024A000054800902C2000EB9100009A1044009009
:1024B0000098006880B208BD0074004030B500226A
:1024C00000230A4C226840F6FE748440A243D1E9FE
:1024D00000452C438D682C43CD6844EA050303FA7C
:1024E00000F42243014C226030BD00000074004023
:1024F00030B500240023082802D142EA012401E07B
:1025000042EA0144024B00F120052B441C6030BD1F
:10251000007400400021016041608160C16070472B
:1025200070B506460C4604F08000802808D104F0FF
:102530007F0000EB800106F58E7000EBC10507E01F
:1025400004F07F0000EB800106F55D7000EBC10533
:1025500004F07F00287004F08000C00968702946EC
:1025600030460FF085FE002070BD70B506460C4663
:1025700004F08000802808D104F07F0000EB800187
:1025800006F58E7000EBC10505E004EB840106F54D
:102590005D7000EBC1050020A87004F07F0028707A
:1025A000C4F3C0106870294630460FF039FE002091
:1025B00070BD70B505460C4604F08000802805D13A
:1025C00004F07F01284610F087F802E0284610F05A
:1025D0005DF8002070BD2DE9F04106460D4690469D
:1025E0001F4605F08000802808D105F07F0000EB31
:1025F000800106F58E7000EBC10407E005F07F0056
:1026000000EB800106F55D7000EBC10405F07F0072
:10261000207005F08000C0096070C4F80880E77081
:10262000607808B12078E080022F01D1002020716D
:10263000214630460FF0A8FD0020BDE8F0812DE9CD
:10264000F04105460E461746984606F07F0000EB1F
:10265000800105F55D7000EBC104E760C4F81480EB
:102660000020A061607006F07F002070E8780128EB
:1026700000D12761207820B9214628460FF0A8FC18
:1026800003E0214628460FF054FE0020BDE8F0810B
:1026900008B500220092009A61F30A1200920269C2
:1026A0001268009B1A4303691A6008BD70B506469C
:1026B0000C4604F08000802808D104F07F0000EB75
:1026C000800106F58E7000EBC10505E004EB840186
:1026D00006F55D7000EBC1050120A87004F07F00D5
:1026E0002870C4F3C0106870294630460FF0EFFD23
:1026F000002070BD2DE9F04107460D46164698466C
:1027000005F07F0000EB800107F58E7000EBC1043F
:102710000120607005F07F002070E66026610020D7
:10272000A061C4F81480207820B9214638460FF003
:102730004FFC03E0214638460FF0FBFD0020BDE8CA
:10274000F0811CB5044620460FF00DFCE068C0681F
:10275000009020460FF0EAFF03280BD10020A07064
:102760004FF40070A080009820F4705000F51050D5
:10277000009009E00120A0704020A080009820F483
:10278000705000F5A05000900098E168C8600020EB
:102790000190019820F4005000F50050019001983C
:1027A000E168486101201CBDF8B505460024002001
:1027B0000090284610F09CFA064690E006F00100D2
:1027C00000287DD0E1B2284600F002FB009000987E
:1027D00000F0010030B3012000FA04F72869406BD3
:1027E000B8432969486300200090009820F0010058
:1027F000401C009005F1180050F8240000998160F9
:10280000E1B239480068426828469047E8780128D4
:1028100008D13CB940F21110405D042802D128468D
:102820000FF081FC0098C0F3C00060B10020009060
:10283000009820F008000830009005F1180050F8CA
:102840002400009981600098C0F3001060B100205E
:102850000090009820F010001030009005F1180052
:1028600050F82400009981600098C0F3801060B196
:1028700000200090009820F040004030009005F1CA
:10288000180050F82400009981600098C0F34000BF
:1028900060B100200090009820F00200801C0090A1
:1028A00005F1180050F82400009981600098C0F3E9
:1028B000C01028B12146284600F09EFA002000E012
:1028C0000BE00090009820F080008030009005F12F
:1028D000180050F8240000998160641C7608002ECE
:1028E0007FF46CAF0120F8BD800300207CB5044666
:1028F000002500200190204610F002FA06466FE005
:1029000006F00100002869D0E9B2204610F000FA74
:102910000190019800F00100C8B3002001900198D7
:1029200020F00100401C019004F1540050F82500F3
:1029300001998160E078012817D104F1540050F822
:1029400025000069009005EB850104F55D7000EB42
:10295000C10080680099C1F31201411A05EB85029C
:1029600004F55D7000EBC2008161E9B21E480068A9
:10297000026820469047E078012808D13DB940F22E
:102980001110005D052802D120460FF0CCFB019804
:10299000C0F3400060B100200190019820F00200D7
:1029A000801C019004F1540050F8250001998160C9
:1029B0000198C0F3C00088B10B48006881682046C8
:1029C000884700200190019820F00800083001900D
:1029D00004F1540050F82500019981606D1C7608BF
:1029E000002E8DD101207CBD800300203EB5044621
:1029F000A07A70B1D4F80C010090009820F0020089
:102A00000090009820F0010000900099D4F80C018B
:102A1000016000200190019820F00100401C01900D
:102A20002069406801998843216948600848006826
:102A300081692046884700200290029820F00040DB
:102A400000F1004002900298E168486101203EBD1B
:102A5000800300207CB5044600200190019820F0FE
:102A6000100010300190E068806901998843E168A6
:102A70008861E068006A0090009800F00F0000EBA9
:102A8000800104F55D7000EBC1050098C0F3434080
:102A900007282DD2DFE800F02C04051D1E2C1F0096
:102AA00027E00098C0F30A1090B10098C0F30A1212
:102AB0002046E96810F052F9E8680099C1F30A115C
:102AC0000844E860A8690099C1F30A110844A861A4
:102AD0000FE00EE00DE0082204F2CC51204610F089
:102AE0003DF9A8690099C1F30A110844A86100E002
:102AF00000BF00BFE068806901990843E168886110
:102B000001207CBD38B5044608480068C1682046ED
:102B1000884700200090009820F0080008300090BE
:102B20000098E1684861012038BD00008003002062
:102B30001FB50446002000904FF48970005D00909E
:102B400023480068416920468847206980680190D1
:102B500000200390039820F4006000F500600390CB
:102B60000398E1684861A07A70B3019800F0010011
:102B700050B340F21510005D012825D19DF80000EA
:102B8000032821D100200290029820F00100401C6F
:102B90000290D4F80C01006802990843D4F80C1193
:102BA0000860029820F00200801C0290D4F80C010A
:102BB000006802990843D4F80C11086005480068C1
:102BC00040F0060003490860012004B010BD000079
:102BD0008003002010ED00E030B587B004460020EF
:102BE000029006900590049003900190029820F0C6
:102BF0000100401C029020694068029988432169C5
:102C00004860002120460FF067FD00250BE0FF2102
:102C100004F1180050F82500816004F1540050F8C8
:102C2000250081606D1C6078A842F0D84FF0FF311C
:102C30002069816106986FF30F00401C069006988A
:102C400080B200F58030069006992069C161059830
:102C500020F0080008300590059820F00100401C85
:102C60000590059820F00200801C059005992069C8
:102C70004161049820F00100401C0490049820F069
:102C8000080008300490049820F00200801C049092
:102C9000049920690161206900680390039820F479
:102CA000FE60039003992069016020460FF03BFA13
:102CB00000200190019820F4805000F58050019090
:102CC0000198E16848610448006801692046884726
:102CD000012007B030BD0000800300202DE9F04145
:102CE00006460F463946304610F06CF801214FF485
:102CF000897081550021801C8155002511E005EB6C
:102D0000850106F58E7000EBC1040120607025700E
:102D1000E5800020E0704020A0600020E06060615D
:102D20006D1C7078A842EAD8002510E005EB8501FB
:102D300006F55D7000EBC104002060702570E58031
:102D4000E0704020A0600020E06060616D1C707841
:102D5000A842EBD830460FF0C7F830460EF089FE97
:102D60000021304610F096F830460EF015FF304640
:102D70000FF041FCBDE8F08138B50446002000901A
:102D800007480068C16920468847009820F48010F1
:102D900000F5801000900098E1684861012038BD7E
:102DA0008003002038B504460020009007480068E2
:102DB000016A20468847009820F4001000F50010B2
:102DC00000900098E1684861012038BD8003002030
:102DD00030B5024615692B6915696C6B24FA01F54B
:102DE00005F0010543EAC51302F1180555F8215015
:102DF000AD6805EA030030BD2DE9F84306460F46ED
:102E000000250020009007EB870106F58E7000EB8F
:102E1000C104D4E90501451AA068A84200D2A568FA
:102E2000E81C4FEA900806F1180050F82700806966
:102E300000902AE0D4E90501451AA068A84200D212
:102E4000A568E81C4FEA9008ABB2FAB23046E168D8
:102E500010F030FFE0682844E060A0692844A061D9
:102E6000D4E9051088420AD32178012000FA01F93B
:102E70003069406B20EA09003169486310E006F1CF
:102E8000180050F8270080690090009880B24045F3
:102E900006D9D4E90510884202D260690028C9D158
:102EA00000BF0120BDE8F88310B500200BF0D6F973
:102EB00010BD00000246094B9A4201D2084801E0C9
:102EC0000648103801F000531BB1064B0B40C3609D
:102ED00002E0044B0B408360704700001064024026
:102EE000006002407D0F7D0F0246094B9A4201D2DD
:102EF000084801E00648103801F000531BB1064BAA
:102F00000B40C36002E0044B0B408360704700003D
:102F100010640240006002407D0F7D0F21B1026805
:102F200042F00102026003E0026822F00102026046
:102F300070477047014600200A6802F001020AB19A
:102F4000012000E0002070470146486880B27047C9
:102F500010B501F080034BB122B1436943F0800307
:102F6000436103E0436923F08003436180290BD070
:102F70002AB1036801F01E042343036004E00368E0
:102F800001F01E04A343036010BD000010B5002231
:102F90000268134B1A40CC680B6823434C692343E7
:102FA0008C692343CC6923430C6A23434C6A234333
:102FB0008C6A23434C6B23438C6B23431A4302607C
:102FC000426922F00702D1E90B3423431A434261DC
:102FD0000B6943604B6883608B68C36010BD000061
:102FE0003F801CF00AB1016100E0C16070474160A0
:102FF0007047704711B5A5B0259820B9FAA012F016
:1030000073FF02F025BB259890F9000053287DD06E
:103010003DDC3C287BD021DC2E2879D011DC242813
:1030200002F0DF8106DC212802F0B381232842F080
:103030000C83E6E22B2802F0ED822D28F7D102F076
:10304000E2BA302802F0FB82312802F0F9823228FD
:1030500002F0F7823A28EAD101F0A3BC42285ED000
:103060000BDC3D2802F0E4823E2875D03F2802F0B8
:10307000D8824028DBD102F0BFBA44286DD049285D
:1030800001F025824C2869D05028D0D181E35538F1
:10309000242882F0DA82DFE810F026112500720081
:1030A000AD0CD812D812D812D812D812D812D81201
:1030B000D812740A6005D8120105630C0B0DD812E2
:1030C000D812F508D812D812D812D812D812D8129D
:1030D0007D03CE0516028307D00C6B0E240064021C
:1030E000850C00BF0121080308F01AF9FFF792F8D8
:1030F000BE48BF49081A800801461790BB48FFF731
:1031000077F81890BBA30222042102E08FE01DE1B2
:10311000CAE00090BAA012F0E7FE02F098BA259833
:10312000401C25902C221CA9189018F0DBFA1A904C
:103130001A9808B31A98012811DD1D981022002151
:103140001890FDF732F944B21C9810220021189013
:10315000FDF72BF904700EE072E16CE03BE01C9887
:10316000102200211790FDF720F9007801461890F1
:10317000A8A012F0B9FED0E7012026B010BD259816
:10318000401C25902C221CA9189018F0ABFA1A901C
:103190001A98F0B11A9801280EDD1D98102200210E
:1031A0001890FDF702F904B21C9810220021189023
:1031B000FDF7FBF804800BE01C981022002117900B
:1031C000FDF7F3F800880146189094A012F08CFEE9
:1031D000A3E70120D1E72598401C25902C221CA9AB
:1031E000189018F07FFA1A901A98F0B11A980128DE
:1031F0000EDD1D98102200211890FDF7D6F8044628
:103200001C98102200211890FDF7CFF804600BE005
:103210001C98102200211790FDF7C7F8006801469E
:10322000189080A012F060FE77E70120A5E72598AE
:1032300017F0C6FEA1E72598401C25902C221CA95A
:10324000189018F04FFA1A901A98022801DA012003
:1032500093E71A98032815D11E980078692811D190
:103260001D984FF0FF31189016F0B8FF1A901C9877
:103270004FF0FF31179016F0B1FF18901A9917F020
:103280001FFA10E01D984FF0FF31189016F0A6FFBE
:103290001A901C984FF0FF31179016F09FFF18906E
:1032A0001A9917F04FFE38E71422604914A8FCF76A
:1032B000FBFF2598401C25900078E8B30020139070
:1032C00015E02599139808440221119016F086FF05
:1032D000C1B21398129000EBD07042100DF15B0058
:1032E00081541398401C13901398401C13902598F8
:1032F000FDF720F813998842E3D81398129000EB59
:10330000D070C0F347008DF85A00002202214848CF
:10331000FEF7E0FC474800680068142214A91290E8
:1033200012F0AFFE012202214148FEF7D3FC4248D1
:1033300000680146129000E003E040A0FEF7DEFFC7
:1033400003E000213DA0FEF7D9FFE6E6142114A812
:10335000FCF7C3FF2598401C2590102225A9139047
:10336000FDF723F81490149808B9032005E700BF6F
:1033700002E02598401C2590259800782028F8D058
:1033800000208DF85A0010E0102225A92598FDF79D
:103390000CF8C1B29DF85A200DF15B0081549DF8E4
:1033A0005A00401CC0B28DF85A002598007818B118
:1033B0009DF85A000828E7DB002202211C48FEF78E
:1033C00089FC1C4800680068142214A9139012F0AC
:1033D00058FE012202211648FEF77CFC2598007851
:1033E0000028C5D199E600000D0A3E000000000843
:1033F000000004084F63742031372032303230002F
:103400002025642E253032642025732C203C253065
:1034100038583E002C253032580000002C2530341E
:10342000580000002C25303858000000ACC10108BD
:1034300000680040500100208C020020490000007C
:10344000142114A8FCF749FF2598401C2590102250
:1034500025A91390FCF7A9FF1490149808B903202C
:103460008BE600BF02E02598401C25902598007847
:103470002028F8D000208DF85A0010E0102225A94D
:103480002598FCF792FFC1B29DF85A200DF15B0020
:1034900081549DF85A00401CC0B28DF85A002598FE
:1034A000007818B19DF85A000828E7DBFE4800684C
:1034B0004068142214A9139012F0E3FD25980078B7
:1034C0000028CFD129E62598401C25902C221CA944
:1034D000189018F007F91A901A98E0B31A98012872
:1034E00005DD1D981890FCF7D1FF1B9001E001202D
:1034F0001B901C984FF0FF31189016F06FFE1A9039
:103500001A98FF2809DD4FF47F411A9801EA00203C
:103510001A99C1F3072108431A901AA9E3481B9A84
:10352000006817F027FC20B90421E1A012F0DCFCB0
:1035300014E0E4A012F0D8FC1B98C10001208840E0
:10354000401E1A99084018901B9840001790014699
:10355000DDA0189A00E002E012F0C6FCDDE50120D3
:103560000BE62598401C25902C221CA9189018F0D9
:10357000B9F81A901A98022840D11C984FF0FF31E0
:10358000189016F02BFE1A901A98FF2814DD4FF4AD
:103590007F411A9801EA00201A99C1F307210843D4
:1035A0001A901D984FF0FF31189016F017FE1A99D7
:1035B00041EA00401A9009E01D984FF0FF31189041
:1035C00016F00CFE1A9941EA00201A901C981790E8
:1035D000FCF7B0FE44081D981790FCF7ABFE04EB17
:1035E000500002461AA91890B048006818F032FD41
:1035F00030B90421AEA012F077FC01E00120BCE557
:103600008BE52598401C25902C221CA9189018F0B9
:1036100069F81A901A98A0B900201A900CE00020BE
:10362000AB491A9A01EB82014880A9491A9A21F8FC
:1036300022001A98401C1A901A98B0F5806FEEDBA1
:103640006BE51A9802287DD101201A9098E0A048D5
:103650001A9930F82100E0BB1C981890FCF716FF6F
:10366000401D0A2190FBF1F000EB80004000002893
:103670000BDD1C981890FCF709FF401D0A2190FBF8
:10368000F1F000EB8000400000E0002000B2904923
:103690001A9A21F822001D981890FCF7F7FE0028CE
:1036A00004DD1D981890FCF7F1FE00E0002000B248
:1036B00087491A9A01EB8201488085481A9930F9A6
:1036C00021000990FDF777F8CDE90C0180481A999F
:1036D00000E052E000EB8100B0F902000790FDF736
:1036E0006AF89FED7C1BCDE908019DED080B11F0F8
:1036F000D7FC8DED0A0B9DED0C0B53EC102B9DEDC3
:103700000A0B51EC100BFCF775FF9FED740B53EC9B
:10371000102BCDE90E019DED0E0B51EC100BFCF7BB
:10372000DBFF9FED700B53EC102BCDE910019DEDED
:10373000100B51EC100BFCF7B6FECDE914016448F8
:10374000006800E023E01190FDF735F8CDE91201A3
:103750009DED140B53EC102B9DED120B51EC100B47
:10376000FCF7A1FECDE916019DED160B51EC100BF7
:10377000FDF73FF85649086007E01A98401C1A9078
:103780001A98B0F5806FFFF662AF00BFC5E4012064
:10379000F3E400BF2598401C25902C221CA918900A
:1037A00017F068F91A901A98E8BB50480068B0F909
:1037B00076000B90FCF7FFFF9FED4D0B53EC102BA9
:1037C000CDE90C019DED0C0B51EC100BFCF712FF39
:1037D0009FED490B53EC102BCDE90E019DED0E0B27
:1037E00051EC100BFCF778FF9FED450B53EC102BC1
:1037F000CDE910019DED100B51EC100BFCF76CFFA7
:103800009FED410B53EC102BCDE912019DED120BF6
:1038100051EC100BFCF760FF9FED320B53EC102BBB
:10382000CDE9140100E0AAE09DED140B51EC100B62
:10383000FCF739FECDE916019DED160B51EC100B8E
:10384000FCF7D7FF294909680968B1F90C1048430A
:103850004FF4167190FBF1F018902448006800684E
:10386000B0F906001790014629A0189A12F03CFB07
:103870001E4800680068C08A20B91C4800680068BB
:10388000008B78B1194800680068008B00EE100AC0
:10389000F8EE400AB2EE041A80EE810A8DED130AAA
:1038A000139849E06AE00000500100203402002033
:1038B000202E2E2E493243206572726F72282530D9
:1038C000325829002C00000025302A580000000042
:1038D0000C0800200000000000000840000000006C
:1038E000006A1841000000000000E03F00000020D6
:1038F0006666666666660A40000000000000B0402A
:10390000000000000000F03FDEA3EA60F09A6E3F86
:103910000D3E7028756C7365292020542C5520208D
:103920002020202020202020202E2E2E20256475CF
:10393000732C256456000000FCF793FFCDE91601B7
:10394000FE4800680068C08A00EE100AF8EE400ADF
:10395000B2EE041A80EE810A8DED130A1398FCF77B
:1039600080FFCDE91401DDE91601CDE900019DEDEF
:10397000140B53EC102BF2A012F0B6FA28E41A98AC
:10398000002808DD1C981890FCF780FD00B2EB4978
:1039900009680968C8801A9801281CDD1D981390D1
:1039A00011F062FB8DED140B9FEDF00B53EC102B1F
:1039B0009DED140B51EC100BFCF71CFECDE916012C
:1039C0009DED160B51EC100BFCF713FF00B2DB4919
:1039D0000968096888801A98032809D11E981890E8
:1039E000FCF754FD40B2D54909680968887210E0B7
:1039F0002598401E25900078502805D10720CF49F2
:103A000009680968887204E00120CC4909680968DE
:103A100088721A9804283CD11E98139011F024FB48
:103A20008DED140B9FEDD10B53EC102B9DED140B72
:103A300051EC100BFCF7DEFDCDE916019DED160BE8
:103A400051EC100BFCF7F4FEBC4909680968C88208
:103A50001F98139011F008FB8DED140B9FEDC30B15
:103A600053EC102B9DED140B51EC100BFCF7C2FD29
:103A7000CDE916019DED160B51EC100BFCF7D8FEAD
:103A800081B2AE48006800680183AC48006806F067
:103A9000C1F8AA48006808F065FC04E42598401CB9
:103AA00025902C221CA9189016F0E4FF1A901A9861
:103AB00010BBA24800680068B0F90E0000EE100AC2
:103AC000F8EEC00A9FEDAB1A80EE810A8DED150A63
:103AD0001598FCF7C6FECDE9160198480068006805
:103AE000B0F9100015909DED160B53EC102B01460C
:103AF000A1A012F0F9F928E41A98002808DD1C9812
:103B00001890FCF7C3FC00B28C4909680968088268
:103B10001A9801281CDD1D98139011F0A5FA8DED5F
:103B2000140B9FED9F0B53EC102B9DED140B51ECE0
:103B3000100BFCF75FFDCDE916019DED160B51EC66
:103B4000100BFCF756FE00B27C4909680968C88171
:103B50007A48006808F006FC44E42598401C25904B
:103B60002C221CA9189016F085FF1A901A98C0B93B
:103B7000724800680068B0F9080018906F48006843
:103B80000068B0F9020017906C4800680068B0F94E
:103B900000001690014684A0DDE9172312F0A4F975
:103BA00020E41A9800280FDD1C981890FCF76EFC92
:103BB000002809DD1C981890FCF768FC00B25F49EA
:103BC00009680968088001E0022049E41A98012880
:103BD00008DD1D981890FCF759FC00B25749096898
:103BE000096848801A98022808DD1E981890FCF78A
:103BF0004DFC00B251490968096808811A980328E8
:103C000010DD1F981890FCF741FC4C4909680866C4
:103C100000214A4800688C304FF0085202EB4010F7
:103C2000017703E0002145480068016643480068C9
:103C300008F098FB46E42598401C25902C221CA9EE
:103C4000189016F017FF1A901A98E8BB61A012F0AE
:103C50004BF900201990E5E038480068B0F976008B
:103C60000B90FCF7A8FD1FEDDE0B53EC102BCDE9FC
:103C70000C019DED0C0B51EC100BFCF7BBFC1FED88
:103C8000E20B53EC102BCDE90E019DED0E0B51EC28
:103C9000100BFCF721FD1FEDE60B53EC102BCDE9CB
:103CA00010019DED100B51EC100BFCF715FD1FEDF5
:103CB000EA0B53EC102BCDE912019DED120B51ECE8
:103CC000100BFCF709FD00E0B9E01FEDFA0B53EC17
:103CD000102BCDE914019DED140B51EC100BFCF7EA
:103CE000E2FBCDE916019DED160B51EC100BFCF734
:103CF00080FD199901EB81013E4A02EB4101B1F9C6
:103D00000210484300F596704FF4167190FBF1F0E5
:103D10001890199800EB8000114601EB4000B0F9B3
:103D20000800199901EB810102EB4101B1F906107C
:103D3000CDE90010199800EB80005DE00000002044
:103D40000D0A3E71287377636829202064656C61D1
:103D5000792C77696474682020202E2E2E20252E41
:103D6000316675732C252E316675730000000000D6
:103D700000002440000016440D3E6428656C617903
:103D8000292020542C505720202020202020202083
:103D9000202E2E2E20256475732C252E32660000D1
:103DA0000000000000C082400D3E622875727374EE
:103DB0002920204E2C6C656E2C70657220202020EE
:103DC000202E2E2E2025642C256475732C25646DE1
:103DD000730000000D3E71287368617065292077BB
:103DE0002C552C74642C746F2C74726566202E2EE6
:103DF0002E000000BC070020114601EB4000B0F986
:103E000004001790199800EB8001104630F911005A
:103E100016900146FBA0DDE9173212F065F81998FB
:103E2000401C1990199800EB8000FB4901EB400001
:103E3000008918B119980828FFF60EAFA6E41A9861
:103E400005287DD10020199002E01998401C199096
:103E5000199800EB8001F04800EB4100008968B13F
:103E600020981890FCF712FB199901EB8101EA4A9E
:103E700002EB4101B1F908108842E6D11C98189074
:103E8000FCF704FB01B2199800EB8000E24A22F82B
:103E900010101D981890FCF7F9FA4FF4167100FBFA
:103EA00001F4DE480068B0F976000B90FCF783FC63
:103EB0009FEDDB0B53EC102BCDE90C019DED0C0BB2
:103EC00051EC100BFCF796FB9FEDD70B53EC102B2E
:103ED000CDE90E019DED0E0B51EC100BFCF7FCFB38
:103EE0009FEDD30B53EC102BCDE910019DED100B82
:103EF00051EC100BFCF7F0FB9FEDCF0B53EC102BAC
:103F0000CDE912019DED120B51EC100BFCF7E4FB17
:103F10009FEDCB0B53EC102BCDE914019DED140B51
:103F200051EC100BFCF7BFFACDE916019DED160B15
:103F300051EC100BFCF75DFC94FBF0F001B200E0DB
:103F40002BE0199800EB8000B34A02EB400041805F
:103F50001E981890FCF79AFA01B2199800EB8000AD
:103F6000AD4A02EB400081801F981890FCF78EFA52
:103F700001B2199800EB8000A74A02EB4000C18013
:103F800020981890FCF782FA01B2199800EB800093
:103F9000A14A02EB4000018101E0012015E6EDE4B9
:103FA0002598401C25902C221CA9189016F062FD23
:103FB00005287DD2DFE800F003323F65AB0097486B
:103FC0000068B0F946003C2190FBF1F0189093484E
:103FD0000068B0F9440090FBF1F017908F4800683A
:103FE000B0F842004FF47A7110FB01F03C2190FBD5
:103FF000F1F0169089480068B0F840004FF47A71EB
:1040000010FB01F03C2190FBF1F015901898009006
:104010008DA015A90EC911F067FF31E11C9817900A
:10402000FCF734FA00F00300014618907B48006862
:1040300005F0E0FB24E11C981890FCF727FAC0EB90
:10404000001080004FF47A7190FBF1F000B27349D8
:104050000968A1F840001D981890FCF717FAC0EB0A
:10406000001080004FF47A7190FBF1F001B26B48C0
:104070000068A0F8421000216848006808F07AF94A
:10408000FEE01C981890FCF701FAC0EB00108000CD
:104090004FF47A7190FBF1F000B260490968A1F821
:1040A00040001D981890FCF7F1F9C0EB001000E0FB
:1040B000E4E080004FF47A7190FBF1F001B25748D0
:1040C0000068A0F842101E981890FCF7DFF90A2843
:1040D00005DB1E981890FCF7D9F9642801DD022051
:1040E00073E51E981890FCF7D1F9C0EB0010800022
:1040F00001B24A480068A0F8461048480068A0F895
:10410000441000214548006808F034F9B8E04348FD
:1041100000688C304FF0085101EB401090F82C00F3
:1041200048B93E4800688C3001EB401090F83000F0
:1041300008B9012049E51C981890FCF7A7F9B0F5DB
:10414000FA7F1EDC1D981890FCF7A0F9B0F5FA7FF5
:1041500017DC1E981890FCF799F90A2811DB1E98B5
:104160001890FCF793F964280BDC1F981890FCF763
:104170008DF90A2805DB1F981890FCF787F9642849
:1041800001DD022021E51C981890FCF77FF9C0EBB7
:10419000001080004FF47A7190FBF1F000B21F49DB
:1041A0000968A1F840001D981890FCF76FF9C0EB62
:1041B000001080004FF47A7190FBF1F001B21748C3
:1041C0000068A0F842101E981890FCF75FF9C0EB49
:1041D0000010800001B211480068A0F844101F9838
:1041E0001890FCF753F9C0EB0010800001B20B48A7
:1041F0000068A0F8461000210848006808F0BAF8E6
:104200003EE000000D0A25642C25642C25642C2535
:10421000642C256400000000BC0700200000002082
:104220006666666666660A40000000000000B040F0
:10423000000000000000F03FDEA3EA60F09A6E3F4D
:10424000000000000000E03F0D3E7328696D6D65C1
:104250007229206E202F2F2074312C74322C66315D
:104260002C66322E2E25646E732C25646E732C25DD
:104270006475732C25647573000000000120A4E4AC
:1042800000BF0AE42598401C25902C221CA91890F8
:1042900016F0F0FB20B102287BD003287AD1E0E0B1
:1042A000FCA011F021FEFC4800680068B0F9120083
:1042B000C0EB001000EB80004FF4006101EB001038
:1042C0001690F54800680068B0F91400C0EB0010C3
:1042D00000EB80014FF4006000EB01101790EE48F6
:1042E0000068B0F94800C0EB001000EB80004FF40C
:1042F000006101EB0010C117189000EB1150001382
:1043000015901798C11700EB1150001314901698D0
:10431000C11700EB1150001313900146DFA0DDE937
:10432000142311F0E1FDE94800680990FCF754FA04
:104330001FED450B53EC102BCDE90A019DED0A0B47
:1043400051EC100BFCF756F91FED490B53EC102BF9
:10435000CDE90C019DED0C0B51EC100BFCF7BCF9F9
:104360001FED4D0B53EC102BCDE90E019DED0E0B07
:1043700051EC100BFCF7B0F91FED510B53EC102B67
:10438000CDE910019DED100B51EC100BFCF7A4F9D9
:1043900001E077E097E01FED560B53EC102BCDE9D1
:1043A00012019DED120B51EC100BFCF77CF8CDE9DE
:1043B00014019DED140B51EC100BFCF71AFA189038
:1043C000C348D0F828020990FCF706FA1FED6C0BE1
:1043D00053EC102BCDE90A019DED0A0B51EC100BAB
:1043E000FCF708F91FED700B53EC102BCDE90C0115
:1043F0009DED0C0B51EC100BFCF76EF91FED740BDF
:1044000053EC102BCDE90E019DED0E0B51EC100B72
:10441000FCF762F91FED780B53EC102BCDE910017E
:104420009DED100B51EC100BFCF756F91FED7C0BBA
:1044300053EC102BCDE912019DED120B51EC100B3A
:10444000FCF731F8CDE914019DED140B51EC100B84
:10445000FCF7CFF9179001469EA0189A11F044FD81
:1044600033E01E981890FCF711F84FF4167101EB29
:104470000030490090FBF1F001B287480068A0F8D5
:10448000481000BF1C981890FCF700F84FF4167104
:1044900001EB0030490090FBF1F000B27E49096861
:1044A000096848821D981890FBF7F0FF4FF41671C9
:1044B00001EB0030490090FBF1F001B27648006852
:1044C0000068818201E0012068E500BFB6E425981C
:1044D000401C25902C221CA9189017F003F910B14C
:1044E00002284AD128E01020FDF7D6FF00EBC001DA
:1044F00001EB001040F2FF7101EB800040F6FF710C
:1045000090FBF1F018900020FDF7C6FF00EBC00112
:1045100001EB001040F2FF7101EB800040F6FF71EB
:1045200090FBF1F0179025200090024674A0DDE981
:10453000171311F0D9FC22E01C981690FBF7A6FF88
:10454000C0EB00303230642190FBF1F080B2189063
:104550001D981690FBF79AFFC0EB003032306421B3
:1045600090FBF1F080B2179001460020189AFDF7F9
:10457000BFFF0120FDF77EFF01E001200EE500BF37
:104580005CE42598401C25902C221CA9189016F05C
:1045900071FA00287DD1644800880790FCF70BF978
:1045A0001FEDE10B53EC102BCDE908019DED080B3D
:1045B00051EC100BFCF71EF81FEDE50B53EC102B24
:1045C000CDE90A019DED0A0B51EC100BFCF784F8C4
:1045D0001FEDE90B53EC102BCDE90C019DED0C0BFD
:1045E00051EC100BFCF778F81FEDED0B53EC102B92
:1045F000CDE90E019DED0E0B51EC100BFCF76CF8A4
:104600001FEDF10B53EC102BCDE910019DED100BBC
:1046100051EC100BFBF747FFCDE912019DED120B9A
:1046200051EC100BFCF7E5F8169040480088079015
:10463000FCF7C1F89FED3E0B53EC102BCDE90801C0
:104640009DED080B51EC100BFBF7D4FF9FED3A0BDF
:1046500053EC102BCDE90A019DED0A0B51EC100B28
:10466000FCF73AF89FED360B53EC102BCDE90C011B
:104670009DED0C0B51EC100BFCF72EF89FED320B5F
:1046800053EC102BCDE90E019DED0E0B51EC100BF0
:104690005EE061E10D0A00000000002063757272A7
:1046A000656E74206C696D697473286C2F6829209D
:1046B00020202020202020202E2E2E202564412C5A
:1046C0002564412C2564410D0A000000242201408C
:1046D00000200140766F6C74616765206C696D69BC
:1046E0007473286C2F68292020202020202020206F
:1046F0002E2E2E202564562C2564560D0A0000000F
:104700000D3E69284441432920202069312C69321B
:104710002020202020202020202E2E2E2025642521
:10472000632C256425630000240100202001002063
:104730006666666666660A40000000000000B040DB
:10474000000000000000F03FDEA3EA60F09A6E3F38
:10475000FBF7C2FF9FEDFA0B53EC102BCDE91001D4
:104760009DED100B51EC100BFBF79DFECDE91201F6
:104770009DED120B51EC100BFCF73BF81590F24835
:104780004188F248D0F8540F081AC0EB001000EB33
:1047900080004FF4006101EB00101790EC48418855
:1047A000EA48D0F8580F081AC0EB001000EB80015F
:1047B0004FF4006000EB0110C117189000EB11508E
:1047C000001300901798C11700EB115000131490BC
:1047D0000246E0A0DDE9151311F086FBDB48D0F8B6
:1047E000500F0790FBF7E7FF1FED2F0B53EC102B3B
:1047F000CDE908019DED080B51EC100BFBF7FAFE1B
:104800001FED330B53EC102BCDE90A019DED0A0B84
:1048100051EC100BFBF760FF1FED370B53EC102B27
:10482000CDE90C019DED0C0B51EC100BFBF754FF87
:104830001FED3B0B53EC102BCDE90E019DED0E0B44
:1048400051EC100BFBF748FF9FEDBD0B53EC102B09
:10485000CDE910019DED100B51EC100BFBF723FE81
:10486000CDE912019DED120B51EC100BFBF7C1FFCE
:104870001690B648D0F84C0F0790FBF79CFF1FED41
:10488000540B53EC102BCDE908019DED080B51ECB6
:10489000100BFBF7AFFE1FED580B53EC102BCDE9BF
:1048A0000A019DED0A0B51EC100BFBF715FF1FEDF4
:1048B0005C0B53EC102BCDE90C019DED0C0B51EC76
:1048C000100BFBF709FF1FED600B53EC102BCDE92C
:1048D0000E019DED0E0B51EC100BFBF7FDFE9FED55
:1048E000980B53EC102BCDE910019DED100B51EC02
:1048F000100BFBF7D8FDCDE912019DED120B51EC29
:10490000100BFBF776FF15909048D0F8540FC0EBD2
:10491000001000EB80004FF4006101EB00101790D5
:104920008A48D0F8580FC0EB001000EB800001EB74
:104930000010C117189000EB115000130090179849
:10494000C11700EB11500013149002468DA0DDE951
:10495000151311F0C9FA01E0012013E400BF90E43F
:104960002598401C25902C221CA9189016F082F83E
:104970001A9010E01CA81A9950F821001890FBF723
:1049800085FD81008B48006884304FF0085202EBAF
:104990004010012242541A99481E1A900029E9D168
:1049A0006FE46EE42598401C25901890FBF76EFD8F
:1049B000012804D0022808D0042812D10BE00021DD
:1049C0007C48006880F84C100DE0012179480068AF
:1049D00080F84C1007E002217648006880F84C10FF
:1049E00001E001204BE400BF00217248006807F09D
:1049F000C1FC46E42598401C25901890FBF746FD25
:104A0000012804D0022808D0042812D10BE000208D
:104A100068490968096808770DE001206549096857
:104A20000968087707E00220624909680968087781
:104A300001E0012023E400BF23E45F481890801CBC
:104A400017905E48FCF779FD5D49022012F05CFB8F
:104A500014215A48FCF7F9FB40F6E4414843C117DA
:104A6000169000EB11500013A0F53E7080000A2153
:104A700090FBF1F01930142115905048FCF7E5FB3C
:104A80001899B1F90010401A00EB80000101179845
:104A9000B0F900201898B0F90000101A91FBF0F05E
:104AA0001E301490014647A0159A11F01DFA0DE52D
:104AB0002598401C25902C221CA9189015F0DAFF8F
:104AC0001A901A98D0BB3B4800688C304FF00851C0
:104AD00001EB401090F82C0088B3022002F024FF74
:104AE0001190FBF768FE9FED390B53EC102BCDE9CD
:104AF00012019DED120B51EC100BFBF7EDFDCDE912
:104B0000160134480068642190FBF1F0159032489A
:104B1000006890FBF1F01490DDE91601CDE9040185
:104B200025202E490968CDE9000102902C48036830
:104B30002CA0DDE9141211F0D7F9F6E0F6E06FE0F1
:104B4000000000000000E03F20010020CC600120B8
:104B50002401002020200D3E6128646329202020AC
:104B60002055312C49312C55322C49322020202E11
:104B70002E2E202564562C2564412C2564562C2588
:104B8000644100000A0D3E61286463292020202032
:104B900069646C65202020202020202020202E2EDB
:104BA0002E202564562C2564412C2564562C256422
:104BB00041000000000000202C7AFF1F002001406F
:104BC0001D7001082025642C2025640000000000D1
:104BD00000005940EC000020E8000020E400002024
:104BE000E00000200D3E6628616E29202020546CD4
:104BF0002C54682C6D696E2C6D61782C542E2E2EE1
:104C00002025642C2533642C25336425632C25331F
:104C10006425632C202D2D202C25352E3166000097
:104C2000FE4800688C304FF0085101EB401090F8BE
:104C3000300058B3012002F077FE1190FBF7BBFD66
:104C40001FED1E0B53EC102BCDE912019DED120B45
:104C500051EC100BFBF740FDCDE91601F048006860
:104C6000642190FBF1F01590EE48006890FBF1F0A4
:104C70001490DDE91601CDE904012520EA4909680F
:104C8000CDE900010290E948036800E005E0E8A0F2
:104C9000DDE9141211F028F947E0022002F044FE89
:104CA0000F90FBF788FD1FED370B53EC102BCDE970
:104CB00010019DED100B51EC100BFBF70DFDCDE934
:104CC0001601012002F030FE0F90FBF774FD1FED7E
:104CD000410B53EC102BCDE910019DED100B51EC65
:104CE000100BFBF7F9FCCDE91401CD4800686421F5
:104CF00090FBF1F01390CB48006890FBF1F012901C
:104D0000DDE91601CDE90601DDE91401CDE9040173
:104D10002520C5490968CDE900010290C348036810
:104D2000D2A0DDE9121211F0DFF82FE31A9804285F
:104D30001CD11C981890FBF7A9FB64214843B94982
:104D400008601D981890FBF7A1FB64214843B44903
:104D500008601E981890FBF799FBB44908601F98EB
:104D60001890FBF793FBB04908600FE3012005E4BE
:104D700000201890179016902598401C25902C2202
:104D80001CA9159015F076FE30B101287ED00228BE
:104D90007DD003287CD10AE1C3484089A0F580502A
:104DA00000EBC00080000C2190FBF1F00390FBF7BA
:104DB00002FD9FEDBE0B53EC102BCDE904019DEDE0
:104DC000040B51EC100BFBF715FC9FEDBA0B53ECE9
:104DD000102BCDE906019DED060B51EC100BFBF7F6
:104DE0007BFC9FEDB20B53EC102BCDE908019DED40
:104DF000080B51EC100BFBF756FBCDE90A019DEDBA
:104E00000A0B51EC100BFBF757FD0D90FBF729FD3A
:104E1000CDE91401A448008900EB800001010C20B9
:104E200091FBF0F00590FBF7C6FC9FEDA00B53EC57
:104E3000102BCDE906019DED060B51EC100BFBF795
:104E4000D9FB9FED9C0B53EC102BCDE908019DED98
:104E5000080B51EC100BFBF73FFCCDE90A019DED6F
:104E60000A0B51EC100BFBF727FD0D90FBF7F9FC3B
:104E7000CDE912018C4880880190FBF7ADFC9FEDD5
:104E80008F0B53EC102BCDE9020102E09BE094E084
:104E90009FE09DED020B51EC100BFBF7ABFB9FED80
:104EA000890B53EC102BCDE904019DED040B51EC63
:104EB000100BFBF711FC9FED7D0B53EC102BCDE994
:104EC00006019DED060B51EC100BFBF793FB9FEDDC
:104ED000790B53EC102BCDE908019DED080B51EC3B
:104EE000100BFBF7F9FBCDE90A019DED0A0B51EC24
:104EF000100BFBF7E1FC0D90FBF7B3FCCDE91001C3
:104F00006948C0880190FBF767FC9FED700B53EC7C
:104F1000102BCDE902019DED020B51EC100BFBF7BC
:104F200069FB9FED680B53EC102BCDE904019DED5F
:104F3000040B51EC100BFBF7CFFB9FED5C0B53EC1C
:104F4000102BCDE906019DED060B51EC100BFBF784
:104F500051FB9FED580B53EC102BCDE908019DED53
:104F6000080B51EC100BFBF7B7FBCDE90A019DEDE7
:104F70000A0B51EC100BFBF79FFC0D90FBF771FC3B
:104F8000CDE90E01DDE91401CDE90401DDE91201ED
:104F9000CDE90201DDE91001CDE900019DED0E0B27
:104FA00053EC102B4BA010F09FFF0020D5E41E986F
:104FB0001590FBF76BFA179000BF1D981590FBF743
:104FC00065FA169000BF1C981590FBF75FFA1890D1
:104FD00001E00220C1E400BF179828B90A211898FF
:104FE00090FBF1F108441790169828B903211898FE
:104FF00090FBF1F1401A16901898B0F5487F0ADC42
:105000001898002807DB18991698884203DADDE91A
:10501000170188427ADC02209FE477E0000000203C
:10502000EC000020E8000020E4000020E000002068
:105030000D3E6628616E29202020546C2C54682C6B
:105040006D696E2C6D61782C542E2E2E2025642CCB
:105050002533642C25336425632C25336425632C88
:1050600025352E31662C202D2D2000000D3E662882
:10507000616E29202020546C2C54682C6D696E2C94
:105080006D61782C542E2E2E2025642C2533642C13
:1050900025336425632C25336425632C25352E3177
:1050A000662C25352E31660040180020666666663F
:1050B00066660A40000000000000B04000000000EA
:1050C000007C8F400000000000001E400000000037
:1050D000005E9F402862616E6B29202055632C552D
:1050E000632F322C32302C2D35202E2E2E20252EC3
:1050F0003066562C25352E3066562C25352E3166D9
:10510000562C25352E316656000000001898FBF706
:1051100052FB1FED180B53EC102BCDE90A019DED4E
:105120000A0B51EC100BFBF765FA9FEDF80B53ECF3
:10513000102BCDE90C019DED0C0B51EC100BFBF786
:1051400059FA9FEDF40B53EC102BCDE90E019DEDB8
:105150000E0B51EC100BFBF74DFA1FED2C0B53EC23
:10516000102BCDE910019DED100B51EC100BFBF74E
:10517000B3FA9FEDEA0B53EC102BCDE912019DED34
:10518000120B51EC100BFBF78EF9CDE914019DEDDC
:10519000140B51EC100BFBF72CFB01B2E14800683B
:1051A000A0F8761000224FF48371DF48FCF7E2F894
:1051B0001698FBF700FB1FED410B53EC102BCDE9CC
:1051C00008019DED080B51EC100BFBF713FA9FED56
:1051D000CF0B53EC102BCDE90A019DED0A0B51ECDE
:1051E000100BFBF707FA9FEDCB0B53EC102BCDE91F
:1051F0000C019DED0C0B51EC100BFBF7FBF91FEDB7
:10520000550B53EC102BCDE90E019DED0E0B51EC1F
:10521000100BFBF761FA9FEDC10B53EC102BCDE99E
:1052200010019DED100B51EC100BFBF73CF9CDE993
:1052300012019DED120B51EC100BFBF7DAFA80B264
:1052400015901798FBF7B7FA1FED660B53EC102B70
:10525000CDE908019DED080B51EC100BFBF7CAF9E5
:105260009FEDAA0B53EC102BCDE90A019DED0A0B23
:1052700051EC100BFBF7BEF99FEDA60B53EC102B76
:10528000CDE90C019DED0C0B51EC100BFBF7B2F9C5
:105290001FED7A0B53EC102BCDE90E019DED0E0B9B
:1052A00051EC100BFBF718FA9FED9C0B53EC102BF5
:1052B000CDE910019DED100B51EC100BFBF7F3F84D
:1052C000CDE912019DED120B51EC100BFBF791FA99
:1052D00080B2149001469448159AFBF753FF189832
:1052E00007F01AF843E588201B9002221BA98F487B
:1052F000006815F03FFDE8B31B9800B210F074FD94
:105300008DED150A1598FBF7ACFACDE916019DED68
:10531000160B53EC102B86A010F0E6FD8B201B9093
:1053200002221BA98148006815F024FD10B31B98C8
:1053300000B210F059FD8DED150A1598FBF791FAA2
:10534000CDE916019DED160B53EC102B7CA010F04F
:10535000CBFD97201B9002221BA97448006815F012
:1053600009FD38B11B9800B210F03EFD8DED150A15
:10537000159800E00BE0FBF774FACDE916019DEDFE
:10538000160B53EC102B71A010F0AEFD5FE1042062
:10539000EDE41F21634800680068B0F90600CDE91C
:1053A000000160480068B0F94A0049F640430246EF
:1053B0004CF20111189068A0FCF7A0FF6849142076
:1053C00011F0A2FE1F221A2164A0FCF797FF012111
:1053D0005448006884304FF0085202EB40100170CE
:1053E00035E12598401C25901490FBF74FF8189054
:1053F000002017901690159000215AA0FCF77EFF10
:105400005948D0F85C0F0146149058A010F06CFD7C
:10541000CAE0189801280ED15649179831F8201083
:105420001698084416905349179801EB800041885C
:10543000159808441590189802280ED14E491798CF
:1054400031F820101698084416904B49179801EB34
:10545000800041881598084415901798401C1790B3
:10546000C117149000EB917081101498A0EB81008B
:10547000A8BB1698C117149000EB9170801016907D
:105480001598C117149000EB91708010159003E0EF
:105490003349022011F038FE1698C117149000EB22
:1054A000116001121498A0EB01203449139014F0FC
:1054B000F3FD401C0028EBD003E02949022011F045
:1054C00023FE1698C117149000EB116000122B49AF
:1054D000139014F0E1FD401C0028EED004E063E0DE
:1054E0001F49022011F010FE1598C117149000EB0F
:1054F000116001121498A0EB01202049139014F0C0
:10550000CBFD401C0028EBD03EE000000000000076
:105510000000F03FDEA3EA60F09A6E3F000000005A
:105520000000E03F00000020002201403402002083
:105530000D3E56696E3D252E31662C200000000080
:10554000566F75743D252E31662C2000506F757492
:105550003D252E31660000007777777758000000F0
:105560001D70010849000000CC6001202C25640D4D
:105570000A0000004C1800208CB400208802002093
:105580003449022011F0C0FD1598C117149000EBAA
:10559000116000123049139014F07EFD401C002869
:1055A000EED00020159016902C48D0F85C0FC0EB80
:1055B000001080003C2190FBF1F0401E42F20F7180
:1055C00088420ADA2548D0F85C0FC0EB0010800052
:1055D0003C2190FBF1F0401E01E042F20F70179960
:1055E00088423FF716AF1E48006801461490AFF29C
:1055F0008C00FCF783FE2AE02598401C259018902B
:1056000011F0ADFDD2E42598401C2590189000F0D3
:1056100021FCCBE42598401C2590189000F060FFF9
:10562000C4E42598401C2590189001F03FF8BDE493
:105630002598401C2590189000F014F8B6E400BF9F
:1056400000BF259800F050F9B0E40120AEE400BF9F
:105650000020ABE41D70010888020020CC6001200E
:105660008C02002030B52DED068B89B0044694F9EC
:105670000000432804D045287ED049287DD14EE043
:10568000611C0C4608460FF0EFFCB0EE40AAF0EEAD
:1056900060AA9FED770B53EC102B51EC1A0BFAF725
:1056A000A9FF41EC190B9FED740B53EC102BFBF78A
:1056B000EBF802D29FED700B12E0611C0C4608461D
:1056C0000FF0D2FCB0EE409AF0EE609A9FED680BBE
:1056D00053EC102B51EC190BFAF78CFF41EC100B2B
:1056E000B0EE408AF0EE608A51EC180BFBF781F8BF
:1056F0006349C1F8880FD1F8880FFBF75CF841ECDB
:10570000190B9FED5B0B53EC102BFAF7E5FF41EC07
:10571000180B53EC182B5BA010F0E6FBA5E0611C06
:105720000C4608460FF0A0FCB0EE40AAF0EE60AACE
:105730009FED4F0B53EC102B51EC1A0BFAF75AFF5D
:1057400041EC190B9FED580B53EC102BFBF79CF819
:1057500002D29FED550B15E0611C0C4608460FF078
:1057600083FCB0EE409AF0EE609A9FED410B53EC53
:10577000102B51EC190B01E023E071E0FAF73AFF2E
:1057800041EC100BB0EE408AF0EE608A51EC180B41
:10579000FBF72FF83A49C1F88C0FD1F88C0FFBF7C3
:1057A0000AF841EC190B9FED320B53EC102BFAF772
:1057B00093FF41EC180B53EC182B3DA010F094FB19
:1057C00053E0611C0C4608462C2201A915F08AFF03
:1057D000054640E000BF01A951F825004FF0FF3118
:1057E00014F0FCFC3B490968096F084090BB01A913
:1057F00051F825004FF0FF3114F0F0FC35490968ED
:10580000C96E084030BB01A951F825004FF0FF31A7
:1058100014F0E4FC3049084070B100BF2F48006824
:105820002F4908402D4908602E48006820F47F2049
:105830002C49086000BF00BF01A951F825004FF0B6
:10584000FF3114F0CBFC23490968C96E0843214994
:105850000968C86600BF281EA5F10105BAD104E099
:10586000012009B0BDEC068B30BD00BF0020F8E779
:105870000000000000408F40000000000000594080
:10588000CC600120202E2E2E2062616E6B20636181
:105890007061636974792073657420746F20253694
:1058A0002E316C66206D4600000000000000244090
:1058B000202E2E2E206368617267652063757272D8
:1058C000656E742073657420746F2025352E316CDD
:1058D0006620410000000020A8D10308001002400B
:1058E000FFFF33C3000802402DE9F041ADF5E26D42
:1058F000054635BBFEA010F0F7FAFF210DF5AB60B1
:1059000012F062FDC8B90DF5AB61FA4813F00AFC5C
:1059100098B90DF5AB60FAF70DFD401E0DF5AB61C2
:10592000085C2F2803D1F4A010F0DEFA72E20DF526
:10593000AB61F2A010F0D8FA6CE2F1A010F0D4FA4A
:1059400068E228780028F1D020220DF5DE61284693
:1059500015F0C8FE0446DDF8F006FAF7EBFC8046C9
:105960004246E8A0DDF8F016FAF702FD68B14246BB
:10597000E5A0DDF8F016FAF7FBFC30B14246E3A0F3
:10598000DDF8F016FAF7F4FC18BB284612F0EAFC32
:10599000A0B9DF4909680122D1F89800294613F01F
:1059A00095FA58B9FF210DF5AB6012F00DFD28B93D
:1059B0000DF5AB61CF4813F0B5FB20B101200DF51B
:1059C000E26DBDE8F081AFF2DF00D24909684861BD
:1059D0001FE24246D0A0DDF8F016FAF7C9FCF0B994
:1059E000022C1AD10021C34813F0E2FDA8B90FE040
:1059F0000DF5BB62BF49DDF8F40614F025F9074642
:105A00002FB1384613F0E0FE08B10520D7E700BFFC
:105A1000B84880690028EBD1FBE10120CFE742467E
:105A2000BFA0DDF8F016FAF7A3FC60B9022C01D193
:105A30000120C4E70DF2F46003C813F0E7FD00286D
:105A4000C6D00120BBE74246B7A0DDF8F016FAF752
:105A50008FFC20BB022CBBD10122CCA8DDF8F416B0
:105A600013F062FAC0B9A2A010F03EFA07E0CCA889
:105A700012F099FC07463946ADA010F035FACF99DF
:105A8000D198884201D1012000E000200028EED00A
:105A9000CCA812F077FC01E0052090E7B9E142467E
:105AA000A4A0DDF8F016FAF763FC58B9022C07D170
:105AB000DDF8F40612F010FE002889D005207EE7FC
:105AC00003207CE742469DA0DDF8F016FAF750FC73
:105AD00058B9022C07D1DDF8F40612F011FC0028A9
