:020000040800F2
:10800000F0F301209D810008F5170108E9810008BF
:10801000E9810008E9810008E9810008000000000A
:10802000000000000000000000000000A140010866
:1080300015B1000800000000292A010805470108C1
:10804000B7810008B7810008B7810008B781000830
:10805000B7810008B7810008B7810008B781000820
:10806000B7810008B7810008B7810008B781000810
:10807000B7810008B7810008B7810008B781000800
:10808000B7810008B78100084D920008E9990008FF
:10809000AD990008B7810008D599000875EC000873
:1080A000B7810008A1490108B7810008B78100081D
:1080B000B7810008B7810008B781000809F60008F9
:1080C000E5F50008B7810008B7810008B78100080E
:1080D000B7810008B7810008B7810008656501080D
:1080E0006DEC0008B7810008B7810008B78100086F
:1080F000B78100085D510108B7810008B781000809
:10810000B7810008B7810008B7810008B78100086F
:10811000B7810008B7810008B7810008B78100085F
:10812000B7810008B7810008B7810008B78100084F
:10813000A1AD0008B7810008B7810008599A00086E
:108140001D9A0008B7810008459A0008ED1801083B
:10815000B7810008B7810008B7810008DD65010814
:10816000B7810008B7810008B7810008B78100080F
:10817000B7810008B7810008B7810008B7810008FF
:10818000B7810008B7810008DFF80CD000F070FD5F
:10819000004800474F2A0208F0F3012006488047B4
:1081A00006480047FEE7FEE7FEE7FEE7FEE7FEE7DC
:1081B000FEE7FEE7FEE7FEE71D48010889810008AB
:1081C00070B44FF000054FF000064FEA0242046819
:1081D000D4FA02F4C4FB945600F10400491EF6D10F
:1081E0002846314670BC70471EF0040F0CBFEFF3F9
:1081F0000880EFF309801AF0B7B92DE9F05F054662
:10820000002092469B4688460646814640241BE055
:10821000284641464746224600F08FFB53465A46C1
:10822000C01A914110D311461846224600F076FB41
:108230002D1A67EB01084F4622460120002100F06D
:108240006DFB17EB00094E41201EA4F10104DFDC99
:10825000484631462A464346BDE8F09F00487047ED
:108260004C48020810B50446FFF7F8FF0068005DAF
:1082700000F0010010BDA0F16101192900D82038DB
:10828000704700000649074A0868504343F2390224
:1082900010440860400870470149086070470000BA
:1082A000AC0700206D4EC64140EA01039B0703D096
:1082B00009E008C9121F08C0042AFAD203E011F825
:1082C000013B00F8013B521EF9D27047D2B201E0E7
:1082D00000F8012B491EFBD270470022F6E710B5CB
:1082E00013460A4604461946FFF7F0FF204610BD24
:1082F000421E12F8013F002BFBD111F8013B02F89E
:10830000013B002BF9D1704710B5044604E00B780F
:1083100000F8013B03B1491C521EF8D2204610BDA3
:10832000CAB2401E10F8011F8A4202D00029F9D1BA
:1083300000207047421C10F8011B0029FBD1801A55
:10834000704710B5002200E0521C835C8C5CA34295
:1083500001D1002BF8D1D8B2E1B2401A10BD0346CA
:1083600011F8012B00F8012B002AF9D118467047AB
:1083700030B505460020034600E05B1C934205D261
:10838000EC5CC85C201A01D1002CF6D130BD10B5D0
:10839000484304461AF062FB002805D00021002C57
:1083A00002D0641E0155FAE710BD2DE9F047914651
:1083B0000F4680460446002614F8015B2DB1FFF7F6
:1083C0004DFF0068405DC007F6D12B2D02D02D2D4A
:1083D00018D0641E4A463946204600F0D0FA27B12C
:1083E0003968A14201D1C7F8008071054FF002043D
:1083F0000BD54042002803DD14F0BEFD0460A00749
:10840000BDE8F08746F48066E4E70028F8DA14F067
:10841000B3FD04606FF00040F2E72DE9F05F934692
:108420000F4680460446002614F0A6FDD0F80090C2
:10843000824614F8015B2DB1FFF710FF0068405D24
:10844000C007F6D12B2D02D02D2D1AD0641E00218D
:10845000CAF800105A463946204600F090FA014604
:1084600027B13868A04201D1C7F80080DAF80000CF
:10847000022809D0CAF80090700505D54842BDE829
:10848000F09F46F48066E2E70846F8E770B50646D6
:1084900014F072FD046805460A2200213046FFF7F9
:1084A00084FF2C6070BD2DE9FE4F804681EA0300F9
:1084B000C00F0C46009021F0004123F00045B8EBBE
:1084C0000200A94105D24046214690461C460B4673
:1084D000024623F00040104347D0270DC7F30A009F
:1084E000C3F30A510290401A019040286BDAC3F39B
:1084F000130040F4801B0098924620B10023D2EB79
:10850000030A63EB0B0B01985946C0F14002504639
:1085100000F004FA06460D4650465946019A00F00E
:108520001CFA10EB08006141002487EA115284EA2A
:10853000E7731A4340D0009A62B3019A012A4FEAC6
:10854000075215DC001B61EB02014FF0004202EA0A
:108550000752CDE90042001C41F5801132462B46FE
:1085600000F0F0FA03B0BDE8F08F40462146F9E78D
:10857000001B61EB0201001C41F5801300185B41F8
:108580002018A2F5001747EB030140EAD570B61991
:108590006D4111E06D084FEA360645EAC0754FEAB5
:1085A0000752001B61EB0201001C41F580114908D4
:1085B0004FEA30000019514132462B4603B0BDE866
:1085C000F04F00F0B0BA0098012240000023D0EB39
:1085D000020263EBE073009821464FEAE074B8EBC7
:1085E000000061EB0401E9E783F000435BE781F001
:1085F000004158E72DE9FE4F81EA030404F00044EE
:1086000021F0004100944FF0000B23F0004350EAAA
:1086100001045ED052EA03045BD0C3F30A54C1F3F1
:108620000A552C44A4F2F3340194A0FB0254C1F384
:10863000130141F48011C3F3130343F4801301FBCE
:10864000024400FB034E840A970A44EA815447EA35
:108650008357A4FB076802958D0A05FB07854FEA3F
:10866000932C04FB0C542705029D4FEA065847EA59
:108670001637B5EB08056EEB070C870E920E47EA2E
:10868000811742EA8312A7FB0201B6EB0B0164EBF0
:1086900000042B0D43EA0C335E1844EB1C50DA4601
:1086A0005146E7FB0201C5F313044FEA0B3343EADB
:1086B00014534FEA0432019C43EA0603A4F10C046C
:1086C0000294009CCDE900B400F03CFA03B0BDE890
:1086D000F08F00200146F9E72DE9F04D81EA03040F
:1086E00004F0004B21F0004514464FF0000A23F03F
:1086F000004150EA050220D054EA01021DD0C5F322
:108700000A570246C5F31303C1F31300C1F30A5617
:1087100040F4801543F48013A7EB0608101BD646DF
:1087200008F2FD3873EB050002D308F1010801E0FF
:1087300092185B41B8F1000F03DA00200146BDE852
:10874000F08D00204FF48011064684460EE0171B82
:1087500073EB050705D3121B63EB050306434CEAD5
:10876000010C49084FEA300092185B4150EA0107BA
:10877000EDD152EA030012D082EA040083EA050137
:10878000084305D0101BAB4106D20122002306E0AE
:1087900000224FF0004302E06FF0010253101AEB89
:1087A00006004CEB085110EB0A0041EB0B01BDE851
:1087B000F04D00F0B8B90EB5C10F80EAE070084482
:1087C000CA07002140F233438DE80E000A460B46EB
:1087D00000F0B8F903B000BD0EB540F2334102918C
:1087E0000021CDE900110A460B4600F0ABF903B0B9
:1087F00000BD70B5C1F30A5201F000450024C1F379
:10880000130140F2FF3341F480119A4201DA002053
:1088100070BD40F233439A42A2F2334203DC52422B
:1088200000F08BF800E090402C43F1D0404270BD46
:10883000C1F30A5210B5C1F3130140F2FF3341F402
:1088400080119A4201DA002010BD40F233439A426F
:10885000A2F2334203DC524200F06FF810BD9040A8
:1088600010BD00F0004230F000400AD0C10D01F50B
:108870006071C0F3160042EA0151C208400711437B
:10888000704700200146704730B5041E71F10004A6
:1088900004DB4FF00044404264EB0101141E73F10D
:1088A000000405DB1C464FF00043524263EB040317
:1088B0008B4208BF824230BD01F0004330B421F04A
:1088C000004150EA010206D00A0DA2F56072C1F320
:1088D0001301002A02DC30BC00207047440F44EA38
:1088E000C104C100E01830BC00EBC25000F0E4B895
:1088F00030B50B46014600202022012409E021FA70
:1089000002F59D4205D303FA02F5491B04FA02F56C
:108910002844151EA2F10102F1DC30BD202A04DB3F
:10892000203A00FA02F1002070479140C2F1200382
:1089300020FA03F3194390407047202A04DB203AC1
:1089400021FA02F00021704721FA02F3D040C2F16F
:1089500020029140084319467047202A06DBCB17B6
:10896000203A41FA02F043EAE07306E041FA02F3EA
:10897000D040C2F1200291400843194670472DE9CA
:10898000F05F82460078002715468B460AF1010405
:10899000B946302801D09DB113E014F8010B01272E
:1089A000782803D0582801D045B10AE00DB1102D28
:1089B00007D10027102514F8010B02E0082500E07C
:1089C0000A250026B0460EE005FB080005FB06F16F
:1089D000012701EB10461FFA80F8B6F5803F00D35F
:1089E000B94614F8010B294600F054F90028EBDAD7
:1089F000BBF1000F05D00FB1641E00E05446CBF868
:108A00000040B9F1000F06D014F0B6FA022101605F
:108A1000C81EBDE8F09F48EA0640FAE70FB40023FD
:108A200000B589B00CA900910B996FF00042CB60A2
:108A30001E4B06931E4B07930423CDE901321D4ABA
:108A4000089202466B46002000F0C6F909B05DF8B6
:108A500014FB70B586B006464FF0FF300091CDE9AB
:108A60000101002015460C4604903246694604A8D0
:108A7000FFF7D4FF02460498211825B108B1084633
:108A800000E020462860049800280DD0002A02DD6E
:108A90000098884208D0081B0094CDE901043246B2
:108AA000694604A8FFF7BAFF06B070BD1190000830
:108AB0002F900008658200080029A8BF7047401C5D
:108AC000490008BF20F00100704710B4B0FA80FCE4
:108AD00000FA0CF050EA010404BF10BC704749B121
:108AE000CCF1200421FA04F411FA0CF118BF012191
:108AF00021430843A3EB0C01CB1D4FEA00614FEA71
:108B0000102042BF002010BC704700EBC35010443F
:108B10000029A4BF10BC7047401C490008BF20F0CA
:108B2000010010BC704710B5141E73F1000408DA80
:108B3000401C41F1000192185B411A4301D120F021
:108B4000010010BD2DE9F04D92469B4611B1B1FADE
:108B500081F202E0B0FA80F220329046FFF7DEFEAA
:108B600004460F4640EA0A0041EA0B0153465A46C2
:108B7000084313D0114653EA010019D0C8F140024E
:108B80005046FFF7DAFE05460E4650465946424625
:108B9000FFF7C4FE084305D0012004E02046394613
:108BA000BDE8F08D0020054346EAE0762C433743CC
:108BB0000A986305E40AA0EB08000022FD0A44EAD3
:108BC00047540A3002D500200146E9E70105101993
:108BD0006941DDE9084500196941BDE8F04DA2E7AA
:108BE00070B521F0004303430CD0C1F30A550024B3
:108BF000D5EB040564EB0403D617AD1AB34102DBD1
:108C00000020014670BD201841EB025170BDC1F338
:108C10000A52C1F3130140F2FF3341F480119A422A
:108C200002DA00200146704740F233439A42A2F232
:108C3000334202DC5242FFF780BEFFF76FBE0000F6
:108C400030B5041E71F1000404DB4FF000444042D3
:108C500064EB0101141E73F1000405DB1C464FF0A8
:108C60000043524263EB0403994208BF904230BD77
:108C7000064C074D06E0E06840F0010394E8070069
:108C800098471034AC42F6D3FFF782FA2C4B020817
:108C90004C4B02083A2800D2303820F02002412AFA
:108CA00001D3A2F13700884201D34FF0FF30704763
:108CB0002DE9FF4F087883B09946FF2805D0491C5D
:108CC0002D2804D00024002008E000200BE001241F
:108CD000F9E700EB800003EB4000491C0B78FF2B09
:108CE000F7D104B1404200230293147819461D467F
:108CF0002D2C01D02B2C04D1521C2D2C13D0002450
:108D00000294AA461478FF2C0FD00A25A3FB0578FD
:108D100001FB05814FF0000C03FB0C11521CE31901
:108D20004AEB0101EEE70124EAE7814453EA01003E
:108D300002D019F5C87F06DA03980021C0E90011B6
:108D400007B0BDE8F08F0025AE4E2F46DFF8B882A1
:108D5000184600F0CEF9CDE90001B9F1000002DAC1
:108D6000C9F1000400E004460023A74A1AEB030BF4
:108D700042EB045A12E0E00707D02A463346384651
:108D80004146FFF737FC074688462A4633461046D9
:108D90001946FFF72FFC05460E466410002CEAD159
:108DA000DDE90001B9F1000F5A46534606DAFFF734
:108DB00093FC3A464346FFF78FFC05E0FFF71AFCA9
:108DC0003A464346FFF716FC029A0AB181F0004189
:108DD000039AC2E90001B3E72DE9FF4F1F468DB0AA
:108DE000D7E901464FF0FF382E2045464FF00009E5
:108DF0000B90B9696D1C0E988847396A824688477E
:108E00000028F6D1BAF1FF3F0AD024F4D064002E36
:108E100011DDBAF12B0F08D0BAF12D0F0BD102E002
:108E2000404611B08DE744F48064B9696D1C0E981A
:108E300088478246761E6946600501D52D2000E0F0
:108E40002B208DF8000001F1010B0DF1200809E045
:108E5000B9696D1C0E98884782460F9844F40074D7
:108E6000761E0560002E02DDBAF1300FF0D00B99AE
:108E70008A453ED144F0800406E00F99681CA9F1B0
:108E8000010944F400740860B9696D1C761E0E98DF
:108E9000884782463028F0D02BE00B998A4505D1CF
:108EA000200603D444F08004761E18E0504615F0E6
:108EB0006FFA08B30DF11301761E44F400748B456C
:108EC00008D2AAF130000BF8010B200607D5A9F152
:108ED000010003E0200602D409F101008146A0054B
:108EE00002D50F99681C0860B9696D1C0E988847F7
:108EF0008246002ED1DC53E0002E51DDBAF1650F21
:108F000002D0BAF1450F4BD1A00549D5B9696D1C06
:108F100024F44074761E0E9888478246002E0CDD9D
:108F20002B2804D0BAF12D0F07D144F48074B9690D
:108F30006D1C0E9888478246761EE00501D52D21CE
:108F400000E02B2108F8011BCDF82C8021E00DF169
:108F50002901761E44F4007488450CD2AAF1300031
:108F600010F0FF0088F8000002D10B99884509D95C
:108F700008F1010806E0E00501D5244801E042F2CD
:108F80000F708146B9696D1C0E98884782460F980C
:108F90000560002E04DD504615F0FAF90028D6D100
:108FA000F9690E988847FF208BF8000088F80000C8
:108FB0000020069007904B466A4608A906A8FFF7CE
:108FC00077FEA00502D46FF001002AE714F0240F09
:108FD0000AD0E00714D1DDE906123868031D3B60B2
:108FE0000068C0E900120BE0DDE90601FFF764FC50
:108FF0000146E00704D13868021D3A60006801604C
:1090000028460EE7000014400000F03FF1D8FFFFB3
:10901000426842B1016811F8013B23B1521EC0E918
:109020000012184670470121C160881E70474268CF
:109030005AB1C368016843B983688B4205D0491EA1
:10904000521CC0E90012002070474FF0FF307047FB
:109050002DE9F04D00231A461B1A8A4103DB00203C
:109060000146BDE8F08DC1F30A52C1F3130141F48A
:1090700080154FF0000BD10702D100186D41521E30
:109080000027044640F2FF11384601EB620A3E46D3
:109090008046024600204FF48011FFF74EFCC219B3
:1090A0007141BB1846EB0100B4EB030C75EB000CEF
:1090B00004D3E41A65EB000517460E46241908F19F
:1090C00001006D4180463428E3DDF91946EB0600C6
:1090D000091BA84103D24FF0FF32134601E00022E2
:1090E00013461BEB070046EB0A51BDE8F04DFFF7B6
:1090F0001ABD0EB540F2334202920022CDE90022A1
:109100001346FFF71FFD03B000BD70B58C1810F8B3
:10911000015B15F0070301D110F8013B2A1106D1BC
:1091200010F8012B03E010F8016B01F8016B5B1ED6
:10913000F9D12B0705D40023521E0DD401F8013BB1
:10914000FAE710F8013BCB1A921C03E013F8015B1D
:1091500001F8015B521EF9D5A142D8D3002070BDA1
:109160000A4600214168024B194011434160704793
:10917000FFFD3FFF0A460021416821F01F01114316
:109180004160704741628262704700220A12D343F5
:109190000360704721B1826842F00102826003E0FF
:1091A000826822F001028260704700000021084AB4
:1091B0001168084A1140D0E900231A4383681A4312
:1091C000C3681A431143044AC2F8041370470000ED
:1091D00004230140E030FCFF002001400021016039
:1091E00041608160C160704721B1826842F4807241
:1091F000826003E0826822F480728260704721B14D
:10920000826842F40072826003E0826822F4007295
:10921000826070470A460021816821F440111143A1
:109220008160704770B502460020002300240B12B5
:10923000556801268E4005EA060415681D4015B1E3
:109240000CB1012000E0002070BD000010B54FF40B
:1092500083713D48FFF7E6FF20B34FF483713A482E
:10926000FFF793FF00BF39480068B0F8700000F4C2
:10927000805080B935480068B0F86C0000F4805028
:1092800048B912F0C3FE31480068C06E40F4805007
:109290002E490968C86600BF00224FF483712A482E
:1092A00000F05AF84FF483712948FFF7BBFF20B351
:1092B0004FF483712648FFF768FF00BF234800681A
:1092C000B0F8700000F4805080B920480068B0F811
:1092D0006C0000F4805048B912F098FE1B480068FA
:1092E000C06E40F4805019490968C86600BF00226A
:1092F0004FF48371164800F02FF84FF4837115482E
:10930000FFF790FFF0B14FF483711248FFF73DFF74
:1093100000BF0E480068B0F8700000F4805080B9BB
:109320000A480068B0F86C0000F4805048B912F0A8
:109330006DFE06480068C06E40F48050034909681D
:10934000C86600BF10BD00000020014000000020E2
:10935000002101400022014010B50B460021D9B286
:10936000012404FA01F11AB144680C43446002E09C
:1093700044688C43446010BD30B502460020002391
:109380005068104C20400D790C6844EA05242043B5
:10939000506090680C4C2040D1E903542C438D68F8
:1093A0002C434D7944EA450420439060D06A20F470
:1093B00070000C7D641EE4B2234340EA0350D06287
:1093C00030BD0000FFFEFFFCFDF7FFC0F0B5044616
:1093D0001546002000220026092911DDE068A1F1D0
:1093E0000A0707EB470C072707FA0CF29043A1F195
:1093F0000A0707EB470703FA07F21043E0600CE0A7
:10940000206901EB410C072707FA0CF2904301EBAE
:10941000410703FA07F210432061A06BC0F3015625
:10942000EF1C06F1010CA7EB0C0707EB870C1F27BD
:1094300007FA0CF29043EF1C06F1010CA7EB0C07A6
:1094400007EB870701FA07F21043A063F0BD10B5E0
:109450000A4600210023816B21F44011531E41EA8A
:109460000351816310BDF0B504460D460020002174
:10947000092D11DDE068A5F10A0606EB460707266F
:1094800006FA07F18843A5F10A0606EB460603FA39
:1094900006F10843E0600CE0206905EB450707266C
:1094A00006FA07F1884305EB450603FA06F108437F
:1094B0002061072A0FDA606B561E06EB86071F260F
:1094C00006FA07F18843561E06EB860605FA06F1F2
:1094D0000843606322E00D2A0FDA206BD61F06EBEB
:1094E00086071F2606FA07F18843D61F06EB860675
:1094F00005FA06F10843206310E0E06AA2F10D06C8
:1095000006EB86071F2606FA07F18843A2F10D062F
:1095100006EB860605FA06F10843E062F0BD8168B5
:1095200041F080418160704700210160017141710B
:109530008160C160016101210175704738B108493E
:10954000096841F40001074AC2F8041306E004491F
:10955000096821F40001034AC2F8041370470000AF
:109560000423014000200140F0B585B005460C46BB
:109570001A4801681A4815F04DFD0746142168463F
:10958000FEF7ABFE1748006800F57A70F8601548E2
:10959000006806191449096814224868294614F01D
:1095A000B2FD14B9002005B0F0BD0FE00E49096806
:1095B00014220868694614F08AFD28B10098A4288E
:1095C00002D19DF80B00EEE715F080FD054800681C
:1095D000B042EBDB4FF0FF30E5E700000000002079
:1095E000D51F0108800200205001002010B5012184
:1095F0007F2009F0C3FE0BF0B1F89C210120FEF79B
:10960000C6FEA549086008460068001D0968086094
:109610000020A14909680968888064209E4909687A
:109620000968C8809C4909680968088201209A492C
:109630000968096808804FF47A70974909680968D1
:10964000488095490968096808810120924909689C
:1096500009688872022090490968096808770C2017
:109660008D490968096888818B4909680968C8813A
:1096700040F6555188480068006881828648006835
:10968000006841820020844909680968C882002175
:1096900081480068006801837F4800680068418352
:1096A0001E227D480168091D00682230FEF7FCFD7E
:1096B00000217948006881657748006801660221C9
:1096C0007548006880F84C1040F6555172480068A3
:1096D000A0F848100C2170480068A0F842106E48AD
:1096E0000068A0F8401040F6B8316B480068A0F858
:1096F000461069480068A0F84410002066490968CF
:10970000A1F876003C2064490968A1F8820007F0BE
:109710004DFB4FF4612007F0E3FD60490860002035
:1097200007F086F85E49086006F09CFE07F0A8FB8B
:109730004CF250325821002007F040FA5949086095
:109740004FF40E710120FEF722FE53490968C1F85B
:1097500098005248006830B1002353A24F48016876
:10976000544815F02BFC5448006830B1002353A234
:10977000514801684F4815F021FC5348006830B14A
:10978000002352A2504801684A4815F017FC0023F4
:1097900051A241480168524815F010FC002351A223
:1097A0003D480168514815F009FC012350A23A4890
:1097B0000168514815F002FC002350A236480168A8
:1097C000504815F0FBFB01234FA233480168514874
:1097D00015F0F4FB002350A21946524815F0EEFB99
:1097E000002351A25249534815F0E8FB0AF092FFBA
:1097F0000021294800680AF0DFFD274800680AF0C8
:10980000D3FD4FF4967012F0D2FB07F089F823488D
:10981000006815F0C5FC7C2009F08EFE012809D1F6
:10982000454800684549B0FBF1F4214644A014F0D6
:1098300077FB1DE07D2009F07FFE012803D147A0C2
:1098400014F06EFB14E07E2009F076FE012803D1AF
:1098500047A014F065FB0BE07B2009F06DFE0128AA
:1098600003D148A014F05CFB02E07A2009F064FE0A
:1098700009F0E4FD49A016F0CDFD07490968012271
:10988000D1F8980045A117F079FB45A01AF0CEFA5F
:10989000002015F085FC10BD000000200400002011
:1098A0005001002034020020434F4D31207061727E
:1098B00073657200C529010808000020434F4D332D
:1098C00020706172736572000C000020434F4D36AA
:1098D000207061727365720043414E2074780000FD
:1098E0008928010843414E2072780000D51F0108E5
:1098F0007374617475730000412F01086576656E9D
:1099000074730000ED2C010863686172676572363C
:10991000000000002D2A01087761746368646F6796
:109920000000000099BF01086C656473000000002E
:1099300080020020AD1301087005002040420F0096
:109940000D202E2E2E205357522072657365742CD5
:109950002025644D487A0D0A3E0000000D202E2E71
:109960002E20495744472072657365740D0A3E00E6
:109970000D202E2E2E205757444720726573657494
:109980000D0A3E000D202E2E2E20706F776572205E
:109990006F6E2072657365740D0A3E00303A0000E8
:1099A000406366672E696E690D00000000B585B0E2
:1099B0006A460021054800F09CF90549096814220F
:1099C0000868694614F09FFB05B000BD00640040C4
:1099D000500100200348006840F00400014908607D
:1099E000704700000464004000B585B0094909686B
:1099F00014224868694614F06AFB20B1694606489B
:109A000000F0FFF904E000220121034800F0DEF835
:109A100005B000BD500100200064004000B585B0D5
:109A20006A460021054800F064F9054909681422D6
:109A30000868694614F067FB05B000BD0068004087
:109A4000500100200348006840F00400014908600C
:109A5000704700000468004000B585B009490968F6
:109A600014224868694614F032FB20B16946064862
:109A700000F0C7F904E000220121034800F0A6F835
:109A800005B000BD500100200068004010B504463C
:109A90000B48844209D10121480609F09FFC0021AE
:109AA0004FF0007009F09AFC08E00121880609F0E7
:109AB00095FC00214FF0806009F090FC10BD000083
:109AC0000064004010B50021837A012202FA03F1FC
:109AD0003D4A126842F001023B4B1A603A4A1C327E
:109AE00012688A43384B1C331A60027BCAB9364A63
:109AF0000C3212688A43344B0C331A604288C38894
:109B000042EA0343304A4032847A42F834300288D1
:109B1000838842EA03432C4A4032847A02EBC4022F
:109B20005360027B012A19D1274A0C3212680A437A
:109B3000254B0C331A604288038842EA0343224AC9
:109B40004032847A42F83430C288838842EA034340
:109B50001D4A4032847A02EBC4025360C27A3AB999
:109B6000194A121D12688A43174B1B1D1A6006E022
:109B7000154A121D12680A43134B1B1D1A600289F5
:109B800032B9114A143212688A430F4B14331A60E7
:109B90000289012A06D10C4A143212680A430A4B80
:109BA00014331A60427B012A06D1074A1C3212681C
:109BB0000A43054B1C331A60034A126822F0010263
:109BC000014B1A6010BD0000006600401AB14369E5
:109BD0000B43436102E043698B434361704730B5F7
:109BE000024600200023146824F002041460146864
:109BF00044F00104146000E05B1C546804F00104AC
:109C00001CB94FF6FF74A342F6D1546804F0010466
:109C10000CB900206CE08C79012C04D1146844F05C
:109C20008004146003E0146824F080041460CC798C
:109C3000012C04D1146844F04004146003E014685B
:109C400024F0400414600C7A012C04D1146844F010
:109C50002004146003E0146824F0200414604C7A9B
:109C6000012C04D1146844F01004146003E014685B
:109C700024F0100414608C7A012C04D1146844F090
:109C80000804146003E0146824F008041460CC7A1B
:109C9000012C04D1146844F00404146003E0146837
:109CA00024F0040414608C78A407CD7844EA056499
:109CB0000D7944EA05444D7944EA05540D886D1E3A
:109CC0002C43D461146824F001041460002300E0E4
:109CD0005B1C546804F001041CB14FF6FF74A342EE
:109CE000F6D1546804F001040CB1002000E001201A
:109CF00030BD10B500F5D87303EB01131B6803F0FA
:109D000004031372137A53B900F5D87303EB0113EC
:109D10001B6840F2FF7404EA5353136009E000F536
:109D2000D87303EB01131B686FF0604404EAD3039C
:109D3000536000F5D87303EB01131B6803F00203B3
:109D4000537200F5D87303EB01135B6803F00F0344
:109D5000937200F5D87303EB01135B681B0AD3748D
:109D600000F5D87303EB01139B68D37200F5D87329
:109D700003EB01139B681C0A147300F5D87303EB03
:109D800001139B681C0C547300F5D87303EB01138B
:109D90009B681B0E937300F5D87303EB0113DB680C
:109DA000D37300F5D87303EB0113DB681C0A14743A
:109DB00000F5D87303EB0113DB681C0C547400F539
:109DC000D87303EB0113DB681B0E937421B9C368CE
:109DD00043F02003C36003E0036943F02003036101
:109DE00010BD00218171C171017241728172C17215
:109DF0008170C17003210171022141710121018033
:109E0000704710B502460020936803F08063B3F1F9
:109E1000806F00D110E0936803F00063B3F1006F2E
:109E200001D1012008E0936803F08053B3F1805F13
:109E300001D1022000E00420042874D002F5C07390
:109E400003EB00131B6803F0010402F5C07303EB7E
:109E500000131C600B7A7BB94B7A0C8843EA44539D
:109E600002F5C07404EB00142468234302F5C074A7
:109E700004EB0014236010E00B7A4C6843EAC4033F
:109E80004C7A234302F5C07404EB00142468234386
:109E900002F5C07404EB001423608B7A03F00F0307
:109EA0008B7202F5C07303EB00135B6823F00F04A1
:109EB00002F5C07303EB00135C6002F5C07303EBA3
:109EC00000135B688C7A234302F5C07404EB001422
:109ED00063608B7B1C064B7B44EA03440B7B44EAA8
:109EE0000323CC7A234302F5C07404EB0014A3606F
:109EF0008B7C1C064B7C44EA03440B7C44EA032322
:109F0000CC7B234302F5C07404EB0014E36002F53C
:109F1000C07303EB00131B6843F0010402F5C07328
:109F200003EB00131C6010BD10B50246002321B1E5
:109F3000012907D002290FD109E090681D4C00EAE1
:109F400004030BE090681C4C00EA040306E09068F0
:109F50001A4C00EA040301E0002300BF00BF184CC4
:109F6000181BA34216D007DC83B16FF08060184441
:109F700070B1022818D111E0B0F5007F10D0114C5B
:109F8000204448B1B0F5003F0ED10BE002230DE0B4
:109F900000230BE0002309E0002307E0012305E094
:109FA000012303E0012301E0002300BF00BFD8B27A
:109FB00010BD0000030000040003000800000310AF
:109FC000000100080001FFF730B5A1B02B48006880
:109FD0002B49086001212B4800688C304FF0085253
:109FE00002EB401080F8781027A013F099FF0D20A5
:109FF0007623B0222CA1009001A812F091F901A8BB
:10A0000001F08AF800BF002512E01C4818F0AAFAF7
:10A010000446601C08B1052C00D10BE005EB45019E
:10A02000091D01AA8818224623A112F079F96D1C96
:10A03000082DEADB00BF002D02DD01A801F06CF85D
:10A0400015F044F8052CDED1B0221DA101A812F0B4
:10A0500067F901A801F060F800210A4800688C3017
:10A060004FF0085202EB401080F8781000200449AD
:10A07000086015A013F054FF21B030BD8C02002001
:10A08000DC000020000000200D0A2072656D6F7456
:10A090006520636F6E736F6C65206F70656E2E2E1A
:10A0A0002E200D0A3E0000003E253033582025307A
:10A0B0003258202530325800202530325800000018
:10A0C0003E253033580000000D0A202E2E2E2E7211
:10A0D000656D6F746520636F6E736F6C6520636C64
:10A0E0006F7365640D0A3E0010B502460B460021F1
:10A0F00000BF04E052F82100034C2060491C994243
:10A10000F8D30148006810BD003002400120014929
:10A110008860704700300240F1B586B0142101A874
:10A12000FEF7DBF808260DF10F070699491C0846D3
:10A13000069105F043FA10B1002007B0F0BD0221EE
:10A1400006A819F028FB0446042106A819F023FBF1
:10A150002649098800EB0145022106A819F01BFBDE
:10A1600006283ED2DFE800F00333343D3536204880
:10A17000854201DA0020E0E7A22001903D60042042
:10A180008DF80E00002101A8FFF7EEF9A320019041
:10A19000002617E0022106A819F0FDFAC2B23046E7
:10A1A000761C0DF10F010A54082E00D054B9F0B2FC
:10A1B0008DF80E000026642101A8FFF7D5F908B13B
:10A1C0000020BAE7201EA4F10104E3D109E008E071
:10A1D00007E000BF042106A819F0DDFA0349086072
:10A1E00000BF00BF4FF0FF30A7E7000000010020D4
:10A1F000008000080FB430B589B01422424904A889
:10A20000FEF752F80DA801904CE00198006802900A
:10A210000198001D019002AC00250C9810F9011B5B
:10A220000C90582923D008DC2E290DD045291BD0AD
:10A2300049290FD0502924D113E063291BD0692963
:10A240001DD077291DD118E0142204A80299FEF729
:10A250002BF816E02D482168016009B030BC5DF88C
:10A2600014FB402004900CE04320049009E014F912
:10A27000010B049005E0012503E0022501E004251F
:10A2800000BF00BF0AE014F8011B9DF81A20501C03
:10A29000C0B28DF81A000DF11B008154281EA5F1E3
:10A2A0000105F0D10C9800780028AED10190174834
:10A2B000006800B31548006814F072FF1349086085
:10A2C00013A0049913F02CFE002507E00DF11B00EC
:10A2D000425D2E2111A013F023FE6D1C9DF81A0083
:10A2E000A842F3DC0FA013F01BFE0848006814F02E
:10A2F00057FF064908600C4909681422486804A9F8
:10A3000013F001FF00BFA8E750420208C40000207C
:10A31000253032582E3C3C2E0000000025632530AD
:10A32000325800000D0A3E005001002039B1084AA1
:10A330001268012383401A43054B1A6006E0044A61
:10A340001268012383409A43014B1A607047000052
:10A350000074004010B50121480709F03FF80021C2
:10A360004FF0005009F03AF810BD000030B1074935
:10A37000096841F00301054A116005E003490968D5
:10A3800021F00301014A116070470000047400408D
:10A3900008B5014600200090054800902C2000EBF5
:10A3A0009100009A104400900098006880B208BDA7
:10A3B0000074004030B5002200230A4C226840F6A9
:10A3C000FE748440A243D1E900452C438D682C43A0
:10A3D000CD6844EA050303FA00F42243014C2260ED
:10A3E00030BD00000074004030B500240023082870
:10A3F00002D142EA012401E042EA0144024B00F1A9
:10A4000020052B441C6030BD007400400021016019
:10A4100041608160C160704770B506460C4604F02B
:10A420008000802808D104F07F0000EB800106F551
:10A430008E7000EBC10507E004F07F0000EB8001A7
:10A4400006F55D7000EBC10504F07F00287004F094
:10A450008000C0096870294630460FF04DFF00208B
:10A4600070BD70B506460C4604F08000802808D107
:10A4700004F07F0000EB800106F58E7000EBC10553
:10A4800005E004EB840106F55D7000EBC1050020DA
:10A49000A87004F07F002870C4F3C01068702946CB
:10A4A00030460FF001FF002070BD70B505460C4628
:10A4B00004F08000802805D104F07F01284610F0C8
:10A4C0004FF902E0284610F025F9002070BD2DE973
:10A4D000F04106460D4690461F4605F08000802854
:10A4E00008D105F07F0000EB800106F58E7000EBCF
:10A4F000C10407E005F07F0000EB800106F55D7008
:10A5000000EBC10405F07F00207005F08000C00959
:10A510006070C4F80880E770607808B12078E08047
:10A52000022F01D100202071214630460FF070FE2D
:10A530000020BDE8F0812DE9F04105460E461746A2
:10A54000984606F07F0000EB800105F55D7000EB9A
:10A55000C104E760C4F814800020A061607006F0B8
:10A560007F002070E878012800D12761207820B989
:10A57000214628460FF070FD03E0214628460FF0E3
:10A580001CFF0020BDE8F08108B500220092009A6F
:10A5900061F30A12009202691268009B1A43036970
:10A5A0001A6008BD70B506460C4604F0800080288D
:10A5B00008D104F07F0000EB800106F58E7000EBFF
:10A5C000C10505E004EB840106F55D7000EBC105F3
:10A5D0000120A87004F07F002870C4F3C0106870D8
:10A5E000294630460FF0B7FE002070BD2DE9F0413E
:10A5F00007460D461646984605F07F0000EB8001A1
:10A6000007F58E7000EBC1040120607005F07F003B
:10A610002070E66026610020A061C4F814802078D4
:10A6200020B9214638460FF017FD03E02146384691
:10A630000FF0C3FE0020BDE8F0811CB504462046A3
:10A640000FF0D5FCE068C0680090204610F0B2F82A
:10A6500003280BD10020A0704FF40070A080009858
:10A6600020F4705000F51050009009E00120A07017
:10A670004020A080009820F4705000F5A050009079
:10A680000098E168C86000200190019820F4005013
:10A6900000F5005001900198E168486101201CBD5F
:10A6A000F8B50546002400200090284610F064FB11
:10A6B000064690E006F0010000287DD0E1B2284671
:10A6C00000F002FB0090009800F0010030B3012080
:10A6D00000FA04F72869406BB843296948630020F1
:10A6E0000090009820F00100401C009005F1180037
:10A6F00050F8240000998160E1B23948006842684E
:10A7000028469047E878012808D13CB940F211105A
:10A71000405D042802D128460FF049FD0098C0F39F
:10A72000C00060B100200090009820F008000830C0
:10A73000009005F1180050F82400009981600098FD
:10A74000C0F3001060B100200090009820F01000CD
:10A750001030009005F1180050F824000099816035
:10A760000098C0F3801060B100200090009820F0A5
:10A7700040004030009005F1180050F82400009986
:10A7800081600098C0F3400060B100200090009804
:10A7900020F00200801C009005F1180050F8240001
:10A7A000009981600098C0F3C01028B12146284666
:10A7B00000F09EFA002000E00BE00090009820F0EE
:10A7C00080008030009005F1180050F824000099B6
:10A7D0008160641C7608002E7FF46CAF0120F8BD08
:10A7E000800300207CB5044600250020019020460F
:10A7F00010F0CAFA06466FE006F00100002869D0A2
:10A80000E9B2204610F0C8FA0190019800F001006A
:10A81000C8B300200190019820F00100401C019075
:10A8200004F1540050F8250001998160E078012876
:10A8300017D104F1540050F825000069009005EB91
:10A84000850104F55D7000EBC10080680099C1F3DB
:10A850001201411A05EB850204F55D7000EBC200A0
:10A860008161E9B21E480068026820469047E0789E
:10A87000012808D13DB940F21110005D052802D130
:10A8800020460FF094FC0198C0F3400060B1002016
:10A890000190019820F00200801C019004F1540006
:10A8A00050F82500019981600198C0F3C00088B17B
:10A8B0000B48006881682046884700200190019875
:10A8C00020F008000830019004F1540050F82500F1
:10A8D000019981606D1C7608002E8DD101207CBD10
:10A8E000800300203EB50446A07A70B1D4F80C0174
:10A8F0000090009820F002000090009820F00100E5
:10A9000000900099D4F80C0101600020019001989A
:10A9100020F00100401C01902069406801998843A3
:10A9200021694860084800688169204688470020FE
:10A930000290029820F0004000F10040029002983E
:10A94000E168486101203EBD800300207CB50446DB
:10A9500000200190019820F0100010300190E06874
:10A96000806901998843E1688861E068006A009025
:10A97000009800F00F0000EB800104F55D7000EB23
:10A98000C1050098C0F3434007282DD2DFE800F04E
:10A990002C04051D1E2C1F0027E00098C0F30A1090
:10A9A00090B10098C0F30A122046E96810F01AFA34
:10A9B000E8680099C1F30A110844E860A8690099A1
:10A9C000C1F30A110844A8610FE00EE00DE008226F
:10A9D00004F2CC51204610F005FAA8690099C1F3A1
:10A9E0000A110844A86100E000BF00BFE068806968
:10A9F00001990843E168886101207CBD38B50446AF
:10AA000008480068C16820468847002000900098E8
:10AA100020F00800083000900098E16848610120AB
:10AA200038BD0000800300201FB5044600200090C0
:10AA30004FF48970005D009023480068416920460A
:10AA4000884720698068019000200390039820F4D3
:10AA5000006000F5006003900398E1684861A07A07
:10AA600070B3019800F0010050B340F21510005D82
:10AA7000012825D19DF80000032821D10020029053
:10AA8000029820F00100401C0290D4F80C010068EC
:10AA900002990843D4F80C110860029820F00200D3
:10AAA000801C0290D4F80C01006802990843D4F885
:10AAB0000C1108600548006840F006000349086072
:10AAC000012004B010BD00008003002010ED00E064
:10AAD00030B587B00446002002900690059004909F
:10AAE00003900190029820F00100401C0290206920
:10AAF00040680299884321694860002120460FF090
:10AB00002FFE00250BE0FF2104F1180050F825006E
:10AB1000816004F1540050F8250081606D1C60785C
:10AB2000A842F0D84FF0FF312069816106986FF399
:10AB30000F00401C0690069880B200F58030069009
:10AB400006992069C161059820F008000830059039
:10AB5000059820F00100401C0590059820F00200A7
:10AB6000801C0590059920694161049820F001003E
:10AB7000401C0490049820F00800083004900498C9
:10AB800020F00200801C0490049920690161206972
:10AB900000680390039820F4FE60039003992069F5
:10ABA000016020460FF003FB00200190019820F483
:10ABB000805000F5805001900198E1684861044898
:10ABC0000068016920468847012007B030BD0000B9
:10ABD000800300202DE9F04106460F4639463046F5
:10ABE00010F034F901214FF4897081550021801C47
:10ABF0008155002511E005EB850106F58E7000EB0F
:10AC0000C104012060702570E5800020E0704020C4
:10AC1000A0600020E06060616D1C7078A842EAD8F6
:10AC2000002510E005EB850106F55D7000EBC10421
:10AC3000002060702570E580E0704020A06000205A
:10AC4000E06060616D1C7078A842EBD830460FF070
:10AC50008FF930460EF051FF0021304610F05EF9BA
:10AC600030460EF0DDFF30460FF009FDBDE8F08103
:10AC700038B504460020009007480068C1692046A6
:10AC80008847009820F4801000F58010009000980C
:10AC9000E1684861012038BD8003002038B50446D2
:10ACA0000020009007480068016A20468847009805
:10ACB00020F4001000F5001000900098E168486151
:10ACC000012038BD8003002030B5024615692B698C
:10ACD00015696C6B24FA01F505F0010543EAC5130B
:10ACE00002F1180555F82150AD6805EA030030BDA2
:10ACF0002DE9F84306460F4600250020009007EB9B
:10AD0000870106F58E7000EBC104D4E90501451AF0
:10AD1000A068A84200D2A568E81C4FEA900806F196
:10AD2000180050F82700806900902AE0D4E9050156
:10AD3000451AA068A84200D2A568E81C4FEA90080E
:10AD4000ABB2FAB23046E16810F0F8FFE068284490
:10AD5000E060A0692844A061D4E9051088420AD3C4
:10AD60002178012000FA01F93069406B20EA0900DE
:10AD70003169486310E006F1180050F82700806937
:10AD80000090009880B2404506D9D4E90510884269
:10AD900002D260690028C9D100BF0120BDE8F88354
:10ADA00010B500200BF09AFA10BD00000246094BC6
:10ADB0009A4201D2084801E00648103801F00053D9
:10ADC0001BB1064B0B40C36002E0044B0B40836099
:10ADD0007047000010640240006002407D0F7D0F4C
:10ADE0000246094B9A4201D2084801E00648103851
:10ADF00001F000531BB1064B0B40C36002E0044B53
:10AE00000B40836070470000106402400060024005
:10AE10007D0F7D0F21B1026842F00102026003E064
:10AE2000026822F0010202607047000010B590B085
:10AE3000044601A800F05DF90121880508F09EFA9A
:10AE4000244800F04BF84FF0006001902248029037
:10AE500060680068039040200490002005900A90EC
:10AE60004FF400300B90002006904FF48060079064
:10AE70000020089009900E900F9001A9154800F04D
:10AE800005F901211348FFF7C5FF1248783800F093
:10AE900025F84FF0006001900F480290206800688C
:10AEA0000390002004908020059040000A9001A9A2
:10AEB0000848783800F0EAF8012106487838FFF7AA
:10AEC000A9FF0122C0210448001F0BF0EEFB10B0C7
:10AED00010BD0000B864024004100140016821F078
:10AEE000010101600021016041608160C160016178
:10AEF000212141614A49884204D13D21484A103A02
:10AF000091608CE046491831884205D14FF4746154
:10AF1000434A103A916082E041493031884205D17C
:10AF20004FF474113E4A103A916078E03C49483140
:10AF3000884205D14FF07461394A103A91606EE051
:10AF400037496031884204D13649354A103AD160D8
:10AF500065E033497831884204D13349304A103AA8
:10AF6000D1605CE02E499031884204D12F492C4AAF
:10AF7000103AD16053E02A49A831884205D14FF0F8
:10AF80003D51274A103AD16049E02949884204D10D
:10AF90003D21274A083A116041E02549183188428D
:10AFA00005D14FF47461224A083A116037E0204914
:10AFB0003031884205D14FF474111D4A083A1160AE
:10AFC0002DE01B494831884205D14FF07461184A81
:10AFD000083A116023E016496031884204D11149D2
:10AFE000134A121F11601AE011497831884204D1C6
:10AFF0000D490F4A121F116011E00D49903188422E
:10B0000004D10A490A4A121F116008E00849A83110
:10B01000884204D14FF03D51054A121F116070471C
:10B02000106002403D000020400F002000003D2045
:10B0300010640240014600200A6802F001020AB1D1
:10B04000012000E0002070470146486880B2704748
:10B0500010B501F080034BB122B1436943F0800386
:10B06000436103E0436923F08003436180290BD0EF
:10B070002AB1036801F01E042343036004E003685F
:10B0800001F01E04A343036010BD000010B50022B0
:10B090000268134B1A40CC680B6823434C69234366
:10B0A0008C692343CC6923430C6A23434C6A2343B2
:10B0B0008C6A23434C6B23438C6B23431A430260FB
:10B0C000426922F00702D1E90B3423431A4342615B
:10B0D0000B6943604B6883608B68C36010BD0000E0
:10B0E0003F801CF00AB1016100E0C160704741601F
:10B0F00070470021016041608160C1600161416170
:10B100008161C161016241628162C1620163416327
:10B11000816370477047000011B5A5B0259820B92C
:10B12000FAA012F0FDFE02F0F8BA259890F900009E
:10B1300053287DD03DDC3C287BD021DC2E2879D0E3
:10B1400011DC242802F0BA8106DC212802F08E816D
:10B15000232842F0DF82E6E22B2802F0C0822D286D
:10B16000F7D102F0B5BA302802F0CE82312802F0D1
:10B17000CC82322802F0CA823A28EAD101F0B5BC6A
:10B1800042285ED00BDC3D2802F0B7823E2875D005
:10B190003F2802F0AB824028DBD102F092BA44286B
:10B1A0006DD0492801F031824C2869D05028D0D187
:10B1B00081E35538242882F0AD82DFE810F00111D8
:10B1C00025007200BF0CAB12AB12AB12AB12AB126C
:10B1D000AB12AB12AB12800A6005AB120105750C05
:10B1E000EC0CAB12AB120509AB12AB12AB12AB12EB
:10B1F000AB12AB127D03DE0516029707E20C3F0E81
:10B2000024006402970C00BF0121080308F0B6F87F
:10B21000FEF77CFFBE48BF49081A80080146179018
:10B22000BB48FEF761FF1890BBA30222042102E095
:10B230008FE01DE1CAE00090BAA012F071FE02F0AA
:10B240006BBA2598401C25902C221CA9189018F048
:10B25000B5FA1A901A9808B31A98012811DD1D98AA
:10B26000102200211890FDF7A0F844B21C9810227B
:10B2700000211890FDF799F804700EE072E16CE07F
:10B280003BE01C98102200211790FDF78EF8007803
:10B2900001461890A8A012F043FED0E7012026B086
:10B2A00010BD2598401C25902C221CA9189018F040
:10B2B00085FA1A901A98F0B11A9801280EDD1D9897
:10B2C000102200211890FDF770F804B21C9810228B
:10B2D00000211890FDF769F804800BE01C981022FB
:10B2E00000211790FDF761F800880146189094A09E
:10B2F00012F016FEA3E70120D1E72598401C259007
:10B300002C221CA9189018F059FA1A901A98F0B12A
:10B310001A9801280EDD1D98102200211890FDF7C3
:10B3200044F804461C98102200211890FDF73DF8BF
:10B3300004600BE01C98102200211790FDF735F8EF
:10B3400000680146189080A012F0EAFD77E701201E
:10B35000A5E7259817F0A0FEA1E72598401C2590A9
:10B360002C221CA9189018F029FA1A901A98022871
:10B3700001DA012093E71A98032815D11E98007866
:10B38000692811D11D984FF0FF31189016F07EFFFB
:10B390001A901C984FF0FF31179016F077FF189015
:10B3A0001A9917F0F9F910E01D984FF0FF31189035
:10B3B00016F06CFF1A901C984FF0FF31179016F0A2
:10B3C00065FF18901A9917F029FE38E71422604992
:10B3D00014A8FCF769FF2598401C25900078E8B375
:10B3E0000020139015E0259913980844022111902C
:10B3F00016F04CFFC1B21398129000EBD0704210BF
:10B400000DF15B0081541398401C13901398401C5D
:10B4100013902598FCF78EFF13998842E3D8139870
:10B42000129000EBD070C0F347008DF85A00002254
:10B4300002214848FEF7CAFB47480068006814220A
:10B4400014A9129012F05FFE012202214148FEF77A
:10B45000BDFB424800680146129000E003E040A0B6
:10B46000FEF7C8FE03E000213DA0FEF7C3FEE6E6BE
:10B47000142114A8FCF731FF2598401C25901022B8
:10B4800025A91390FCF791FF1490149808B9032094
:10B4900005E700BF02E02598401C2590259800781C
:10B4A0002028F8D000208DF85A0010E0102225A99D
:10B4B0002598FCF77AFFC1B29DF85A200DF15B0088
:10B4C00081549DF85A00401CC0B28DF85A0025984E
:10B4D000007818B19DF85A000828E7DB0022022105
:10B4E0001C48FEF773FB1C4800680068142214A96E
:10B4F000139012F008FE012202211648FEF766FBA7
:10B50000259800780028C5D199E600000D0A3E0074
:10B5100000800008000004084E6F7620323520328B
:10B52000303231002025642E253032642025732CE2
:10B53000203C253038583E002C2530325800000081
:10B540002C253034580000002C25303858000000DD
:10B550008442020800680040500100208C02002054
:10B5600049000000142114A8FCF7B7FE2598401CE0
:10B570002590102225A91390FCF717FF149014981A
:10B5800008B903208BE600BF02E02598401C2590F7
:10B59000259800782028F8D000208DF85A0010E077
:10B5A000102225A92598FCF700FFC1B29DF85A206A
:10B5B0000DF15B0081549DF85A00401CC0B28DF81B
:10B5C0005A002598007818B19DF85A000828E7DB42
:10B5D000FE4800684068142214A9139012F093FDED
:10B5E000259800780028CFD129E62598401C259081
:10B5F0002C221CA9189018F0E1F81A901A98E0B3C0
:10B600001A98012805DD1D981890FCF73FFF1B9044
:10B6100001E001201B901C984FF0FF31189016F0AC
:10B6200035FE1A901A98FF2809DD4FF47F411A98C9
:10B6300001EA00201A99C1F3072108431A901AA9B8
:10B64000E3481B9A006817F001FC20B90421E1A02F
:10B6500012F066FC14E0E4A012F062FC1B98C1003A
:10B6600001208840401E1A99084018901B984000FD
:10B6700017900146DDA0189A00E002E012F050FC9D
:10B68000DDE501200BE62598401C25902C221CA905
:10B69000189018F093F81A901A98022840D11C9824
:10B6A0004FF0FF31189016F0F1FD1A901A98FF280C
:10B6B00014DD4FF47F411A9801EA00201A99C1F372
:10B6C000072108431A901D984FF0FF31189016F08B
:10B6D000DDFD1A9941EA00401A9009E01D984FF0EB
:10B6E000FF31189016F0D2FD1A9941EA00201A9005
:10B6F0001C981790FCF71EFE44081D981790FCF745
:10B7000019FE04EB500002461AA91890B0480068D0
:10B7100018F00CFD30B90421AEA012F001FC01E0DC
:10B720000120BCE58BE52598401C25902C221CA906
:10B73000189018F043F81A901A98A0B900201A909F
:10B740000CE00020AB491A9A01EB82014880A9491C
:10B750001A9A21F822001A98401C1A901A98B0F5EB
:10B76000806FEEDB6BE51A9802287DD101201A90DC
:10B7700098E0A0481A9930F82100E0BB1C98189076
:10B78000FCF784FE401D0A2190FBF1F000EB8000E5
:10B79000400000280BDD1C981890FCF777FE401D38
:10B7A0000A2190FBF1F000EB8000400000E0002057
:10B7B00000B290491A9A21F822001D981890FCF7BF
:10B7C00065FE002804DD1D981890FCF75FFE00E080
:10B7D000002000B287491A9A01EB8201488085480F
:10B7E0001A9930F921000990FCF7E5FFCDE90C0129
:10B7F00080481A9900E052E000EB8100B0F90200A5
:10B800000790FCF7D8FF9FED7C1BCDE908019DED6B
:10B81000080B11F061FC8DED0A0B9DED0C0B53EC48
:10B82000102B9DED0A0B51EC100BFCF7E3FE9FED86
:10B83000740B53EC102BCDE90E019DED0E0B51EC6A
:10B84000100BFCF749FF9FED700B53EC102BCDE96B
:10B8500010019DED100B51EC100BFCF724FECDE90F
:10B8600014016448006800E023E01190FCF7A3FF96
:10B87000CDE912019DED140B53EC102B9DED120B35
:10B8800051EC100BFCF70FFECDE916019DED160BE8
:10B8900051EC100BFCF7ADFF5649086007E01A9811
:10B8A000401C1A901A98B0F5806FFFF662AF00BF87
:10B8B000C5E40120F3E400BF2598401C25902C220C
:10B8C0001CA9189017F042F91A901A98E8BB504832
:10B8D0000068B0F976000B90FCF76DFF9FED4D0B03
:10B8E00053EC102BCDE90C019DED0C0B51EC100B22
:10B8F000FCF780FE9FED490B53EC102BCDE90E01B8
:10B900009DED0E0B51EC100BFCF7E6FE9FED450B89
:10B9100053EC102BCDE910019DED100B51EC100BE9
:10B92000FCF7DAFE9FED410B53EC102BCDE9120131
:10B930009DED120B51EC100BFCF7CEFE9FED320B80
:10B9400053EC102BCDE9140100E0AAE09DED140B9F
:10B9500051EC100BFCF7A7FDCDE916019DED160B80
:10B9600051EC100BFCF745FF294909680968B1F94A
:10B970000C1048434FF4167190FBF1F018902448D6
:10B9800000680068B0F906001790014629A0189ACF
:10B9900012F0C6FA1E4800680068C08A20B91C4828
:10B9A00000680068008B78B1194800680068008B57
:10B9B00000EE100AF8EE400AB2EE041A80EE810A98
:10B9C0008DED130A139849E06AE000005001002051
:10B9D00034020020202E2E2E493243206572726FD1
:10B9E00072282530325829002C00000025302A58B2
:10B9F000000000000C0800200000000000000840CB
:10BA000000000000006A1841000000000000E03F54
:10BA1000000000206666666666660A400000000058
:10BA20000000B040000000000000F03FDEA3EA602C
:10BA3000F09A6E3F0D3E7028756C73652920205476
:10BA40002C5520202020202020202020202E2E2E8B
:10BA500020256475732C256456000000FCF701FF57
:10BA6000CDE91601FE4800680068C08A00EE100AA1
:10BA7000F8EE400AB2EE041A80EE810A8DED130A48
:10BA80001398FCF7EEFECDE91401DDE91601CDE9CE
:10BA900000019DED140B53EC102BF2A012F040FAB4
:10BAA00028E41A98002808DD1C981890FCF7EEFC92
:10BAB00000B2EB4909680968C8801A9801281CDDA2
:10BAC0001D98139011F0ECFA8DED140B9FEDF00B17
:10BAD00053EC102B9DED140B51EC100BFCF78AFD71
:10BAE000CDE916019DED160B51EC100BFCF781FE14
:10BAF00000B2DB490968096888801A98032809D1CF
:10BB00001E981890FCF7C2FC40B2D5490968096834
:10BB1000887210E02598401E25900078502805D1A5
:10BB20000720CF4909680968887204E00120CC49E0
:10BB30000968096888721A9804283CD11E981390E5
:10BB400011F0AEFA8DED140B9FEDD10B53EC102BD1
:10BB50009DED140B51EC100BFCF74CFDCDE91601DB
:10BB60009DED160B51EC100BFCF762FEBC49096809
:10BB70000968C8821F98139011F092FA8DED140B8A
:10BB80009FEDC30B53EC102B9DED140B51EC100BE0
:10BB9000FCF730FDCDE916019DED160B51EC100BB5
:10BBA000FCF746FE81B2AE48006800680183AC48ED
:10BBB000006806F0AFF8AA48006808F0F5FB04E456
:10BBC0002598401C25902C221CA9189016F0BEFF29
:10BBD0001A901A9810BBA24800680068B0F90E00CD
:10BBE00000EE100AF8EEC00A9FEDAB1A80EE810A53
:10BBF0008DED150A1598FCF734FECDE9160198482D
:10BC000000680068B0F9100015909DED160B53EC1C
:10BC1000102B0146A1A012F083F928E41A980028FD
:10BC200008DD1C981890FCF731FC00B28C490968BB
:10BC3000096808821A9801281CDD1D98139011F0DC
:10BC40002FFA8DED140B9FED9F0B53EC102B9DEDF8
:10BC5000140B51EC100BFCF7CDFCCDE916019DED5A
:10BC6000160B51EC100BFCF7C4FD00B27C490968BF
:10BC70000968C8817A48006808F096FB44E4259872
:10BC8000401C25902C221CA9189016F05FFF1A90DA
:10BC90001A98C0B9724800680068B0F90800189096
:10BCA0006F4800680068B0F9020017906C4800689F
:10BCB0000068B0F900001690014684A0DDE9172362
:10BCC00012F02EF920E41A9800280FDD1C98189025
:10BCD000FCF7DCFB002809DD1C981890FCF7D6FB6C
:10BCE00000B25F4909680968088001E0022049E460
:10BCF0001A98012808DD1D981890FCF7C7FB00B2C0
:10BD000057490968096848801A98022808DD1E9872
:10BD10001890FCF7BBFB00B251490968096808811B
:10BD20001A9803281DDD1F981890FCF7AFFB002818
:10BD300017DD1F981890FCF7A9FB494909680866A8
:10BD400047480068006E401E454909684865002163
:10BD5000434800688C304FF0085202EB40100177E6
:10BD600006E000213E48006801663D4800684165E4
:10BD70003B48006808F018FB36E42598401C2590E5
:10BD80002C221CA9189016F0E1FE1A901A98E8BB14
:10BD900059A012F0C5F800201990E9E03048006879
:10BDA000B0F976000B90FCF706FD1FEDE60B53ECA7
:10BDB000102BCDE90C019DED0C0B51EC100BFCF799
:10BDC00019FC1FEDEA0B53EC102BCDE90E019DED94
:10BDD0000E0B51EC100BFCF77FFC1FEDEE0B53EC40
:10BDE000102BCDE910019DED100B51EC100BFCF761
:10BDF00073FC1FEDF20B53EC102BCDE912019DEDFE
:10BE0000120B51EC100BFCF767FC00E0BDE09FED5E
:10BE1000420B53EC102BCDE914019DED140B51ECAA
:10BE2000100BFCF740FBCDE916019DED160B51EC14
:10BE3000100BFCF7DEFC199901EB8101384A02EB8B
:10BE40004101B1F90210484300F596704FF41671A4
:10BE500090FBF1F01890199800EB8000114661E01A
:10BE6000000000200D0A3E712873776368292020A6
:10BE700064656C61792C77696474682020202E2EAB
:10BE80002E20252E316675732C252E316675730094
:10BE90000000000000002440000016440D3E64280D
:10BEA000656C6179292020542C50572020202020B7
:10BEB00020202020202E2E2E20256475732C252E48
:10BEC000326600000000000000C082400D3E622883
:10BED000757273742920204E2C6C656E2C706572FF
:10BEE00020202020202E2E2E2025642C25647573E2
:10BEF0002C25646D730000000D3E7128736861701D
:10BF0000652920772C552C74642C746F2C74726501
:10BF100066202E2E2E000000000000000000E03FF2
:10BF2000BC07002001EB4000B0F90800199901EBB3
:10BF3000810102EB4101B1F90610CDE90010199819
:10BF400000EB8001104600EB4100B0F904001790AF
:10BF5000199800EB8000114631F910001690014647
:10BF6000FBA0DDE9173211F0DBFF1998401C199096
:10BF7000199800EB8000FB4901EB4000008918B1E3
:10BF800019980828FFF60AAF92E41A9805287DD17F
:10BF90000020199002E01998401C1990199800EBA4
:10BFA0008000F04901EB4000008968B120981890AA
:10BFB000FCF76CFA199901EB8101EA4A02EB4101A5
:10BFC000B1F908108842E6D11C981890FCF75EFA87
:10BFD00001B2199800EB8000E24A22F810101D9877
:10BFE0001890FCF753FA4FF4167100FB01F4DE4889
:10BFF0000068B0F976000B90FCF7DDFB9FEDDB0BE2
:10C0000053EC102BCDE90C019DED0C0B51EC100BFA
:10C01000FCF7F0FA9FEDD70B53EC102BCDE90E0196
:10C020009DED0E0B51EC100BFCF756FB9FEDD30B67
:10C0300053EC102BCDE910019DED100B51EC100BC2
:10C04000FCF74AFB9FEDCF0B53EC102BCDE912010F
:10C050009DED120B51EC100BFCF73EFB1FED520B4C
:10C0600053EC102BCDE914019DED140B51EC100B8A
:10C07000FCF719FACDE916019DED160B51EC100BEA
:10C08000FCF7B7FB94FBF0F001B200E02BE019984D
:10C0900000EB8000B34A02EB400041801E981890EC
:10C0A000FCF7F4F901B2199800EB8000AD4A02EBFD
:10C0B000400081801F981890FCF7E8F901B21998A8
:10C0C00000EB8000A74A02EB4000C1802098189046
:10C0D000FCF7DCF901B2199800EB8000A14A02EBF1
:10C0E0004000018101E0012001E6D9E42598401CCF
:10C0F00025902C221CA9189016F028FD05287DD229
:10C10000DFE800F003323F65AB0097480068B0F904
:10C1100046003C2190FBF1F0189093480068B0F97C
:10C12000440090FBF1F017908F480068B0F842008F
:10C130004FF47A7110FB01F03C2190FBF1F0169066
:10C1400089480068B0F840004FF47A7110FB01F0A4
:10C150003C2190FBF1F01590189800908BA015A948
:10C160000EC911F0DDFE2DE11C981790FCF78EF939
:10C1700000F00300014618907B48006805F0C6FBFC
:10C1800020E11C981890FCF781F9C0EB00108000AA
:10C190004FF47A7190FBF1F000B273490968A1F88D
:10C1A00040001D981890FCF771F9C0EB001080005A
:10C1B0004FF47A7190FBF1F001B26B480068A0F87F
:10C1C000421000216848006808F0F6F8FAE01C9870
:10C1D0001890FCF75BF9C0EB001080004FF47A7107
:10C1E00090FBF1F000B260490968A1F840001D9889
:10C1F0001890FCF74BF9C0EB001000E0E0E0800085
:10C200004FF47A7190FBF1F001B257480068A0F842
:10C2100042101E981890FCF739F90A2805DB1E9881
:10C220001890FCF733F9642801DD02205FE51E98C1
:10C230001890FCF72BF9C0EB0010800001B24A48BF
:10C240000068A0F8461048480068A0F84410002193
:10C250004548006808F0B0F8B4E0434800688C3006
:10C260004FF0085101EB401090F82C0048B93E48BF
:10C2700000688C3001EB401090F8300008B90120C4
:10C2800035E51C981890FCF701F9B0F5FA7F1EDC33
:10C290001D981890FCF7FAF8B0F5FA7F17DC1E9895
:10C2A0001890FCF7F3F80A2811DB1E981890FCF799
:10C2B000EDF864280BDC1F981890FCF7E7F80A28C3
:10C2C00005DB1F981890FCF7E1F8642801DD0220D7
:10C2D0000DE51C981890FCF7D9F8C0EB0010800011
:10C2E0004FF47A7190FBF1F000B21F490968A1F890
:10C2F00040001D981890FCF7C9F8C0EB00108000B2
:10C300004FF47A7190FBF1F001B217480068A0F881
:10C3100042101E981890FCF7B9F8C0EB001080008E
:10C3200001B211480068A0F844101F981890FCF75B
:10C33000ADF8C0EB0010800001B20B480068A0F817
:10C34000461000210848006808F036F83AE000007E
:10C350000D0A25642C25642C25642C25642C256469
:10C3600000000000BC070020000000206666666632
:10C3700066660A40000000000000B04000000000B7
:10C380000000F03FDEA3EA60F09A6E3F0D3E732896
:10C39000696D6D657229206E202F2F2074312C74E9
:10C3A000322C66312C66322E2E25646E732C256459
:10C3B0006E732C256475732C256475730000000062
:10C3C000012094E400BF28E42598401C25902C22ED
:10C3D0001CA9189016F0BAFB20B102287DD00328C2
:10C3E0007CD1DCE0FEA011F09BFDFE4800680068F7
:10C3F000B0F91200C0EB001000EB80004FF40061B8
:10C4000001EB00101690F74800680068B0F91400BE
:10C41000C0EB001000EB800001EB00101790F1481A
:10C420000068B0F94800C0EB001000EB800001EBA1
:10C430000010C117189000EB1150001315901798B9
:10C44000C11700EB1150001314901698C11700EBA0
:10C450001150001313900146E3A0DDE9142311F0FD
:10C460005FFDED4800680990FCF7B6F91FED410B40
:10C4700053EC102BCDE90A019DED0A0B51EC100B8A
:10C48000FCF7B8F81FED450B53EC102BCDE90C0170
:10C490009DED0C0B51EC100BFCF71EF91FED490B39
:10C4A00053EC102BCDE90E019DED0E0B51EC100B52
:10C4B000FCF712F91FED4D0B53EC102BCDE91001D9
:10C4C0009DED100B51EC100BFCF706F99FEDD30B13
:10C4D00053EC102BCDE9120101E071E091E09DEDEC
:10C4E000120B51EC100BFBF7DEFFCDE914019DEDB3
:10C4F000140B51EC100BFCF77CF91890C948D0F8DC
:10C5000028020990FCF768F91FED680B53EC102B1B
:10C51000CDE90A019DED0A0B51EC100BFCF76AF80E
:10C520001FED6C0B53EC102BCDE90C019DED0C0BAA
:10C5300051EC100BFCF7D0F81FED700B53EC102BE7
:10C54000CDE90E019DED0E0B51EC100BFCF7C4F87C
:10C550001FED740B53EC102BCDE910019DED100B6A
:10C5600051EC100BFCF7B8F89FEDAC0B53EC102B13
:10C57000CDE912019DED120B51EC100BFBF793FF6F
:10C58000CDE914019DED140B51EC100BFCF731F9C2
:10C5900017900146A4A0189A11F0C2FC33E01E982F
:10C5A0001890FBF773FF4FF4167101EB0030490050
:10C5B00090FBF1F001B28B480068A0F8481000BF72
:10C5C0001C981890FBF762FF4FF4167101EB0030D6
:10C5D000490090FBF1F000B282490968096848827D
:10C5E0001D981890FBF752FF4FF4167101EB0030C5
:10C5F000490090FBF1F001B27A480068006881823E
:10C6000001E0012070E500BFBEE42598401C2590A4
:10C610002C221CA9189017F0D1F810B102284AD189
:10C6200028E01020FDF7B4FE00EBC00101EB001084
:10C6300040F2FF7101EB800040F6FF7190FBF1F0DA
:10C6400018900020FDF7A4FE00EBC00101EB0010E4
:10C6500040F2FF7101EB800040F6FF7190FBF1F0BA
:10C6600017902520009002467AA0DDE9171311F0FB
:10C6700057FC22E01C981690FBF708FFC0EB003037
:10C680003230642190FBF1F080B218901D98169022
:10C69000FBF7FCFEC0EB00303230642190FBF1F080
:10C6A00080B2179001460020189AFDF79DFE0120E8
:10C6B000FDF75CFE01E0012016E500BF64E425986B
:10C6C000401C25902C221CA9189016F03FFA002837
:10C6D0007DD16A4800880790FCF76DF81FEDDD0BEF
:10C6E00053EC102BCDE908019DED080B51EC100B1C
:10C6F000FBF780FF1FEDE10B53EC102BCDE90A0196
:10C700009DED0A0B51EC100BFBF7E6FF1FEDE50B5F
:10C7100053EC102BCDE90C019DED0C0B51EC100BE3
:10C72000FBF7DAFF1FEDE90B53EC102BCDE90E01FF
:10C730009DED0E0B51EC100BFBF7CEFF9FED370B71
:10C7400053EC102BCDE910019DED100B51EC100BAB
:10C75000FBF7A9FECDE912019DED120B51EC100B78
:10C76000FCF747F81690464800880790FCF723F836
:10C770009FED440B53EC102BCDE908019DED080B08
:10C7800051EC100BFBF736FF9FED400B53EC102BD9
:10C79000CDE90A019DED0A0B51EC100BFBF79CFF54
:10C7A0009FED3C0B53EC102BCDE90C019DED0C0BD8
:10C7B00051EC100BFBF790FF9FED380B53EC102B57
:10C7C000CDE90E019DED0E0B51EC100B00E067E181
:10C7D000FBF782FF9FED110B53EC102B62E0000082
:10C7E0000D0A00000000002063757272656E7420EF
:10C7F0006C696D697473286C2F68292020202020B3
:10C80000202020202E2E2E202564412C2564412C12
:10C810002564410D0A0000002422014000000000B0
:10C820000000E03F00200140766F6C746167652076
:10C830006C696D697473286C2F6829202020202072
:10C84000202020202E2E2E202564562C2564560DC7
:10C850000A0000000D3E6928444143292020206938
:10C86000312C69322020202020202020202E2E2E26
:10C8700020256425632C2564256300002401002005
:10C88000200100206666666666660A4000000000B9
:10C890000000B040000000000000F03FDEA3EA60AE
:10C8A000F09A6E3FCDE910019DED100B51EC100B8D
:10C8B000FBF7F9FDCDE912019DED120B51EC100BC8
:10C8C000FBF797FF1590F3484188F348D0F8540FD1
:10C8D000081AC0EB001000EB80004FF4006101EB80
:10C8E00000101790ED484188EB48D0F8580F081A0F
:10C8F000C0EB001000EB80004FF4006101EB001072
:10C90000C117189000EB1150001300901798C11731
:10C9100000EB1150001314900246E1A0DDE915135D
:10C9200011F0FEFADC48D0F8500F0790FBF743FFF8
:10C930001FED2C0B53EC102BCDE908019DED080BDE
:10C9400051EC100BFBF756FE1FED300B53EC102B88
:10C95000CDE90A019DED0A0B51EC100BFBF7BCFE73
:10C960001FED340B53EC102BCDE90C019DED0C0B9E
:10C9700051EC100BFBF7B0FE1FED380B53EC102BF6
:10C98000CDE90E019DED0E0B51EC100BFBF7A4FE53
:10C990001FED5E0B53EC102BCDE910019DED100B3C
:10C9A00051EC100BFBF77FFDCDE912019DED120B51
:10C9B00051EC100BFBF71DFF1690B748D0F84C0F49
:10C9C0000790FBF7F8FE1FED510B53EC102BCDE950
:10C9D00008019DED080B51EC100BFBF70BFE1FED52
:10C9E000550B53EC102BCDE90A019DED0A0B51ECD0
:10C9F000100BFBF771FE1FED590B53EC102BCDE91B
:10CA00000C019DED0C0B51EC100BFBF765FE1FEDBF
:10CA10005D0B53EC102BCDE90E019DED0E0B51EC8F
:10CA2000100BFBF759FE1FED830B53EC102BCDE9D8
:10CA300010019DED100B51EC100BFBF734FDCDE90F
:10CA400012019DED120B51EC100BFBF7D2FE15906D
:10CA50009148D0F8540FC0EB001000EB80004FF469
:10CA6000006101EB001017908B48D0F8580FC0EB15
:10CA7000001000EB800001EB0010C117189000EBD4
:10CA80001150001300901798C11700EB11500013BC
:10CA9000149002468EA0DDE9151311F041FA01E071
:10CAA000012015E400BF8EE42598401C25902C221F
:10CAB0001CA9189016F04AF81A9010E01CA81A99B0
:10CAC00050F821001890FBF7E1FC81008C480068C9
:10CAD00084304FF0085202EB4010012242541A9960
:10CAE000481E1A900029E9D16DE46CE42598401C99
:10CAF00025901890FBF7CAFC012804D0022808D022
:10CB0000042812D10BE000217D48006880F84C1009
:10CB10000DE001217A48006880F84C1007E00221FE
:10CB20007748006880F84C1001E0012049E400BF1C
:10CB300000217348006807F03FFC44E42598401C3E
:10CB400025901890FBF7A2FC012804D0022808D0F9
:10CB5000042812D10BE000206949096809680877A8
:10CB60000DE00120664909680968087707E002209E
:10CB7000634909680968087701E0012021E400BFE2
:10CB800021E42598401C25901890FBF77FFC424932
:10CB9000C1F87C0F17E42598401C25902C221CA975
:10CBA000189015F0D3FF1A901A98D0BB544800681B
:10CBB0008C304FF0085101EB401090F82C0088B3F6
:10CBC000022002F043FF1190FBF7F5FD9FED4D0BA6
:10CBD00053EC102BCDE912019DED120B51EC100B13
:10CBE000FBF77AFDCDE9160148480068642190FB07
:10CBF000F1F015904648006890FBF1F01490DDE9E3
:10CC00001601CDE90401252042490968CDE900015A
:10CC100002904148036841A0DDE9141211F080F947
:10CC2000E9E0E9E0FFE7364800688C304FF0085152
:10CC300001EB401090F8300058B3012002F006FFDD
:10CC40001190FBF7B8FD9FED2F0B53EC102BCDE9A6
:10CC500012019DED120B51EC100BFBF73DFDCDE9E0
:10CC600016012A480068642190FBF1F015902848CD
:10CC7000006890FBF1F01490DDE91601CDE90401A4
:10CC8000252024490968CDE9000102902248036863
:10CC900062E067E020010020CC6001202401002038
:10CCA00020200D3E61286463292020202055312C4E
:10CCB00049312C55322C49322020202E2E2E202571
:10CCC00064562C2564412C2564562C2564410000B3
:10CCD0000A0D3E61286463292020202069646C6568
:10CCE000202020202020202020202E2E2E202564D1
:10CCF000562C2564412C2564562C256441000000E7
:10CD0000000000200000000000005940EC0000205E
:10CD1000E8000020E4000020E00000200D3E66282E
:10CD2000616E29202020546C2C54682C6D696E2C67
:10CD30006D61782C542E2E2E2025642C2533642CE6
:10CD400025336425632C25336425632C202D2D2069
:10CD50002C25352E31660000FDA0DDE9141211F0FE
:10CD6000DFF848E0022002F071FE0F90FBF723FD90
:10CD70001FED1C0B53EC102BCDE910019DED100B9A
:10CD800051EC100BFBF7A8FCCDE91601012002F0D5
:10CD90005DFE0F90FBF70FFD1FED260B53EC102BE4
:10CDA000CDE910019DED100B51EC100BFBF794FC3D
:10CDB000CDE91401F5480168642091FBF0F013906F
:10CDC000F3480168642091FBF0F01290DDE9160150
:10CDD000CDE90601DDE91401CDE904012520ED4985
:10CDE0000968CDE900010290EB480368EBA0DDE99A
:10CDF000121211F095F836E31A9804281CD11C98E9
:10CE00001890FBF743FB64214843E14908601D98F3
:10CE10001890FBF73BFB64214843DC4908601E98EF
:10CE20001890FBF733FBDC4908601F981890FBF75C
:10CE30002DFBD849086016E301203DE4002018903E
:10CE4000179016902598401C25902C221CA915900F
:10CE500015F07CFE30B101287ED002287DD0032859
:10CE60007CD10AE1DC484089A0F5805000EBC0008D
:10CE700080000C2190FBF1F00390FBF79CFC9FEDF0
:10CE8000D70B53EC102BCDE904019DED040B51ECB5
:10CE9000100BFBF7AFFB9FEDD30B53EC102BCDE941
:10CEA00006019DED060B51EC100BFBF715FC9FEDF9
:10CEB000CB0B53EC102BCDE908019DED080B51EC89
:10CEC000100BFBF7F0FACDE90A019DED0A0B51ECCE
:10CED000100BFBF7F1FC0D90FBF7C3FCCDE914013F
:10CEE000BD48008900EB800001010C2091FBF0F0AF
:10CEF0000590FBF760FC9FEDB90B53EC102BCDE9CF
:10CF000006019DED060B51EC100BFBF773FB9FED3B
:10CF1000B50B53EC102BCDE908019DED080B51EC3E
:10CF2000100BFBF7D9FBCDE90A019DED0A0B51EC83
:10CF3000100BFBF7C1FC0D90FBF793FCCDE9120140
:10CF4000A54880880190FBF747FC9FEDA80B53ECA8
:10CF5000102BCDE9020102E09BE094E09FE09DED03
:10CF6000020B51EC100BFBF745FB9FEDA20B53ECB2
:10CF7000102BCDE904019DED040B51EC100BFBF7D8
:10CF8000ABFB9FED960B53EC102BCDE906019DED0D
:10CF9000060B51EC100BFBF72DFB9FED920B53ECA6
:10CFA000102BCDE908019DED080B51EC100BFBF7A0
:10CFB00093FBCDE90A019DED0A0B51EC100BFBF739
:10CFC0007BFC0D90FBF74DFCCDE910018248C08839
:10CFD0000190FBF701FC9FED890B53EC102BCDE981
:10CFE00002019DED020B51EC100BFBF703FB9FEDD3
:10CFF000810B53EC102BCDE904019DED040B51EC9A
:10D00000100BFBF769FB9FED750B53EC102BCDE973
:10D0100006019DED060B51EC100BFBF7EBFA9FEDB3
:10D02000710B53EC102BCDE908019DED080B51EC71
:10D03000100BFBF751FBCDE90A019DED0A0B51ECFA
:10D04000100BFBF739FC0D90FBF70BFCCDE90E0143
:10D05000DDE91401CDE90401DDE91201CDE90201A8
:10D06000DDE91001CDE900019DED0E0B53EC102B15
:10D0700064A010F055FF002013E51E981590FBF7F3
:10D0800005FA179000BF1D981590FBF7FFF9169051
:10D0900000BF1C981590FBF7F9F9189001E00220E9
:10D0A000FFE400BF179828B90A21189890FBF1F106
:10D0B00008441790169828B90321189890FBF1F1AD
:10D0C000401A16901898B0F5487F0ADC1898002886
:10D0D00007DB18991698884203DADDE917018842C0
:10D0E00001DC0220DDE41898FBF765FB9FED3D0BAA
:10D0F00053EC102BCDE90A019DED0A0B51EC100BFE
:10D10000FBF778FA9FED4D0B53EC102BCDE90C019A
:10D110009DED0C0B51EC100BFBF76CFA9FED490BDE
:10D1200053EC102BCDE90E019DED0E0B51EC100BC5
:10D13000FBF760FA9FED290B53EC102BCDE91001A2
:10D140009DED100B51EC100BFBF7C6FA7EE00000D2
:10D150000D3E6628616E29202020546C2C54682CCA
:10D160006D696E2C6D61782C542E2E2E2025642C2A
:10D170002533642C25336425632C25336425632CE7
:10D1800025352E31662C202D2D200000EC000020AE
:10D19000E8000020E4000020E00000200D3E6628AA
:10D1A000616E29202020546C2C54682C6D696E2CE3
:10D1B0006D61782C542E2E2E2025642C2533642C62
:10D1C00025336425632C25336425632C25352E31C6
:10D1D000662C25352E31660040180020666666668E
:10D1E00066660A40000000000000B0400000000039
:10D1F000007C8F400000000000001E400000000086
:10D20000005E9F402862616E6B29202055632C557B
:10D21000632F322C32302C2D35202E2E2E20252E11
:10D220003066562C25352E3066562C25352E316627
:10D23000562C25352E3166560000000000000000F7
:10D240000000F03FDEA3EA60F09A6E3F9FEDFC0B1A
:10D2500053EC102BCDE912019DED120B51EC100B8C
:10D26000FBF721F9CDE914019DED140B51EC100BE6
:10D27000FBF7BFFA01B2F4480068A0F8761000226C
:10D280004FF48371F148FCF767F81698FBF793FAAF
:10D290001FED2C0B53EC102BCDE908019DED080B75
:10D2A00051EC100BFBF7A6F91FED1C0B53EC102BE8
:10D2B000CDE90A019DED0A0B51EC100BFBF79AF931
:10D2C0001FED200B53EC102BCDE90C019DED0C0B49
:10D2D00051EC100BFBF78EF91FED400B53EC102BAC
:10D2E000CDE90E019DED0E0B51EC100BFBF7F4F99F
:10D2F0009FEDD30B53EC102BCDE910019DED100BDE
:10D3000051EC100BFBF7CFF8CDE912019DED120B9C
:10D3100051EC100BFBF76DFA80B215901798FBF7E4
:10D320004AFA1FED500B53EC102BCDE908019DED8F
:10D33000080B51EC100BFBF75DF91FED400B53ECA4
:10D34000102BCDE90A019DED0A0B51EC100BFBF7F8
:10D3500051F91FED440B53EC102BCDE90C019DED61
:10D360000C0B51EC100BFBF745F91FED640B53EC64
:10D37000102BCDE90E019DED0E0B51EC100BFBF7C0
:10D38000ABF99FEDAF0B53EC102BCDE910019DEDE8
:10D39000100B51EC100BFBF786F8CDE912019DED57
:10D3A000120B51EC100BFBF724FA80B214900146DB
:10D3B000A648159AFBF7E6FE189806F0CFFF3CE565
:10D3C00088201B9002221BA9A148006815F03EFD91
:10D3D000E8B31B9800B210F023FD8DED150A1598E7
:10D3E000FBF73FFACDE916019DED160B53EC102B20
:10D3F00098A010F095FD8B201B9002221BA9944849
:10D40000006815F023FD10B31B9800B210F008FD62
:10D410008DED150A1598FBF724FACDE916019DED5F
:10D42000160B53EC102B8FA010F07AFD97201B9059
:10D4300002221BA98648006815F008FD38B11B9828
:10D4400000B210F0EDFC8DED150A159800E00BE030
:10D45000FBF707FACDE916019DED160B53EC102BE7
:10D4600083A010F05DFD57E10420E6E41F2176481B
:10D4700000680068B0F90600CDE900017248006854
:10D48000B0F94A0049F6404302464CF201111890A7
:10D490007AA0FCF7AFFE7B49142011F08DFE1F220D
:10D4A0001A2177A0FCF7A6FE0121674800688430A6
:10D4B0004FF0085202EB401001702DE12598401CFE
:10D4C00025901490FAF7E2FF18900020179016901C
:10D4D000159000216CA0FCF78DFE6C48D0F85C0F15
:10D4E000014614906AA010F01BFD8FE018980128E7
:10D4F0000ED16949179831F82010169808441690F3
:10D500006549179801EB80004188159808441590EB
:10D51000189802280ED16149179831F820101698F2
:10D52000084416905D49179801EB800041881598D2
:10D53000084415901798401C1790C117149000EBE1
:10D54000917081101498A0EB8100A8BB1698C117A8
:10D55000149000EB9170801016901598C1171490DC
:10D5600000EB91708010159003E04649022011F005
:10D5700023FE1698C117149000EB11600112149845
:10D58000A0EB01204649139014F0DEFD401C00285A
:10D59000EBD003E03B49022011F00EFE1698C117B4
:10D5A000149000EB116000123D49139014F0CCFD73
:10D5B000401C0028EED004E028E03249022011F09F
:10D5C000FBFD1598C117149000EB1160011214981F
:10D5D000A0EB01203249139014F0B6FD401C002846
:10D5E000EBD003E02749022011F0E6FD1598C117A2
:10D5F000149000EB116000122949139014F0A4FD5F
:10D60000401C0028EED00020159016901F48D0F83E
:10D610005C0FC0EB001081003C2091FBF0F0401E3D
:10D6200042F20F7188423DDA1848D0F85C0FC0EB27
:10D63000001081003C2091FBF0F0401E34E000001F
:10D64000000000000000E03F000000200022014038
:10D65000340200200D3E56696E3D252E31662C2089
:10D6600000000000566F75743D252E31662C200099
:10D67000506F75743D252E316600000077777777FF
:10D6800058000000CDF0010849000000CC600120E6
:10D690002C25640D0A0000004C1800208CB40020DA
:10D6A0008802002042F20F70179988423FF71EAFA0
:10D6B0001B48006801461490AFF23400FCF79AFD55
:10D6C0002AE02598401C2590189011F0A0FDD3E485
:10D6D0002598401C2590189000F01CFCCCE425985F
:10D6E000401C2590189000F069FFC5E42598401C67
:10D6F0002590189001F04CF8BEE42598401C259028
:10D70000189000F00FF8B7E400BF00BF259800F0B4
:10D710004BF9B1E40120AFE400BF0020ACE400000D
:10D720008C02002030B52DED068B89B0044694F9AB
:10D730000000432804D045287ED049287DD14EE002
:10D74000611C0C4608460FF0ABFCB0EE40AAF0EEB0
:10D7500060AA9FED770B53EC102B51EC1A0BFAF7E4
:10D7600049FF41EC190B9FED740B53EC102BFBF7A9
:10D770008BF802D29FED700B12E0611C0C4608463C
:10D780000FF08EFCB0EE409AF0EE609A9FED680BC1
:10D7900053EC102B51EC190BFAF72CFF41EC100B4A
:10D7A000B0EE408AF0EE608A51EC180BFBF721F8DE
:10D7B0006349C1F88C0FD1F88C0FFAF7FCFF41ECEC
:10D7C000190B9FED5B0B53EC102BFAF785FF41EC27
:10D7D000180B53EC182B5BA010F0A2FBA5E0611C0A
:10D7E0000C4608460FF05CFCB0EE40AAF0EE60AAD2
:10D7F0009FED4F0B53EC102B51EC1A0BFAF7FAFE7E
:10D8000041EC190B9FED580B53EC102BFBF73CF838
:10D8100002D29FED550B15E0611C0C4608460FF037
:10D820003FFCB0EE409AF0EE609A9FED410B53EC56
:10D83000102B51EC190B01E023E071E0FAF7DAFE4E
:10D8400041EC100BB0EE408AF0EE608A51EC180B00
:10D85000FAF7CFFF3A49C1F8900FD1F8900FFAF7D5
:10D86000AAFF41EC190B9FED320B53EC102BFAF78A
:10D8700033FF41EC180B53EC182B3DA010F050FB7C
:10D8800053E0611C0C4608462C2201A915F096FFB6
:10D89000054640E000BF01A951F825004FF0FF31D7
:10D8A00014F0F4FC3B490968096F084090BB01A9DA
:10D8B00051F825004FF0FF3114F0E8FC35490968B4
:10D8C000C96E084030BB01A951F825004FF0FF3167
:10D8D00014F0DCFC3049084070B100BF2F480068EC
:10D8E0002F4908402D4908602E48006820F47F2009
:10D8F0002C49086000BF00BF01A951F825004FF076
:10D90000FF3114F0C3FC23490968C96E084321495B
:10D910000968C86600BF281EA5F10105BAD104E058
:10D92000012009B0BDEC068B30BD00BF0020F8E738
:10D930000000000000408F4000000000000059403F
:10D94000CC600120202E2E2E2062616E6B20636140
:10D950007061636974792073657420746F20253653
:10D960002E316C66206D460000000000000024404F
:10D97000202E2E2E20636861726765206375727297
:10D98000656E742073657420746F2025352E316C9C
:10D990006620410000000020A8D9030800100240C2
:10D9A000FFFF33C3000802402DE9F041ADF5E26D01
:10D9B000054635BBFEA010F0B3FAFF210DF5AB60B4
:10D9C00012F05AFDC8B90DF5AB61FA4813F002FC2C
:10D9D00098B90DF5AB60FAF7ADFC401E0DF5AB61E3
:10D9E000085C2F2803D1F4A010F09AFA72E20DF52A
:10D9F000AB61F2A010F094FA6CE2F1A010F090FA92
:10DA000068E228780028F1D020220DF5DE61284652
:10DA100015F0D4FE0446DDF8F006FAF78BFC8046DC
:10DA20004246E8A0DDF8F016FAF7A2FC68B14246DB
:10DA3000E5A0DDF8F016FAF79BFC30B14246E3A012
:10DA4000DDF8F016FAF794FC18BB284612F0E2FC59
:10DA5000A0B9DF4909680122D1F89800294613F0DE
:10DA60008DFA58B9FF210DF5AB6012F005FD28B90C
:10DA70000DF5AB61CF4813F0ADFB20B101200DF5E2
:10DA8000E26DBDE8F081AFF2DF00D249096848617C
:10DA90001FE24246D0A0DDF8F016FAF769FCF0B9B3
:10DAA000022C1AD10021C34813F0DAFDA8B90FE007
:10DAB0000DF5BB62BF49DDF8F40614F01DF9074609
:10DAC0002FB1384613F0D8FE08B10520D7E700BFC4
:10DAD000B84880690028EBD1FBE10120CFE742463E
