:020000040800F2
:10800000A8F001209D810008C5F90008E981000859
:10801000E9810008E9810008E9810008000000000A
:108020000000000000000000000000003D180108F2
:10803000F9A800080000000071070108791D010877
:10804000B7810008B7810008B7810008B781000830
:10805000B7810008B7810008B7810008B781000820
:10806000B7810008B7810008B7810008B781000810
:10807000B7810008B7810008B7810008B781000800
:10808000B7810008B78100083992000855980008A8
:108090001D980008B781000845980008D1D4000851
:1080A000B7810008F51E0108B7810008B7810008F4
:1080B000B7810008B7810008B781000861DC0008BB
:1080C00041DC0008B7810008B7810008B7810008CB
:1080D000B7810008B7810008B78100084133010863
:1080E000CDD40008B7810008B7810008B781000827
:1080F000B7810008C1230108B7810008B7810008D3
:10810000B7810008B7810008B7810008B78100086F
:10811000B7810008B7810008B7810008B78100085F
:10812000B7810008B7810008B7810008B78100084F
:10813000F5A50008B7810008B7810008C1980008BC
:1081400089980008B7810008B19800089DFA0008D6
:10815000B7810008B7810008B7810008B93301086A
:10816000B7810008B7810008B7810008B78100080F
:10817000B7810008B7810008B7810008B7810008FF
:10818000B7810008B7810008DFF80CD000F070FD5F
:108190000048004793D80108A8F00120064880470E
:1081A00006480047FEE7FEE7FEE7FEE7FEE7FEE7DC
:1081B000FEE7FEE7FEE7FEE7451E010889810008AD
:1081C00070B44FF000054FF000064FEA0242046819
:1081D000D4FA02F4C4FB945600F10400491EF6D10F
:1081E0002846314670BC70471EF0040F0CBFEFF3F9
:1081F0000880EFF3098015F0F3B82DE9F05F05462C
:10820000002092469B4688460646814640241BE055
:10821000284641464746224600F08FFB53465A46C1
:10822000C01A914110D311461846224600F076FB41
:108230002D1A67EB01084F4622460120002100F06D
:108240006DFB17EB00094E41201EA4F10104DFDC99
:10825000484631462A464346BDE8F09F00487047ED
:108260004CF2010810B50446FFF7F8FF0068005D06
:1082700000F0010010BDA0F16101192900D82038DB
:10828000704700000649074A0868504343F2390224
:1082900010440860400870470149086070470000BA
:1082A000A00600206D4EC64140EA01039B0703D0A3
:1082B00009E008C9121F08C0042AFAD203E011F825
:1082C000013B00F8013B521EF9D27047D2B201E0E7
:1082D00000F8012B491EFBD270470022F6E710B5CB
:1082E00013460A4604461946FFF7F0FF204610BD24
:1082F000421E12F8013F002BFBD111F8013B02F89E
:10830000013B002BF9D1704710B5044604E00B780F
:1083100000F8013B03B1491C521EF8D2204610BDA3
:10832000CAB2401E10F8011F8A4202D00029F9D1BA
:1083300000207047421C10F8011B0029FBD1801A55
:10834000704710B5002200E0521C835C8C5CA34295
:1083500001D1002BF8D1D8B2E1B2401A10BD0346CA
:1083600011F8012B00F8012B002AF9D118467047AB
:1083700030B505460020034600E05B1C934205D261
:10838000EC5CC85C201A01D1002CF6D130BD10B5D0
:108390004843044615F082FA002805D00021002C3D
:1083A00002D0641E0155FAE710BD2DE9F047914651
:1083B0000F4680460446002614F8015B2DB1FFF7F6
:1083C0004DFF0068405DC007F6D12B2D02D02D2D4A
:1083D00018D0641E4A463946204600F0D0FA27B12C
:1083E0003968A14201D1C7F8008071054FF002043D
:1083F0000BD54042002803DD10F0CCF90460A00743
:10840000BDE8F08746F48066E4E70028F8DA10F06B
:10841000C1F904606FF00040F2E72DE9F05F934688
:108420000F4680460446002610F0B4F9D0F80090BC
:10843000824614F8015B2DB1FFF710FF0068405D24
:10844000C007F6D12B2D02D02D2D1AD0641E00218D
:10845000CAF800105A463946204600F090FA014604
:1084600027B13868A04201D1C7F80080DAF80000CF
:10847000022809D0CAF80090700505D54842BDE829
:10848000F09F46F48066E2E70846F8E770B50646D6
:1084900010F080F9046805460A2200213046FFF7F3
:1084A00084FF2C6070BD2DE9FE4F804681EA0300F9
:1084B000C00F0C46009021F0004123F00045B8EBBE
:1084C0000200A94105D24046214690461C460B4673
:1084D000024623F00040104347D0270DC7F30A009F
:1084E000C3F30A510290401A019040286BDAC3F39B
:1084F000130040F4801B0098924620B10023D2EB79
:10850000030A63EB0B0B01985946C0F14002504639
:1085100000F004FA06460D4650465946019A00F00E
:108520001CFA10EB08006141002487EA115284EA2A
:10853000E7731A4340D0009A62B3019A012A4FEAC6
:10854000075215DC001B61EB02014FF0004202EA0A
:108550000752CDE90042001C41F5801132462B46FE
:1085600000F0F0FA03B0BDE8F08F40462146F9E78D
:10857000001B61EB0201001C41F5801300185B41F8
:108580002018A2F5001747EB030140EAD570B61991
:108590006D4111E06D084FEA360645EAC0754FEAB5
:1085A0000752001B61EB0201001C41F580114908D4
:1085B0004FEA30000019514132462B4603B0BDE866
:1085C000F04F00F0B0BA0098012240000023D0EB39
:1085D000020263EBE073009821464FEAE074B8EBC7
:1085E000000061EB0401E9E783F000435BE781F001
:1085F000004158E72DE9FE4F81EA030404F00044EE
:1086000021F0004100944FF0000B23F0004350EAAA
:1086100001045ED052EA03045BD0C3F30A54C1F3F1
:108620000A552C44A4F2F3340194A0FB0254C1F384
:10863000130141F48011C3F3130343F4801301FBCE
:10864000024400FB034E840A970A44EA815447EA35
:108650008357A4FB076802958D0A05FB07854FEA3F
:10866000932C04FB0C542705029D4FEA065847EA59
:108670001637B5EB08056EEB070C870E920E47EA2E
:10868000811742EA8312A7FB0201B6EB0B0164EBF0
:1086900000042B0D43EA0C335E1844EB1C50DA4601
:1086A0005146E7FB0201C5F313044FEA0B3343EADB
:1086B00014534FEA0432019C43EA0603A4F10C046C
:1086C0000294009CCDE900B400F03CFA03B0BDE890
:1086D000F08F00200146F9E72DE9F04D81EA03040F
:1086E00004F0004B21F0004514464FF0000A23F03F
:1086F000004150EA050220D054EA01021DD0C5F322
:108700000A570246C5F31303C1F31300C1F30A5617
:1087100040F4801543F48013A7EB0608101BD646DF
:1087200008F2FD3873EB050002D308F1010801E0FF
:1087300092185B41B8F1000F03DA00200146BDE852
:10874000F08D00204FF48011064684460EE0171B82
:1087500073EB050705D3121B63EB050306434CEAD5
:10876000010C49084FEA300092185B4150EA0107BA
:10877000EDD152EA030012D082EA040083EA050137
:10878000084305D0101BAB4106D20122002306E0AE
:1087900000224FF0004302E06FF0010253101AEB89
:1087A00006004CEB085110EB0A0041EB0B01BDE851
:1087B000F04D00F0B8B90EB5C10F80EAE070084482
:1087C000CA07002140F233438DE80E000A460B46EB
:1087D00000F0B8F903B000BD0EB540F2334102918C
:1087E0000021CDE900110A460B4600F0ABF903B0B9
:1087F00000BD70B5C1F30A5201F000450024C1F379
:10880000130140F2FF3341F480119A4201DA002053
:1088100070BD40F233439A42A2F2334203DC52422B
:1088200000F08BF800E090402C43F1D0404270BD46
:10883000C1F30A5210B5C1F3130140F2FF3341F402
:1088400080119A4201DA002010BD40F233439A426F
:10885000A2F2334203DC524200F06FF810BD9040A8
:1088600010BD00F0004230F000400AD0C10D01F50B
:108870006071C0F3160042EA0151C208400711437B
:10888000704700200146704730B5041E71F10004A6
:1088900004DB4FF00044404264EB0101141E73F10D
:1088A000000405DB1C464FF00043524263EB040317
:1088B0008B4208BF824230BD01F0004330B421F04A
:1088C000004150EA010206D00A0DA2F56072C1F320
:1088D0001301002A02DC30BC00207047440F44EA38
:1088E000C104C100E01830BC00EBC25000F0E4B895
:1088F00030B50B46014600202022012409E021FA70
:1089000002F59D4205D303FA02F5491B04FA02F56C
:108910002844151EA2F10102F1DC30BD202A04DB3F
:10892000203A00FA02F1002070479140C2F1200382
:1089300020FA03F3194390407047202A04DB203AC1
:1089400021FA02F00021704721FA02F3D040C2F16F
:1089500020029140084319467047202A06DBCB17B6
:10896000203A41FA02F043EAE07306E041FA02F3EA
:10897000D040C2F1200291400843194670472DE9CA
:10898000F05F82460078002715468B460AF1010405
:10899000B946302801D09DB113E014F8010B01272E
:1089A000782803D0582801D045B10AE00DB1102D28
:1089B00007D10027102514F8010B02E0082500E07C
:1089C0000A250026B0460EE005FB080005FB06F16F
:1089D000012701EB10461FFA80F8B6F5803F00D35F
:1089E000B94614F8010B294600F054F90028EBDAD7
:1089F000BBF1000F05D00FB1641E00E05446CBF868
:108A00000040B9F1000F06D00FF0C4FE0221016052
:108A1000C81EBDE8F09F48EA0640FAE70FB40023FD
:108A200000B589B00CA900910B996FF00042CB60A2
:108A30001E4B06931E4B07930423CDE901321D4ABA
:108A4000089202466B46002000F0C6F909B05DF8B6
:108A500014FB70B586B006464FF0FF300091CDE9AB
:108A60000101002015460C4604903246694604A8D0
:108A7000FFF7D4FF02460498211825B108B1084633
:108A800000E020462860049800280DD0002A02DD6E
:108A90000098884208D0081B0094CDE901043246B2
:108AA000694604A8FFF7BAFF06B070BD1190000830
:108AB0002F900008658200080029A8BF7047401C5D
:108AC000490008BF20F00100704710B4B0FA80FCE4
:108AD00000FA0CF050EA010404BF10BC704749B121
:108AE000CCF1200421FA04F411FA0CF118BF012191
:108AF00021430843A3EB0C01CB1D4FEA00614FEA71
:108B0000102042BF002010BC704700EBC35010443F
:108B10000029A4BF10BC7047401C490008BF20F0CA
:108B2000010010BC704710B5141E73F1000408DA80
:108B3000401C41F1000192185B411A4301D120F021
:108B4000010010BD2DE9F04D92469B4611B1B1FADE
:108B500081F202E0B0FA80F220329046FFF7DEFEAA
:108B600004460F4640EA0A0041EA0B0153465A46C2
:108B7000084313D0114653EA010019D0C8F140024E
:108B80005046FFF7DAFE05460E4650465946424625
:108B9000FFF7C4FE084305D0012004E02046394613
:108BA000BDE8F08D0020054346EAE0762C433743CC
:108BB0000A986305E40AA0EB08000022FD0A44EAD3
:108BC00047540A3002D500200146E9E70105101993
:108BD0006941DDE9084500196941BDE8F04DA2E7AA
:108BE00070B521F0004303430CD0C1F30A550024B3
:108BF000D5EB040564EB0403D617AD1AB34102DBD1
:108C00000020014670BD201841EB025170BDC1F338
:108C10000A52C1F3130140F2FF3341F480119A422A
:108C200002DA00200146704740F233439A42A2F232
:108C3000334202DC5242FFF780BEFFF76FBE0000F6
:108C400030B5041E71F1000404DB4FF000444042D3
:108C500064EB0101141E73F1000405DB1C464FF0A8
:108C60000043524263EB0403994208BF904230BD77
:108C7000064C074D06E0E06840F0010394E8070069
:108C800098471034AC42F6D3FFF782FA2CF501086E
:108C90004CF501083A2800D2303820F02002412A51
:108CA00001D3A2F13700884201D34FF0FF30704763
:108CB0002DE9FF4F087883B09946FF2805D0491C5D
:108CC0002D2804D00024002008E000200BE001241F
:108CD000F9E700EB800003EB4000491C0B78FF2B09
:108CE000F7D104B1404200230293147819461D467F
:108CF0002D2C01D02B2C04D1521C2D2C13D0002450
:108D00000294AA461478FF2C0FD00A25A3FB0578FD
:108D100001FB05814FF0000C03FB0C11521CE31901
:108D20004AEB0101EEE70124EAE7814453EA01003E
:108D300002D019F5C87F06DA03980021C0E90011B6
:108D400007B0BDE8F08F0025AE4E2F46DFF8B882A1
:108D5000184600F0CEF9CDE90001B9F1000002DAC1
:108D6000C9F1000400E004460023A74A1AEB030BF4
:108D700042EB045A12E0E00707D02A463346384651
:108D80004146FFF737FC074688462A4633461046D9
:108D90001946FFF72FFC05460E466410002CEAD159
:108DA000DDE90001B9F1000F5A46534606DAFFF734
:108DB00093FC3A464346FFF78FFC05E0FFF71AFCA9
:108DC0003A464346FFF716FC029A0AB181F0004189
:108DD000039AC2E90001B3E72DE9FF4F1F468DB0AA
:108DE000D7E901464FF0FF382E2045464FF00009E5
:108DF0000B90B9696D1C0E988847396A824688477E
:108E00000028F6D1BAF1FF3F0AD024F4D064002E36
:108E100011DDBAF12B0F08D0BAF12D0F0BD102E002
:108E2000404611B08DE744F48064B9696D1C0E981A
:108E300088478246761E6946600501D52D2000E0F0
:108E40002B208DF8000001F1010B0DF1200809E045
:108E5000B9696D1C0E98884782460F9844F40074D7
:108E6000761E0560002E02DDBAF1300FF0D00B99AE
:108E70008A453ED144F0800406E00F99681CA9F1B0
:108E8000010944F400740860B9696D1C761E0E98DF
:108E9000884782463028F0D02BE00B998A4505D1CF
:108EA000200603D444F08004761E18E0504610F0EB
:108EB0000FFE08B30DF11301761E44F400748B45C8
:108EC00008D2AAF130000BF8010B200607D5A9F152
:108ED000010003E0200602D409F101008146A0054B
:108EE00002D50F99681C0860B9696D1C0E988847F7
:108EF0008246002ED1DC53E0002E51DDBAF1650F21
:108F000002D0BAF1450F4BD1A00549D5B9696D1C06
:108F100024F44074761E0E9888478246002E0CDD9D
:108F20002B2804D0BAF12D0F07D144F48074B9690D
:108F30006D1C0E9888478246761EE00501D52D21CE
:108F400000E02B2108F8011BCDF82C8021E00DF169
:108F50002901761E44F4007488450CD2AAF1300031
:108F600010F0FF0088F8000002D10B99884509D95C
:108F700008F1010806E0E00501D5244801E042F2CD
:108F80000F708146B9696D1C0E98884782460F980C
:108F90000560002E04DD504610F09AFD0028D6D161
:108FA000F9690E988847FF208BF8000088F80000C8
:108FB0000020069007904B466A4608A906A8FFF7CE
:108FC00077FEA00502D46FF001002AE714F0240F09
:108FD0000AD0E00714D1DDE906123868031D3B60B2
:108FE0000068C0E900120BE0DDE90601FFF764FC50
:108FF0000146E00704D13868021D3A60006801604C
:1090000028460EE7000014400000F03FF1D8FFFFB3
:10901000426842B1016811F8013B23B1521EC0E918
:109020000012184670470121C160881E70474268CF
:109030005AB1C368016843B983688B4205D0491EA1
:10904000521CC0E90012002070474FF0FF307047FB
:109050002DE9F04D00231A461B1A8A4103DB00203C
:109060000146BDE8F08DC1F30A52C1F3130141F48A
:1090700080154FF0000BD10702D100186D41521E30
:109080000027044640F2FF11384601EB620A3E46D3
:109090008046024600204FF48011FFF74EFCC219B3
:1090A0007141BB1846EB0100B4EB030C75EB000CEF
:1090B00004D3E41A65EB000517460E46241908F19F
:1090C00001006D4180463428E3DDF91946EB0600C6
:1090D000091BA84103D24FF0FF32134601E00022E2
:1090E00013461BEB070046EB0A51BDE8F04DFFF7B6
:1090F0001ABD0EB540F2334202920022CDE90022A1
:109100001346FFF71FFD03B000BD70B58C1810F8B3
:10911000015B15F0070301D110F8013B2A1106D1BC
:1091200010F8012B03E010F8016B01F8016B5B1ED6
:10913000F9D12B0705D40023521E0DD401F8013BB1
:10914000FAE710F8013BCB1A921C03E013F8015B1D
:1091500001F8015B521EF9D5A142D8D3002070BDA1
:109160004268024B1A400A4342607047FFFD3FFFCE
:10917000426822F01F020A434260704741628262E5
:1091800070476FEA1121016070470029816802D0A1
:1091900041F0010101E021F0010181607047000010
:1091A000084B10B5D3F8042307490A40D0E900144E
:1091B0002143D0E90240044321431143C3F804137F
:1091C00010BD000000200140E030FCFF00210160E4
:1091D00041608160C16070470029816802D041F41C
:1091E000807101E021F480718160704700298168FD
:1091F00002D041F4007101E021F4007181607047F8
:10920000826822F440120A438260704730B50246F9
:10921000002053680C0A01258D4011682B40214223
:1092200002D0002B00D0012030BD08B50844283002
:109230000090006880B208BD70B52E4E4FF4837563
:1092400029463046FFF7E2FF2B4CC0B12946304695
:10925000FFF797FF2068B0F87010C9040AD4B0F87F
:109260006C00C00406D40EF0EBFA2068C16E41F425
:109270008051C16600222946304600F043F81F4E57
:1092800029463046FFF7C2FFC0B129463046FFF7F6
:1092900078FF2068B0F87010C9040AD4B0F86C00E8
:1092A000C00406D40EF0CCFA2068C16E41F480519F
:1092B000C16600222946304600F024F8104E2946A7
:1092C0003046FFF7A3FF002813D029463046FFF7AA
:1092D00058FF2068B0F87010C9040AD4B0F86C00C8
:1092E000C00406D40EF0ACFA2068C16E41F480517F
:1092F000C16670BD002001403800002000210140FF
:109300000022014001238B4041680AB1194300E06B
:10931000994341607047000030B542680F4B0C79AB
:109320001A400B6842EA04221343436082680C4BE4
:109330004D791A40D1E9034323438C6844EA45043C
:10934000234313438360C26A097D22F47002491EDD
:10935000C9B242EA0151C16230BD0000FFFEFFFC0C
:10936000FDF7FFC070B5072409290AD9C568A1F126
:109370000A0606EB4606B440A543B3401D43C5604C
:1093800007E0056901EB4106B440A543B3401D4326
:109390000561836BC3F30154121B921C02EB820420
:1093A0001F22A2409343A1400B43836370BD826B95
:1093B000491E22F4401242EA01518163704770B5A0
:1093C000072409290AD9C568A1F10A0606EB460651
:1093D000B440A543B3401D43C56007E0056901EBF8
:1093E0004106B440A543B3401D4305611F23072A2E
:1093F00009D2446B521E02EB820293409C4391407F
:109400000C43446370BD0D2A09D2046BD21F02EBDA
:10941000820293409C4391400C43046370BDC46A34
:109420000D3A02EB820293409C4391400C43C4628C
:1094300070BD816841F0804181607047816841F46E
:10944000800181607047002101600171417181607C
:10945000C1600161012101757047000006490028C3
:10946000D1F8040302D040F4000001E020F4000031
:10947000C1F8040370470000002001402DE9F041CD
:1094800080461A480D4686B00168194811F04CF91B
:10949000064614216846FEF720FF164C206800F5AA
:1094A0007A70F0602068144E4719142230684146E3
:1094B000406810F0DCF97DB9002006B0BDE8F0810D
:1094C000306814226946006810F0BBF910B10098AA
:1094D000A42807D011F080F92068B842F0DB4FF0E3
:1094E000FF30EAE79DF80B00E7E7000038000020B6
:1094F000A9FF000880020020500100202DE9F04162
:1095000001217F2007F0EAFC08F060FCA021012087
:10951000FEF73DFF7F4C011D0025A0630160058122
:10952000026864210226D18002684FF00C0840F6E0
:10953000A9171182006801214FF47A720180A06B93
:1095400000684280A06B03681A810268917201680A
:109550000E770268A2F80C800268A2F80E800168FB
:109560001E228F8201684F820168CD8201680D83BF
:1095700001684D83011D2230FEF796FEA06B40F678
:10958000B8318565056680F84C60A0F84870A0F891
:10959000428020F8408FC1808180C5863C21A0F8A0
:1095A000441005F0FBFB4FF4612005F01FFF4FF462
:1095B000E135E063284605F07BFF2064284605F08E
:1095C000DBFF6064002005F075F95349086004F082
:1095D00093FF05F04BFC4CF250325821002005F06F
:1095E00005FB4E4908604FF40E710120FEF7CFFED7
:1095F000A16BC1F89C00E16B21B1002348A24B484C
:1096000011F06EF8216C21B1002349A2474811F0F6
:1096100067F8616C21B1002348A2444811F060F85A
:10962000002349A24A48A16B11F05AF8002349A22D
:109630004A48A16B11F054F8012349A24A48A16B92
:1096400011F04EF8002349A24A48A16B11F048F8E6
:10965000012349A24B48A16B11F042F800234AA212
:1096600019464C4811F03CF800234BA24C494D4898
:1096700011F036F808F088FB0021A06B08F030FAF2
:10968000A06B08F029FA4FF496700EF098F805F0E8
:1096900083F9E06B11F0FCF87C2007F0B7FC01289F
:1096A00026D07D2007F0B2FC01282AD07E2007F0CA
:1096B000ADFC012827D07B2007F0A8FC012824D08E
:1096C0007A2007F0A3FC00BF07F050FC36A012F090
:1096D000DFF8A06B012234A1D0F89C0012F0A6FDA7
:1096E00032A015F00BF9BDE8F041002011F0D0B820
:1096F000314832490068B0FBF1F131A00FF0F0FFC2
:10970000E2E736A002E03AA000E03EA00FF0E8FF5A
:10971000DAE7000000000020500100204002002095
:10972000434F4D3120706172736572001D0701084F
:10973000434F4D332070617273657200434F4D3655
:10974000207061727365720043414E20747800008E
:10975000ED05010843414E2072780000A9FF000882
:109760007374617475730000E10A01086576656EB3
:10977000747300006D090108636861726765723671
:1097800000000000750701087761746368646F6703
:1097900000000000A77701086C65647300000000FA
:1097A000800200203DF60008303A00004063666702
:1097B0002E696E690D0000005405002040420F0024
:1097C0000D202E2E2E205357522072657365742C57
:1097D0002025644D487A0D0A3E0000000D202E2EF3
:1097E0002E20495744472072657365740D0A3E0068
:1097F0000D202E2E2E205757444720726573657416
:109800000D0A3E000D202E2E2E20706F77657220DF
:109810006F6E2072657365740D0A3E0000B585B0E9
:109820006A460021054800F05DF9054814226946A2
:109830000068006810F01BF805B000BD006400402F
:10984000500100200248016841F0040101607047A6
:10985000046400400A4800B5006885B014224068DE
:1098600069460FF0EEFF0100064804D0694600F09B
:1098700091F905B000BD0022012100F0B7F8F8E72A
:10988000500100200064004000B585B06A46002108
:10989000054800F027F90548142269460068006869
:1098A0000FF0E5FF05B000BD00680040500100204A
:1098B0000248016841F004010160704704680040FB
:1098C0000A4800B5006885B01422406869460FF068
:1098D000B8FF0100064804D0694600F05BF905B006
:1098E00000BD0022012100F081F8F8E750010020BE
:1098F00000680040094910B588424FF0010101D1CC
:109900004C0601E04FF08064204607F00BFB204638
:10991000BDE81040002107F005BB000000640040D6
:10992000F0B5827A012191402E4A136843F0010379
:1099300013602C4B1C331C688C431C60294D067B28
:10994000294C0C35A6B92E688E432E604688C788F0
:1099500046EA0746877A04EBC707C7F840660688D9
:10996000878846EA0746877A04EBC707C7F8446644
:10997000067B012E12D12E680E432E60867A056872
:1099800004EBC6064FEA3545C6F84056867A456868
:1099900004EBC6044FEA3545C4F84456114CC57A69
:1099A000241D002D256806D00D4325600D4C05892A
:1099B000143415B104E08D43F7E725688D43256025
:1099C0000589012D02D125680D432560407B0128C2
:1099D00002D1186808431860106820F00100106078
:1099E000F0BD00000066004000600040002A4269AF
:1099F00001D00A4300E08A434261704710B5036812
:109A0000002223F002030360036843F001030360B4
:109A10004FF6FF7300E0521C4468E40701D19A42FC
:109A2000F9D14268D2073ED08A79012A02683CD037
:109A300022F080020260CA79012A026838D022F03E
:109A4000400202600A7A012A026834D022F0200221
:109A500002604A7A012A026830D022F010020260C5
:109A60008A7A012A02682CD022F008020260CA7A9F
:109A7000012A026828D022F0040202608A78CC7899
:109A8000920742EA04620C7942EA04424C7909885E
:109A900042EA0452491E0A43C261016821F00101F1
:109AA0000160002114E0002010BD42F08002C1E7F7
:109AB00042F04002C5E742F02002C9E742F010023E
:109AC000CDE742F00802D1E742F00402D5E7491C95
:109AD0004268D20701D09942F9D14068C007E2D16B
:109AE000012010BD10B500EB0113D3F8B04114F004
:109AF00004041472D3F8B04134D0E408C2F804402E
:109B0000D3F8B04104F002045472D3F8B44104F025
:109B10000F049472D3F8B441240AD474D3F8B84132
:109B2000D472D3F8B841240A1473D3F8B841240C82
:109B30005473D3F8B841240E9473D3F8BC41D47352
:109B4000D3F8BC41240A1474D3F8BC41240C5474D7
:109B5000D3F8BC311B0E937439B1016941F0200177
:109B6000016110BD640D1460CAE7C16841F02001B5
:109B7000C16010BD00218171C17101724172817299
:109B8000C1728170C17003210171022141710121F3
:109B90000180704730B50246002093685B0108D40D
:109BA0009068000101D5012003E09068C00037D51E
:109BB000022002EB0012D2F8803103F00103C2F858
:109BC00080310B7A73B3D2F880414D681C434B7AD5
:109BD00043EAC5031C43C2F880418B7A03F00F03AC
:109BE0008B72D2F8843123F00F03C2F88431D2F89B
:109BF00084318C7A2343C2F88431CB7ACC6843EA2F
:109C00000423C2F88831CB7B096943EA0121C2F8F9
:109C10008C11D2F8801141F00101C2F8801130BDE1
:109C2000042030BDD2F880314C7A23430C8843EABB
:109C30004453C2F88031D0E7002221B1012905D078
:109C4000022906D112E08268114801E082681148B9
:109C500002401149501A8A4214D00ADCA2B16FF0B6
:109C6000806010180FD002280CD10FE082680B48DA
:109C7000EEE7B0F5007F09D00949401803D0B0F5F0
:109C8000003F03D00020704702207047012070473A
:109C90000300000400030008000100080000031096
:109CA0000001FFF72DE9F0432848DFF8A480294F91
:109CB000A1B00168C8F81C10DFF89C903868012139
:109CC00009EB401080F8781224A00FF009FD0D2058
:109CD00000907623B02229A101A80EF08BF801A8EC
:109CE00000F00CFE01AE0025184813F077FB044687
:109CF000401C0CD0052C0AD005EB45003044224610
:109D000022A1001D0EF076F86D1C082DECDB002D55
:109D100002DD01A800F0F2FD10F05EFD052CE2D19D
:109D2000B0221CA101A80EF065F801A800F0E6FD24
:109D30003968002009EB411181F87802C8F81C004D
:109D400016A00FF0CDFC21B0BDE8F0838C020020FE
:109D5000DC00002038000020001000220D0A2072D4
:109D6000656D6F746520636F6E736F6C65206F70C7
:109D7000656E2E2E2E200D0A3E0000003E2530334B
:109D800058202530325820253032580020253032D6
:109D9000580000003E253033580000000D0A202EE8
:109DA0002E2E2E72656D6F746520636F6E736F6CEF
:109DB0006520636C6F7365640D0A3E0010B5002268
:109DC000044B03E050F822401C60521C8A42F9D335
:109DD000186810BD003002400149012088607047BA
:109DE0000030024071B585B014216846FEF775FA5F
:109DF0000598401C059003F00DFFE0BB022105A86B
:109E000014F07BFA0546042105A814F076FA214ED9
:109E1000B18800EB0144022105A814F06EFA06286F
:109E200034D2DFE800F0033333332E2E1A48844255
:109E300021DBA2200090CDF80B4004208DF80A0011
:109E400000216846FFF71AFBA32000246E4600900D
:109E500014E0022105A814F050FA3119641CC872EC
:109E6000082C00D055B98DF80A40002464216846BA
:109E7000FFF704FB10B1002006B070BD6D1EE8D2E4
:109E800004E0042105A814F038FA70604FF0FF30A8
:109E9000F2E70000FC000020008000080FB414224C
:109EA00070B588B038496846FEF7FEF90DAD374CFD
:109EB00040E001CD059011F8012B05A80C91582A1E
:109EC00020D008DC2E2A0DD0452A19D0492A0FD0DF
:109ED000502A2FD112E0632A18D0692A1AD0772A83
:109EE00028D115E0142268460599FEF7DDF921E036
:109EF0000598206308B070BC5DF814FB402003E0B7
:109F0000432001E09DF81400009013E0002202E0DD
:109F1000012200E003220DF10B0100BF9DF80A6051
:109F200010F8013B73549DF80A305B1C8DF80A3021
:109F3000521EF3D20C9908780028BAD1206BD8B100
:109F400010F0A6FC206312A000990FF0C9FB0025B9
:109F50006E4606E070192E21C27A10A00FF0C0FBE9
:109F60006D1C9DF80A00A842F4DC0EA00FF0B8FBAF
:109F7000206B10F08DFC20630B48142269460068AA
:109F800040680FF074FCB5E750EC010800000020B9
:109F9000253032582E3C3C2E000000002563253031
:109FA000325800000D0A3E0050010020044A0123EF
:109FB0008340106809B1184300E09843106070476F
:109FC0000074004010B501214C07204606F0AAFF9E
:109FD0002046BDE81040002106F0A4BF0549002836
:109FE000086802D040F0030001E020F003000860A0
:109FF0007047000004740040044908B501EB90006C
:10A000002C300090006880B208BD00000074004051
:10A0100030B5084C236840F6FE7282409343D1E984
:10A0200000252A43D1E902510D432A4382401A43B5
:10A03000226030BD00740040082805D042EA01418A
:10A04000034A10440162704742EA0121F8E7000028
:10A05000007400400021016041608160C160704770
:10A0600010B50A460C0601F07F0303EB830100EBF9
:10A07000C10102D501F58E7101E001F55D71D209D2
:10A080000B704A700CF054F8002010BD0A4610B551
:10A09000090602F07F0306D503EB830100EBC10143
:10A0A00001F58E7105E002EB820100EBC10101F5C3
:10A0B0005D7100248C700B70D2094A700CF01FF88F
:10A0C000002010BD10B50A0604D501F07F010CF088
:10A0D0005DF901E00CF03EF9002010BD70B50C46B2
:10A0E0000E0601F07F0505EB850100EBC10102D5ED
:10A0F00001F58E7101E001F55D71E4090D704C70A0
:10A100008A60CB7000D0CD80022B01D100220A7171
:10A110000BF0CCFF002070BD10B501F07F0404EB04
:10A12000840100EBC101C1F88833C1F8802300230A
:10A13000C1F88C3381F8753381F87443C37801F525
:10A140005D71012B00D10A6114F0FF0F03D00CF0F8
:10A1500021F8002010BD0BF03BFFFAE70069002258
:10A1600061F30A1201681143016070470A4610B595
:10A17000090602F07F0306D503EB830100EBC10162
:10A1800001F58E7105E002EB820100EBC10101F5E2
:10A190005D7101248C700B70D2094A700BF0E2FFE4
:10A1A000002010BD70B511F07F0404EB840100EBBA
:10A1B000C1014FF0010581F81D5181F81C41C1F822
:10A1C0002821C1F82C2101F58E714FF00002C1E960
:10A1D000053203D00BF0DEFF002070BD0BF0F8FE5F
:10A1E000FAE700002DE9F041064600250CF052FA8E
:10A1F000074655E0F80751D03069EAB20369416B70
:10A20000D14006EB820201F00101926943EAC111DB
:10A2100094680C40E1071AD00124426B04FA05F15E
:10A220008A43426306EB8500806984601F48E9B277
:10A230000068426830469047F078012807D135B968
:10A2400096F81101042802D130460BF01DFF2007BB
:10A2500004D506EB8500082480698460E00604D5F7
:10A2600006EB8500102480698460600604D506EB47
:10A270008500402480698460A00704D506EB850032
:10A28000022480698460200608D52946304600F003
:10A2900067F906EB85018020896988607F086D1C5D
:10A2A000002FA7D10120BDE8F08100007803002035
:10A2B0002DE9F041064600240CF0F2F90746DFF8DC
:10A2C000988043E0F8073FD0E1B230460CF0EEF959
:10A2D0000546C00725D006EB84000125416D8D6041
:10A2E000F17801290CD1406D016904EB840006EB83
:10A2F000C000C1F31201D0F87C23511AC0F88C13AE
:10A30000D8F80000E1B2026830469047F0780128A2
:10A3100007D134B996F81101052802D130460BF067
:10A32000B3FEA80704D506EB84000225406D8560C6
:10A33000280709D5D8F8000081683046884706EB21
:10A3400084010820496D88607F08641C002FB9D102
:10A350000120BDE8F08100007803002070B50646BA
:10A36000C068816921F010018161F068056A05F01B
:10A370000F0000EB800006EBC004C5F3434004F57A
:10A380005D74072821D2DFE800F02020042020207F
:10A39000150047F6F070054217D0C5F30A152A4696
:10A3A0003046E1680CF093F9E0682844E060A06969
:10A3B000284409E0082206F2CC5130460CF087F917
:10A3C000A069C5F30A110844A061F068816941F0F1
:10A3D00010018161012070BD38B5044600208DF860
:10A3E000000094F812018DF80000154800684169DA
:10A3F0002046884720698068E2684FF40061516117
:10A40000A17AD1B1C00718D094F81501012814D150
:10A410009DF80000032810D1D4F80C01016841F028
:10A4200001010160D4F80C01016841F003010160F1
:10A430000448016841F006010160012038BD0000B8
:10A440007803002010ED00E070B504460069002597
:10A450000126416821F001014160294620460BF0A8
:10A4600095FF0020FF2106E004EB800293699960CC
:10A47000526D9160401C62788242F5D821694FF09C
:10A48000FF3088612846216966F30F0066F31F409C
:10A49000C861216945F00B004861216945F00B0056
:10A4A00008612069016821F4FE61016020460BF01B
:10A4B000EBFDE1684FF48050486103480068016992
:10A4C00020468847012070BD7803002070B50446FF
:10A4D0000CF022F90122002384F8122184F81431AF
:10A4E0001946402511E000BF01EB810004EBC000DC
:10A4F00080F81D2180F81C11A0F8221180F81F316E
:10A50000C0E94953491CC0F8303160788842EBD823
:10A51000002110E001EB810004EBC00282F87533EA
:10A5200082F87413A2F87A1382F87733C2E9DF5302
:10A53000491CC2F8883360788842EBD820460BF07B
:10A5400005FD20460BF0A6FB002120460CF044F947
:10A5500020460BF0DFFB2046BDE870400BF0D5BE77
:10A560002DE9F0470E46054601EB860005EBC004D9
:10A57000D4E94C01421AD4F8240104F58E749042B7
:10A5800000D20246D21C970805EB860923E000BFE3
:10A59000A0EB0108A168414500D2884608F10300FC
:10A5A00087081FFA88F3F2B22846E1680DF012F826
:10A5B000E16801EB0800E060A16901EB0800A0611F
:10A5C0006169884207D321780120884029694A6B54
:10A5D00082434A630BE0D9F81800806980B2B84220
:10A5E00005D9D4E90501814201D20028D0D101204A
:10A5F000BDE8F087002008F091BD0000074A9042B6
:10A6000001D2074801E005481038064A8B0001EAEC
:10A61000020101D5C160704781607047106402403B
:10A62000006002407D0F7D0F074A904201D207482B
:10A6300001E005481038064A8B0001EA020101D505
:10A64000C160704781607047106402400060024042
:10A650007D0F7D0F0029016802D041F0010101E06A
:10A6600021F00101016070472DE9F04190B00546ED
:10A67000684600F030F90121880506F02FFCDFF86C
:10A680008880404600F044F8204F4FF00066CDE946
:10A690000067686800246946006802904020CDE9A0
:10A6A0000304C002CDE90940C011CDE9054008947A
:10A6B00007940D9440460E9400F0DCF801214046CA
:10A6C000FFF7C8FFDFF84080A8F17808404600F0A7
:10A6D0001FF8CDE90067286869460068CDE90204E3
:10A6E0008020049040000990404600F0C3F801210A
:10A6F0004046FFF7AFFF0122C021381F08F0B6FE29
:10A7000010B0BDE8F0810000B864024004100140C0
:10A710002DE9F043016821F0010101600021016091
:10A7200041608160C1600161212141613C493C4A35
:10A730003D251039904202D18D60BDE8F083384A42
:10A740004FF474661832904201D18E60F5E7344AB6
:10A750004FF474173032904201D18F60EDE7304AE8
:10A760004FF0746C4832904202D1C1F808C0E4E75F
:10A770002B4B2C4A6033984201D1CA60DDE7284C4C
:10A78000294B7834A04201D1CB60D6E7DFF8908026
:10A79000264C08F19008404501D1CC60CDE7DFF8A8
:10A7A00080804FF03D5908F1A808404502D1C1F81A
:10A7B0000C90C2E71E49DFF878800839404501D186
:10A7C0000D60BAE71A4D1835A84201D10E60B4E702
:10A7D000174D3035A84201D10F60AEE7144D483512
:10A7E000A84202D1C1F800C0A7E7114D1049603559
:10A7F000091FA84201D10A609FE70D4A78329042B2
:10A8000001D10B6099E70A4A9032904201D10C6065
:10A8100093E7074AA83290428FD1C1F800908CE7A5
:10A82000106002403D000020400F002000003D204D
:10A8300010640240014600200968C90700D00120C9
:10A840007047406880B270470B0607D5436912B164
:10A8500043F0800301E023F080034361802908D0A6
:10A86000002A026801F01E0101D00A4300E08A4379
:10A870000260704730B50368124ACC6813400A681A
:10A880002243D1E905452C432243CC6922430C6A7B
:10A8900022434C6A22438C6A22434C6B22438C6BCA
:10A8A00022431A430260426922F00703D1E90B24D4
:10A8B00022431A4342610A6942604A688260896899
:10A8C000C16030BD3F801CF00AB101617047C160BA
:10A8D0007047416070470021016041608160C16044
:10A8E000016141618161C161016241628162C16254
:10A8F0000163416381637047704700002DE9F14FA8
:10A900002DED0A8B92B01C9949B308784FF0640A78
:10A910004D1C4FF0250B4FF000089FEDF3AB9FED62
:10A92000F48B9FEDF59B9FEDF6BB0127F64CDFF80E
:10A93000DC93F74E53287BD03FDC3C2879D024DCD5
:10A94000DFF8D0A32E2875D015DC242801F07883F9
:10A950000ADC212801F0548323286CD17AE2EEA08E
:10A960000EF0BEFE01F06ABB2B2801F0F4832D2807
:10A97000F3D101F0EBBB302801F0FC833128FBD090
:10A980003228F9D03A28E8D1ECE7422856D00BDC3F
:10A990003D2801F0EA833E2870D03F2801F0E08393
:10A9A0004028DAD101F0CDBB442868D0492867D0CF
:10A9B0004C287DD05028D0D1C5E2553824283AD231
:10A9C000DFE810F0D30A24005F00DB07390039000C
:10A9D0003900390039003900390039000907AA0364
:10A9E00039006E03A407200839003900B905390081
:10A9F00039003900390039003900C1025A04D40144
:10AA0000EB04F407BE0824000B02BF070121080372
:10AA100006F064FAFFF7E0F9C048C149081A810856
:10AA2000BE48FFF7CBF90A22BEA30721009003E03E
:10AA30006BE0DCE0A0E089E0BDA0ABE328462C227F
:10AA400009A91C9513F06CFC089000287ED0012801
:10AA50000CDD102200210A98FDF7A7FC0446102205
:10AA600000210998FDF7A1FC04707BE7102200216A
:10AA70000998FDF79AFC0178B2A023E0FAE04CE0D7
:10AA8000EEE328462C2209A91C9513F049FC0890F6
:10AA90000028DBD001280EDD102200210A98FDF7E6
:10AAA00084FC0446102200210998FDF77EFC00E09A
:10AAB0000BE0048056E7102200210998FDF775FC91
:10AAC0000188A2A00EF00CFE4CE728462C2209A912
:10AAD0001C9513F025FC08900028B7D001280CDD48
:10AAE000102200210A98FDF760FC04461022002184
:10AAF0000998FDF75AFC046034E7102200210998F8
:10AB0000FDF753FC016893A0DCE7084613F050F909
:10AB100012B0BDEC0A8BBDE8F88F28462C2209A99B
:10AB20001C9513F0FDFB089002280FDB032803D1CE
:10AB30000B980078692810D04FF0FF3421460A980E
:10AB400012F032FB08902146099800E08FE112F0E4
:10AB50002BFB089913F0F2F804E74FF0FF3421467D
:10AB60000A9812F021FB08902146099812F01CFB6C
:10AB7000089912F041FDF5E6142278496846FDF780
:10AB800093FB1C95287878B300246D460AE01C9846
:10AB90000221204412F008FB04EBD47105EB6101A3
:10ABA000A41CC8721C98FDF7C5FBA042EFD804EBAB
:10ABB000D47040086A4C8DF80A0000220221204619
:10ABC000FEF714FF674814226946006800680EF01B
:10ABD0004EFE012202212046FEF708FF01F0ADBA29
:10ABE00061A0FFF75BF9BDE6FFE70021F8E714215C
:10ABF0006846FDF772FB284610221CA91C95FDF73C
:10AC0000D4FB0090A8B301E0401C1C901C98017874
:10AC10002029F9D08DF80A800DF10B040BE01022E9
:10AC20001CA9FDF7C2FB9DF80A1008559DF80A0003
:10AC3000401C8DF80A001C98017819B19DF80A1083
:10AC40000829ECD3464C002202212046FEF7CEFE16
:10AC5000444814226946006800680EF008FE01228C
:10AC600002212046FEF7C2FE1C9800780028CDD1B4
:10AC700078E616E014216846FDF72FFB28461022DF
:10AC80001CA91C95FDF791FB009050B1354E45462F
:10AC90000DF10B041C980178202904D08DF80A507E
:10ACA00010E0032034E7401C1C90F3E710221CA99D
:10ACB000FDF77BFB9DF80A1008559DF80A00401C23
:10ACC0008DF80A001C98017819B19DF80A1008291E
:10ACD000ECD330681422694640680EF0C8FD1C9819
:10ACE00000780028D6D13DE6000000000000E03FDB
:10ACF0006666666666660A40000000000000303F37
:10AD00000434D7F79751703F38000020001000221C
:10AD1000CC5F01208C0200200D0A3E00008000085C
:10AD2000000004084F637420323720323032310083
:10AD30002025642E253032642025732C203C2530BC
:10AD400038583E002C253032580000002C25303475
:10AD5000580000002C2530385800000084EC010811
:10AD600000680040500100204900000028462C22C5
:10AD700009A91C9513F0D4FA0890002877D001286F
:10AD800004DD0A98FDF782FB119000E011974FF067
:10AD9000FF31099812F008FA0890FF2807DD4FF6F6
:10ADA000FF7101EA0021C0F3072001430891FA482E
:10ADB00008A9119A006812F007FF78B3F7A00EF007
:10ADC0008FFC1198C10007FA01F20899521E0A403F
:10ADD0004100F3A00EF084FCC4E528462C2209A90A
:10ADE0001C9513F09DFA0890022840D14FF0FF34D3
:10ADF0002146099812F0D8F90890FF280FDD210CA0
:10AE000001EA0021C0F307200143089121460A9876
:10AE100012F0CAF9089941EA004007E017E021461C
:10AE20000A9812F0C1F9089941EA0020089009989F
:10AE3000FDF780FA44080A98FDF77CFA04EB50020B
:10AE4000D54808A9006813F083FE0028C4D1042166
:10AE5000D5A037E628462C2209A91C9513F060FAE4
:10AE6000D64C4FF48061089010B102280CD00EE24D
:10AE70004FEA080204EB80035A8024F82020401C8B
:10AE800008908842F6DB6DE50897089834F8202092
:10AE900022B1401C08908842F7DB63E50998FDF772
:10AEA000F5FA0A25401D90FBF5F000EB800040000C
:10AEB000002809DD0998FDF7E9FA401D90FBF5F03F
:10AEC00000EB8000400000E00020089924F82100F9
:10AED0000A98FDF7DBFA002803DD0A98FDF7D6FA99
:10AEE00000E00020089905B204EB8100458034F9A8
:10AEF0002100FDF760FC41EC180B2846FDF75BFCD8
:10AF000041EC100B9FEDAE1B0DF0CEFC53EC182B5B
:10AF100051EC100BFDF76EFB9FEDAB1B53EC112BAF
:10AF2000FDF7DAFB53EC1A2BFDF7BDFA41EC180BD9
:10AF30002068FDF740FC53EC182BFDF7B4FAFDF741
:10AF400058FC20600EE528462C2209A91C9512F019
:10AF500005FD9FED9FCB0890002827D019DD0998AB
:10AF6000FDF794FA21680968C8800898012810DD67
:10AF70000A980DF07DFC53EC1C2B51EC100BFDF7E7
:10AF800039FBFDF736FC216809688880089803289A
:10AF90005AD01C98401E1C90007850285BD0206826
:10AFA00000688772089804285AD061E12568B5F9CD
:10AFB0007600FDF700FC53EC182BFDF71BFB53EC60
:10AFC000192BFDF717FB53EC1B2BFDF785FB53ECFF
:10AFD0001A2BFDF768FAFDF70CFC2968B1F90C2073
:10AFE000B1F9061050434FF4167290FBF2F27AA0BA
:10AFF0000EF076FB20680068C48A14B9018B002922
:10B00000A0D0008BB2EE048A00EE100AF8EE400ADF
:10B0100080EE880A10EE100AFDF723FC00EE104ABD
:10B0200005460E46F8EE400A80EE880A10EE100A39
:10B03000FDF717FC41EC100BCDE9005653EC102B3B
:10B040006FA00EF04DFB8DE40B98FDF71FFA216801
:10B0500009688872A6E72068072100688172A1E765
:10B060000B980DF005FC53EC1C2B51EC100BFDF76D
:10B07000C1FAFDF7DDFB21680968C8820C980DF064
:10B08000F7FB53EC1C2B51EC100BFDF7B3FAFDF75B
:10B09000CFFB21680A681083084604F07BFEE7E0D6
:10B0A00028462C2209A91C9512F058FC089000286B
:10B0B0001AD018DD0998FDF7E9F9216809680882B6
:10B0C000089801280FDD0A980DF0D2FB9FED571B61
:10B0D00051EC100B53EC112BFDF78CFAFDF789FBAB
:10B0E00021680968C881C3E020680468B4F90E00CB
:10B0F00000EE100AF8EEC00A9FED4E1A80EE810AAB
:10B1000010EE100AFDF7ADFB41EC100BB4F9101076
:10B1100053EC102B48A0A5E028462C2209A91C9529
:10B1200012F01CFC089000282AD032DD0998FDF7A7
:10B13000ADF90028F9DD0998FDF7A8F9216809683B
:10B1400008800898012826DD0A98FDF79FF92168F4
:10B1500009684880089802281DDD0B98FDF796F9CC
:10B16000216809680881089803287EDD0C98FDF79E
:10B170008DF92168086609EB411181F81C8277E09E
:10B1800020680068B0F90830B0F90220B0F900106A
:10B1900067E0DFE12AE168E0400200202C000000C7
:10B1A00025302A5800000000202E2E2E4932432040
:10B1B0006572726F7228253032582900000700200E
:10B1C000000000000000084000000000006A184174
:10B1D00000000000000024400D3E7028756C73656F
:10B1E000292020542C5520202020202020202020E1
:10B1F000202E2E2E20256475732C25645600000009
:10B200000D0A3E71287377636829202064656C619C
:10B21000792C77696474682020202E2E2E20252E0C
:10B22000316675732C252E316675730000000000A1
:10B2300000C08240000016440D3E6428656C6179B0
:10B24000292020542C50572020202020202020204E
:10B25000202E2E2E20256475732C252E326600009C
:10B2600074E2FBA00EF03CFA24E42168C1F860808F
:10B27000206806F031FC1DE428462C2209A91C9503
:10B2800012F06CFBFD4F089010B105283DD0C7E3CC
:10B29000FBA00EF025FA00252BE02068B0F976001F
:10B2A000FDF789FA53EC182BFDF7A4F953EC192B91
:10B2B000FDF7A0F953EC1B2BFDF70EFA53EC1A2BFC
:10B2C000FDF7F1F8FDF795FAB6F9021048434FF48F
:10B2D000167100F5967090FBF1F2B6F90610CDE903
:10B2E0000018B6F9043037F91910EDA00EF0F8F98E
:10B2F0006D1C05EB850907EB4906B6F908005FEA06
:10B300000008B1D0082DC8DB26E40026B84600E0CE
:10B31000761C06EB860708EB4705288930B10D98A7
:10B32000FDF7B4F8B5F908108842F1D10998FDF796
:10B33000ADF806EB860228F812000A98FDF7A6F889
:10B340004FF4167100FB01F62068B0F97600FDF7A6
:10B3500032FA53EC182BFDF74DF953EC192BFDF78E
:10B3600049F953EC1B2BFDF7B7F953EC1A2BFDF7FA
:10B370009AF8FDF73EFA96FBF0F008EB470148809B
:10B380000B98FDF783F8A8800C98FDF77FF8E8800C
:10B390000D98FDF77BF8288125E428462C2209A981
:10B3A0001C9512F0DBFA4FF47A7505287ED2DFE89F
:10B3B00000F0032029406C0021683C204FF47A758E
:10B3C000B1F9462092FBF0F4B1F9442092FBF0F37E
:10B3D000B1F8422012FB05F292FBF0F2B1F84010F6
:10B3E00011FB05F191FBF0F1B2A000940EF078F999
:10B3F0003EE40998FDF74AF800F00301206804F0E4
:10B400005FFB35E40998FDF741F8C0EB00108000C0
:10B4100090FBF5F02168A1F840000A98FDF736F896
:10B42000C0EB0010800090FBF5F12068A0F84210FE
:10B430007FE00998FDF72AF8C0EB0010800090FB30
:10B44000F5F02168A1F840000A98FDF71FF8C0EB5D
:10B450000010800090FBF5F02168A1F842000B98E5
:10B46000FDF714F80A2875DB0B98FDF70FF8642830
:10B4700070DC0B98FDF70AF8C0EB00108100206823
:10B48000A0F84610A0F8441053E0206809EB4010E3
:10B4900090F82C1219B990F83002002806D00998BB
:10B4A000FCF7F4FF4FF4FA76B04200E0CEE0DFDCC8
:10B4B0000A98FCF7EBFFB042DADC0B98FCF7E6FFEA
:10B4C0000A28D0DB0B98FCF7E1FF6428D0DC0C984D
:10B4D000FCF7DCFF0A28C6DB0C98FCF7D7FF6428D2
:10B4E000C6DC0998FCF7D2FFC0EB0010800090FB8F
:10B4F000F5F02168A1F840000A98FCF7C7FFC0EBFF
:10B500000010800090FBF5F02168A1F842000B9834
:10B51000FCF7BCFF2168C0EB00108000A1F84400DC
:10B520000C98FCF7B3FFC0EB001081002068A0F876
:10B53000461000211EE228462C2209A91C9512F073
:10B540000DFA40B14FF44F767500022869D00328F8
:10B550007CD15CE01BE364A00EF0C2F82368CF212D
:10B560001A68508A10FB01F14FF40060928A00EBD8
:10B57000C101CF2412FB04F2B3F8483000EBC20241
:10B5800013FB04F300EBC300C31700EB13500313CA
:10B59000D01702EB10500213C81701EB1050011323
:10B5A00052A00EF09DF85D4DD5F8240205F5097501
:10B5B000FDF712F953EC182BFDF71CF853EC192B7F
:10B5C000FDF718F853EC1B2BFDF786F853EC1A2BFC
:10B5D000FCF769FFFDF70DF904466868FDF7FCF814
:10B5E00053EC182BFDF706F853EC192BFDF702F876
:10B5F00053EC1B2BFDF770F853EC1A2BFCF753FFA1
:10B60000FDF7F7F80146224645A0FFF7E3BB0B988C
:10B61000FCF73CFF06EB003090FBF5F02168A1F849
:10B6200048000998FCF732FF06EB003090FBF5F07C
:10B630002168096848820A98FCF728FF06EB003069
:10B6400090FBF5F021680968888235E205E1000089
:10B650000D3E6228757273742920204E2C6C656E25
:10B660002C70657220202020202E2E2E2025642C68
:10B67000256475732C25646D73000000B0060020EE
:10B680000D3E712873686170652920772C552C74E4
:10B69000642C746F2C74726566202E2E2E000000B0
:10B6A0000D0A25642C25642C25642C25642C256426
:10B6B000000000000D3E7328696D6D657229206ED3
:10B6C000202F2F2074312C74322C66312C66322EB0
:10B6D0002E25646E732C25646E732C256475732C73
:10B6E00025647573000000000D0A00006375727216
:10B6F000656E74206C696D697473286C2F682920DD
:10B7000020202020202020202E2E2E202564412C99
:10B710002564412C2564410D0A00000000200140F1
:10B72000766F6C74616765206C696D697473286CE1
:10B730002F68292020202020202020202E2E2E207F
:10B740002564562C2564560D0A00000028462C223C
:10B7500009A91C9512F0E4FD10B102287DD11FE06B
:10B760001020FEF749FC00EBC00101EB001040F295
:10B77000FF7606EB800040F6FF75B0FBF5F4002085
:10B78000FEF73AFC00EBC00101EB001006EB800075
:10B79000B0FBF5F123462522FDA0CDF800B025E64B
:10B7A0000998FCF773FEC0EB00305446323090FB32
:10B7B000F4F085B20A98FCF769FEC0EB0030323035
:10B7C00090FBF4F081B22A460020FEF735FC012000
:10B7D000FEF704FC70E128462C2209A91C9512F002
:10B7E000BDF80028BAD1F44F3888FCF7F5FF53ECC8
:10B7F000182BFCF7FFFE53EC192BFCF7FBFE53EC68
:10B800001B2BFCF769FF53EC1A2BFCF74CFEFCF7E3
:10B81000F0FFEA4C05462088FCF7DEFF53EC182BBE
:10B82000FCF7E8FE53EC192BFCF7E4FE53EC1B2B62
:10B83000FCF752FF53EC1A2BFCF735FEFCF7D9FF4F
:10B8400001466088D6F8542F4FF40064801ACF2246
:10B85000504304EBC0007A8800E0E1E0D6F8583F9E
:10B8600006F64C76D21ACF235A4304EBC202D31702
:10B8700002EB135212130092C21700EB1250021384
:10B880002B46CFA00DF02CFF7068FCF794FF53EC13
:10B89000182BFCF7AFFE53EC192BFCF7ABFE53EC67
:10B8A0001B2BFCF719FF53EC1A2BFCF7FCFDFCF7E4
:10B8B000A0FF05463068FCF77EFF53EC182BFCF721
:10B8C00099FE53EC192BFCF795FE53EC1B2BFCF760
:10B8D00003FF53EC1A2BFCF7E6FDFCF78AFF014649
:10B8E000B068CF22504304EBC002F068CF23584326
:10B8F00004EBC000C31700EB135000130090D017E7
:10B9000002EB105002132B46B9A06FE528462C22FB
:10B9100009A91C9512F022F809AD4E4608900AE0DC
:10B9200055F82000FCF7B2FD2168800000EB4110C3
:10B93000304480F800710898401E0890411CEFD1F7
:10B940007CE328461C95FCF7A1FD012804D00228C1
:10B9500006D0042864D107E0216881F84C8007E014
:10B96000206880F84C7003E02168022081F84C00C8
:10B970000021206806F0B4F860E328461C95FCF727
:10B9800085FD012804D0022807D0042848D108E00A
:10B990002168096881F81C8050E3206800680777F7
:10B9A0004CE3216802200968087747E39C4E9D4CD0
:10B9B000B71C2046FDF742FD9B4902200EF074FFA4
:10B9C00014212046FDF731FC40F6E44148439749F5
:10B9D00001EB103081000A2091FBF0F51421204684
:10B9E0001935FDF722FCB6F90010B7F90020401A0E
:10B9F00000EB8000511A000190FBF1F12A468CA067
:10BA00001E3102E628462C2209A91C9511F0A6FF3A
:10BA1000894E8A4FDFF82882089038B1042878D000
:10BA2000012012B0BDEC0A8BBDE8F88F206809EB4D
:10BA3000401090F82C129FED838BE1B1022002F0B0
:10BA4000BBFAFCF7B8FE53EC182BFCF745FE034697
:10BA500030680C4690FBFAF23868CDE9043490FB6C
:10BA6000FAF1D8F800307948CDE900B3CDF808B044
:10BA7000036877A01EE090F83002F0B1012002F0D8
:10BA80009BFAFCF798FE53EC182BFCF725FE0346B7
:10BA900030680C4690FBFAF23868CDE9043490FB2C
:10BAA000FAF1D8F800306948CDE900B3CDF808B014
:10BAB000036876A00DF014FEC0E2022002F07CFACA
:10BAC000FCF779FE53EC182BFCF706FE04460D46F6
:10BAD000012002F071FAFCF76EFE53EC182BFCF714
:10BAE000FBFD32683E6804AB96FBFAF683E8330050
:10BAF000D8F8001092FBFAF2CDE900B15348CDF826
:10BB000008B03146036800E003E06FA00DF0E8FDE7
:10BB100094E20998FCF7BAFC6421484338600A981B
:10BB2000FCF7B4FC6421484330600B98FCF7AEFC92
:10BB3000464908600C98FCF7A9FCC8F800007DE2B3
:10BB400000273E4628462C2209A91C9511F006FF25
:10BB500030B1012819D0022818D0032817D190E15C
:10BB6000684CA08AFCF738FE9FED67AB53EC1A2BAC
:10BB7000FCF740FD9FED66BB53EC1B2BFCF73AFD39
:10BB800053EC182BFCF736FDC6E082E17DE195E130
:10BB90000D3E69284441432920202069312C693217
:10BBA0002020202020202020202E2E2E202564251D
:10BBB000632C25642563000044010020400100201F
:10BBC00020200D3E61286463292020202055312C3F
:10BBD00049312C55322C49322020202E2E2E202562
:10BBE00064562C2564412C2564562C2564410000A4
:10BBF0000A0D3E61286463292020202069646C6559
:10BC0000202020202020202020202E2E2E202564C1
:10BC1000562C2564412C2564562C256441000000D7
:10BC20002C7AFF1F00200140D9A7010808FDFFFF63
:10BC30002025642C20256400E8000020E40000207A
:10BC4000E00000200000000000005940DC0000205F
:10BC50000D3E6628616E29202020546C2C54682CDF
:10BC60006D696E2C6D61782C542E2E2E2025642C3F
:10BC70002533642C25336425632C25336425632CFC
:10BC8000202D2D202C25352E316600000D3E6628F6
:10BC9000616E29202020546C2C54682C6D696E2C08
:10BCA0006D61782C542E2E2E2025642C2533642C87
:10BCB00025336425632C25336425632C25352E31EB
:10BCC000662C202D2D2000000D3E6628616E292057
:10BCD0002020546C2C54682C6D696E2C6D61782C6E
:10BCE000542E2E2E2025642C2533642C25336425D8
:10BCF000632C25336425632C25352E31662C2535A0
:10BD00002E316600341700200000000000609F40C4
:10BD1000000000000000C03F53EC192BFCF76AFC48
:10BD2000FCF7CAFDFCF79DFD81468A46608AFCF758
:10BD300053FD53EC1A2BFCF75DFC53EC1B2BFCF76B
:10BD400059FC53EC182BFCF755FC53EC192BFCF762
:10BD500051FCFCF7B1FDFCF784FD074688462089BD
:10BD6000FCF73AFD53EC1A2BFCF744FC53EC1B2B6D
:10BD7000FCF740FC53EC182BFCF73CFC53EC192B64
:10BD8000FCF738FCFCF798FDFCF76BFD05460E460A
:10BD90006089FCF721FD53EC1A2BFCF72BFC53ECCC
:10BDA0001B2BFCF727FC53EC182BFCF723FC53EC64
:10BDB000192BFCF71FFCFCF77FFDFCF752FD8DE80B
:10BDC000E00741EC100BEDA053EC102B0DF088FCBC
:10BDD000208AFCF701FD9FEDF7BB53EC1B2BFCF712
:10BDE00009FC9FEDF6AB53EC1A2BFCF775FC53ECFA
:10BDF000182BFCF7FFFB53EC192BFCF7FBFBFCF7B4
:10BE00005BFDFCF72EFD07468846E089FCF7E4FC65
:10BE100053EC1B2BFCF7EEFB53EC1A2BFCF75CFCF2
:10BE200053EC182BFCF7E6FB53EC192BFCF7E2FB69
:10BE3000FCF742FDFCF715FD05460E46A089FCF710
:10BE4000CBFC9FEDE01B53EC112BFCF7D3FB53EC29
:10BE50001A2BFCF741FC53EC182BFCF7CBFB53ECF3
:10BE6000192BFCF7C7FBFCF727FDFCF7FAFC8DE864
:10BE7000E00141EC100BD5A053EC102B0DF030FC81
:10BE8000DCE00B98FCF702FB07460A98FCF7FEFA89
:10BE900006460998FCF7FAFA05461FB90A2095FBF1
:10BEA000F0F047191EB9032095FBF0F02E1AB5F5F6
:10BEB000487F03D8AE4201DAAF4201DC0220B0E590
:10BEC0002846FCF778FC9FEDCD9B53EC192BFCF733
:10BED00091FB53EC1B2BFCF78DFB53EC182BFCF761
:10BEE000FBFB53EC1A2BFCF7DEFAFCF782FC216813
:10BEF000C44C0022A1F876004FF483712046FDF770
:10BF000001FA3046FCF757FC53EC192BFCF772FB97
:10BF100053EC1B2BFCF76EFB53EC182BFCF7DCFBF4
:10BF200053EC1A2BFCF7BFFAFCF763FC86B23846D9
:10BF3000FCF741FC53EC192BFCF75CFB53EC1B2B7F
:10BF4000FCF758FB53EC182BFCF7C6FB53EC1A2BF1
:10BF5000FCF7A9FAFCF74DFC81B232462046FDF70A
:10BF60000DF9284605F096FD5BE5A74C8820119059
:10BF7000022211A9206811F027FED0B3119800B257
:10BF80000DF036FB10EE100AFCF76BFC41EC100BC9
:10BF90009EA053EC102B0DF0A3FB8B2011900222DE
:10BFA00011A9206811F010FE18B3119800B20DF01D
:10BFB0001FFB10EE100AFCF754FC41EC100B97A08D
:10BFC00053EC102B0DF08CFB97201190022211A93D
:10BFD000206811F0F9FD60B1119800B20DF008FB76
:10BFE00010EE100AFCF73DFC41EC100B53EC102B4B
:10BFF00000E003E08CA00DF073FB1FE0042010E5CF
:10C0000020681F2249F640430168B1F90610CDE9C6
:10C010000012B0F94A204CF2011186A0FDF73EFF54
:10C02000864914200EF040FC1F221A2182A0FDF741
:10C0300035FF206809EB401080F800710020F0E423
:10C0400028461C95FCF722FA002400902546274636
:10C0500021467BA0FDF722FF7AA0D6F85C1F0DF0E9
:10C060003FFB42F20F794FF03C0856E00098012860
:10C0700002D0022802D009E0744800E0744830F889
:10C08000241000EB84000D4440880744641CA00782
:10C0900043D1E817F91705EB907007EB9171801009
:10C0A0004FEAA10BC11700EB116727F0FF01451AFA
:10C0B00003E0624902200EF0F7FB6649284610F0C3
:10C0C000EBFF401CF5D003E05C4902200EF0ECFBD6
:10C0D0003812604910F0E0FF401CF5D04FEAEB71D8
:10C0E0000BEB116727F0FF00ABEB00055949284621
:10C0F00010F0D2FF401C08D1504902200EF0D4FBB2
:10C10000F4E74E4902200EF0CFFB3812514910F0EF
:10C11000C3FF401CF5D000252F46D6F85C0FC0EBBE
:10C120000010830093FBF8F24846521E824202DA66
:10C1300093FBF8F0401EA04298DCDAF80010FEF7FE
:10C140004FBD28461C950EF0D3FB6AE428461C958B
:10C1500000F0C0FB65E428461C9500F08BFE60E40F
:10C1600028461C9500F064FF5BE428461C9500F00F
:10C1700073F856E4084600F06DF952E42862616EE7
:10C180006B292048562C48562F322C5663312C569A
:10C1900063322E2E2E20252E3066562C25352E303D
:10C1A00066562C25352E3066562C25352E30665693
:10C1B0000D0A000000000000008091400000000017
:10C1C0000080814000000000007CBF402020202033
:10C1D00020202020205632342C56352C5633202057
:10C1E000202020202E2E2E20252E3166562C25355F
:10C1F0002E3166562C25352E316656000000000083
:10C200000000B04000220140400200200D3E56696F
:10C210006E3D252E31662C2000000000566F75748F
:10C220003D252E31662C2000506F75743D252E3132
:10C23000660000007777777758000000D9A70108DB
:10C24000490000002C25640D0A0000004A17002058
:10C250008AB3002088020020F0B52DED048B89B050
:10C2600001789FED5B8B9FED5C9B5D4D43290AD070
:10C27000452962D09FED5B8B492930D0012009B060
:10C28000BDEC048BF0BD401C04460CF0F1FA53ECFD
:10C29000192B51EC100BFCF7ADF953EC182BFCF7F4
:10C2A000F3FA0AD3601C0CF0E3FA53EC192B51ECAF
:10C2B000100BFCF79FF941EC180B51EC180BFCF735
:10C2C00098FAC5F8880FFCF776FA53EC192BFCF7AF
:10C2D00003FA41EC100B45A053EC102B2AE0401C54
:10C2E00004460CF0C5FA53EC192B51EC100BFCF77B
:10C2F00081F953EC182BFCF7C7FA0AD3601C0CF039
:10C30000B7FA53EC192B51EC100BFCF773F941EC15
:10C31000180B51EC180BFCF76CFAC5F88C0FFCF7F6
:10C320004AFA53EC192BFCF7D7F941EC100B38A063
:10C3300053EC102B0DF0D4F948E02C226946401C38
:10C3400011F0EEFF04466D464FF0FF37394E3BE0EB
:10C3500055F82400394610F027FF3168096F08426C
:10C3600032D155F82400394610F01EFF3168C96EED
:10C37000084229D155F82400394610F015FF2E49FE
:10C38000084218D02D4908682D4A104008602D48F1
:10C39000016821F47F2101602B48016821F00F0121
:10C3A00001602A48016821F4700101602848016891
:10C3B00021F07F41016055F82400394610F0F4FE69
:10C3C0003168CA6E1043C866641EC1D2002056E7A9
:10C3D00000000000000059400000000000408F40B5
:10C3E000CC5F01200000000000002440202E2E2EF3
:10C3F0002062616E6B206361706163697479207380
:10C40000657420746F2025362E316C66206D4600D1
:10C41000202E2E2E2063686172676520637572720C
:10C42000656E742073657420746F2025352E316C11
:10C430006620410038000020A8D9030800100240FF
:10C44000FFFF33C300080240000002400004024026
:10C45000000C0240F0B5ADF2147D050073D02878D1
:10C4600000286FD0202201A9284611F059FF044668
:10C470000198FBF75FFF07460246EBA00199FBF727
:10C4800077FFEA4E00286FD03A46E9A00199FBF702
:10C490006FFF002879D03A46E6A00199FBF768FFC4
:10C4A000002872D03A46E4A00199FBF761FFE44D01
:10C4B00000287CD03A46E3A00199FBF759FF0028F9
:10C4C00076D03A46E1A00199FBF752FF002870D0E0
:10C4D0003A46E0A00199FBF74BFF00286AD03A46A4
:10C4E000DEA00199FBF744FF002873D03A46DDA097
:10C4F0000199FBF73DFF00286DD03A46DBA001997A
:10C50000FBF736FF002867D03A46DAA00199FBF71F
:10C510002FFF002877D03A46D8A00199FBF728FFD3
:10C52000002871D03A46D6A00199FBF721FF0028D8
:10C530006BD0019800783E2868D002200DF2147D5F
:10C54000F0BD00E06DE1CFA00DF0CAF8FF21D9A841
:10C550000FF0CAF920B9D9A9B9480FF06BFF20B183
:10C56000C9A00DF0BDF85CE10FE0D9A8FBF7E2FE31
:10C57000D9A9084410F8010C2F2804D0C3A000BF8B
:10C580000DF0AEF84DE1C2A0FAE728460FF080F9B1
:10C59000002829D1BF48012229460068D0F89C0014
:10C5A0000FF044FE00281FD1FF21D9A803E014E0BA
:10C5B0002DE035E04EE00FF097F9002814D1D9A90D
:10C5C0009F480FF037FF00280ED1AFF27710316887
:10C5D000486126E144E04BE0A4E0022C04D10021B4
:10C5E000974810F0F4F850B19EE009AA94490298D7
:10C5F00010F0B2FB18B110F0DBF9002874D1A86973
:10C600000028F2D10DE195E0CBE0FFE002E1022C41
:10C6100032D0DDE9020110F003F900282CD100E14D
:10C62000022CA0D101224FA802990FF025FE00286C
:10C630005AD194A00DF054F806E000BF0FF045F970
:10C64000014695A00DF04CF85299549888424FA895
:10C65000F4D164E0022C6FD102980FF08BFA04E061
:10C66000022C69D102980FF0E5F800283CD1D8E0FF
:10C67000022C02D0032C16D056E03A210298FBF788
:10C680004FFE411C01290CD008782F2800D1491CED
:10C69000F9A8FBF764FEF9A90298FBF752FE20B156
:10C6A00007E00299F4E70399F2E77CA1F9A8FBF708
:10C6B0001FFEF9A8FBF73EFEF9A9084410F8010C8B
:10C6C0003A2803D1F9A80299FBF712FE01224FA8DC
:10C6D00002990FF0D1FD38B90A22F9A90DF2E44010
:10C6E0000FF0CAFDC0BB0AE067E04FA80FF0EDF8FD
:10C6F000C0B20DF2E4410FF0B9FF401C03D05299D3
:10C7000054988842F1D152995498884243D04FA806
:10C710000FF0CCF80DF2E4400FF0C8F84DE00FF048
:10C72000C5F87EE0022C01D0012007E7029801F055
:10C7300029F803E7032C01DA0320FFE601224FA8C2
:10C7400002990FF099FDC0BB12220DF2E44003994B
:10C750000FF092FDF9ACA8B14FA8DDE7009408E016
:10C7600010226946FBF721FEC0B20DF2E4410FF042
:10C770007DFFF9A8FBF7DEFD01190098891E8142B3
:10C7800002D9EDE74FF480754FAA2946F9A810F0B9
:10C79000C5FA0028E2D14FA80FF088F80DF2E44066
:10C7A000BDE7022C0BD1264802990FF043FE20B9B9
:10C7B0000021234810F00BF808B10520BEE60DF16A
:10C7C0003A0409A91E4810F002F8A86948B32146A6
:10C7D00034A00CF085FF9DF82C00C00602D533A1D3
:10C7E00033A001E034A009990CF07AFFBDF82800CD
:10C7F00060F30F06C6F34623C6F3431206F01F018B
:10C800002FA003F2BC730CF06BFFDAE7029810F074
:10C810003BFF93E631682E4848610020FEF76EF832
:10C820008CE600208AE60000303A00008C020020EE
:10C83000313A0000323A000064656C6574650000AE
:10C840000017002072656E616D6500007479706577
:10C85000000000006D6B646972000000636469721F
:10C8600000000000636F70790000000066696C656D
:10C8700000000000666F726D6174000064697200F0
:10C88000696170000D0A00003F3A2F0025732F00E8
:10C890002573000038000020256300005F436F709F
:10C8A000790000000D0A252D323873002F0000009A
:10C8B0002531367300000000253136640000000089
:10C8C0002020202532642D2532642D25346400007B
:10C8D000FDA800082DE9F143ADF5266D0025DDF832
:10C8E000603AF94CF94E1A78581C4FF0FF370DF1A9
:10C8F0000408662A7FD014DC4FF47A69462A70D087
:10C9000008DC3F2A6ED0422A6DD0442A6CD0452ADA
:10C910004BD144E2502A68D0632A31D0642AF7D13F
:10C9200092E2E949693A0D2A09683ED2DFE802F04D
:10C93000233D3DEFEE263D3DED6D3D3D07002022C0
:10C940004146184611F0ECFC0228E1D109F018F933
:10C95000DF49C8200DF0A8FF02980078662804D0AF
:10C96000682804D07328D3D102E009F0EFF878E208
:10C970000AF044FE75E2D748056072E28D6570E208
:10C9800020224146184611F0CBFC04460128EEDD7A
:10C9900002980078662810D06C28B9D10398CE4C44
:10C9A0000078792802D06E2802D072E1012000E0E0
:10C9B000002001F07FFF206053E2E00775D115E011
:10C9C000102239460498FBF728FD06461022294616
:10C9D0000398FBF722FD31460DF0A4FFA41E07E0EB
:10C9E00009E07CE043E142E010E25FE004AF03AD28
:10C9F000022CE5D135E2002002F00AF8216801207E
:10CA000006EB411181F84C022BE2B1F8740040F0C2
:10CA10008000A1F87400C86E00B1CD66AF4D2868E3
:10CA2000AF4908432860AF48016841F42A210160FA
:10CA3000AD48016841F00A010160AC48016841F469
:10CA400020010160AA48016841F02A4101600024E8
:10CA50000821284601F04AF8641C3C2CF8DB082128
:10CA6000284601F045F8002003F05EF9F9E12021A5
:10CA70001846FBF755FCFBF709FD2168C1F8980043
:10CA8000D1F8980028B151F8980F9A4A12681044CA
:10CA90000860994C4FF40051204601F029F84FF4FA
:10CAA0008041204601F022F8DBE11FE0002000F089
:10CAB000A7FC04460146252290A00CF011FE0A2C8A
:10CAC00005DD48460AF07BFE384600F099FC92A04E
:10CAD0000CF006FE4FF496700AF071FEC1E12022C0
:10CAE0004146184611F01CFC022804DA03200DF61A
:10CAF000642DBDE8F08302984FF400650078662845
:10CB000021D0752804D00220F1E75BE066E14EE019
:10CB100083A00CF0E5FD6E4905200DF0C5FE8648AA
:10CB200010F0EAF8411CF6D079289FD12068012244
:10CB300082A1D0F89C000FF079FB002209AB0721FD
:10CB40007EA000952EE07EA00CF0CAFD48460AF0BB
:10CB500036FE5F4905200DF0A7FE774810F0CCF8AF
:10CB6000411CF6D079289FD17BA00CF0B9FD0024A0
:10CB70005FF0300606EBC40000F096FE082814D0E3
:10CB800078A000BF0CF0ACFD641C052CF2DB012288
:10CB900075A10DF624000FF049FB09AB0022072117
:10CBA00071A000950FF098F85BE170A0EAE72C22E5
:10CBB0004146CDF8600A11F0B3FB014601A802F02E
:10CBC00087F84EE12C224146CDF8600A11F0A8FB0F
:10CBD000F0B3674D43E03946019810F0E5FAD5F817
:10CBE0000012884239D1002462A00CF079FD0026A1
:10CBF000CDF8605ADDF8601AA019085CC043C1B2D4
:10CC00005DA00CF06DFD761C102EF3DB0026DDF828
:10CC1000601AA019085CC143C8B221385E2804D24A
:10CC2000C9B23CA00CF05CFD02E050A00CF058FD35
:10CC3000761C102EEBDB1034B4F5007FD4DB5048AB
:10CC40000CF04EFD0DF0C8FD3B4810F055F800E02B
:10CC50000AE0411CF6D01B2805D005F50175D5F872
:10CC60000002401CB7D1FCE004F0C2FEF9E02C2227
:10CC70004146CDF8600A11F053FB012802D002288A
:10CC800021D006E001983C210078312803D03228D9
:10CC90000CD001202BE720680068B0F90200C0EB3F
:10CCA0000010800090FBF1F1364809E02068006830
:10CCB000B0F90200C0EB0010800090FBF1F13248A7
:10CCC00004F01AFECDE061E03800002000100022E0
:10CCD000D9A70108400200205001002000100240A6
:10CCE00000008828000802400000024000040240C2
:10CCF000000C024080020020001402400D0A3E5049
:10CD000061636B696E6720736563746F72732E2E37
:10CD10002E2025642563000020446F6E650000000E
:10CD20000D466F726D617420757362202E2E2E5B1E
:10CD3000792F6E5D000000008C020020313A000067
:10CD40000D466F726D617420666C617368202E2EC3
:10CD50002E5B792F6E5D00002065726173696E67CE
:10CD6000200000003F000000303A00002E000000CC
:10CD7000000004080D0A0000253032582000000091
:10CD8000E8F401084A1700208AB300200298FBF754
:10CD90007DFB04460198FBF779FB214690E72021B3
:10CDA0001846FBF7BDFACDF8600A10E0401C1022CF
:10CDB0000DF52661CDF8600AFBF72FFB21680A6F9D
:10CDC00010430867CA6E024201D08243CA66DDF88A
:10CDD000600AC0B301780029E8D142E02C22414624
:10CDE000CDF8600A10F0BAFDA946074645460AE0AC
:10CDF00055F82700FBF74AFB2168800000EB411142
:10CE0000314481F800927F1EF2D22AE01649174A77
:10CE1000096811602C224146CDF8600A10F09EFD91
:10CE2000A946074645460CE0002255F82700114662
:10CE3000FBF7BBFA2168800000EB4111314481F817
:10CE400080917F1EF0D20CE020224146184611F05E
:10CE500067FA022805D10298FBF718FB04490DF088
:10CE600023FD002043E600008C020020F800002093
:10CE7000D9A701082DE9F14388B0664D089A664CA0
:10CE8000501C11786E464FF00108692971D006DCFC
:10CE900042296FD044295FD0452906D109E06D2988
:10CEA0001ED06E2934D0772947D0012009B0BDE8C3
:10CEB000F08320211046FBF733FA08900AE0401C6B
:10CEC000102208A90890FBF7A8FA21680A6F82438C
:10CED0000A670898002802D001780029EFD197E06E
:10CEE0002C223146089010F039FDB14607464646DF
:10CEF0000BE000BF59F82700FBF7C8FA2168800053
:10CF000000EB4110284480F800627F1EF2D27FE0DF
:10CF100020211046FBF704FA089008E0401C10227C
:10CF200008A90890FBF779FA216888650898002815
:10CF30006ED001780029F1D16AE02C2231460890A8
:10CF400011F0EEF918B10098FBF7A0FA01E04FF4E8
:10CF500096700AF034FC5BE03049314A0968116090
:10CF60002C223146089010F0F9FCB146074646469F
:10CF70000DE00FE02FE000BF59F82700FBF786FA1D
:10CF80002168800000EB4110284480F880617F1EFA
:10CF9000F2D23DE02C223146089011F0C1F9214D2A
:10CFA0004CF2503420B1012805D0022830D10DE0D8
:10CFB0002246582105E00221009810F0F5F80146BC
:10CFC0002246002001F012FE286021E00198FBF7C4
:10CFD0005DFA0446EFE720211046FBF7A1F9FBF7C5
:10CFE00055FA2168C1F89800D1F8980028B151F895
:10CFF000980F0D4A1268104408600C4C4FF4005111
:10D00000204600F073FD4FF48041204600F070FD93
:10D0100000204BE700100022380000208C02002086
:10D02000F80000204002002080020020001402408E
:10D030002DE9FC5F814601786846B04C4601012528
:10D04000AD4F206806F1085650297CD00CDC4429ED
:10D050007AD004DC232978D042290DD1F7E0452984
:10D0600074D0482908D10CE1572970D0662906D020
:10D070006D296DD074290ED00120BDE8FC9FA04D14
:10D08000284605F07BFA0446284605F075FA014665
:10D0900022469CA02BE19D480027B8460188B9464E
:10D0A000491C01EB8105B0F8A01F8246491C01EB29
:10D0B000810440E0A54201DA2E4600E0264626B96A
:10D0C000A54201DD2E4600E02646AD1B4FF0FF31A4
:10D0D0008D4200DA0D46A41B8C4200DA0C460AEBA6
:10D0E000880B0AEB8700BBF8A23F019042884946B3
:10D0F00087A00CF0F5FA0198B144BBF8A23F428832
:10D10000494683A00CF0ECFA3AF8270030B12DB96B
:10D110007F1C3AF82700401C00EB8005BBF8A01FDD
:10D1200049B144B908F101080AEB8800B0F8A00F32
:10D13000401C00EB80043AF8271050460029B9D172
:10D1400000EB880105E07FE028E008E031E061E0E5
:10D1500021E0B1F8A01F0029ACD171A026E0714DEB
:10D1600071A029680CF0BCFAA8880124002811D00D
:10D170005FEA842605EB840035F92410B0F902201B
:10D180006AA00CF0ADFA641C35F824000028EED03B
:10D19000B442EFDBADE0D0F8901004E066490968D6
:10D1A00019B1D0F88C1065A066E066A00CF098FA72
:10D1B0009FE020214846FBF7B3F8DFF8908178B173
:10D1C0006D214846FBF7ACF850B12068016F60A0B4
:10D1D0000CF086FA2068016F62A001EA08014BE0BA
:10D1E0002068D0E91B1228EA0200014000240091C7
:10D1F0000CE0307830B157F8242005FA04F15EA035
:10D200000CF06EFA00984010641C00900098002802
:10D21000EFD16EE0D0E91B124C48C043904301406F
:10D22000002400910CE0307830B157F8242005FA42
:10D2300004F151A00CF054FA00984010641C0090C6
:10D2400000980028EFD154E00DF096FA51E04FF429
:10D2500080414C4800F043FC012810D04AA000BF98
:10D260000CF03EFA2068D0F89810E1B3D0F898009E
:10D270004A490968411A4AA00CF032FA39E04CA038
:10D28000EEE700200090800210F008FB48B10FF09C
:10D2900023FF0098401C009049A00CF021FA009850
:10D2A000F1E748484849401AC11700EB91508212F3
:10D2B00046A000990CF014FA424900224948009215
:10D2C0000A46401A009905E052F8211029B9009940
:10D2D000491C0091B1EB900FF6D3C11700EB9150B0
:10D2E0008212009800E004E0C0F315213EA00CF08B
:10D2F000F7F90020C1E600005800002038000020A7
:10D300000004004025642C25640D0A00CC4F012048
:10D310000D0A2534642C2534642C25346400000067
:10D320000D0A000000070020256400000D0A2325D7
:10D33000642C256400000000F8000020202530380F
:10D3400058000000202E2E2E00000000A8D903084F
:10D350000D0A6572726F72206D61736B3D253038F6
:10D36000580000000D0A637269746963616C2020C3
:10D370003D253038580000000D0A253036583A2037
:10D380002573000000140240202E2E626F6F74205F
:10D3900064697361626C65640000000080020020B3
:10D3A0002C2074696D656F75743D2564206D730064
:10D3B000202E2E626F6F7420656E61626C65640052
:10D3C0002E000000A8D00120A89001200D0A25649D
:10D3D000206F662025646B2068656170206C65662F
:10D3E000742C2000A8F001200D0A2564206F66200F
:10D3F00025646B20737461636B20636C65616E00E0
:10D400002DE9F04700252F4CADF5007D8046AA465A
:10D4100030274FF400366D1C0AF0C5F904F5017091
:10D420008146D4F8001201E000F50170D0F8002226
:10D43000914202D0521CF7D126E0501C24D00AF1B0
:10D44000010A204620494C460844B04203DAD4F889
:10D450000002401CDFD1B8F1000F02D0384600F0C6
:10D4600023FAD4F8000206F50036401C07F108073D
:10D47000D1D1B8F1000F1ED0384600F015FA0020C7
:10D480000DF5007DBDE8F0870020694654F82020A6
:10D49000D24341F82020401C8028F7DB0AF083F9B2
:10D4A000B8F1000FCDD0012369460020D4F8002246
:10D4B0000EF082F9C5E764210AFB01F090FBF5F05C
:10D4C000DEE70000000004080402FCF70AF0D4BC08
:10D4D0000AF0D2BC0149086070470000143C0140CA
:10D4E000064A014600201268044B0A4014331B68A8
:10D4F0000B4202D0002A00D001207047003C0140BE
:10D5000030B51A498379026853B30B6893430B60B3
:10D510000A1D13680468A343136002790A44136860
:10D52000046823431360114A083213680468A34354
:10D530001360131D1C680568AC431C604479102CF3
:10D5400005D021440A68006802430A6030BD1168B2
:10D55000046821431160196800680143196030BDF7
:10D560000079084401689143016030BD003C0140EE
:10D570002DE9FC5F6F4F05466F4AD7F85C0FC0EB93
:10D580000011B2EB810F06DDC0EB001080003C21E2
:10D5900090FBF1F001E042F210700026674C8046EB
:10D5A000002D7CD001466648D7F8542FFAF708FEC4
:10D5B000D4E9122380185941C4E912014146614857
:10D5C000D7F8582FFAF7FCFDD4E9142380185941F5
:10D5D000C4E914018046606B0F46411C6163696DAC
:10D5E00088427CD1B5F984B0574991FBFBF2D4E96C
:10D5F0001201D317FAF701FEC4E912018A46524913
:10D60000814691FBFBF2D31740463946FAF7F5FD08
:10D61000C4E91401B5F974004FF47A77C1071FD03B
:10D62000800745D44A465346072148A00096FCF798
:10D6300035FCD4E912013A460023FAF7DEFD8046B4
:10D640001946104664220023FAF7D7FD03464246E6
:10D6500040A103200DF004FD95F87400C00723D10C
:10D6600095F87400800753D50096D4E91423072158
:10D6700036A0FCF713FCD4E914013A460023FAF76C
:10D68000BCFD80461046194664220023FAF7B5FD1A
:10D690000346424632A103200DF0E2FC00E040E0E8
:10D6A00095F87400C00733D095F8740080072FD523
:10D6B0000096D4E91410D4E91223521843410721EB
:10D6C00022A0FCF7EBFBD4E914013A460023FAF759
:10D6D00094FD0546104619466422002300E026E02A
:10D6E000FAF78BFD8046D4E912013A460023FAF797
:10D6F00084FD07461046194664220023FAF77DFD93
:10D70000CDE9005803463A4618A103200DF0E0FC8D
:10D7100000206663C4E91400C4E91200401EBDE89D
:10D72000FC9F00216663C4E91411C4E912110020B2
:10D73000F5E70000CC5F0120C027090000000020B1
:10D740004A1700208AB30020F0310B006369635050
:10D750000000000045313D25642E25644A0000008C
:10D7600045323D25642E25644A00000045313D25A3
:10D77000642E25644A2C2045323D25642E25644ABA
:10D780000000000070B5204C0646204D206848B1CE
:10D7900046B33178042929D032461DA10AF01CFB7A
:10D7A000002070BD4FF40A710120FAF7F0FD2060EF
:10D7B00028B1132231460EF05FFD10B106E00620BD
:10D7C00070BD2068C1680EF03BF920B120680FF0F1
:10D7D00083FC052070BD10A120680AF0FDFAAFF2AD
:10D7E0005B000EE00DA00BF07BFFD9E70FF098F87F
:10D7F00020680EF05BF820680FF06EFC00202060BF
:10D80000074829684861CBE7FC0000208C02002013
:10D8100025730D0A000000000D0000000D0A000035
:10D8200055C4000810B51A480FF0D8FD194B1A4915
:10D83000441C4FF0000211D04C6A002C1DDD8B6A95
:10D840007E2840EA03238B6214D0412812D042285C
:10D8500010D043280ED044280CD016E0486A002887
:10D8600013D001DAC0F100001B6898420DDA4A6259
:10D87000886A10BD18464A6210BD1B2801D04A6252
:10D8800010BD1A68521DC1E909204FF0FF3010BDCC
:10D890008C02002080020020000000200149086066
:10D8A000704700000C3C024010B5044600F08EF8B2
:10D8B000F320FFF7F3FF00BF09F075FF02212046B8
:10D8C00000F004F80128F7D010BD000070B506463E
:10D8D000002529B1012927D0022928D04FF440750D
:10D8E00000F086F808281ED1124C206820F4407001
:10D8F0002060206828432060206820F0F800206025
:10D90000206846F0020108432060206840F480301F
:10D91000206000F06DF8216821F00201216021688B
:10D9200021F0F801216070BD4FF48075D8E74FF405
:10D930000075D5E7103C02400B4908200A68D20365
:10D9400001D5012070470A68D20601D5052070472D
:10D950000A6812F0EF0F01D00620704709688907A6
:10D96000FBD50720704700000C3C024070B50C4608
:10D97000054600F02BF8F320FFF790FF09F013FFA6
:10D980002146284600F004F80128F7D070BD0000B9
:10D9900070B50D46064600F02BF8082813D10A4C46
:10D9A000206820F440702060206840F400702060FF
:10D9B000206840F001002060356000F019F821680F
:10D9C00021F00101216070BD103C02400548006853
:10D9D000002805DA034804490C3801600349016056
:10D9E00070470000103C024023016745AB89EFCD32
:10D9F00008B508208DF80000FFF79EFF8DF80000A5
:10DA00009DF800000128F7D09DF8000008BDF0B592
:10DA10000023012403270D6804FA03F21540954200
:10DA200042D1D0F800C05E0007FA06F52CEA050CDA
:10DA3000C0F800C091F804C0D0F800E00CFA06FC71
:10DA40004CEA0E0CC0F800C091F804C0BCF1010F04
:10DA500002D0BCF1020F1FD1D0F808C02CEA050C8F
:10DA6000C0F808C091F805C0D0F808E00CFA06FC30
:10DA70004CEA0E0CC0F808C0D0F804C02CEA020C26
:10DA8000C0F804C0426891F806C00CFA03FC1FFA03
:10DA90008CFC42EA0C024260C268AA43C260CA79A6
:10DAA000C568B2402A43C2605B1C102BB3D3F0BDE3
:10DAB0004B07DB0E9A40C90810B500EB8100016AE4
:10DAC0000F249C40A1430162016A1143016210BD11
:10DAD0000246002012690A4200D001207047024627
