:020000040800F2
:10800000A8F001209D81000875FA000851DC0008E5
:1080100031FA00080D980008FD7601080000000004
:108020000000000000000000000000000919010825
:108030002DA900080000000021080108451E0108C4
:10804000B7810008B7810008B7810008B781000830
:10805000B7810008B7810008B7810008B781000820
:10806000B7810008B7810008B7810008B781000810
:10807000B7810008B7810008B7810008B781000800
:10808000B7810008B7810008299200088998000884
:1080900051980008B7810008799800080DD50008AC
:1080A000B7810008C11F0108B7810008B781000827
:1080B000B7810008B7810008B7810008E1DC00083B
:1080C000C1DC0008B7810008B7810008B78100084B
:1080D000B7810008B7810008B78100080D34010896
:1080E00009D50008B7810008B7810008B7810008EA
:1080F000B78100088D240108B7810008B781000806
:10810000B7810008B7810008B7810008B78100086F
:10811000B7810008B7810008B7810008B78100085F
:10812000B7810008B7810008B7810008B78100084F
:1081300029A60008B7810008B7810008F598000853
:10814000BD980008B7810008E59800084DFB0008BD
:10815000B7810008B7810008B7810008853401089D
:10816000B7810008B7810008B7810008B78100080F
:10817000B7810008B7810008B7810008B7810008FF
:10818000B7810008B7810008DFF80CD000F068FD67
:108190000048004793D50108A8F001200648804711
:1081A00006480047FEE7FEE7FEE7FEE7FEE7FEE7DC
:1081B000FEE7FEE7FEE7FEE7111F010889810008E0
:1081C00070B44FF000054FF000064FEA0242046819
:1081D000D4FA02F4C4FB945600F10400491EF6D10F
:1081E0002846314670BC70472DE9F05F05460020F7
:1081F00092469B4688460646814640241BE0284618
:1082000041464746224600F090FB53465A46C01A64
:10821000914110D311461846224600F077FB2D1AE3
:1082200067EB01084F4622460120002100F06EFB5B
:1082300017EB00094E41201EA4F10104DFDC484683
:1082400031462A464346BDE8F09F0000004870478B
:108250004CEF010810B50446FFF7F8FF0068005D19
:1082600000F0010010BDA0F16101192900D82038EB
:10827000704700000649074A0868504343F2390234
:1082800010440860400870470149086070470000CA
:10829000A00600206D4EC64140EA01039B0703D0B3
:1082A00009E008C9121F08C0042AFAD203E011F835
:1082B000013B00F8013B521EF9D27047D2B201E0F7
:1082C00000F8012B491EFBD270470022F6E710B5DB
:1082D00013460A4604461946FFF7F0FF204610BD34
:1082E000421E12F8013F002BFBD111F8013B02F8AE
:1082F000013B002BF9D1704710B5044604E00B7820
:1083000000F8013B03B1491C521EF8D2204610BDB3
:10831000CAB2401E10F8011F8A4202D00029F9D1CA
:1083200000207047421C10F8011B0029FBD1801A65
:10833000704710B5002200E0521C835C8C5CA342A5
:1083400001D1002BF8D1D8B2E1B2401A10BD0346DA
:1083500011F8012B00F8012B002AF9D118467047BB
:1083600030B505460020034600E05B1C934205D271
:10837000EC5CC85C201A01D1002CF6D130BD10B5E0
:108380004843044615F00AF9002805D00021002CC6
:1083900002D0641E0155FAE710BD2DE9F047914661
:1083A0000F4680460446002614F8015B2DB1FFF706
:1083B0004DFF0068405DC007F6D12B2D02D02D2D5A
:1083C00018D0641E4A463946204600F0D0FA27B13C
:1083D0003968A14201D1C7F8008071054FF002044D
:1083E0000BD54042002803DD10F04AFA0460A007D4
:1083F000BDE8F08746F48066E4E70028F8DA10F07C
:108400003FFA04606FF00040F2E72DE9F05F934619
:108410000F4680460446002610F032FAD0F800904D
:10842000824614F8015B2DB1FFF710FF0068405D34
:10843000C007F6D12B2D02D02D2D1AD0641E00219D
:10844000CAF800105A463946204600F090FA014614
:1084500027B13868A04201D1C7F80080DAF80000DF
:10846000022809D0CAF80090700505D54842BDE839
:10847000F09F46F48066E2E70846F8E770B50646E6
:1084800010F0FEF9046805460A2200213046FFF785
:1084900084FF2C6070BD2DE9FE4F804681EA030009
:1084A000C00F0C46009021F0004123F00045B8EBCE
:1084B0000200A94105D24046214690461C460B4683
:1084C000024623F00040104347D0270DC7F30A00AF
:1084D000C3F30A510290401A019040286BDAC3F3AB
:1084E000130040F4801B0098924620B10023D2EB89
:1084F000030A63EB0B0B01985946C0F1400250464A
:1085000000F004FA06460D4650465946019A00F01E
:108510001CFA10EB08006141002487EA115284EA3A
:10852000E7731A4340D0009A62B3019A012A4FEAD6
:10853000075215DC001B61EB02014FF0004202EA1A
:108540000752CDE90042001C41F5801132462B460E
:1085500000F0F0FA03B0BDE8F08F40462146F9E79D
:10856000001B61EB0201001C41F5801300185B4108
:108570002018A2F5001747EB030140EAD570B619A1
:108580006D4111E06D084FEA360645EAC0754FEAC5
:108590000752001B61EB0201001C41F580114908E4
:1085A0004FEA30000019514132462B4603B0BDE876
:1085B000F04F00F0B0BA0098012240000023D0EB49
:1085C000020263EBE073009821464FEAE074B8EBD7
:1085D000000061EB0401E9E783F000435BE781F011
:1085E000004158E72DE9FE4F81EA030404F00044FE
:1085F00021F0004100944FF0000B23F0004350EABB
:1086000001045ED052EA03045BD0C3F30A54C1F301
:108610000A552C44A4F2F3340194A0FB0254C1F394
:10862000130141F48011C3F3130343F4801301FBDE
:10863000024400FB034E840A970A44EA815447EA45
:108640008357A4FB076802958D0A05FB07854FEA4F
:10865000932C04FB0C542705029D4FEA065847EA69
:108660001637B5EB08056EEB070C870E920E47EA3E
:10867000811742EA8312A7FB0201B6EB0B0164EB00
:1086800000042B0D43EA0C335E1844EB1C50DA4611
:108690005146E7FB0201C5F313044FEA0B3343EAEB
:1086A00014534FEA0432019C43EA0603A4F10C047C
:1086B0000294009CCDE900B400F03CFA03B0BDE8A0
:1086C000F08F00200146F9E72DE9F04D81EA03041F
:1086D00004F0004B21F0004514464FF0000A23F04F
:1086E000004150EA050220D054EA01021DD0C5F332
:1086F0000A570246C5F31303C1F31300C1F30A5628
:1087000040F4801543F48013A7EB0608101BD646EF
:1087100008F2FD3873EB050002D308F1010801E00F
:1087200092185B41B8F1000F03DA00200146BDE862
:10873000F08D00204FF48011064684460EE0171B92
:1087400073EB050705D3121B63EB050306434CEAE5
:10875000010C49084FEA300092185B4150EA0107CA
:10876000EDD152EA030012D082EA040083EA050147
:10877000084305D0101BAB4106D20122002306E0BE
:1087800000224FF0004302E06FF0010253101AEB99
:1087900006004CEB085110EB0A0041EB0B01BDE861
:1087A000F04D00F0B8B90EB5C10F80EAE070084492
:1087B000CA07002140F233438DE80E000A460B46FB
:1087C00000F0B8F903B000BD0EB540F2334102919C
:1087D0000021CDE900110A460B4600F0ABF903B0C9
:1087E00000BD70B5C1F30A5201F000450024C1F389
:1087F000130140F2FF3341F480119A4201DA002064
:1088000070BD40F233439A42A2F2334203DC52423B
:1088100000F08BF800E090402C43F1D0404270BD56
:10882000C1F30A5210B5C1F3130140F2FF3341F412
:1088300080119A4201DA002010BD40F233439A427F
:10884000A2F2334203DC524200F06FF810BD9040B8
:1088500010BD00F0004230F000400AD0C10D01F51B
:108860006071C0F3160042EA0151C208400711438B
:10887000704700200146704730B5041E71F10004B6
:1088800004DB4FF00044404264EB0101141E73F11D
:10889000000405DB1C464FF00043524263EB040327
:1088A0008B4208BF824230BD01F0004330B421F05A
:1088B000004150EA010206D00A0DA2F56072C1F330
:1088C0001301002A02DC30BC00207047440F44EA48
:1088D000C104C100E01830BC00EBC25000F0E4B8A5
:1088E00030B50B46014600202022012409E021FA80
:1088F00002F59D4205D303FA02F5491B04FA02F57D
:108900002844151EA2F10102F1DC30BD202A04DB4F
:10891000203A00FA02F1002070479140C2F1200392
:1089200020FA03F3194390407047202A04DB203AD1
:1089300021FA02F00021704721FA02F3D040C2F17F
:1089400020029140084319467047202A06DBCB17C6
:10895000203A41FA02F043EAE07306E041FA02F3FA
:10896000D040C2F1200291400843194670472DE9DA
:10897000F05F82460078002715468B460AF1010415
:10898000B946302801D09DB113E014F8010B01273E
:10899000782803D0582801D045B10AE00DB1102D38
:1089A00007D10027102514F8010B02E0082500E08C
:1089B0000A250026B0460EE005FB080005FB06F17F
:1089C000012701EB10461FFA80F8B6F5803F00D36F
:1089D000B94614F8010B294600F054F90028EBDAE7
:1089E000BBF1000F05D00FB1641E00E05446CBF878
:1089F0000040B9F1000F06D00FF042FF02210160E4
:108A0000C81EBDE8F09F48EA0640FAE70FB400230D
:108A100000B589B00CA900910B996FF00042CB60B2
:108A20001E4B06931E4B07930423CDE901321D4ACA
:108A3000089202466B46002000F0C6F909B05DF8C6
:108A400014FB70B586B006464FF0FF300091CDE9BB
:108A50000101002015460C4604903246694604A8E0
:108A6000FFF7D4FF02460498211825B108B1084643
:108A700000E020462860049800280DD0002A02DD7E
:108A80000098884208D0081B0094CDE901043246C2
:108A9000694604A8FFF7BAFF06B070BD0190000850
:108AA0001F900008558200080029A8BF7047401C8D
:108AB000490008BF20F00100704710B4B0FA80FCF4
:108AC00000FA0CF050EA010404BF10BC704749B131
:108AD000CCF1200421FA04F411FA0CF118BF0121A1
:108AE00021430843A3EB0C01CB1D4FEA00614FEA81
:108AF000102042BF002010BC704700EBC350104450
:108B00000029A4BF10BC7047401C490008BF20F0DA
:108B1000010010BC704710B5141E73F1000408DA90
:108B2000401C41F1000192185B411A4301D120F031
:108B3000010010BD2DE9F04D92469B4611B1B1FAEE
:108B400081F202E0B0FA80F220329046FFF7DEFEBA
:108B500004460F4640EA0A0041EA0B0153465A46D2
:108B6000084313D0114653EA010019D0C8F140025E
:108B70005046FFF7DAFE05460E4650465946424635
:108B8000FFF7C4FE084305D0012004E02046394623
:108B9000BDE8F08D0020054346EAE0762C433743DC
:108BA0000A986305E40AA0EB08000022FD0A44EAE3
:108BB00047540A3002D500200146E9E701051019A3
:108BC0006941DDE9084500196941BDE8F04DA2E7BA
:108BD00070B521F0004303430CD0C1F30A550024C3
:108BE000D5EB040564EB0403D617AD1AB34102DBE1
:108BF0000020014670BD201841EB025170BDC1F349
:108C00000A52C1F3130140F2FF3341F480119A423A
:108C100002DA00200146704740F233439A42A2F242
:108C2000334202DC5242FFF780BEFFF76FBE000006
:108C300030B5041E71F1000404DB4FF000444042E3
:108C400064EB0101141E73F1000405DB1C464FF0B8
:108C50000043524263EB0403994208BF904230BD87
:108C6000064C074D06E0E06840F0010394E8070079
:108C700098471034AC42F6D3FFF78AFA28F201087D
:108C800048F201083A2800D2303820F02002412A68
:108C900001D3A2F13700884201D34FF0FF30704773
:108CA0002DE9FF4F087883B09946FF2805D0491C6D
:108CB0002D2804D00024002008E000200BE001242F
:108CC000F9E700EB800003EB4000491C0B78FF2B19
:108CD000F7D104B1404200230293147819461D468F
:108CE0002D2C01D02B2C04D1521C2D2C13D0002460
:108CF0000294AA461478FF2C0FD00A25A3FB05780E
:108D000001FB05814FF0000C03FB0C11521CE31911
:108D10004AEB0101EEE70124EAE7814453EA01004E
:108D200002D019F5C87F06DA03980021C0E90011C6
:108D300007B0BDE8F08F0025AE4E2F46DFF8B882B1
:108D4000184600F0CEF9CDE90001B9F1000002DAD1
:108D5000C9F1000400E004460023A74A1AEB030B04
:108D600042EB045A12E0E00707D02A463346384661
:108D70004146FFF737FC074688462A4633461046E9
:108D80001946FFF72FFC05460E466410002CEAD169
:108D9000DDE90001B9F1000F5A46534606DAFFF744
:108DA00093FC3A464346FFF78FFC05E0FFF71AFCB9
:108DB0003A464346FFF716FC029A0AB181F0004199
:108DC000039AC2E90001B3E72DE9FF4F1F468DB0BA
:108DD000D7E901464FF0FF382E2045464FF00009F5
:108DE0000B90B9696D1C0E988847396A824688478E
:108DF0000028F6D1BAF1FF3F0AD024F4D064002E47
:108E000011DDBAF12B0F08D0BAF12D0F0BD102E012
:108E1000404611B08DE744F48064B9696D1C0E982A
:108E200088478246761E6946600501D52D2000E000
:108E30002B208DF8000001F1010B0DF1200809E055
:108E4000B9696D1C0E98884782460F9844F40074E7
:108E5000761E0560002E02DDBAF1300FF0D00B99BE
:108E60008A453ED144F0800406E00F99681CA9F1C0
:108E7000010944F400740860B9696D1C761E0E98EF
:108E8000884782463028F0D02BE00B998A4505D1DF
:108E9000200603D444F08004761E18E0504610F0FB
:108EA0008BFE08B30DF11301761E44F400748B455C
:108EB00008D2AAF130000BF8010B200607D5A9F162
:108EC000010003E0200602D409F101008146A0055B
:108ED00002D50F99681C0860B9696D1C0E98884707
:108EE0008246002ED1DC53E0002E51DDBAF1650F31
:108EF00002D0BAF1450F4BD1A00549D5B9696D1C17
:108F000024F44074761E0E9888478246002E0CDDAD
:108F10002B2804D0BAF12D0F07D144F48074B9691D
:108F20006D1C0E9888478246761EE00501D52D21DE
:108F300000E02B2108F8011BCDF82C8021E00DF179
:108F40002901761E44F4007488450CD2AAF1300041
:108F500010F0FF0088F8000002D10B99884509D96C
:108F600008F1010806E0E00501D5244801E042F2DD
:108F70000F708146B9696D1C0E98884782460F981C
:108F80000560002E04DD504610F016FE0028D6D1F4
:108F9000F9690E988847FF208BF8000088F80000D8
:108FA0000020069007904B466A4608A906A8FFF7DE
:108FB00077FEA00502D46FF001002AE714F0240F19
:108FC0000AD0E00714D1DDE906123868031D3B60C2
:108FD0000068C0E900120BE0DDE90601FFF764FC60
:108FE0000146E00704D13868021D3A60006801605C
:108FF00028460EE7000014400000F03FF1D8FFFFC4
:10900000426842B1016811F8013B23B1521EC0E928
:109010000012184670470121C160881E70474268DF
:109020005AB1C368016843B983688B4205D0491EB1
:10903000521CC0E90012002070474FF0FF3070470B
:109040002DE9F04D00231A461B1A8A4103DB00204C
:109050000146BDE8F08DC1F30A52C1F3130141F49A
:1090600080154FF0000BD10702D100186D41521E40
:109070000027044640F2FF11384601EB620A3E46E3
:109080008046024600204FF48011FFF74EFCC219C3
:109090007141BB1846EB0100B4EB030C75EB000CFF
:1090A00004D3E41A65EB000517460E46241908F1AF
:1090B00001006D4180463428E3DDF91946EB0600D6
:1090C000091BA84103D24FF0FF32134601E00022F2
:1090D00013461BEB070046EB0A51BDE8F04DFFF7C6
:1090E0001ABD0EB540F2334202920022CDE90022B1
:1090F0001346FFF71FFD03B000BD70B58C1810F8C4
:10910000015B15F0070301D110F8013B2A1106D1CC
:1091100010F8012B03E010F8016B01F8016B5B1EE6
:10912000F9D12B0705D40023521E0DD401F8013BC1
:10913000FAE710F8013BCB1A921C03E013F8015B2D
:1091400001F8015B521EF9D5A142D8D3002070BDB1
:109150004268024B1A400A4342607047FFFD3FFFDE
:10916000426822F01F020A434260704741628262F5
:1091700070476FEA1121016070470029816802D0B1
:1091800041F0010101E021F0010181607047000020
:10919000084B10B5D3F8042307490A40D0E900145E
:1091A0002143D0E90240044321431143C3F804138F
:1091B00010BD000000200140E030FCFF00210160F4
:1091C00041608160C16070470029816802D041F42C
:1091D000807101E021F4807181607047002981680D
:1091E00002D041F4007101E021F400718160704708
:1091F000826822F440120A438260704730B502460A
:10920000002053680C0A01258D4011682B40214233
:1092100002D0002B00D0012030BD08B50844283012
:109220000090006880B208BD70B52E4E4FF4837573
:1092300029463046FFF7E2FF2B4CC0B129463046A5
:10924000FFF797FF2068B0F87010C9040AD4B0F88F
:109250006C00C00406D40EF07BFB2068C16E41F4A4
:109260008051C16600222946304600F043F81F4E67
:1092700029463046FFF7C2FFC0B129463046FFF706
:1092800078FF2068B0F87010C9040AD4B0F86C00F8
:10929000C00406D40EF05CFB2068C16E41F480511E
:1092A000C16600222946304600F024F8104E2946B7
:1092B0003046FFF7A3FF002813D029463046FFF7BA
:1092C00058FF2068B0F87010C9040AD4B0F86C00D8
:1092D000C00406D40EF03CFB2068C16E41F48051FE
:1092E000C16670BD0020014038000020002101400F
:1092F0000022014001238B4041680AB1194300E07C
:10930000994341607047000030B542680F4B0C79BB
:109310001A400B6842EA04221343436082680C4BF4
:109320004D791A40D1E9034323438C6844EA45044C
:10933000234313438360C26A097D22F47002491EED
:10934000C9B242EA0151C16230BD0000FFFEFFFC1C
:10935000FDF7FFC070B5072409290AD9C568A1F136
:109360000A0606EB4606B440A543B3401D43C5605C
:1093700007E0056901EB4106B440A543B3401D4336
:109380000561836BC3F30154121B921C02EB820430
:109390001F22A2409343A1400B43836370BD826BA5
:1093A000491E22F4401242EA01518163704770B5B0
:1093B000072409290AD9C568A1F10A0606EB460661
:1093C000B440A543B3401D43C56007E0056901EB08
:1093D0004106B440A543B3401D4305611F23072A3E
:1093E00009D2446B521E02EB820293409C4391408F
:1093F0000C43446370BD0D2A09D2046BD21F02EBEB
:10940000820293409C4391400C43046370BDC46A44
:109410000D3A02EB820293409C4391400C43C4629C
:1094200070BD816841F0804181607047816841F47E
:10943000800181607047002101600171417181608C
:10944000C1600161012101757047000006490028D3
:10945000D1F8040302D040F4000001E020F4000041
:10946000C1F8040370470000002001402DE9F041DD
:1094700080461A480D4686B00168194811F0C8F9AF
:10948000064614216846FEF720FF164C206800F5BA
:109490007A70F0602068144E4719142230684146F3
:1094A000406810F058FA7DB9002006B0BDE8F081A0
:1094B000306814226946006810F037FA10B100983D
:1094C000A42807D011F0FCF92068B842F0DB4FF077
:1094D000FF30EAE79DF80B00E7E7000038000020C6
:1094E0005900010880020020500100202DE9F041C0
:1094F00001217F2007F058FD08F0CEFCA0210120BB
:10950000FEF73DFF7F4C011D0025A0630160058132
:10951000026864210226D18002684FF00C0840F6F0
:10952000A9171182006801214FF47A720180A06BA3
:1095300000684280A06B03681A810268917201681A
:109540000E770268A2F80C800268A2F80E8001680B
:109550001E228F8201684F820168CD8201680D83CF
:1095600001684D83011D2230FEF796FEA06B40F688
:10957000B8318565056680F84C60A0F84870A0F8A1
:10958000428020F8408FC1808180C5863C21A0F8B0
:10959000441005F03DFC4FF4612005F05DFF4FF4F1
:1095A000E135E063284605F0B9FF2064284606F05F
:1095B00019F86064002005F0B7F95349086004F019
:1095C000D5FF05F08DFC4CF250325821002005F0FB
:1095D00047FB4E4908604FF40E710120FEF7CFFEA5
:1095E000A16BC1F89C00E16B21B1002348A24B485C
:1095F00011F0EAF8216C21B1002349A2474811F08B
:10960000E3F8616C21B1002348A2444811F0DCF872
:10961000002349A24A48A16B11F0D6F8002349A2C1
:109620004A48A16B11F0D0F8012349A24A48A16B26
:1096300011F0CAF8002349A24A48A16B11F0C4F8FE
:10964000012349A24B48A16B11F0BEF800234AA2A6
:1096500019464C4811F0B8F800234BA24C494D482C
:1096600011F0B2F808F0F6FB0021A06B08F0A0FAA8
:10967000A06B08F099FA4FF496700EF028F905F0F7
:10968000C5F9E06B11F076F97C2007F025FD012883
:1096900026D07D2007F020FD01282AD07E2007F06B
:1096A0001BFD012827D07B2007F016FD012824D0C0
:1096B0007A2007F011FD00BF07F0BEFC36A012F0C3
:1096C00059F9A06B012234A1D0F89C0012F020FEC1
:1096D00032A014F093FFBDE8F041002011F04AB928
:1096E000314832490068B0FBF1F131A010F06CF85C
:1096F000E2E736A002E03AA000E03EA010F064F8F5
:10970000DAE70000000000205001002040020020A5
:10971000434F4D312070617273657200CD070108AF
:10972000434F4D332070617273657200434F4D3665
:10973000207061727365720043414E20747800009E
:109740009D06010843414E2072780000590001082F
:109750007374617475730000950B01086576656E0E
:1097600074730000150A01086368617267657236D8
:1097700000000000250801087761746368646F6762
:1097800000000000B77801086C65647300000000F9
:1097900080020020A9F60008303A000040636667A6
:1097A0002E696E690D0000005405002040420F0034
:1097B0000D202E2E2E205357522072657365742C67
:1097C0002025644D487A0D0A3E0000000D202E2E03
:1097D0002E20495744472072657365740D0A3E0078
:1097E0000D202E2E2E205757444720726573657426
:1097F0000D0A3E000D202E2E2E20706F77657220F0
:109800006F6E2072657365740D0A3E00074800682C
:1098100011F0B0F80648006842F2107190FBF1F2C6
:1098200001FB120103A00FF0CFFFFEE73C00002078
:10983000800200203A2530346420427573466175F9
:109840006C745F48616E646C65720D0A3E000000C6
:1098500000B585B06A460021054800F05DF905486D
:10986000142269460068006810F075F805B000BD64
:1098700000640040500100200248016841F00401EA
:1098800001607047046400400A4800B5006885B074
:1098900014224068694610F048F80100064804D0D8
:1098A000694600F091F905B000BD0022012100F0E9
:1098B000B7F8F8E7500100200064004000B585B01B
:1098C0006A460021054800F027F905481422694638
:1098D0000068006810F03FF805B000BD0068004067
:1098E000500100200248016841F004010160704706
:1098F000046800400A4800B5006885B0142240683A
:10990000694610F012F80100064804D0694600F0DC
:109910005BF905B000BD0022012100F081F8F8E7F5
:109920005001002000680040094910B588424FF0FE
:10993000010101D14C0601E04FF08064204607F0A0
:1099400057FB2046BDE81040002107F051BB000046
:1099500000640040F0B5827A012191402E4A1368DC
:1099600043F0010313602C4B1C331C688C431C60B8
:10997000294D067B294C0C35A6B92E688E432E60E6
:109980004688C78846EA0746877A04EBC707C7F8C0
:1099900040660688878846EA0746877A04EBC70749
:1099A000C7F84466067B012E12D12E680E432E6046
:1099B000867A056804EBC6064FEA3545C6F8405678
:1099C000867A456804EBC6044FEA3545C4F8445628
:1099D000114CC57A241D002D256806D00D43256045
:1099E0000D4C0589143415B104E08D43F7E7256863
:1099F0008D4325600589012D02D125680D43256021
:109A0000407B012802D1186808431860106820F0D4
:109A100001001060F0BD00000066004000600040E2
:109A2000002A426901D00A4300E08A43426170473C
:109A300010B50368002223F002030360036843F0BB
:109A4000010303604FF6FF7300E0521C4468E40713
:109A500001D19A42F9D14268D2073ED08A79012ACF
:109A600002683CD022F080020260CA79012A0268B2
:109A700038D022F0400202600A7A012A026834D00B
:109A800022F0200202604A7A012A026830D022F0D5
:109A9000100202608A7A012A02682CD022F00802A1
:109AA0000260CA7A012A026828D022F00402026009
:109AB0008A78CC78920742EA04620C7942EA04423E
:109AC0004C79098842EA0452491E0A43C26101687E
:109AD00021F001010160002114E0002010BD42F0DE
:109AE0008002C1E742F04002C5E742F02002C9E728
:109AF00042F01002CDE742F00802D1E742F0040242
:109B0000D5E7491C4268D20701D09942F9D1406893
:109B1000C007E2D1012010BD10B500EB0113D3F84E
:109B2000B04114F004041472D3F8B04134D0E40806
:109B3000C2F80440D3F8B04104F002045472D3F8E0
:109B4000B44104F00F049472D3F8B441240AD474DD
:109B5000D3F8B841D472D3F8B841240A1473D3F8B7
:109B6000B841240C5473D3F8B841240E9473D3F83D
:109B7000BC41D473D3F8BC41240A1474D3F8BC415B
:109B8000240C5474D3F8BC311B0E937439B10169A1
:109B900041F02001016110BD640D1460CAE7C16885
:109BA00041F02001C16010BD00218171C1710172BD
:109BB00041728172C1728170C170032101710221F1
:109BC000417101210180704730B502460020936841
:109BD0005B0108D49068000101D5012003E0906882
:109BE000C00037D5022002EB0012D2F8803103F01A
:109BF0000103C2F880310B7A73B3D2F880414D680B
:109C00001C434B7A43EAC5031C43C2F880418B7A5C
:109C100003F00F038B72D2F8843123F00F03C2F8E4
:109C20008431D2F884318C7A2343C2F88431CB7AE0
:109C3000CC6843EA0423C2F88831CB7B096943EA44
:109C40000121C2F88C11D2F8801141F00101C2F853
:109C5000801130BD042030BDD2F880314C7A2343CE
:109C60000C8843EA4453C2F88031D0E7002221B186
:109C7000012905D0022906D112E08268114801E0CD
:109C80008268114802401149501A8A4214D00ADCF5
:109C9000A2B16FF0806010180FD002280CD10FE035
:109CA00082680B48EEE7B0F5007F09D009494018FB
:109CB00003D0B0F5003F03D000207047022070476A
:109CC00001207047030000040003000800010008A1
:109CD000000003100001FFF72DE9F0432848DFF8EA
:109CE000A480294FA1B00168C8F81C10DFF89C902F
:109CF0003868012109EB401080F8781224A00FF099
:109D000063FD0D2000907623B02229A101A80EF05A
:109D1000F9F801A800F00CFE01AE0025184813F078
:109D2000E9FA0446401C0CD0052C0AD005EB45008E
:109D30003044224622A1001D0EF0E4F86D1C082DCF
:109D4000ECDB002D02DD01A800F0F2FD10F0B8FD03
:109D5000052CE2D1B0221CA101A80EF0D3F801A875
:109D600000F0E6FD3968002009EB411181F8780226
:109D7000C8F81C0016A00FF027FD21B0BDE8F08345
:109D80008C020020DC00002038000020001000229F
:109D90000D0A2072656D6F746520636F6E736F6C52
:109DA00065206F70656E2E2E2E200D0A3E0000007D
:109DB0003E25303358202530325820253032580087
:109DC00020253032580000003E2530335800000076
:109DD0000D0A202E2E2E2E72656D6F746520636F16
:109DE0006E736F6C6520636C6F7365640D0A3E0063
:109DF00010B50022044B03E050F822401C60521CB6
:109E00008A42F9D3186810BD003002400149012090
:109E1000886070470030024071B585B014216846F3
:109E2000FEF753FA0598401C059003F033FFE0BBA2
:109E3000022105A814F0E1F80546042105A814F054
:109E4000DCF8214EB18800EB0144022105A814F092
:109E5000D4F8062834D2DFE800F0033333332E2E53
:109E60001A48844221DBA2200090CDF80B40042048
:109E70008DF80A0000216846FFF7F8FAA3200024B5
:109E80006E46009014E0022105A814F0B6F83119CE
:109E9000641CC872082C00D055B98DF80A40002403
:109EA00064216846FFF7E2FA10B1002006B070BDE9
:109EB0006D1EE8D204E0042105A814F09EF870603D
:109EC0004FF0FF30F2E70000FC00002000800008A7
:109ED0000FB4142270B588B038496846FEF7DCF933
:109EE0000DAD374C40E001CD059011F8012B05A8D0
:109EF0000C91582A20D008DC2E2A0DD0452A19D0E2
:109F0000492A0FD0502A2FD112E0632A18D0692A8B
:109F10001AD0772A28D115E0142268460599FEF751
:109F2000BBF921E00598206308B070BC5DF814FB14
:109F3000402003E0432001E09DF81400009013E06E
:109F4000002202E0012200E003220DF10B0100BF1C
:109F50009DF80A6010F8013B73549DF80A305B1CB1
:109F60008DF80A30521EF3D20C9908780028BAD125
:109F7000206BD8B110F0FEFC206312A000990FF006
:109F800023FC00256E4606E070192E21C27A10A02F
:109F90000FF01AFC6D1C9DF80A00A842F4DC0EA01C
:109FA0000FF012FC206B10F0E5FC20630B4814222C
:109FB0006946006840680FF0CEFCB5E750E901083B
:109FC00000000020253032582E3C3C2E00000000BE
:109FD00025632530325800000D0A3E005001002054
:109FE000044A01238340106809B1184300E09843F4
:109FF000106070470074004010B501214C072046E6
:10A0000006F0F6FF2046BDE81040002106F0F0BF44
:10A0100005490028086802D040F0030001E020F064
:10A02000030008607047000004740040044908B54C
:10A0300001EB90002C300090006880B208BD000059
:10A040000074004030B5084C236840F6FE72824030
:10A050009343D1E900252A43D1E902510D432A4314
:10A0600082401A43226030BD00740040082805D0A9
:10A0700042EA0141034A10440162704742EA012169
:10A08000F8E7000000740040002101604160816039
:10A09000C160704710B50A460C0601F07F0303EB60
:10A0A000830100EBC10102D501F58E7101E001F5DC
:10A0B0005D71D2090B704A700CF0A0F8002010BD41
:10A0C0000A4610B5090602F07F0306D503EB8301AB
:10A0D00000EBC10101F58E7105E002EB820100EB9E
:10A0E000C10101F55D7100248C700B70D2094A70BA
:10A0F0000CF06BF8002010BD10B50A0604D501F075
:10A100007F010CF0A9F901E00CF08AF9002010BDE4
:10A1100070B50C460E0601F07F0505EB850100EBDE
:10A12000C10102D501F58E7101E001F55D71E4090F
:10A130000D704C708A60CB7000D0CD80022B01D1A5
:10A1400000220A710CF018F8002070BD10B501F063
:10A150007F0404EB840100EBC101C1F88833C1F82E
:10A1600080230023C1F88C3381F8753381F8744360
:10A17000C37801F55D71012B00D10A6114F0FF0F66
:10A1800003D00CF06DF8002010BD0BF087FFFAE74C
:10A190000069002261F30A120168114301607047EF
:10A1A0000A4610B5090602F07F0306D503EB8301CA
:10A1B00000EBC10101F58E7105E002EB820100EBBD
:10A1C000C10101F55D7101248C700B70D2094A70D8
:10A1D0000CF02EF8002010BD70B511F07F0404EBD8
:10A1E000840100EBC1014FF0010581F81D5181F898
:10A1F0001C41C1F82821C1F82C2101F58E714FF0C6
:10A200000002C1E9053203D00CF02AF8002070BD2D
:10A210000BF044FFFAE700002DE9F0410646002567
:10A220000CF09EFA074655E0F80751D03069EAB2C3
:10A230000369416BD14006EB820201F00101926992
:10A2400043EAC11194680C40E1071AD00124426B23
:10A2500004FA05F18A43426306EB85008069846055
:10A260001F48E9B20068426830469047F0780128FC
:10A2700007D135B996F81101042802D130460BF008
:10A2800069FF200704D506EB8500082480698460F7
:10A29000E00604D506EB8500102480698460600622
:10A2A00004D506EB8500402480698460A00704D5AE
:10A2B00006EB8500022480698460200608D52946C3
:10A2C000304600F067F906EB8501802089698860D7
:10A2D0007F086D1C002FA7D10120BDE8F081000090
:10A2E000780300202DE9F041064600240CF03EFAE8
:10A2F0000746DFF8988043E0F8073FD0E1B23046E8
:10A300000CF03AFA0546C00725D006EB840001257B
:10A31000416D8D60F17801290CD1406D016904EB2C
:10A32000840006EBC000C1F31201D0F87C23511A5F
:10A33000C0F88C13D8F80000E1B2026830469047AC
:10A34000F078012807D134B996F81101052802D117
:10A3500030460BF0FFFEA80704D506EB840002256B
:10A36000406D8560280709D5D8F80000816830461F
:10A37000884706EB84010820496D88607F08641CCB
:10A38000002FB9D10120BDE8F08100007803002042
:10A3900070B50646C068816921F010018161F068DE
:10A3A000056A05F00F0000EB800006EBC004C5F362
:10A3B000434004F55D74072821D2DFE800F0202037
:10A3C00004202020150047F6F070054217D0C5F391
:10A3D0000A152A463046E1680CF0DFF9E0682844A7
:10A3E000E060A069284409E0082206F2CC5130461A
:10A3F0000CF0D3F9A069C5F30A110844A061F06814
:10A40000816941F010018161012070BD38B50446B9
:10A4100000208DF8000094F812018DF80000154816
:10A42000006841692046884720698068E2684FF4E7
:10A4300000615161A17AD1B1C00718D094F815011B
:10A44000012814D19DF80000032810D1D4F80C0184
:10A45000016841F001010160D4F80C01016841F08C
:10A46000030101600448016841F006010160012018
:10A4700038BD00007803002010ED00E070B5044600
:10A48000006900250126416821F00101416029464B
:10A4900020460BF0E1FF0020FF2106E004EB8002E4
:10A4A00093699960526D9160401C62788242F5D840
:10A4B00021694FF0FF3088612846216966F30F005B
:10A4C00066F31F40C861216945F00B0048612169AE
:10A4D00045F00B0008612069016821F4FE6101600C
:10A4E00020460BF037FEE1684FF480504861034886
:10A4F0000068016920468847012070BD780300206C
:10A5000070B504460CF06EF90122002384F8122184
:10A5100084F814311946402511E000BF01EB810099
:10A5200004EBC00080F81D2180F81C11A0F8221156
:10A5300080F81F31C0E94953491CC0F830316078B8
:10A540008842EBD8002110E001EB810004EBC0024F
:10A5500082F8753382F87413A2F87A1382F877338D
:10A56000C2E9DF53491CC2F8883360788842EBD8CF
:10A5700020460BF051FD20460BF0F2FB0021204657
:10A580000CF090F920460BF02BFC2046BDE8704003
:10A590000BF021BF2DE9F0470E46054601EB860082
:10A5A00005EBC004D4E94C01421AD4F8240104F5A7
:10A5B0008E74904200D20246D21C970805EB8609A1
:10A5C00023E000BFA0EB0108A168414500D2884606
:10A5D00008F1030087081FFA88F3F2B22846E16801
:10A5E0000DF05EF8E16801EB0800E060A16901EBA5
:10A5F0000800A0616169884207D321780120884062
:10A6000029694A6B82434A630BE0D9F818008069D4
:10A6100080B2B84205D9D4E90501814201D20028AF
:10A62000D0D10120BDE8F087002008F0DDBD00009A
:10A63000074A904201D2074801E005481038064A0F
:10A640008B0001EA020101D5C1607047816070474B
:10A6500010640240006002407D0F7D0F074A904267
:10A6600001D2074801E005481038064A8B0001EA8C
:10A67000020101D5C16070478160704710640240DB
:10A68000006002407D0F7D0F0029016802D041F07B
:10A69000010101E021F00101016070472DE9F04165
:10A6A00090B00546684600F030F90121880506F0B3
:10A6B0007BFCDFF88880404600F044F8204F4FF0E4
:10A6C0000066CDE90067686800246946006802906A
:10A6D0004020CDE90304C002CDE90940C011CDE915
:10A6E0000540089407940D9440460E9400F0DCF861
:10A6F00001214046FFF7C8FFDFF84080A8F1780845
:10A70000404600F01FF8CDE90067286869460068F8
:10A71000CDE902048020049040000990404600F0FA
:10A72000C3F801214046FFF7AFFF0122C021381FC7
:10A7300008F002FF10B0BDE8F0810000B8640240EC
:10A74000041001402DE9F043016821F0010101608E
:10A750000021016041608160C1600161212141618E
:10A760003C493C4A3D251039904202D18D60BDE8FC
:10A77000F083384A4FF474661832904201D18E60EB
:10A78000F5E7344A4FF474173032904201D18F60AC
:10A79000EDE7304A4FF0746C4832904202D1C1F874
:10A7A00008C0E4E72B4B2C4A6033984201D1CA60C1
:10A7B000DDE7284C294B7834A04201D1CB60D6E7A5
:10A7C000DFF89080264C08F19008404501D1CC601C
:10A7D000CDE7DFF880804FF03D5908F1A8084045EB
:10A7E00002D1C1F80C90C2E71E49DFF87880083921
:10A7F000404501D10D60BAE71A4D1835A84201D184
:10A800000E60B4E7174D3035A84201D10F60AEE7B6
:10A81000144D4835A84202D1C1F800C0A7E7114D38
:10A8200010496035091FA84201D10A609FE70D4A0F
:10A830007832904201D10B6099E70A4A90329042F7
:10A8400001D10C6093E7074AA83290428FD1C1F83A
:10A8500000908CE7106002403D000020400F002077
:10A8600000003D2010640240014600200968C9072D
:10A8700000D001207047406880B270470B0607D5B2
:10A88000436912B143F0800301E023F08003436188
:10A89000802908D0002A026801F01E0101D00A4375
:10A8A00000E08A430260704730B50368124ACC6802
:10A8B00013400A682243D1E905452C432243CC6961
:10A8C00022430C6A22434C6A22438C6A22434C6B1B
:10A8D00022438C6B22431A430260426922F0070331
:10A8E000D1E90B2422431A4342610A6942604A6853
:10A8F00082608968C16030BD3F801CF00AB101618F
:10A900007047C1607047416070470021016041603D
:10A910008160C160016141618161C1610162416227
:10A920008162C162016341638163704770470000C7
:10A930002DE9F14F2DED0A8B92B01C9949B308789F
:10A940004FF0640A4D1C4FF0250B4FF000089FEDAF
:10A95000F3AB9FEDF48B9FEDF59B9FEDF6BB0127CD
:10A96000F64CDFF8DC93F74E53287BD03FDC3C28D5
:10A9700079D024DCDFF8D0A32E2875D015DC24286C
:10A9800001F078830ADC212801F0548323286CD15C
:10A990007AE2EEA00EF018FF01F06ABB2B2801F05E
:10A9A000F4832D28F3D101F0EBBB302801F0FC83B8
:10A9B0003128FBD03228F9D03A28E8D1ECE74228F8
:10A9C00056D00BDC3D2801F0EA833E2870D03F28AA
:10A9D00001F0E0834028DAD101F0CDBB442868D0F3
:10A9E000492867D04C287DD05028D0D1C5E25538B1
:10A9F00024283AD2DFE810F0D30A24005F00DB07F6
:10AA0000390039003900390039003900390039007E
:10AA10000907AA0339006E03A4072008390039008A
:10AA2000B905390039003900390039003900C1024F
:10AA30005A04D401EB04F407BE0824000B02BF073C
:10AA40000121080306F0B0FAFFF7E0F9C048C14958
:10AA5000081A8108BE48FFF7CBF90122BEA30721DF
:10AA6000009003E06BE0DCE0A0E089E0BDA0ABE398
:10AA700028462C2209A91C9513F0D2FA0890002828
:10AA80007ED001280CDD102200210A98FDF785FCFC
:10AA90000446102200210998FDF77FFC04707BE733
:10AAA000102200210998FDF778FC0178B2A023E07C
:10AAB000FAE04CE0EEE328462C2209A91C9513F09D
:10AAC000AFFA08900028DBD001280EDD102200210B
:10AAD0000A98FDF762FC0446102200210998FDF750
:10AAE0005CFC00E00BE0048056E71022002109988E
:10AAF000FDF753FC0188A2A00EF066FE4CE7284645
:10AB00002C2209A91C9513F08BFA08900028B7D0C5
:10AB100001280CDD102200210A98FDF73EFC0446B6
:10AB2000102200210998FDF738FC046034E7102258
:10AB300000210998FDF731FC016893A0DCE7084685
:10AB400012F0B6FF12B0BDEC0A8BBDE8F88F2846B4
:10AB50002C2209A91C9513F063FA089002280FDB38
:10AB6000032803D10B980078692810D04FF0FF34E8
:10AB700021460A9812F0A4FA08902146099800E0AC
:10AB80008FE112F09DFA089912F058FF04E74FF098
:10AB9000FF3421460A9812F093FA0890214609984A
:10ABA00012F08EFA089912F0A7FBF5E61422784904
:10ABB0006846FDF771FB1C95287878B300246D4634
:10ABC0000AE01C980221204412F07AFA04EBD471B6
:10ABD00005EB6101A41CC8721C98FDF7A3FBA04201
:10ABE000EFD804EBD47040086A4C8DF80A000022BC
:10ABF00002212046FEF714FF6748142269460068C8
:10AC000000680EF0A8FE012202212046FEF708FF90
:10AC100001F0ADBA61A0FFF75BF9BDE6FFE70021E7
:10AC2000F8E714216846FDF750FB284610221CA9BE
:10AC30001C95FDF7B2FB0090A8B301E0401C1C90EE
:10AC40001C9801782029F9D08DF80A800DF10B04A9
:10AC50000BE010221CA9FDF7A0FB9DF80A10085577
:10AC60009DF80A00401C8DF80A001C98017819B163
:10AC70009DF80A100829ECD3464C002202212046F8
:10AC8000FEF7CEFE444814226946006800680EF0C4
:10AC900062FE012202212046FEF7C2FE1C980078C7
:10ACA0000028CDD178E616E014216846FDF70DFBAB
:10ACB000284610221CA91C95FDF76FFB009050B18F
:10ACC000354E45460DF10B041C980178202904D01F
:10ACD0008DF80A5010E0032034E7401C1C90F3E785
:10ACE00010221CA9FDF759FB9DF80A1008559DF884
:10ACF0000A00401C8DF80A001C98017819B19DF8D3
:10AD00000A100829ECD330681422694640680EF016
:10AD100022FE1C9800780028D6D13DE600000000F5
:10AD20000000E03F6666666666660A400000000056
:10AD30000000303F0434D7F79751703F38000020AF
:10AD400000100022CC5F01208C0200200D0A3E0082
:10AD500000800008000004084F6374202036203271
:10AD6000303230002025642E253032642025732CAB
:10AD7000203C253038583E002C2530325800000049
:10AD80002C253034580000002C25303858000000A5
:10AD900084E90108006800405001002049000000DB
:10ADA00028462C2209A91C9513F03AF9089000288E
:10ADB00077D0012804DD0A98FDF760FB119000E0D0
:10ADC00011974FF0FF31099812F07AF90890FF2897
:10ADD00007DD4FF6FF7101EA0021C0F307200143B0
:10ADE0000891FA4808A9119A006812F06DFD78B32D
:10ADF000F7A00EF0E9FC1198C10007FA01F20899DA
:10AE0000521E0A404100F3A00EF0DEFCC4E52846C5
:10AE10002C2209A91C9513F003F90890022840D1AF
:10AE20004FF0FF342146099812F04AF90890FF28A4
:10AE30000FDD210C01EA0021C0F307200143089136
:10AE400021460A9812F03CF9089941EA004007E0CF
:10AE500017E021460A9812F033F9089941EA0020D8
:10AE600008900998FDF75EFA44080A98FDF75AFA27
:10AE700004EB5002D54808A9006813F0E9FC00284B
:10AE8000C4D10421D5A037E628462C2209A91C9557
:10AE900013F0C6F8D64C4FF48061089010B1022828
:10AEA0000CD00EE24FEA080204EB80035A8024F82B
:10AEB0002020401C08908842F6DB6DE50897089832
:10AEC00034F8202022B1401C08908842F7DB63E56B
:10AED0000998FDF7D3FA0A25401D90FBF5F000EB29
:10AEE00080004000002809DD0998FDF7C7FA401DE1
:10AEF00090FBF5F000EB8000400000E00020089996
:10AF000024F821000A98FDF7B9FA002803DD0A9811
:10AF1000FDF7B4FA00E00020089905B204EB8100C7
:10AF2000458034F92100FDF73EFC41EC180B284622
:10AF3000FDF739FC41EC100B9FEDAE1B0DF028FD29
:10AF400053EC182B51EC100BFDF74CFB9FEDAB1B9A
:10AF500053EC112BFDF7B8FB53EC1A2BFDF79BFAC2
:10AF600041EC180B2068FDF71EFC53EC182BFDF785
:10AF700092FAFDF736FC20600EE528462C2209A93E
:10AF80001C9512F06BFB9FED9FCB0890002827D0FB
:10AF900019DD0998FDF772FA21680968C8800898D8
:10AFA000012810DD0A980DF0D7FC53EC1C2B51EC56
:10AFB000100BFDF717FBFDF714FC2168096888806A
:10AFC000089803285AD01C98401E1C9000785028DE
:10AFD0005BD0206800688772089804285AD061E125
:10AFE0002568B5F97600FDF7DEFB53EC182BFDF76D
:10AFF000F9FA53EC192BFDF7F5FA53EC1B2BFDF77F
:10B0000063FB53EC1A2BFDF746FAFDF7EAFB2968C0
:10B01000B1F90C20B1F9061050434FF4167290FBB1
:10B02000F2F27AA00EF0D0FB20680068C48A14B94E
:10B03000018B0029A0D0008BB2EE048A00EE100A2A
:10B04000F8EE400A80EE880A10EE100AFDF701FCC7
:10B0500000EE104A05460E46F8EE400A80EE880AD9
:10B0600010EE100AFDF7F5FB41EC100BCDE9005690
:10B0700053EC102B6FA00EF0A7FB8DE40B98FDF79F
:10B08000FDF9216809688872A6E720680721006831
:10B090008172A1E70B980DF05FFC53EC1C2B51EC77
:10B0A000100BFDF79FFAFDF7BBFB21680968C8820A
:10B0B0000C980DF051FC53EC1C2B51EC100BFDF7D0
:10B0C00091FAFDF7ADFB21680A681083084604F089
:10B0D000B9FEE7E028462C2209A91C9512F0BEFA19
:10B0E000089000281AD018DD0998FDF7C7F92168E3
:10B0F00009680882089801280FDD0A980DF02CFCD9
:10B100009FED571B51EC100B53EC112BFDF76AFA16
:10B11000FDF767FB21680968C881C3E020680468FF
:10B12000B4F90E0000EE100AF8EEC00A9FED4E1AB8
:10B1300080EE810A10EE100AFDF78BFB41EC100B3C
:10B14000B4F9101053EC102B48A0A5E028462C228F
:10B1500009A91C9512F082FA089000282AD032DD45
:10B160000998FDF78BF90028F9DD0998FDF786F9B4
:10B170002168096808800898012826DD0A98FDF7EB
:10B180007DF9216809684880089802281DDD0B9820
:10B19000FDF774F9216809680881089803287EDDA5
:10B1A0000C98FDF76BF92168086609EB411181F8ED
:10B1B0001C8277E020680068B0F90830B0F90220FE
:10B1C000B0F9001067E0DFE12AE168E0400200200A
:10B1D0002C00000025302A5800000000202E2E2EC2
:10B1E000493243206572726F722825303258290027
:10B1F00000070020000000000000084000000000E0
:10B20000006A184100000000000024400D3E702834
:10B21000756C7365292020542C5520202020202077
:10B2200020202020202E2E2E20256475732C2564AE
:10B23000560000000D0A3E712873776368292020AC
:10B2400064656C61792C77696474682020202E2EE7
:10B250002E20252E316675732C252E3166757300D0
:10B260000000000000C08240000016440D3E64282B
:10B27000656C6179292020542C50572020202020F3
:10B2800020202020202E2E2E20256475732C252E84
:10B290003266000074E2FBA00EF096FA24E4216806
:10B2A000C1F86080206806F07FFC1DE428462C224F
:10B2B00009A91C9512F0D2F9FD4F089010B105288C
:10B2C0003DD0C7E3FBA00EF07FFA00252BE02068FD
:10B2D000B0F97600FDF767FA53EC182BFDF782F909
:10B2E00053EC192BFDF77EF953EC1B2BFDF7ECF912
:10B2F00053EC1A2BFDF7CFF8FDF773FAB6F90210ED
:10B3000048434FF4167100F5967090FBF1F2B6F9D0
:10B310000610CDE90018B6F9043037F91910EDA080
:10B320000EF052FA6D1C05EB850907EB4906B6F9DC
:10B3300008005FEA0008B1D0082DC8DB26E400262B
:10B34000B84600E0761C06EB860708EB470528891F
:10B3500030B10D98FDF792F8B5F908108842F1D197
:10B360000998FDF78BF806EB860228F812000A9878
:10B37000FDF784F84FF4167100FB01F62068B0F970
:10B380007600FDF710FA53EC182BFDF72BF953EC70
:10B39000192BFDF727F953EC1B2BFDF795F953EC0F
:10B3A0001A2BFDF778F8FDF71CFA96FBF0F008EB86
:10B3B000470148800B98FDF761F8A8800C98FDF7CD
:10B3C0005DF8E8800D98FDF759F8288125E42846B6
:10B3D0002C2209A91C9512F041F94FF47A75052821
:10B3E0007ED2DFE800F0032029406C0021683C2079
:10B3F0004FF47A75B1F9462092FBF0F4B1F944208C
:10B4000092FBF0F3B1F8422012FB05F292FBF0F24E
:10B41000B1F8401011FB05F191FBF0F1B2A00094DE
:10B420000EF0D2F93EE40998FDF728F800F0030188
:10B43000206804F09DFB35E40998FDF71FF8C0EB88
:10B440000010800090FBF5F02168A1F840000A98F8
:10B45000FDF714F8C0EB0010800090FBF5F12068B8
:10B46000A0F842107FE00998FDF708F8C0EB001043
:10B47000800090FBF5F02168A1F840000A98FCF7E5
:10B48000FDFFC0EB0010800090FBF5F02168A1F8F3
:10B4900042000B98FCF7F2FF0A2875DB0B98FCF7CB
:10B4A000EDFF642870DC0B98FCF7E8FFC0EB0010A0
:10B4B00081002068A0F84610A0F8441053E02068EE
:10B4C00009EB401090F82C1219B990F830020028BE
:10B4D00006D00998FCF7D2FF4FF4FA76B04200E0AC
:10B4E000CEE0DFDC0A98FCF7C9FFB042DADC0B984B
:10B4F000FCF7C4FF0A28D0DB0B98FCF7BFFF6428D9
:10B50000D0DC0C98FCF7BAFF0A28C6DB0C98FCF7D5
:10B51000B5FF6428C6DC0998FCF7B0FFC0EB00104B
:10B52000800090FBF5F02168A1F840000A98FCF734
:10B53000A5FFC0EB0010800090FBF5F02168A1F89A
:10B5400042000B98FCF79AFF2168C0EB00108000C6
:10B55000A1F844000C98FCF791FFC0EB00108100AB
:10B560002068A0F8461000211EE228462C2209A9D6
:10B570001C9512F073F840B14FF44F767500022815
:10B5800069D003287CD15CE01BE364A00EF01CF9B9
:10B590002368CF211A68508A10FB01F14FF4006034
:10B5A000928A00EBC101CF2412FB04F2B3F84830B9
:10B5B00000EBC20213FB04F300EBC300C31700EB64
:10B5C00013500313D01702EB10500213C81701EBEE
:10B5D0001050011352A00EF0F7F85D4DD5F824027B
:10B5E00005F50975FDF7F0F853EC182BFCF7FAFF99
:10B5F00053EC192BFCF7F6FF53EC1B2BFDF764F80B
:10B6000053EC1A2BFCF747FFFDF7EBF8044668688C
:10B61000FDF7DAF853EC182BFCF7E4FF53EC192B89
:10B62000FCF7E0FF53EC1B2BFDF74EF853EC1A2B05
:10B63000FCF731FFFDF7D5F80146224645A0FFF79C
:10B64000E3BB0B98FCF71AFF06EB003090FBF5F01C
:10B650002168A1F848000998FCF710FF06EB0030BC
:10B6600090FBF5F02168096848820A98FCF706FF0C
:10B6700006EB003090FBF5F021680968888235E21E
:10B6800005E100000D3E6228757273742920204E7A
:10B690002C6C656E2C70657220202020202E2E2EA2
:10B6A0002025642C256475732C25646D73000000BF
:10B6B000B00600200D3E71287368617065292077FF
:10B6C0002C552C74642C746F2C74726566202E2E8D
:10B6D0002E0000000D0A25642C25642C25642C25E1
:10B6E000642C2564000000000D3E7328696D6D65B3
:10B6F0007229206E202F2F2074312C74322C663149
:10B700002C66322E2E25646E732C25646E732C25C8
:10B710006475732C25647573000000000D0A000029
:10B7200063757272656E74206C696D697473286CD0
:10B730002F68292020202020202020202E2E2E207F
:10B740002564412C2564412C2564410D0A0000002C
:10B7500000200140766F6C74616765206C696D69CB
:10B760007473286C2F68292020202020202020207E
:10B770002E2E2E202564562C2564560D0A0000001E
:10B7800028462C2209A91C9512F04AFC10B1022867
:10B790007DD11FE01020FEF749FC00EBC00101EB5A
:10B7A000001040F2FF7606EB800040F6FF75B0FB1C
:10B7B000F5F40020FEF73AFC00EBC00101EB0010AD
:10B7C00006EB8000B0FBF5F123462522FDA0CDF865
:10B7D00000B025E60998FCF751FEC0EB0030544656
:10B7E000323090FBF4F085B20A98FCF747FEC0EBCC
:10B7F0000030323090FBF4F081B22A460020FEF790
:10B8000035FC0120FEF704FC70E128462C2209A932
:10B810001C9511F023FF0028BAD1F44F3888FCF7AB
:10B82000D3FF53EC182BFCF7DDFE53EC192BFCF780
:10B83000D9FE53EC1B2BFCF747FF53EC1A2BFCF7FC
:10B840002AFEFCF7CEFFEA4C05462088FCF7BCFF39
:10B8500053EC182BFCF7C6FE53EC192BFCF7C2FE79
:10B8600053EC1B2BFCF730FF53EC1A2BFCF713FEA9
:10B87000FCF7B7FF01466088D6F8542F4FF40064F8
:10B88000801ACF22504304EBC0007A8800E0E1E048
:10B89000D6F8583F06F64C76D21ACF235A4304EB1B
:10B8A000C202D31702EB135212130092C21700EB1D
:10B8B000125002132B46CFA00DF086FF7068FCF7E4
:10B8C00072FF53EC182BFCF78DFE53EC192BFCF791
:10B8D00089FE53EC1B2BFCF7F7FE53EC1A2BFCF7FD
:10B8E000DAFDFCF77EFF05463068FCF75CFF53ECA1
:10B8F000182BFCF777FE53EC192BFCF773FE53EC77
:10B900001B2BFCF7E1FE53EC1A2BFCF7C4FDFCF7F4
:10B9100068FF0146B068CF22504304EBC002F068D4
:10B92000CF23584304EBC000C31700EB13500013A0
:10B930000090D01702EB105002132B46B9A06FE510
:10B9400028462C2209A91C9511F088FE09AD4E4607
:10B9500008900AE055F82000FCF790FD216880006F
:10B9600000EB4110304480F800710898401E0890A8
:10B97000411CEFD17CE328461C95FCF77FFD012894
:10B9800004D0022806D0042864D107E0216881F899
:10B990004C8007E0206880F84C7003E021680220AA
:10B9A00081F84C000021206806F002F960E3284687
:10B9B0001C95FCF763FD012804D0022807D0042859
:10B9C00048D108E02168096881F81C8050E32068AC
:10B9D000006807774CE3216802200968087747E38D
:10B9E0009C4E9D4CB71C2046FDF720FD9B49022034
:10B9F0000EF0CCFF14212046FDF70FFC40F6E44189
:10BA00004843974901EB103081000A2091FBF0F583
:10BA1000142120461935FDF700FCB6F90010B7F9DE
:10BA20000020401A00EB8000511A000190FBF1F158
:10BA30002A468CA01E3102E628462C2209A91C9514
:10BA400011F00CFE894E8A4FDFF82882089038B139
:10BA5000042878D0012012B0BDEC0A8BBDE8F88F25
:10BA6000206809EB401090F82C129FED838BE1B118
:10BA7000022002F0E1FAFCF796FE53EC182BFCF7DB
:10BA800023FE034630680C4690FBFAF23868CDE995
:10BA9000043490FBFAF1D8F800307948CDE900B3CE
:10BAA000CDF808B0036877A01EE090F83002F0B13E
:10BAB000012002F0C1FAFCF776FE53EC182BFCF7DC
:10BAC00003FE034630680C4690FBFAF23868CDE975
:10BAD000043490FBFAF1D8F800306948CDE900B39E
:10BAE000CDF808B0036876A00DF06EFEC0E202202B
:10BAF00002F0A2FAFCF757FE53EC182BFCF7E4FD1A
:10BB000004460D46012002F097FAFCF74CFE53EC78
:10BB1000182BFCF7D9FD32683E6804AB96FBFAF6A9
:10BB200083E83300D8F8001092FBFAF2CDE900B1B7
:10BB30005348CDF808B03146036800E003E06FA039
:10BB40000DF042FE94E20998FCF798FC642148430A
:10BB500038600A98FCF792FC6421484330600B98E7
:10BB6000FCF78CFC464908600C98FCF787FCC8F889
:10BB700000007DE200273E4628462C2209A91C959C
:10BB800011F06CFD30B1012819D0022818D003281B
:10BB900017D190E1684CA08AFCF716FE9FED67ABC9
:10BBA00053EC1A2BFCF71EFD9FED66BB53EC1B2BD1
:10BBB000FCF718FD53EC182BFCF714FDC6E082E1EE
:10BBC0007DE195E10D3E692844414329202020690B
:10BBD000312C69322020202020202020202E2E2EC3
:10BBE00020256425632C2564256300004401002082
:10BBF0004001002020200D3E612864632920202080
:10BC00002055312C49312C55322C49322020202E00
:10BC10002E2E202564562C2564412C2564562C2577
:10BC2000644100000A0D3E61286463292020202021
:10BC300069646C65202020202020202020202E2ECA
:10BC40002E202564562C2564412C2564562C256411
:10BC5000410000002C7AFF1F00200140C1A801080C
:10BC600008FDFFFF2025642C20256400E80000204B
:10BC7000E4000020E0000020000000000000594027
:10BC8000DC0000200D3E6628616E29202020546CC7
:10BC90002C54682C6D696E2C6D61782C542E2E2ED0
:10BCA0002025642C2533642C25336425632C25330F
:10BCB0006425632C202D2D202C25352E3166000087
:10BCC0000D3E6628616E29202020546C2C54682C6F
:10BCD0006D696E2C6D61782C542E2E2E2025642CCF
:10BCE0002533642C25336425632C25336425632C8C
:10BCF00025352E31662C202D2D2000000D3E662886
:10BD0000616E29202020546C2C54682C6D696E2C97
:10BD10006D61782C542E2E2E2025642C2533642C16
:10BD200025336425632C25336425632C25352E317A
:10BD3000662C25352E3166003417002000000000E7
:10BD400000609F40000000000000C03F53EC192B32
:10BD5000FCF748FCFCF7A8FDFCF77BFD81468A4612
:10BD6000608AFCF731FD53EC1A2BFCF73BFC53ECDB
:10BD70001B2BFCF737FC53EC182BFCF733FC53EC74
:10BD8000192BFCF72FFCFCF78FFDFCF762FD074633
:10BD900088462089FCF718FD53EC1A2BFCF722FC8F
:10BDA00053EC1B2BFCF71EFC53EC182BFCF71AFC76
:10BDB00053EC192BFCF716FCFCF776FDFCF749FD5C
:10BDC00005460E466089FCF7FFFC53EC1A2BFCF786
:10BDD00009FC53EC1B2BFCF705FC53EC182BFCF770
:10BDE00001FC53EC192BFCF7FDFBFCF75DFDFCF7A8
:10BDF00030FD8DE8E00741EC100BEDA053EC102B6B
:10BE00000DF0E2FC208AFCF7DFFC9FEDF7BB53EC62
:10BE10001B2BFCF7E7FB9FEDF6AB53EC1A2BFCF763
:10BE200053FC53EC182BFCF7DDFB53EC192BFCF700
:10BE3000D9FBFCF739FDFCF70CFD07468846E08985
:10BE4000FCF7C2FC53EC1B2BFCF7CCFB53EC1A2B7E
:10BE5000FCF73AFC53EC182BFCF7C4FB53EC192B02
:10BE6000FCF7C0FBFCF720FDFCF7F3FC05460E4693
:10BE7000A089FCF7A9FC9FEDE01B53EC112BFCF70C
:10BE8000B1FB53EC1A2BFCF71FFC53EC182BFCF7FF
:10BE9000A9FB53EC192BFCF7A5FBFCF705FDFCF700
:10BEA000D8FC8DE8E00141EC100BD5A053EC102B31
:10BEB0000DF08AFCDCE00B98FCF7E0FA07460A98E4
:10BEC000FCF7DCFA06460998FCF7D8FA05461FB9D4
:10BED0000A2095FBF0F047191EB9032095FBF0F0FE
:10BEE0002E1AB5F5487F03D8AE4201DAAF4201DC25
:10BEF0000220B0E52846FCF756FC9FEDCD9B53ECA5
:10BF0000192BFCF76FFB53EC1B2BFCF76BFB53EC73
:10BF1000182BFCF7D9FB53EC1A2BFCF7BCFAFCF7F7
:10BF200060FC2168C44C0022A1F876004FF48371B4
:10BF30002046FDF7DFF93046FCF735FC53EC192BB2
:10BF4000FCF750FB53EC1B2BFCF74CFB53EC182B72
:10BF5000FCF7BAFB53EC1A2BFCF79DFAFCF741FCFB
:10BF600086B23846FCF71FFC53EC192BFCF73AFB62
:10BF700053EC1B2BFCF736FB53EC182BFCF7A4FB04
:10BF800053EC1A2BFCF787FAFCF72BFC81B23246F4
:10BF90002046FDF7EBF8284605F0E4FD5BE5A74CED
:10BFA00088201190022211A9206811F08DFCD0B3D5
:10BFB000119800B20DF090FB10EE100AFCF749FC4E
:10BFC00041EC100B9EA053EC102B0DF0FDFB8B20D1
:10BFD0001190022211A9206811F076FC18B3119873
:10BFE00000B20DF079FB10EE100AFCF732FC41ECC8
:10BFF000100B97A053EC102B0DF0E6FB972011903F
:10C00000022211A9206811F05FFC60B1119800B202
:10C010000DF062FB10EE100AFCF71BFC41EC100B5C
:10C0200053EC102B00E003E08CA00DF0CDFB1FE0E3
:10C03000042010E520681F2249F640430168B1F949
:10C040000610CDE90012B0F94A204CF2011186A089
:10C05000FDF73EFF864914200EF098FC1F221A219E
:10C0600082A0FDF735FF206809EB401080F80071D1
:10C070000020F0E428461C95FCF700FA002400900C
:10C080002546274621467BA0FDF722FF7AA0D6F859
:10C090005C1F0DF099FB42F20F794FF03C0856E01F
:10C0A0000098012802D0022802D009E0744800E07C
:10C0B000744830F8241000EB84000D444088074495
:10C0C000641CA00743D1E817F91705EB907007EB44
:10C0D000917180104FEAA10BC11700EB116727F097
:10C0E000FF01451A03E0624902200EF04FFC664949
:10C0F000284610F05DFF401CF5D003E05C490220AB
:10C100000EF044FC3812604910F052FF401CF5D08C
:10C110004FEAEB710BEB116727F0FF00ABEB00056B
:10C120005949284610F044FF401C08D150490220CC
:10C130000EF02CFCF4E74E4902200EF027FC3812DA
:10C14000514910F035FF401CF5D000252F46D6F898
:10C150005C0FC0EB0010830093FBF8F24846521EC0
:10C16000824202DA93FBF8F0401EA04298DCDAF833
:10C170000010FEF74FBD28461C950EF02BFC6AE41C
:10C1800028461C9500F0C0FB65E428461C9500F08D
:10C190008BFE60E428461C9500F068FF5BE42846AF
:10C1A0001C9500F073F856E4084600F06DF952E46F
:10C1B0002862616E6B292048562C48562F322C5627
:10C1C00063312C5663322E2E2E20252E3066562CAF
:10C1D00025352E3066562C25352E3066562C2535C5
:10C1E0002E3066560D0A00000000000000809140CD
:10C1F000000000000080814000000000007CBF4083
:10C200002020202020202020205632342C56352C6F
:10C2100056332020202020202E2E2E20252E316641
:10C22000562C25352E3166562C25352E3166560076
:10C23000000000000000B040002201404002002049
:10C240000D3E56696E3D252E31662C200000000003
:10C25000566F75743D252E31662C2000506F757415
:10C260003D252E3166000000777777775800000073
:10C27000C1A80108490000002C25640D0A00000037
:10C280004A1700208AB3002088020020F0B52DED67
:10C29000048B89B001789FED5B8B9FED5C9B5D4DBE
:10C2A00043290AD0452962D09FED5B8B492930D0C4
:10C2B000012009B0BDEC048BF0BD401C04460CF01D
:10C2C0004BFB53EC192B51EC100BFCF78BF953EC97
:10C2D000182BFCF7D1FA0AD3601C0CF03DFB53EC91
:10C2E000192B51EC100BFCF77DF941EC180B51ECBC
:10C2F000180BFCF776FAC5F8880FFCF754FA53ECE4
:10C30000192BFCF7E1F941EC100B45A053EC102B75
:10C310002AE0401C04460CF01FFB53EC192B51EC97
:10C32000100BFCF75FF953EC182BFCF7A5FA0AD3B6
:10C33000601C0CF011FB53EC192B51EC100BFCF7AB
:10C3400051F941EC180B51EC180BFCF74AFAC5F8FF
:10C350008C0FFCF728FA53EC192BFCF7B5F941ECDC
:10C36000100B38A053EC102B0DF02EFA48E02C22C5
:10C370006946401C11F054FE04466D464FF0FF37ED
:10C38000394E3BE055F82400394610F099FE3168EB
:10C39000096F084232D155F82400394610F090FE5A
:10C3A0003168C96E084229D155F82400394610F089
:10C3B00087FE2E49084218D02D4908682D4A1040A2
:10C3C00008602D48016821F47F2101602B48016835
:10C3D00021F00F0101602A48016821F47001016019
:10C3E0002848016821F07F41016055F82400394652
:10C3F00010F066FE3168CA6E1043C866641EC1D272
:10C40000002056E700000000000059400000000036
:10C4100000408F40CC5F012000000000000024405D
:10C42000202E2E2E2062616E6B2063617061636925
:10C4300074792073657420746F2025362E316C66F4
:10C44000206D4600202E2E2E2063686172676520C5
:10C4500063757272656E742073657420746F202525
:10C46000352E316C6620410038000020A8D1030829
:10C4700000100240FFFF33C30008024000000240EA
:10C4800000040240000C0240F0B5ADF2147D05003E
:10C4900073D0287800286FD0202201A9284611F0F7
:10C4A000BFFD04460198FBF73DFF07460246EBA09F
:10C4B0000199FBF755FFEA4E00286FD03A46E9A0F4
:10C4C0000199FBF74DFF002879D03A46E6A0019983
:10C4D000FBF746FF002872D03A46E4A00199FBF72B
:10C4E0003FFFE44D00287CD03A46E3A00199FBF7DA
:10C4F00037FF002876D03A46E1A00199FBF730FFDC
:10C50000002870D03A46E0A00199FBF729FF0028E7
:10C510006AD03A46DEA00199FBF722FF002873D0CB
:10C520003A46DDA00199FBF71BFF00286DD03A4683
:10C53000DBA00199FBF714FF002867D03A46DAA088
:10C540000199FBF70DFF002877D03A46D8A0019952
:10C55000FBF706FF002871D03A46D6A00199FBF7F9
:10C56000FFFE00286BD0019800783E2868D002209A
:10C570000DF2147DF0BD00E06DE1CFA00DF024F9C7
:10C58000FF21D9A80FF022FA20B9D9A9B9480FF094
:10C59000C3FF20B1C9A00DF017F95CE10FE0D9A8E5
:10C5A000FBF7C0FED9A9084410F8010C2F2804D0CD
:10C5B000C3A000BF0DF008F94DE1C2A0FAE728467C
:10C5C0000FF0D8F9002829D1BF4801222946006878
:10C5D000D0F89C000FF09CFE00281FD1FF21D9A8A5
:10C5E00003E014E02DE035E04EE00FF0EFF9002815
:10C5F00014D1D9A99F480FF08FFF00280ED1AFF2B8
:10C6000077103168486126E144E04BE0A4E0022C59
:10C6100004D10021974810F066F850B19EE009AAB5
:10C620009449029810F024FB18B110F04DF900283D
:10C6300074D1A8690028F2D10DE195E0CBE0FFE0CC
:10C6400002E1022C32D0DDE9020110F075F8002879
:10C650002CD100E1022CA0D101224FA802990FF0A9
:10C660007DFE00285AD194A00DF0AEF806E000BF80
:10C670000FF09DF9014695A00DF0A6F85299549837
:10C6800088424FA8F4D164E0022C6FD102980FF0D9
:10C69000E3FA04E0022C69D102980FF03DF900287A
:10C6A0003CD1D8E0022C02D0032C16D056E03A211F
:10C6B0000298FBF72DFE411C01290CD008782F2889
:10C6C00000D1491CF9A8FBF742FEF9A90298FBF733
:10C6D00030FE20B107E00299F4E70399F2E77CA16C
:10C6E000F9A8FBF7FDFDF9A8FBF71CFEF9A9084422
:10C6F00010F8010C3A2803D1F9A80299FBF7F0FDD4
:10C7000001224FA802990FF029FE38B90A22F9A98F
:10C710000DF2E4400FF022FEC0BB0AE067E04FA834
:10C720000FF045F9C0B20DF2E4410FF02BFF401CB1
:10C7300003D0529954988842F1D152995498884222
:10C7400043D04FA80FF024F90DF2E4400FF020F988
:10C750004DE00FF01DF97EE0022C01D0012007E72B
:10C76000029801F02DF803E7032C01DA0320FFE61D
:10C7700001224FA802990FF0F1FDC0BB12220DF269
:10C78000E44003990FF0EAFDF9ACA8B14FA8DDE74A
:10C79000009408E010226946FBF7FFFDC0B20DF2DD
:10C7A000E4410FF0EFFEF9A8FBF7BCFD011900987A
:10C7B000891E814202D9EDE74FF480754FAA2946C0
:10C7C000F9A810F037FA0028E2D14FA80FF0E0F8EE
:10C7D0000DF2E440BDE7022C0BD1264802990FF080
:10C7E0009BFE20B9002123480FF07DFF08B10520F2
:10C7F000BEE60DF13A0409A91E480FF074FFA869BE
:10C8000048B3214634A00CF0DFFF9DF82C00C00691
:10C8100002D533A133A001E034A009990CF0D4FF74
:10C82000BDF8280060F30F06C6F34623C6F3431293
:10C8300006F01F012FA003F2BC730CF0C5FFDAE76E
:10C84000029810F0A1FD93E631682E48486100205F
:10C85000FEF76EF88CE600208AE60000303A000011
:10C860008C020020313A0000323A000064656C65A9
:10C87000746500000017002072656E616D65000030
:10C8800074797065000000006D6B646972000000CF
:10C890006364697200000000636F7079000000003B
:10C8A00066696C6500000000666F726D617400005F
:10C8B00064697200696170000D0A00003F3A2F0040
:10C8C00025732F0025730000380000202563000029
:10C8D0005F436F70790000000D0A252D3238730018
:10C8E0002F0000002531367300000000253136642A
:10C8F000000000002020202532642D2532642D25E3
:10C900003464000031A900082DE9F143ADF5266D2E
:10C910000025DDF8603AF94CF94E1A78581C4FF0B2
:10C92000FF370DF10408662A7FD014DC4FF47A69D2
:10C93000462A70D008DC3F2A6ED0422A6DD0442AA5
:10C940006CD0452A4BD144E2502A68D0632A31D0BA
:10C95000642AF7D192E2E949693A0D2A09683ED280
:10C96000DFE802F0233D3DEFEE263D3DED6D3D3D20
:10C97000070020224146184611F052FB0228E1D15F
:10C9800009F064F9DF49C8200EF000F80298007839
:10C99000662804D0682804D07328D3D102E009F0B7
:10C9A0003BF978E20AF090FE75E2D748056072E242
:10C9B0008D6570E220224146184611F031FB044695
:10C9C0000128EEDD02980078662810D06C28B9D1D5
:10C9D0000398CE4C0078792802D06E2802D072E1FC
:10C9E000012000E0002001F09FFF206053E2E007FB
:10C9F00075D115E0102239460498FBF706FD06466E
:10CA0000102229460398FBF700FD31460DF0FCFF8C
:10CA1000A41E07E009E07CE043E142E010E25FE0B1
:10CA200004AF03AD022CE5D135E2002002F02AF874
:10CA30002168012006EB411181F84C022BE2B1F88C
:10CA4000740040F08000A1F87400C86E00B1CD669B
:10CA5000AF4D2868AF4908432860AF48016841F4EA
:10CA60002A210160AD48016841F00A010160AC482B
:10CA7000016841F420010160AA48016841F02A419F
:10CA8000016000240821284601F04EF8641C0A2C9D
:10CA9000F8DB0821284601F049F8002003F09CF952
:10CAA000F9E120211846FBF733FCFBF7E7FC21688E
:10CAB000C1F89800D1F8980028B151F8980F9A4A17
:10CAC000126810440860994C4FF40051204601F060
:10CAD0002DF84FF48041204601F026F8DBE11FE0FD
:10CAE000002000F0ABFC04460146252290A00CF08B
:10CAF0006BFE0A2C05DD48460AF0E9FE384600F0D8
:10CB00009DFC92A00CF060FE4FF496700AF0DFFEE0
:10CB1000C1E120224146184611F082FA022804DAC7
:10CB200003200DF6642DBDE8F08302984FF40065F4
:10CB30000078662821D0752804D00220F1E75BE058
:10CB400066E14EE083A00CF03FFE6E4905200DF03B
:10CB50001DFF864810F05CF8411CF6D079289FD163
:10CB60002068012282A1D0F89C000FF0D1FB0022A6
:10CB700009AB07217EA000952EE07EA00CF024FEDC
:10CB800048460AF0A4FE5F4905200DF0FFFE7748F5
:10CB900010F03EF8411CF6D079289FD17BA00CF014
:10CBA00013FE00245FF0300606EBC40000F09AFE8E
:10CBB000082814D078A000BF0CF006FE641C052CD9
:10CBC000F2DB012275A10DF624000FF0A1FB09ABE9
:10CBD0000022072171A000950FF0F0F85BE170A032
:10CBE000EAE72C224146CDF8600A11F019FA014615
:10CBF00001A802F0A7F84EE12C224146CDF8600AC8
:10CC000011F00EFAF0B3674D43E03946019810F089
:10CC100057FAD5F80012884239D1002462A00CF0EE
:10CC2000D3FD0026CDF8605ADDF8601AA019085C23
:10CC3000C043C1B25DA00CF0C7FD761C102EF3DB23
:10CC40000026DDF8601AA019085CC143C8B221387B
:10CC50005E2804D2C9B23CA00CF0B6FD02E050A0A0
:10CC60000CF0B2FD761C102EEBDB1034B4F5007F17
:10CC7000D4DB50480CF0A8FD0DF022FE3B480FF02D
:10CC8000C7FF00E00AE0411CF6D01B2805D005F5DF
:10CC90000175D5F80002401CB7D1FCE004F010FF8C
:10CCA000F9E02C224146CDF8600A11F0B9F90128CB
:10CCB00002D0022821D006E001983C2100783128DA
:10CCC00003D032280CD001202BE720680068B0F98F
:10CCD0000200C0EB0010800090FBF1F1364809E043
:10CCE00020680068B0F90200C0EB0010800090FBE3
:10CCF000F1F1324804F068FECDE061E03800002038
:10CD000000100022C1A801084002002050010020AC
:10CD10000010024000008828000802400000024085
:10CD200000040240000C0240800200200014024077
:10CD30000D0A3E5061636B696E6720736563746FA3
:10CD400072732E2E2E2025642563000020446F6E02
:10CD5000650000000D466F726D617420757362206E
:10CD60002E2E2E5B792F6E5D000000008C020020BD
:10CD7000313A00000D466F726D617420666C61730C
:10CD800068202E2E2E5B792F6E5D0000206572616B
:10CD900073696E67200000003F000000303A000019
:10CDA0002E000000000004080D0A00002530325853
:10CDB00020000000E4F101084A1700208AB3002097
:10CDC0000298FBF75BFB04460198FBF757FB2146F3
:10CDD00090E720211846FBF79BFACDF8600A10E097
:10CDE000401C10220DF52661CDF8600AFBF70DFB03
:10CDF00021680A6F10430867CA6E024201D082435D
:10CE0000CA66DDF8600AC0B301780029E8D142E0C3
:10CE10002C224146CDF8600A10F020FCA9460746B6
:10CE200045460AE055F82700FBF728FB21688000FB
:10CE300000EB4111314481F800927F1EF2D22AE0CA
:10CE40001649174A096811602C224146CDF8600A3C
:10CE500010F004FCA946074645460CE0002255F8B0
:10CE600027001146FBF799FA2168800000EB411179
:10CE7000314481F880917F1EF0D20CE0202241469F
:10CE8000184611F0CDF8022805D10298FBF7F6FA02
:10CE900004490DF07BFD002043E600008C020020D9
:10CEA000F8000020C1A801082DE9F14388B0684DC1
:10CEB000089A684C501C11786E464FF00108692999
:10CEC00071D006DC42296FD044295FD0452906D1B4
:10CED00009E06D291ED06E2934D0772947D0012072
:10CEE00009B0BDE8F08320211046FBF711FA089045
:10CEF0000AE0401C102208A90890FBF786FA216876
:10CF00000A6F82430A670898002802D00178002936
:10CF1000EFD19BE02C223146089010F09FFBB146E8
:10CF2000074646460BE000BF59F82700FBF7A6FA74
:10CF30002168800000EB4110284480F800627F1EC9
:10CF4000F2D283E020211046FBF7E2F9089008E0D6
:10CF5000401C102208A90890FBF757FA2168886541
:10CF60000898002872D001780029F1D16EE02C22B7
:10CF70003146089011F054F818B10098FBF77EFA8A
:10CF800001E04FF496700AF0A2FC5FE03249334AA8
:10CF9000096811602C223146089010F05FFBB14601
:10CFA000074646460DE00FE033E000BF59F8270082
:10CFB000FBF764FA2168800000EB4110284480F8F8
:10CFC00080617F1EF2D241E02C223146089011F0A0
:10CFD00027F8234C20B1012806D0022836D10AE0D8
:10CFE0004CF25032582110E00221009810F068F8FD
:10CFF0000146002209E00198FBF740FA05460221AC
:10D00000009810F05DF801462A46206801F028FEDD
:10D010001CE020211046FBF77BF9FBF72FFA216873
:10D02000C1F89800D1F8980028B151F8980F0D4A2E
:10D030001268104408600C4C4FF40051204600F078
:10D0400073FD4FF48041204600F070FD002047E75B
:10D0500000100022380000208C020020F800002080
:10D060004002002080020020001402402DE9FC5FF5
:10D07000814601786846B04C46010125AD4F2068D5
:10D0800006F1085650297CD00CDC44297AD004DC07
:10D09000232978D042290DD1F7E0452974D04829B9
:10D0A00008D10CE1572970D0662906D06D296DD0C2
:10D0B00074290ED00120BDE8FC9FA04D284605F044
:10D0C000C3FA0446284605F0BDFA014622469CA054
:10D0D0002BE19D480027B8460188B946491C01EB61
:10D0E0008105B0F8A01F8246491C01EB810440E095
:10D0F000A54201DA2E4600E0264626B9A54201DD0A
:10D100002E4600E02646AD1B4FF0FF318D4200DA7F
:10D110000D46A41B8C4200DA0C460AEB880B0AEB86
:10D120008700BBF8A23F01904288494687A00CF0D7
:10D130004BFB0198B144BBF8A23F4288494683A00B
:10D140000CF042FB3AF8270030B12DB97F1C3AF8B9
:10D150002700401C00EB8005BBF8A01F49B144B973
:10D1600008F101080AEB8800B0F8A00F401C00EBA2
:10D1700080043AF8271050460029B9D100EB880105
:10D1800005E07FE028E008E031E061E021E0B1F86F
:10D19000A01F0029ACD171A026E0714D71A02968B3
:10D1A0000CF012FBA8880124002811D05FEA842625
:10D1B00005EB840035F92410B0F902206AA00CF0C8
:10D1C00003FB641C35F824000028EED0B442EFDBEA
:10D1D000ADE0D0F8901004E06649096819B1D0F8C4
:10D1E0008C1065A066E066A00CF0EEFA9FE02021AE
:10D1F0004846FBF78DF8DFF8908178B16D214846FD
:10D20000FBF786F850B12068016F60A00CF0DCFAE3
:10D210002068016F62A001EA08014BE02068D0E9B4
:10D220001B1228EA02000140002400910CE0307833
:10D2300030B157F8242005FA04F15EA00CF0C4FACE
:10D2400000984010641C009000980028EFD16EE018
:10D25000D0E91B124C48C043904301400024009188
:10D260000CE0307830B157F8242005FA04F151A0D1
:10D270000CF0AAFA00984010641C00900098002856
:10D28000EFD154E00DF0ECFA51E04FF480414C48FE
:10D2900000F043FC012810D04AA000BF0CF094FA23
:10D2A0002068D0F89810E1B3D0F898004A4909688E
:10D2B000411A4AA00CF088FA39E04CA0EEE70020B1
:10D2C0000090800210F06AF948B10FF091FE0098CA
:10D2D000401C009049A00CF077FA0098F1E748480C
:10D2E0004849401AC11700EB9150821246A000999C
:10D2F0000CF06AFA42490022494800920A46401A54
:10D30000009905E052F8211029B90099491C0091B3
:10D31000B1EB900FF6D3C11700EB91508212009839
:10D3200000E004E0C0F315213EA00CF04DFA00200F
:10D33000C1E6000058000020380000200004004032
:10D3400025642C25640D0A00CC4F01200D0A2534DC
:10D35000642C2534642C2534640000000D0A000080
:10D3600000070020256400000D0A2325642C256495
:10D3700000000000F8000020202530385800000090
:10D38000202E2E2E00000000A8D103080D0A657281
:10D39000726F72206D61736B3D253038580000004C
:10D3A0000D0A637269746963616C20203D25303811
:10D3B000580000000D0A253036583A202573000029
:10D3C00000140240202E2E626F6F74206469736116
:10D3D000626C656400000000800200202C207469EB
:10D3E0006D656F75743D2564206D7300202E2E626F
:10D3F0006F6F7420656E61626C6564002E000000C2
:10D40000A8D00120A89001200D0A2564206F662075
:10D4100025646B2068656170206C6566742C200043
:10D42000A8F001200D0A2564206F662025646B207A
:10D43000737461636B20636C65616E002DE9F04766
:10D4400000252F4CADF5007D8046AA4630274FF4CD
:10D4500000366D1C0AF02FFA04F501708146D4F8ED
:10D46000001201E000F50170D0F80022914202D0D4
:10D47000521CF7D126E0501C24D00AF1010A2046A4
:10D4800020494C460844B04203DAD4F80002401C5C
:10D49000DFD1B8F1000F02D0384600F023FAD4F8FB
:10D4A000000206F50036401C07F10807D1D1B8F19B
:10D4B000000F1ED0384600F015FA00200DF5007D53
:10D4C000BDE8F0870020694654F82020D24341F897
:10D4D0002020401C8028F7DB0AF0EDF9B8F1000F9E
:10D4E000CDD0012369460020D4F800220EF0D6F9F1
:10D4F000C5E764210AFB01F090FBF5F0DEE70000D0
:10D50000000004080402FCF70AF03EBD0AF03CBD2E
:10D510000149086070470000143C0140064A01467A
:10D5200000201268044B0A4014331B680B4202D0DF
:10D53000002A00D001207047003C014030B51A4954
:10D540008379026853B30B6893430B600A1D136819
:10D550000468A343136002790A44136804682343F0
:10D560001360114A083213680468A3431360131D43
:10D570001C680568AC431C604479102C05D021441C
:10D580000A68006802430A6030BD116804682143DC
:10D590001160196800680143196030BD00790844C2
:10D5A00001689143016030BD003C01402DE9FC5F02
:10D5B0006F4F05466F4AD7F85C0FC0EB0011B2EB16
:10D5C000810F06DDC0EB001080003C2190FBF1F0E4
:10D5D00001E042F210700026674C8046002D7CD09E
:10D5E00001466648D7F8542FFAF7EAFDD4E912232A
:10D5F00080185941C4E9120141466148D7F8582FB3
:10D60000FAF7DEFDD4E9142380185941C4E9140166
:10D610008046606B0F46411C6163696D88427CD116
:10D62000B5F984B0574991FBFBF2D4E91201D31745
:10D63000FAF7DAFDC4E912018A465249814691FBA4
:10D64000FBF2D31740463946FAF7CEFDC4E9140180
:10D65000B5F974004FF47A77C1071FD0800745D41D
:10D660004A465346072148A00096FCF731FCD4E90E
:10D6700012013A460023FAF7B7FD804619461046D4
:10D6800064220023FAF7B0FD0346424640A103207E
:10D690000DF058FD95F87400C00723D195F874007B
:10D6A000800753D50096D4E91423072136A0FCF750
:10D6B0000FFCD4E914013A460023FAF795FD8046A1
:10D6C0001046194664220023FAF78EFD03464246AF
:10D6D00032A103200DF036FD00E040E095F8740023
:10D6E000C00733D095F8740080072FD50096D4E991
:10D6F0001410D4E9122352184341072122A0FCF749
:10D70000E7FBD4E914013A460023FAF76DFD05461C
:10D71000104619466422002300E026E0FAF764FD73
:10D720008046D4E912013A460023FAF75DFD074628
:10D730001046194664220023FAF756FDCDE9005839
:10D7400003463A4618A103200DF034FD002066631D
:10D75000C4E91400C4E91200401EBDE8FC9F00218A
:10D760006663C4E91411C4E912110020F5E7000052
:10D77000CC5F0120C0270900000000204A170020CC
:10D780008AB30020F0310B00636963500000000091
:10D7900045313D25642E25644A00000045323D2573
:10D7A000642E25644A00000045313D25642E256421
:10D7B0004A2C2045323D25642E25644A0000000095
:10D7C00070B5204C0646204D206848B146B33178EC
:10D7D000042929D032461DA10AF086FB002070BD25
:10D7E0004FF40A710120FAF7CAFD206028B1132214
:10D7F00031460EF0B3FD10B106E0062070BD206882
:10D80000C1680EF08FF920B120680FF0F1FB052000
:10D8100070BD10A120680AF067FBAFF25B000EE05C
:10D820000DA00BF0D1FFD9E70FF006F820680EF03D
:10D83000AFF820680FF0DCFB002020600748296863
:10D840004861CBE7FC0000208C02002025730D0A04
:10D85000000000000D0000000D0A000089C400084F
:10D8600010B51A480FF046FD194B1A49441C4FF0E9
:10D87000000211D04C6A002C1DDD8B6A7E2840EA24
:10D8800003238B6214D0412812D0422810D04328A1
:10D890000ED044280CD016E0486A002813D001DAD4
:10D8A000C0F100001B6898420DDA4A62886A10BD18
:10D8B00018464A6210BD1B2801D04A6210BD1A6882
:10D8C000521DC1E909204FF0FF3010BD8C0200202D
:10D8D000800200200000002001490860704700001D
:10D8E0000C3C024010B5044600F08EF8F320FFF720
:10D8F000F3FF00BF09F0DFFF0221204600F004F82B
:10D900000128F7D010BD000070B50646002529B1EA
:10D91000012927D0022928D04FF4407500F086F85D
:10D9200008281ED1124C206820F440702060206826
:10D9300028432060206820F0F8002060206846F02E
:10D94000020108432060206840F48030206000F02D
:10D950006DF8216821F002012160216821F0F801B1
:10D96000216070BD4FF48075D8E74FF40075D5E79E
:10D97000103C02400B4908200A68D20301D501205F
:10D9800070470A68D20601D5052070470A6812F070
:10D99000EF0F01D00620704709688907FBD50720E3
:10D9A000704700000C3C024070B50C46054600F084
:10D9B0002BF8F320FFF790FF09F07DFF2146284662
:10D9C00000F004F80128F7D070BD000070B50D46D6
:10D9D000064600F02BF8082813D10A4C206820F4E2
:10D9E00040702060206840F400702060206840F0A3
:10D9F00001002060356000F019F8216821F0010174
:10DA0000216070BD103C024005480068002805DA1E
:10DA1000034804490C380160034901607047000065
:10DA2000103C024023016745AB89EFCD08B50820C3
:10DA30008DF80000FFF79EFF8DF800009DF80000B4
:10DA40000128F7D09DF8000008BDF0B5002301249F
:10DA500003270D6804FA03F21540954242D1D0F82D
:10DA600000C05E0007FA06F52CEA050CC0F800C0FD
:10DA700091F804C0D0F800E00CFA06FC4CEA0E0C59
:10DA8000C0F800C091F804C0BCF1010F02D0BCF195
:10DA9000020F1FD1D0F808C02CEA050CC0F808C04E
:10DAA00091F805C0D0F808E00CFA06FC4CEA0E0C20
:10DAB000C0F808C0D0F804C02CEA020CC0F804C0BA
:10DAC000426891F806C00CFA03FC1FFA8CFC42EA8B
:10DAD0000C024260C268AA43C260CA79C568B240FB
