:020000040800F2
:20000000F850002099010008A1010008A3010008A5010008A7010008A90100080000000070
:20002000000000000000000000000000AB010008AD01000800000000AF0100084D17000832
:20004000B3010008B3010008B3010008B3010008B3010008B3010008B3010008B3010008C0
:20006000B3010008B3010008B3010008B3010008B3010008B3010008B3010008B3010008A0
:20008000B3010008B3010008B3010008B3010008B3010008B3010008B3010008B301000880
:2000A000B3010008B3010008B3010008B3010008B3010008B3010008B3010008B301000860
:2000C000B3010008B3010008B3010008B3010008B3010008B3010008B3010008DD17000800
:2000E000B3010008B3010008B3010008B3010008B3010008B3010008B3010008B301000820
:20010000B3010008B3010008B3010008B3010008B3010008B3010008B3010008B3010008FF
:20012000B3010008B3010008B3010008B3010008B3010008B3010008B3010008B3010008DF
:20014000B3010008B3010008B3010008B3010008B3010008B3010008B3010008B3010008BF
:20016000B3010008B3010008B3010008B3010008B3010008B3010008B3010008B30100089F
:20018000B3010008DFF80CD000F018F900480047552D0008F85000200648804706480047C4
:2001A000FEE7FEE7FEE7FEE7FEE7FEE7FEE7FEE7FEE7FEE79D170008850100080048704704
:2001C000DC34000840EA01039B0703D009E008C9121F08C0042AFAD203E011F8013B00F897
:2001E000013B521EF9D2704710B5044604E00B7800F8013B03B1491C521EF8D2204610BDA1
:2002000030B504460020034600E05B1C934203D2E05CCD5C401BF8D030BD034611F8012B52
:2002200000F8012B002AF9D11846704710B54843044602F0E5FD002805D00021002C02D007
:20024000641E0155FAE710BD2DE9F05F93460F4680460446002601F027FCD0F8009082461B
:2002600014F8015B2DB1FFF7A9FF0068405DC007F6D12B2D02D02D2D1AD0641E0021CAF834
:2002800000105A463946204600F048F8014627B13868A04201D1C7F80080DAF800000228EB
:2002A00009D0CAF80090700505D54842BDE8F09F46F48066E2E70846F8E72DE9F05F054640
:2002C000002092469B4688460646814640241BE0284641464746224600F091F853465A4669
:2002E000C01A914110D311461846224600F078F82D1A67EB01084F4622460120002100F021
:200300006FF817EB00094E41201EA4F10104DFDC484631462A464346BDE8F09F2DE9F05FB2
:2003200082460078002715468B460AF10104B946302801D09DB113E014F8010B01277828E1
:2003400003D0582801D045B10AE00DB1102D07D10027102514F8010B02E0082500E00A2534
:200360000026B0460EE005FB080005FB06F1012701EB10461FFA80F8B6F5803F00D3B9463D
:2003800014F8010B294600F04AF80028EBDABBF1000F05D00FB1641E00E05446CBF8004068
:2003A000B9F1000F06D001F07FFB02210160C81EBDE8F09F48EA0640FAE70000064C074DA6
:2003C00006E0E06840F0010394E8070098471034AC42F6D3FFF7DAFEE03400080035000837
:2003E000202A04DB203A00FA02F1002070479140C2F1200320FA03F3194390407047202AD2
:2004000004DB203A21FA02F00021704721FA02F3D040C2F1200291400843194670473A2835
:2004200000D2303820F02002412A01D3A2F13700884201D34FF0FF307047000010B500209F
:2004400000F0F2FD01F08AF900F08EFE074908600749086007A001F0C7FA0C490020086027
:20046000BDE8104028310A4800F068B968000020640000200D313E455241534520323E53F0
:2004800049474E20333E52554E0D0A000000002000680040094910B588424FF0010101D125
:2004A0004C0601E04FF08064204601F05DF82046BDE81040002101F057B80000006400401A
:2004C000F0B5827A012191402E4A136843F0010313602C4B1C331C688C431C60294D067B5F
:2004E000294C0C35A6B92E688E432E604688C78846EA0746877A04EBC707C7F840660688A7
:20050000878846EA0746877A04EBC707C7F84466067B012E12D12E680E432E60867A0568B3
:2005200004EBC6064FEA3545C6F84056867A456804EBC6044FEA3545C4F84456114CC57AEE
:20054000241D002D256806D00D4325600D4C0589143415B104E08D43F7E725688D4325608C
:200560000589012D02D125680D432560407B012802D1186808431860106820F00100106097
:20058000F0BD0000006600400060004010B50368002223F002030360036843F00103036096
:2005A0004FF6FF7300E0521C4468E40701D19A42F9D14268D2073ED08A79012A02683CD0F2
:2005C00022F080020260CA79012A026838D022F0400202600A7A012A026834D022F020023E
:2005E00002604A7A012A026830D022F0100202608A7A012A02682CD022F008020260CA7A63
:20060000012A026828D022F0040202608A78CC78920742EA04620C7942EA04424C79098815
:2006200042EA0452491E0A43C261016821F001010160002114E0002010BD42F08002C1E726
:2006400042F04002C5E742F02002C9E742F01002CDE742F00802D1E742F00402D5E7491C31
:200660004268D20701D09942F9D14068C007E2D1012010BD0246002029B1012902D11069B9
:2006800000F003007047D068FAE7000010B500EB0113D3F8B04114F004041472D3F8B041C9
:2006A00034D0E408C2F80440D3F8B04104F002045472D3F8B44104F00F049472D3F8B44143
:2006C000240AD474D3F8B841D472D3F8B841240A1473D3F8B841240C5473D3F8B841240E70
:2006E0009473D3F8BC41D473D3F8BC41240A1474D3F8BC41240C5474D3F8BC311B0E9374BE
:2007000039B1016941F02001016110BD640D1460CAE7C16841F02001C16010BD00218171F2
:20072000C171017241728172C1728170C170032101710221417101210180704730B5024627
:20074000002093685B0108D49068000101D5012003E09068C00037D5022002EB0012D2F8C4
:20076000803103F00103C2F880310B7A73B3D2F880414D681C434B7A43EAC5031C43C2F849
:2007800080418B7A03F00F038B72D2F8843123F00F03C2F88431D2F884318C7A2343C2F8D9
:2007A0008431CB7ACC6843EA0423C2F88831CB7B096943EA0121C2F88C11D2F8801141F05A
:2007C0000101C2F8801130BD042030BDD2F880314C7A23430C8843EA4453C2F88031D0E7AD
:2007E00010B50022044B03E050F822401C60521C8A42F9D3186810BD00300240014901208A
:20080000886070470030024070B5094A094DA2F12804106004209072C2F80B1001E0E068A6
:20082000804703492846FFF789FF0428F7D070BD28000020006800402DE9F843384F0600CB
:2008400004D0009600F0AEFB10BB02E035480090F8E70221684602F026FB054604216846FA
:2008600002F021FBDFF8B880A8F13308B8F8201000EB01440221684602F015FB06284CD258
:20088000DFE800F0034B4B4B45452748844202DA0020BDE8F883DFF88880A221A8F10B0894
:2008A000C8F800103C600421204F88F80A105EB11B4938460B39FFF741FF0428F8D0A3217B
:2008C0000024C8F800101AE015480B3800F0BEFCF5E70221684602F0E6FA08EB0402641CE8
:2008E000D072082C00D055B988F80A4000244EB10B4938460B39FFF721FF0428F8D06D1E0C
:20090000E7D20AE006480B3800F0A0FCF7E70421684602F0C8FAC8F820004FF0FF30B8E7C5
:20092000330000207800002000800008006800400029016802D041F0010101E021F0010111
:20094000016070472DE9F04190B00546684600F009F90121880500F0EFFDDFF8888040461D
:2009600000F044F8204F4FF00066CDE90067686800246946006802904020CDE90304C0029E
:20098000CDE90940C011CDE90540089407940D9440460E9400F0BCF801214046FFF7C8FF83
:2009A000DFF84080A8F17808404600F01FF8CDE90067286869460068CDE90204B014049022
:2009C00040100990404600F0A3F801214046FFF7AFFF0122C021381F00F05AFF10B0BDE8C8
:2009E000F0810000B8640240041001402DE9F043016821F0010101600021016041608160A9
:200A0000C1600161212141613C493C4A3D251039904202D18D60BDE8F083384A4FF4746670
:200A20001832904201D18E60F5E7344A4FF474173032904201D18F60EDE7304A4FF0746C50
:200A40004832904202D1C1F808C0E4E72B4B2C4A6033984201D1CA60DDE7284C294B78347E
:200A6000A04201D1CB60D6E7DFF89080264C08F19008404501D1CC60CDE7DFF880804FF0A3
:200A80003D5908F1A808404502D1C1F80C90C2E71E49DFF878800839404501D10D60BAE7E5
:200AA0001A4D1835A84201D10E60B4E7174D3035A84201D10F60AEE7144D4835A84202D199
:200AC000C1F800C0A7E7114D10496035091FA84201D10A609FE70D4A7832904201D10B60DF
:200AE00099E70A4A9032904201D10C6093E7074AA83290428FD1C1F800908CE7106002400B
:200B00003D000020400F002000003D201064024030B50368124ACC6813400A682243D1E932
:200B200005452C432243CC6922430C6A22434C6A22438C6A22434C6B22438C6B22431A43D7
:200B40000260426922F00703D1E90B2422431A4342610A6942604A6882608968C16030BD76
:200B60003F801CF00021016041608160C160016141618161C161016241628162C16201630D
:200B8000416381637047000001490860704700000C3C024070B50646002529B1012927D092
:200BA000022928D04FF4407500F074F808281ED1124C206820F44070206020682843206002
:200BC000206820F0F8002060206846F0020108432060206840F48030206000F05BF82168C1
:200BE00021F002012160216821F0F801216070BD4FF48075D8E74FF40075D5E7103C024026
:200C00000B4908200A68D20301D5012070470A68D20601D5052070470A6812F0EF0F01D024
:200C20000620704709688907FBD50720704700000C3C024070B50D46064600F02BF8082897
:200C400013D10A4C206820F440702060206840F400702060206840F001002060356000F024
:200C600019F8216821F00101216070BD103C024005480068002805DA034804490C38016092
:200C80000349016070470000103C024023016745AB89EFCD08B508208DF80000FFF7B0FF93
:200CA0008DF800009DF800000128F7D09DF8000008BD000070B5ADF59A6D87A9002001F0C1
:200CC00069FE00287DD1012245A1684601F076FE0025082428B1012245A1684601F06EFEDD
:200CE00078BBCDF8C45400BF00F058FEDDF8C40404EBC00000F09AF8DDF8C404401CCDF853
:200D0000C4040528F0DB0DF2444600BFDDE90201884210D000F042FE6A4680210DF2444054
:200D200001F015FE3F22711C3548FFF75DFA0020FFF782FDEAE7002001F05AFB684601F08C
:200D4000FDFD01222FA1684601F038FE28B1012230A1684601F032FEA0BBCDF8C45400BF3E
:200D600000F01CFEDDF8C40404EBC00000F05EF8DDF8C404401CCDF8C4040528F0DB294DE3
:200D80002C4611E000F00AFE0DF2CC4304220DF2C441684601F054FE00281DD12046DDF87E
:200DA000C41400F06FF8241DDDE902018842E9D11C484042204481081B48C0E90015002062
:200DC00001E009E004E001F013FB684601F0B6FD0021084601F0DEFD0DF59A6D70BD0000A3
:200DE00050666D364374726C2E6865780000000050666D384374726C2E686578000000002F
:200E00007800002050666D364374726C2E62696E0000000050666D384374726C2E62696E8E
:200E200000000000008000080000002010B5040015D0082C16D0102C14D0182C12D0202CB0
:200E400010D0282C0ED0302C0CD0382C0AD0402C08D0482C06D0502C04D0582C02D04FF097
:200E6000FF3010BDFFF704FFF320FFF78DFE02212046FFF78FFE0128F9D00828F1D10020D9
:200E800010BD000013B50446042201A9FFF7B8F9002804D00A48844202D24FF0FF301CBDCD
:200EA000FFF7E6FEF320FFF76FFE20460199FFF7C1FE0128F9D00828F1D100201CBD000050
:200EC000E47F0008F0B50023012403270D6804FA03F21540954242D1D0F800C05E0007FA02
:200EE00006F52CEA050CC0F800C091F804C0D0F800E00CFA06FC4CEA0E0CC0F800C091F80A
:200F000004C0BCF1010F02D0BCF1020F1FD1D0F808C02CEA050CC0F808C091F805C0D0F883
:200F200008E00CFA06FC4CEA0E0CC0F808C0D0F804C02CEA020CC0F804C0426891F806C0CC
:200F40000CFA03FC1FFA8CFC42EA0C024260C268AA43C260CA79C568B2402A43C2605B1C6E
:200F6000102BB3D3F0BD4B07DB0E9A40C90810B500EB8100016A0F249C40A1430162016AC0
:200F80001143016210BD018370474FF6FF7101600021017141718171C171704742694A4027
:200FA00042617047F1B50221684601F07CFF044625466FF0040604E00221684601F073FFBE
:200FC00005442046641EB042F6DCE8B2F8BD000002494CF6CC4008607047000000300040A5
:200FE000034A01460020D2680A4200D0012070470030004002494AF6AA200860704700002B
:2010000000300040014948607047000000300040014988607047000000300040014908603C
:201020007047000000300040F0B589B0064607A8FFF7ABFF02208DF820002020484D01244F
:2010400007908DF8234007A92846FFF73BFF600307908DF8224007A92846FFF733FF092271
:2010600005212846FFF77FFF09220D212846FFF77AFF0121480600F06BFA0121880600F0CD
:2010800067FA04A8FFF74AFB364F3846FFF702FA00258DF818508DF819508DF816508DF8A3
:2010A0001A508DF817408DF81B4016B18DF8124001E08DF81250092103208DF814108DF829
:2010C00013008DF815000420ADF8100004A93846FFF75CFAADF802504FF4A350ADF8000041
:2010E000ADF806504FF4A2508DF80B40ADF80400ADF808500E208DF80C408DF80A008DF837
:201100000D406846FFF7DCF94FF4A050ADF800004FF4A150ADF804000F208DF80A006846E8
:20112000FFF7CEF94FF4A450ADF800004FF4A550ADF8040010208DF80A006846FFF7C0F919
:201140004FF4A650ADF800004FF4A750ADF8040011208DF80A006846FFF7B2F909B0F0BD59
:201160000004024000680040F0B54FF40076314689B0084600F05AFD2A4D2B4968600161C9
:201180002A49C1600121102000F0FAF90121084600F0D2F904A8FFF7F8FE02208DF8140008
:2011A00000248DF8164001208DF817004FF4C0601F4F049004A93846FFF784FE0722092118
:2011C0003846FFF7D0FE07220A213846FFF7CBFE6868FFF7B7FBADF81C60164EADF8184042
:2011E000ADF81A40ADF81E4006A9304600F038FB4FF461200090ADF808400C20ADF804404F
:20120000ADF80A00ADF80640ADF80C406946304600F066FB0121304600F030FB686809B091
:20122000F0BD00003C000020191B0008CD1A00080000024000100140024A114001430248BC
:201240000160704780FFFF1F08ED00E0F0B585B006004FF0FF3505D0014614226846FEF7BC
:20126000B1FF0FE04F4C00212046FFF703FA002858D06A4600212046FFF708FA04214A4884
:20128000FFF78CFE00980027484CA038EE46082874D2DFE800F0043C0B137006486C00F0CA
:2012A000F1FB9DF80B0001F0A3F837E0DDF80B0060616168884261DA60605FE09DF80A00F2
:2012C000626904E0115C0EEB0003401CD9720828F8DBDDF80B101046FFF7D4FD054660692B
:2012E000001D60612168491C21609DF80A10042904D9DDF80F10FFF7C5FD05436069001D0E
:2013000060612068401C206086BB284608E0276000F044FBDDF80B00FFF788FD05462EBBCC
:2013200000F0A4F93BE00021214A9DF80A30A06908E000BF0EEB010C9CF80BC002F800C0DB
:20134000401C491C8B4201DD8028F3DB1118A06111F8011C29B10D2903D00A2901D08028CC
:201360000CD10020A761FFF767FA07E007E000253EB90020D4E79DF80B5076467EB1681CED
:201380000DD0E069401CE061C00602D109A000F02BFB0DB108A000E008A000F025FB05B07F
:2013A0002846F0BD00680040000C024000000020780000200D0A00003F0000002D000000E1
:2013C0002DE9F843404801F0B9FC322857D01DDC192846D01A2851D01B2858D0312813D1B2
:2013E0003A4E00244FF008084FF47A7708EBC401A120FFF709FA0025306880476D1CBD4240
:20140000FADB641C052CF1DBBDE8F88333283BD0392836D03A2847D03F28F5D101210803BA
:2014200000F08AF8FFF7EAF929482A4C201A81082748FFF7D5F9009027A31422012129A009
:2014400000F0D2FA234931A01C3100F0CDFA002554F8011B32A000F0C7FA6D1C082DF7DBEF
:20146000D2E7BFF34F8F30480168304A01F4E06111430160BFF34F8F00BFFDE7FEE70021A4
:2014800000E00921A5200BE00021A02008E028480068400002D40120FFF7C6FD0021A72019
:2014A000BDE8F843FFF7B0B9074801F047FC002100F00EFE0100F7D01E48FEF7AEFEBDE8D9
:2014C000F8430020FFF7B8B9640000200C00002000000008E47F00084E6F76203130203221
:2014E000303230000D50464D3620626F6F746C6F61646572207625642E25303264202573F9
:201500002C203C253038583E0D0A00007369676E617475726520253038583A0D0A000000E1
:20152000253038580D0A00000CED00E00400FA051C68004078000020044A0029116801D0B6
:20154000014300E0814311607047000030380240044A0029116801D0014300E081431160B7
:201560007047000040380240044A0029116801D0014300E08143116070470000203802408F
:20158000044A0029116801D0014300E08143116070470000443802400248016841F08071E7
:2015A000016070477438024070B5204A1168204C11F00C0104D06610042903D0082903D055
:2015C00004601BE0066019E01849091F0B68C3F380550B6803F03F0315B1B6FBF3F301E0E0
:2015E000B4FBF3F30C680968C4F388146343C1F30141491C4900B3FBF1F1016011680F2338
:2016000003EA11110B4B5C5C0168E14041601468072505EA94241C5D21FA04F48460126849
:2016200005EA52329A5CD140C16070BD083802400024F400480000200246002051090129F4
:201640000BD002290CD00849096802F01F02012393400B4200D00120704703497439F3E714
:201660000149091FF0E700007438024070B5044608210D48FFF792FC0C4D4FF0FF30A42136
:20168000A86005F12800016001218172C472084C01E0E8688047054920462831FFF74EF8E3
:2016A0000428F6D070BD0000000C024000000020006800400CB5002121480191009102681D
:2016C00042F4803202604FF4A063026802F400320092019A521C0192009A12B9019A9A42DE
:2016E000F3D10268920329D501210091144908310A680A600A6842F400420A600A6842F408
:20170000A0520A600B1F0F4A1A60026842F08072026002689201FCD50B4A40F20370106048
:20172000086820F003000860086840F0020008600868C0F381000228FAD10CBD00910CBDF8
:2017400000380240083C4005003C02400248416A491C416270470000000000207FB5684652
:20176000FFF722FF01984FF47A71B0FBF1F1491E4FF0FF35B1F1807F0AD24FF0E0246161A2
:201780000F21284600F06EF90020A061072020610321284600F066F97FBD00000C480168B1
:2017A00041F0010101600A4A0021083211600268084B1A400260031D074A1A60026822F491
:2017C0008022026002480C300160FFF773BF000000380240FFFFF6FE10300024F8B51B4C12
:2017E0002021204600F05CF8194D70B1204600F0CDF8009040F22551204600F02BF8A8689B
:2018000001226946006800F0F7F98021204600F047F8002813D040F227763146204600F0D1
:2018200019F800200090A86801226946406800F0CDF928B1009881B2204600F0ABF8F8BD55
:2018400000223146204600F032F8F8BD004800403C0000200A0A01219140C943018070478B
:2018600010B5028A4C8822F470630A8822438C88C9880C4322431A43028210BD0029818969
:2018800002D041F4005101E021F4005181817047002A828A01D00A4300E08A438282704734
:2018A0000246002012880A4200D00120704710B5C1F3421301F01F040121A140012B07D04A
:2018C000022B07D01430002A026805D00A4304E00C30F8E71030F6E78A43026010BD0000F2
:2018E0007FB50446008A0D4620F44051E88808432082A08941F20C618843A9882A891143BF
:201900006A8902431143A181A08A20F44071A8890843A0826846FFF747FE1A48844202D0A9
:201920001948844201D1039800E00298A189090400EBC00101EB0010296801D5490000E02A
:201940008900B0FBF1F26420B2FBF0F109010B096FF018056B4302EB8302A3891D044FF018
:20196000320306D503EBC202B2FBF0F000F0070005E003EB0212B2FBF0F000F00F00084363
:2019800020817FBD00100140001401408088C0F308007047C1F308018180704710B545F2D9
:2019A0005550FFF73BFBFFF725FBBDE810400020FFF734BB10B5044645F25550FFF72EFB3C
:2019C0000320FFF71FFBA0B2FFF722FB0220FFF707FB0028FAD0FFF70DFBFFF7F9FABDE8D7
:2019E00010400020FFF71ABB0FB4054B10B503A9044A029800F03AF910BC5DF814FB0000ED
:201A00005D2C00086800002070B5144C616A206988421AD0606A642190FBF1F2206101FBE6
:201A2000120040B90E4D01212846FFF7B7FA0C212846FFF7A8FA20694FF47A7190FBF1F0B3
:201A4000A168884201D100F01DF8FFF7B9FC0020FFF7FCFBBDE87040FFF7A0BF000000205A
:201A6000000C02400907090E002804DB00F1E02080F80014704700F00F0000F1E02080F84E
:201A8000141D7047BFF34F8F05480168054A01F4E06111430160BFF34F8F00BFFDE70000AB
:201AA0000CED00E00400FA05004870476C00002008B5002100910122694600F087F808B156
:201AC000009808BD4FF0FF3008BD000008B5002100910A490A682AB142690968511A026876
:201AE000114400E0016841600122694600F06EF808B1009808BD4FF0FF3008BD446402404C
:201B000003B5012201A900F077F8012802D04FF0FF300CBD01980CBDF0B5184B044618687B
:201B2000174D30B12868A0F58072FF3A03D1501EF0BD00202860114A121F106820F0010064
:201B400010601068C007FCD126681F682868C71B3E440A4F08373E601E68761C1E602368A9
:201B60001954401C054B2860B03B4FF074601860106840F0010010600846F0BDBC640240D8
:201B80003C00002002E008C8121F08C1002AFAD170477047002001E001C1121F002AFBD1F0
:201BA000704770B5054618210120FEF73FFB04000AD001212846FEF739FBA0606060656158
:201BC000206008B1204670BD002070BD70B50024836809E013F8015B0D5546690568641C6A
:201BE0002E449E4200D12B46521E02D345689D42F0D18360204670BD30B5436810E000BF0A
:201C000011F8014B03F8014B4569046825449D4200D1234684689C4202D14FF0FF3030BD94
:201C2000521EEDD2436011F8010C30BD70B50D46064618210120FEF7F9FA040010D0094894
:201C400020610948E0603046FFF7ABFF20602846FFF7A7FF6060216811B108B1204670BD7B
:201C6000002070BD011B0008B11A00082DE9FF4F8DB00F460546002606E025280BD0DDE9E5
:201C80000F1290476D1C761C28780028F5D111B03046BDE8F08F0024A246A1460122EC49FD
:201CA00000E0044315F8013F203B02FA03F00842F7D128782A2810D06FF02F022878A0F1C1
:201CC0003001092914D80AEB8A0102EB410144F0020400EB010A6D1CF0E701CF5FEA000A53
:201CE00003D544F40054CAF1000A44F002046D1C28782E2817D115F8010F44F004042A286F
:201D00000ED06FF02F022878A0F1300109290AD809EB890102EB410100EB01096D1CF2E7DB
:201D200057F8049B6D1C28786C280FD006DC4C2817D068280DD06A2814D104E0742810D098
:201D40007A280FD10DE044F400140AE044F4801401E044F440146978814202D104F58014A1
:201D60006D1C6D1C2A786E2A1FD00CDC632A31D004DC002A8BD0582A11D1A3E0642A68D0A0
:201D8000692A0CD165E0732A2ED004DC6F2A73D0702A04D19BE0752A6FD0782A6ED0104639
:201DA000DDE90F129047761C50E1C4F30250022806D0032809D0042801CF09D0066045E134
:201DC00001CFF117C0E9006140E101CF06803DE106703BE117F8040B8DF8000000208DF8B2
:201DE0000100EB46012003E057F804BB4FF0FF3061074FF0000102D40DE008F101018846FD
:201E000049450FDA8045F8DB1BF808100029F4D108E008F1010188468142FADB1BF8081026
:201E20000029F6D1DDE90F23AAEB08008146214600F036F9304400EB080604E0DDE90F1298
:201E40001BF8010B9047B8F10108F7D221464846F7E00A21C4F302534FF0000B0891022BFE
:201E600004D001CFC117032B09D00AE0FF1D27F00707F7E8020108E032E01FE020E000B227
:201E8000C117042B01D140B2C117031E71F1000307DA4FF0000CD0EB0C006CEB01012D237D
:201EA00002E0230504D52B238DF82430012303E0E30701D02023F7E7984658E00A2110E004
:201EC00010210EE010204FF0000B08900CE010214FF0000B44F004044FF00809089103E062
:201EE00008214FF0000B0891C4F30253022B04D001CF0021032B06D006E0FF1D27F00707AD
:201F0000F7E8020103E080B2042B00D1C0B24FF0000823072BD5702A07D0DDF820C08CF045
:201F2000100C5CEA0B0C05D00EE040238DF82430012308E050EA010306D030238DF82430DD
:201F40008DF8252002239846DDF820C08CF0080C5CEA0B0C0BD150EA010301D1630706D5E1
:201F600030238DF824304FF00108A9F10109582A04D038A20B9208AA0A920BE03AA2F9E787
:201F80005B46089AFEF799F90B9B9B5C0A9A521E0A92137050EA0102F2D10A98ADEB00006D
:201FA00000F1200B600702D524F4803401E04FF00109D94502DDA9EB0B0000E0002000EB4A
:201FC0000B0141440890AAEB010AE00306D4DDE90F232146504600F063F806444FF00009A9
:201FE00008E009A911F80900DDE90F12904709F10109761CC145F4DBE0030CD5DDE90F2350
:020000040800F2
:202000002146504600F04CF8064404E0DDE90F1230209047761C0899481E08900029F5DC28
:2020200008E00A980A990078491C0A91DDE90F129047761CBBF10001ABF1010BF1DC214622
:202040005046DDE90F2300F019F806446D1C1BE6092801003031323334353637383961621B
:20206000636465660000000030313233343536373839414243444546000000002DE9F041E5
:20208000044600251E461746880404D405E039462020B0476D1C641EF9D52846BDE8F081B4
:2020A0002DE9F041044600251E469046C80301D5302700E02027880404D505E041463846C2
:2020C000B0476D1C641EF9D52846BDE8F081000070B5294E0D4604463168886828B9086899
:2020E0004069FFF75EFD316888600A2C17D005DCB4F1FF3F3DD0082C04D118E00D2C0ED05F
:202100007F2C14D0426901688B1841685B1EE2B28B4217D04B1C43600A70C5B929E042685A
:2021200000211170016881604160084670BDD0E9011291421DD0491E4160D5B10FA0FFF7D8
:2021400053FC16E00A70A5B10DA0FFF74DFCFEF735F80068005D10F03E0F04D0214609A066
:20216000FFF742FC05E03E2322463C2106A0FFF73BFC002070BD000064000020082008004C
:20218000080000002563000025632530325825630000000010B504460A464078012304F190
:2021A000280100F0A7FB08B1032010BDB4F82602A0F52A41553901D0022010BD94F85E00AF
:2021C000B4F85F1040EA01210848B0EB012F08D094F87A10B4F87B2041EA0221B0EB012F2F
:2021E00001D1002010BD012010BD00000046415400E0401C02780AB18A42FAD1D0B2704716
:202200002DE9F0470268DFF884A11578303D092D02D853783A2B08D09AF8005000260E6083
:20222000022D05D30B20BDE8F087921C0260F5E75648001D50F825408CB10C60207820B1EA
:20224000607800F079FBC007EDD02670E8B2B146607000F046FBC00703D00320E3E70C20E3
:20226000E1E700210D462046FFF794FF01280CD104F5F3700179E9B3017AD0F8090041EA44
:20228000002529462046FFF785FF032801D088BB01E00120C7E7B4F83300B0F5007F56D1B1
:2022A000E08F28B994F84C00D4F84D1040EA0120606194F838108446E170012901D00229AC
:2022C00045D194F835204843A2709AB1531E1A423DD1B4F839302381190738D1B4F83B106B
:2022E00029B994F84810D4F8496041EA0621E78E07B100E02BE03E1806EB1316B14226D3DD
:20230000891BB1FBF2F111B3012240F6F678414500D302224FF6F678414500D303222E44DF
:20232000891C3D442662A5612161032A11D073B12844E061022A17D001F0010001EB410155
:2023400000EB510000F2FF10BCEB502F0ED20D2069E7002BFBD194F85400D4F8553040EA6B
:202360000320E0618800EDE74800EBE72270BAF80210491CAAF80210E180C4F8249084F8C7
:2023800004900020C4F80C904DE70000580000200269891E921E8A4201D800207047026ADB
:2023A000807801FB0020704710B501210803FFF7C3F8FEF723FA0D4C03212046FEF710FABB
:2023C000211F096888420DD1FEF718FA0748216808300068FEF704FA211D0968814201D1EE
:2023E000002010BD4FF0FF3010BD0000E87F000870B5064601214FF0FF350803FFF79CF8AB
:202400001B4C2EB14FF4604020601A48606001E0206850B30820FEF709FD0546FEF7EEF93B
:20242000D4E90010FEF7DCF9014612481438FEF729FD40EA05060F4D2168183D2846FEF72B
:2024400021FD06430B4861681038FEF71BFD40EA0604FEF7D3F903212846FEF7C1F9014627
:20246000281FFEF70FFD40EA0405284670BD000000000020008000082DE9F84F89468046AC
:202480000D6800E06D1C28782F28FBD05C28F9D00024D8F81C702646A85D761C202817D39A
:2024A0002F2815D05C2813D0FF2C52D2012100F051FB5FEA000A4CD0BAF1800F04D2014606
:2024C00078A0FFF795FEE8BB27F814A0641CE3E7AA19C9F80020202801D2042500E00025AE
:2024E0000021012C04D0022C31D178882E2816D138882E2813D127F814100020A04201D23B
:202500002E2200E02022D8F818100A54401C0B28F4D3D8F8181045F020020A54C0E007EB5E
:20252000440030F8020C202810D02E280ED04CB127F814102021D8F818000A22521E00F8C8
:20254000011B00E005E0F9D2002606E0641E002CE5D10620BDE8F88F761C37F816002028EE
:20256000FAD02E28F8D01EB145F0030500E0641E2CB107EB440030F8020C2E28F7D100207E
:2025800082464FF0080B009037F8160006F101065FEA000924D0B9F1200F04D0B9F12E0F74
:2025A00004D1A64202D045F00305EDE70098584501D2A6421AD1BBF10B0F0FD0A64201D042
:2025C00045F003050CD84FF0080000904FEA8A6026464FF00B0B4FEA106AD5E745F0030573
:2025E000D8F818000178E52938D039E04846B9F1800F10D3002100F0ADFA5FEA000905D0C2
:202600002B4901EB090010F8800C814645F00205B9F1000F04D0014626A0FFF7E9FD20B173
:202620004FF05F0945F003050FE0A9F14100192802D84AF0020A08E0A9F16100192804D88B
:2026400041304AF0010A1FFA80F9D8F81820009902F801900098401C009095E7052101706F
:20266000BBF1080F03D14FEA8A604FEA106ACAF38100032803D06FEA0A01890701D145F0B6
:202680000205A90709D40AF00301012901D145F01005012801D145F00805D8F81800C57206
:2026A000002057E7222A3A3C3E3F7C7F00000000172F00082B2C3B3D5B5D00002DE9F84F50
:2026C0000546002100F0CEF8002879D14FF0FF0BD9462969286800F0D2FB06000ED16C6965
:2026E000207850B1E17AE52801F03F0103D00A0705D50F2909D0FF204DE0042672E00F29D9
:2027000003D0B9F1000F4BD04FE0E96981B3420606D594F80DB020F04000EA8881462A84BA
:20272000484536D1627B5A4533D100912078A04620F04000401E00EB80010027DFF8ACA012
:2027400001EBC006012400BF1AF8071001EB0800008874B100F01AFA0446FF2E19D200981B
:2027600030F81600761C00F011FAA04211D104E02FE0A0F57F41FF390BD17F1C0D2FE3D3E1
:2027800098F80000400608D53CB1009830F8160018B1FF20C0B281461DE0A9F10100F9E72A
:2027A000204600F093FB58451CD04FF6FF702884A8694FF0FF09C17AC9070CD10A2102E0FF
:2027C00011E0491E06D314F8013B10F8012B9A1AF7D000E032B10021284600F009F8060088
:2027E0003FF477AF3046BDE8F88F00000A2F000870B50446C088401C05042D0C1FD02069D0
:20280000E8B1290723D1401C2061E168206829B18278521E12EA151F04D018E00089A8429A
:202820000DD914E000F02EFA0146012801D8022070BD481C05D0206802698A4203D8042017
:2028400070BD012070BDE160FFF7A2FD2061E58005F00F012822206802EB4111084460611E
:20286000002070BD70B50D46C1808168044601291ED0206802698A421AD921B90278032AD4
:2028800004D1C16911B18078060117E0E1600189A9420DD9C06917E0206800F0F3F901461A
:2028A000401C07D0022903D320680069884203D8022070BD012070BDA81B85B2B542EBD203
:2028C000E1602068FFF764FD00EB1510206105F00F012822206802EB411108446061002004
:2028E00070BD10B5FEF7C4F9F320FEF74DF9002010BD0000F0B500250E4C04E0964200D148
:20290000254604F50174D4F80062771CF6D105B12C46002540CC6D1CF64340C1802DF9DBB9
:202920005B1E13F0FF0302D0521CFFF7E3FF0020F0BD0000000004080020704710B5044642
:2029400000F0D1FA002801D10021216010BD2DE9FC4100259046074604464E1E0FE001AB67
:2029600001226946404600F06BF80198012808D19DF800006D1C04F8010B0A2801D0B542F1
:20298000EDDB0020207015B13846BDE8FC810020FBE7000010B5022801D30B2010BD064B4B
:2029A000002453F8202002B1147001B10C7043F82010002010BD00005C0000202DE9F741E1
:2029C000ADF50D7D04000DD04FF0000802F00107424680A98EA8C4F80080FFF711FC05007E
:2029E00005D02BE009200DF5107DBDE8F08189A88690CDF81CD280A88E9900F0EFF8859EE6
:202A000005001BD126B1F07AC00603D5042515E0062513E0A7713146809800F091F9206108
:202A2000307FD6F81D1040EA0120C4E90280C4F81880809820608098C088A0802846D2E7DF
:202A40002DE9F047044600201860984615460F46204600F048FA002803D1A079010602D52E
:202A60000220BDE8F087C00706D0D4E90210401A85426AD9054668E00720F2E7A068C105E7
:202A80004BD122689178491E01EA502111F0FF0609D120B31046616900F0F4F8022820D3F8
:202AA000411C32D0606161692068FFF771FCC0B100EB060A680A5FEA00091AD0206806EBAE
:202AC000090281788A4201D9A1EB060909F0FF03407852463946FFF70DFFB0B906E020690D
:202AE000DCE7A07940F08000A071B9E74FEA492621E0A16951450ED0206801235246407876
:202B000004F11C01FFF7F6FE28B1A07940F08000A0710120A5E7C4F818A02089C0F3080081
:202B2000C0F50076AE4200D92E460119324638461C3100F09BF9A06837443044A060D8F885
:202B400000008119AD1BC8F80010002D96D1002087E70000802804D30B4A51B1FF2801D94A
:202B60000020704702EB4000A0F58050B0F8000F704732F81130834203D0491C89B2802932
:202B8000F7D38031C8B27047982F00080021064B00E0491C33F81120002A04D08242F8D11C
:202BA000024830F811007047983000087832000810B5094C616821B10868C9688847411CD7
:202BC00008D1A16821B10868C968BDE8104008474FF0FF3010BD00003C00002073B5044653
:202BE0000199002508782F280ED05C280CD02068C068A06001980078202809D20021204696
:202C0000FFF730FE65617CBD491C0191A560F1E701A92046FFF730FC0028F4D12046FFF742
:202C20004DFDA169C97A68B10428ECD18A0605D5A560002065614907EAD57CBD4907FCD43E
:202C400005207CBD4907FCD46169C87AC006F7D5206800F075F8A060DAE7000070B5084C39
:202C6000054662681AB15068126929469047A2681AB15068126929469047284670BD000012
:202C80003C0000202DE9F0410D460446022902D32069A84202D80120BDE8F08120780128AF
:202CA00004D0022826D0032837D12FE0A06905EB550600EB5621204600F0E1F868BBC6F31D
:202CC00008002044761C90F82870A06900EB5621204600F0D4F800BBC6F308002044E90779
:202CE00090F8280047EA002001D00009D4E7C0F30B00D1E7A06900EB1521204600F0BFF891
:202D000058B9E8B204EB4000008DC5E7A06900EBD511204600F0B3F810B14FF0FF30BBE7F4
:202D200040F2FF1000EA8500204490F82810D0F8290041EA002020F07040ADE7FFF738BF42
:202D40000246488B1278032A02D1898A40EA0140704700001CB52648012104687F20FEF738
:202D6000EBFB4FF47A60FEF725FE6846FEF70DF901258DF8045000208DF8060030201D4E2A
:202D8000014600903046FEF7FEF869463046FEF799F80D208DF80650174D0090014628469F
:202DA000FEF7F1F869462846FEF78CF87C20FEF743FC60B1FFF7F8FA48B9A4F10061F003EC
:202DC000FEF73AFA206880F3088860688047FDF735FB7E20FEF730FC18B1FEF7DDFBFDF743
:202DE00069FFFEF7D9FB054CE0688047FCE70000F07F000800100240000C02400000002028
:202E0000F0B50B30154D20F007010024144A0FE003688B420BD38B4205D95E1A43184768A4
:202E2000C3E9006700E04368136002C004E0021D10680028ECD12046002802D1286808B1B5
:202E40000020F0BD064A07481060074A121A22F00702C0E9002401202860D7E77400002036
:202E600070000020FC000020F830002004E000BF11F8013B00F8013B521EF9D2704770B52B
:202E80000446406A0D46A8420BD055B10A466078012304F12801FFF72DFD08B1012070BD8F
:202EA0006562002070BD7FB50D46044601682A466846FDF799F90021415520681022284443
:202EC00020606846FDF7C0F904B070BD014600200B22430803EBC01011F8013B521E184488
:202EE000C0B2F6D1704710B5016829B10A781AB1CA888088824201D0092010BD4878FFF7F2
:202F00001BFDC007F9D0032010BD01030507090E10121416181C1E808182838485868788B0
:202F2000898A8B8C8D8E8F909192939495969798998A9B8C8D8E8FA0A1A2A3A4A5A6A7A8D1
:202F4000A9AAABACADAEAFB0B1B2A3B4B5B6B7B8A5AABBBCBDBCAFC0C1C2C3C4C5C6C7C8A7
:202F6000C9CACBCCCDCECFD0D1D2D3D4D5D6D7D8D9DADBDCDDDEDFC0C1C2C3C4C5C6C7C861
:202F8000C9CACBCCCDCECFD0D1D2D3D4D5D6F7D8D9DADBDCDDDEFF00AC2000001A200000DF
:202FA0001E2026202020212000003020600139205A0164017D0179010000182019201C209D
:202FC0001D202220132014200000222161013A205B0165017E017A01A000C702D8024101CB
:202FE000A4000401A600A700A800A9005E01AB00AC00AD00AE007B01B000B100DB0242017C
:20300000B400B500B600B700B80005015F01BB003D01DD023E017C015401C100C20002014D
:20302000C40039010601C7000C01C9001801CB001A01CD00CE000E01100143014701D300D5
:20304000D4005001D600D70058016E01DA007001DC00DD006201DF005501E100E200030173
:20306000E4003A010701E7000D01E9001901EB001B01ED00EE000F01110144014801F300AC
:20308000F4005101F600F70059016F01FA007101FC00FD006301D902610062006300640005
:2030A000650066006700680069006A006B006C006D006E006F007000710072007300740048
:2030C000750076007700780079007A00A100A200A300A500AC00AF00E000E100E200E300B7
:2030E000E400E500E600E700E800E900EA00EB00EC00ED00EE00EF00F000F100F200F30018
:20310000F400F500F600F800F900FA00FB00FC00FD00FE00FF0001010301050107010901D6
:203120000B010D010F01110113011501170119011B011D011F0121012301250127012901DF
:203140002B012D012F0131013301350137013A013C013E01400142014401460148014B01B5
:203160004D014F01510153015501570159015B015D015F01610163016501670169016B017F
:203180006D016F0171017301750177017A017C017E019201B103B203B303B403B503B6032C
:2031A000B703B803B903BA03BB03BC03BD03BE03BF03C003C103C303C403C503C603C703F2
:2031C000C803C903CA0330043104320433043404350436043704380439043A043B043C0499
:2031E0003D043E043F0440044104420443044404450446044704480449044A044B044C0447
:203200004D044E044F045104520453045404550456045704580459045A045B045C045E0418
:203220005F0470217121722173217421752176217721782179217A217B217C217D217E2143
:203240007F2141FF42FF43FF44FF45FF46FF47FF48FF49FF4AFF4BFF4CFF4DFF4EFF4FFFA5
:2032600050FF51FF52FF53FF54FF55FF56FF57FF58FF59FF5AFF00004100420043004400A8
:20328000450046004700480049004A004B004C004D004E004F005000510052005300540066
:2032A000550056005700580059005A002100E0FFE1FFE5FFE2FFE3FFC000C100C200C30074
:2032C000C400C500C600C700C800C900CA00CB00CC00CD00CE00CF00D000D100D200D30036
:2032E000D400D500D600D800D900DA00DB00DC00DD00DE00780100010201040106010801C0
:203300000A010C010E01100112011401160118011A011C011E01200122012401260128010D
:203320002A012C012E01300132013401360139013B013D013F0141014301450147014A01E3
:203340004C014E01500152015401560158015A015C015E01600162016401660168016A01AD
:203360006C016E01700172017401760179017B017D01910191039203930394039503960314
:203380009703980399039A039B039C039D039E039F03A003A103A303A403A503A603A70310
:2033A000A803A903AA0310041104120413041404150416041704180419041A041B041C04B7
:2033C0001D041E041F0420042104220423042404250426042704280429042A042B042C0465
:2033E0002D042E042F040104020403040404050406040704080409040A040B040C040E04A7
:203400000F0460216121622163216421652166216721682169216A216B216C216D216E21A1
:203420006F2121FF22FF23FF24FF25FF26FF27FF28FF29FF2AFF2BFF2CFF2DFF2EFF2FFFB3
:2034400030FF31FF32FF33FF34FF35FF36FF37FF38FF39FF3AFF0000004040404040404070
:203460004040414141414140404040404040404040404040404040404005020202020202F6
:2034800002020202020202020220202020202020202020020202020202029090909090906C
:2034A000101010101010101010101010101010101010101002020202020288888888888890
:2034C00008080808080808080808080808080808080808080202020240000000593400086F
:2034E000003500080000002078000000841B0008783500087800002080500000941B00087C
:2035000000000000FFFFFF7F03000000091A00080000000000000000000000000000000001
:203520000000000000000000A40000000000000000000100000000000000000000000000E6
:20354000000000000000000000000000010203040102030406070809000000000000000039
:20356000000000000000000000000000000000000000000000000000FFFFFFFFFFFFFFFF53
:20358000FFFFFFFFFFFFFFFFFFFFFFFFFFFFFFFFFFFFFFFFFFFFFFFFFFFFFFFFFFFFFFFF4B
:2035A000FFFFFFFFFFFFFFFFFFFFFFFFFFFFFFFFFFFFFFFFFFFFFFFFFFFFFFFFFFFFFFFF2B
:2035C000FFFFFFFFFFFFFFFFFFFFFFFFFFFFFFFFFFFFFFFFFFFFFFFFFFFFFFFFFFFFFFFF0B
:2035E000FFFFFFFFFFFFFFFFFFFFFFFFFFFFFFFFFFFFFFFFFFFFFFFFFFFFFFFFFFFFFFFFEB
:020000040800F2
:207FE000FFFFFFFFBA3C55010C5E0000F20B661E00800008FFFFFFFFFFFFFFFFFFFFFFFFD2
:020000040800F2
:20800000A8F001209D810008C5F90008E9810008E9810008E9810008E981000800000000F3
:2080200000000000000000000000000035180108F9A8000800000000710701086D1D01082D
:20804000B7810008B7810008B7810008B7810008B7810008B7810008B7810008B781000820
:20806000B7810008B7810008B7810008B7810008B7810008B7810008B7810008B781000800
:20808000B7810008B781000839920008559800081D980008B781000845980008D1D4000809
:2080A000B7810008E91E0108B7810008B7810008B7810008B7810008B781000861DC0008EB
:2080C00041DC0008B7810008B7810008B7810008B7810008B7810008B7810008353301088A
:2080E000CDD40008B7810008B7810008B7810008B7810008B5230108B7810008B781000876
:20810000B7810008B7810008B7810008B7810008B7810008B7810008B7810008B78100085F
:20812000B7810008B7810008B7810008B7810008F5A50008B7810008B7810008C1980008BC
:2081400089980008B7810008B19800089DFA0008B7810008B7810008B7810008AD3301081D
:20816000B7810008B7810008B7810008B7810008B7810008B7810008B7810008B7810008FF
:20818000B7810008B7810008DFF80CD000F070FD0048004783D80108A8F00120064880478E
:2081A00006480047FEE7FEE7FEE7FEE7FEE7FEE7FEE7FEE7FEE7FEE7391E010889810008C6
:2081C00070B44FF000054FF000064FEA02420468D4FA02F4C4FB945600F10400491EF6D179
:2081E0002846314670BC70471EF0040F0CBFEFF30880EFF3098015F0EBB82DE9F05F05469E
:20820000002092469B4688460646814640241BE0284641464746224600F08FFB53465A46A8
:20822000C01A914110D311461846224600F076FB2D1A67EB01084F4622460120002100F060
:208240006DFB17EB00094E41201EA4F10104DFDC484631462A464346BDE8F09F0048704758
:208260003CF2010810B50446FFF7F8FF0068005D00F0010010BDA0F16101192900D82038E3
:20828000704700000649074A0868504343F2390210440860400870470149086070470000F0
:2082A000A00600206D4EC64140EA01039B0703D009E008C9121F08C0042AFAD203E011F8FA
:2082C000013B00F8013B521EF9D27047D2B201E000F8012B491EFBD270470022F6E710B504
:2082E00013460A4604461946FFF7F0FF204610BD421E12F8013F002BFBD111F8013B02F834
:20830000013B002BF9D1704710B5044604E00B7800F8013B03B1491C521EF8D2204610BD45
:20832000CAB2401E10F8011F8A4202D00029F9D100207047421C10F8011B0029FBD1801AC2
:20834000704710B5002200E0521C835C8C5CA34201D1002BF8D1D8B2E1B2401A10BD034632
:2083600011F8012B00F8012B002AF9D11846704730B505460020034600E05B1C934205D2FF
:20838000EC5CC85C201A01D1002CF6D130BD10B54843044615F07AFA002805D00021002C28
:2083A00002D0641E0155FAE710BD2DE9F04791460F4680460446002614F8015B2DB1FFF77A
:2083C0004DFF0068405DC007F6D12B2D02D02D2D18D0641E4A463946204600F0D0FA27B1C9
:2083E0003968A14201D1C7F8008071054FF002040BD54042002803DD10F0C6F90460A007F9
:20840000BDE8F08746F48066E4E70028F8DA10F0BBF904606FF00040F2E72DE9F05F93468D
:208420000F4680460446002610F0AEF9D0F80090824614F8015B2DB1FFF710FF0068405D9A
:20844000C007F6D12B2D02D02D2D1AD0641E0021CAF800105A463946204600F090FA014665
:2084600027B13868A04201D1C7F80080DAF80000022809D0CAF80090700505D54842BDE8EC
:20848000F09F46F48066E2E70846F8E770B5064610F07AF9046805460A2200213046FFF7E3
:2084A00084FF2C6070BD2DE9FE4F804681EA0300C00F0C46009021F0004123F00045B8EBEB
:2084C0000200A94105D24046214690461C460B46024623F00040104347D0270DC7F30A0066
:2084E000C3F30A510290401A019040286BDAC3F3130040F4801B0098924620B10023D2EB88
:20850000030A63EB0B0B01985946C0F14002504600F004FA06460D4650465946019A00F0DC
:208520001CFA10EB08006141002487EA115284EAE7731A4340D0009A62B3019A012A4FEAA5
:20854000075215DC001B61EB02014FF0004202EA0752CDE90042001C41F5801132462B46DD
:2085600000F0F0FA03B0BDE8F08F40462146F9E7001B61EB0201001C41F5801300185B417A
:208580002018A2F5001747EB030140EAD570B6196D4111E06D084FEA360645EAC0754FEA5B
:2085A0000752001B61EB0201001C41F5801149084FEA30000019514132462B4603B0BDE86F
:2085C000F04F00F0B0BA0098012240000023D0EB020263EBE073009821464FEAE074B8EB55
:2085E000000061EB0401E9E783F000435BE781F0004158E72DE9FE4F81EA030404F0004464
:2086000021F0004100944FF0000B23F0004350EA01045ED052EA03045BD0C3F30A54C1F331
:208620000A552C44A4F2F3340194A0FB0254C1F3130141F48011C3F3130343F4801301FB08
:20864000024400FB034E840A970A44EA815447EA8357A4FB076802958D0A05FB07854FEA4A
:20866000932C04FB0C542705029D4FEA065847EA1637B5EB08056EEB070C870E920E47EA7D
:20868000811742EA8312A7FB0201B6EB0B0164EB00042B0D43EA0C335E1844EB1C50DA4607
:2086A0005146E7FB0201C5F313044FEA0B3343EA14534FEA0432019C43EA0603A4F10C047D
:2086C0000294009CCDE900B400F03CFA03B0BDE8F08F00200146F9E72DE9F04D81EA0304F5
:2086E00004F0004B21F0004514464FF0000A23F0004150EA050220D054EA01021DD0C5F3D7
:208700000A570246C5F31303C1F31300C1F30A5640F4801543F48013A7EB0608101BD6468D
:2087200008F2FD3873EB050002D308F1010801E092185B41B8F1000F03DA00200146BDE808
:20874000F08D00204FF48011064684460EE0171B73EB050705D3121B63EB050306434CEA2E
:20876000010C49084FEA300092185B4150EA0107EDD152EA030012D082EA040083EA0501E8
:20878000084305D0101BAB4106D20122002306E000224FF0004302E06FF0010253101AEB4E
:2087A00006004CEB085110EB0A0041EB0B01BDE8F04D00F0B8B90EB5C10F80EAE07008440A
:2087C000CA07002140F233438DE80E000A460B4600F0B8F903B000BD0EB540F233410291CE
:2087E0000021CDE900110A460B4600F0ABF903B000BD70B5C1F30A5201F000450024C1F3A9
:20880000130140F2FF3341F480119A4201DA002070BD40F233439A42A2F2334203DC524216
:2088200000F08BF800E090402C43F1D0404270BDC1F30A5210B5C1F3130140F2FF3341F400
:2088400080119A4201DA002010BD40F233439A42A2F2334203DC524200F06FF810BD9040EF
:2088600010BD00F0004230F000400AD0C10D01F56071C0F3160042EA0151C208400711437E
:20888000704700200146704730B5041E71F1000404DB4FF00044404264EB0101141E73F1CB
:2088A000000405DB1C464FF00043524263EB04038B4208BF824230BD01F0004330B421F099
:2088C000004150EA010206D00A0DA2F56072C1F31301002A02DC30BC00207047440F44EAB0
:2088E000C104C100E01830BC00EBC25000F0E4B830B50B46014600202022012409E021FA7D
:2089000002F59D4205D303FA02F5491B04FA02F52844151EA2F10102F1DC30BD202A04DB44
:20892000203A00FA02F1002070479140C2F1200320FA03F3194390407047202A04DB203AFC
:2089400021FA02F00021704721FA02F3D040C2F120029140084319467047202A06DBCB17FE
:20896000203A41FA02F043EAE07306E041FA02F3D040C2F1200291400843194670472DE9AD
:20898000F05F82460078002715468B460AF10104B946302801D09DB113E014F8010B01274C
:2089A000782803D0582801D045B10AE00DB1102D07D10027102514F8010B02E0082500E0DD
:2089C0000A250026B0460EE005FB080005FB06F1012701EB10461FFA80F8B6F5803F00D327
:2089E000B94614F8010B294600F054F90028EBDABBF1000F05D00FB1641E00E05446CBF8B8
:208A00000040B9F1000F06D00FF0BEFE02210160C81EBDE8F09F48EA0640FAE70FB40023EF
:208A200000B589B00CA900910B996FF00042CB601E4B06931E4B07930423CDE901321D4A16
:208A4000089202466B46002000F0C6F909B05DF814FB70B586B006464FF0FF300091CDE93B
:208A60000101002015460C4604903246694604A8FFF7D4FF02460498211825B108B10846FD
:208A800000E020462860049800280DD0002A02DD0098884208D0081B0094CDE9010432463A
:208AA000694604A8FFF7BAFF06B070BD119000082F900008658200080029A8BF7047401CC7
:208AC000490008BF20F00100704710B4B0FA80FC00FA0CF050EA010404BF10BC704749B15F
:208AE000CCF1200421FA04F411FA0CF118BF012121430843A3EB0C01CB1D4FEA00614FEA7C
:208B0000102042BF002010BC704700EBC35010440029A4BF10BC7047401C490008BF20F0A4
:208B2000010010BC704710B5141E73F1000408DA401C41F1000192185B411A4301D120F05C
:208B4000010010BD2DE9F04D92469B4611B1B1FA81F202E0B0FA80F220329046FFF7DEFE63
:208B600004460F4640EA0A0041EA0B0153465A46084313D0114653EA010019D0C8F140020B
:208B80005046FFF7DAFE05460E46504659464246FFF7C4FE084305D0012004E02046394653
:208BA000BDE8F08D0020054346EAE0762C4337430A986305E40AA0EB08000022FD0A44EADA
:208BC00047540A3002D500200146E9E7010510196941DDE9084500196941BDE8F04DA2E798
:208BE00070B521F0004303430CD0C1F30A550024D5EB040564EB0403D617AD1AB34102DBFF
:208C00000020014670BD201841EB025170BDC1F30A52C1F3130140F2FF3341F480119A42FE
:208C200002DA00200146704740F233439A42A2F2334202DC5242FFF780BEFFF76FBE0000E4
:208C400030B5041E71F1000404DB4FF00044404264EB0101141E73F1000405DB1C464FF057
:208C60000043524263EB0403994208BF904230BD064C074D06E0E06840F0010394E80700DC
:208C800098471034AC42F6D3FFF782FA1CF501083CF501083A2800D2303820F02002412AFB
:208CA00001D3A2F13700884201D34FF0FF3070472DE9FF4F087883B09946FF2805D0491CFC
:208CC0002D2804D00024002008E000200BE00124F9E700EB800003EB4000491C0B78FF2B84
:208CE000F7D104B1404200230293147819461D462D2C01D02B2C04D1521C2D2C13D000244B
:208D00000294AA461478FF2C0FD00A25A3FB057801FB05814FF0000C03FB0C11521CE3199B
:208D20004AEB0101EEE70124EAE7814453EA010002D019F5C87F06DA03980021C0E90011B1
:208D400007B0BDE8F08F0025AE4E2F46DFF8B882184600F0CEF9CDE90001B9F1000002DA3F
:208D6000C9F1000400E004460023A74A1AEB030B42EB045A12E0E00707D02A463346384642
:208D80004146FFF737FC074688462A46334610461946FFF72FFC05460E466410002CEAD14F
:208DA000DDE90001B9F1000F5A46534606DAFFF793FC3A464346FFF78FFC05E0FFF71AFC1A
:208DC0003A464346FFF716FC029A0AB181F00041039AC2E90001B3E72DE9FF4F1F468DB090
:208DE000D7E901464FF0FF382E2045464FF000090B90B9696D1C0E988847396A82468847E0
:208E00000028F6D1BAF1FF3F0AD024F4D064002E11DDBAF12B0F08D0BAF12D0F0BD102E0D6
:208E2000404611B08DE744F48064B9696D1C0E9888478246761E6946600501D52D2000E0C8
:208E40002B208DF8000001F1010B0DF1200809E0B9696D1C0E98884782460F9844F40074FA
:208E6000761E0560002E02DDBAF1300FF0D00B998A453ED144F0800406E00F99681CA9F15C
:208E8000010944F400740860B9696D1C761E0E98884782463028F0D02BE00B998A4505D1CC
:208EA000200603D444F08004761E18E0504610F007FE08B30DF11301761E44F400748B45F9
:208EC00008D2AAF130000BF8010B200607D5A9F1010003E0200602D409F101008146A005FB
:208EE00002D50F99681C0860B9696D1C0E9888478246002ED1DC53E0002E51DDBAF1650F96
:208F000002D0BAF1450F4BD1A00549D5B9696D1C24F44074761E0E9888478246002E0CDD42
:208F20002B2804D0BAF12D0F07D144F48074B9696D1C0E9888478246761EE00501D52D219A
:208F400000E02B2108F8011BCDF82C8021E00DF12901761E44F4007488450CD2AAF1300079
:208F600010F0FF0088F8000002D10B99884509D908F1010806E0E00501D5244801E042F228
:208F80000F708146B9696D1C0E98884782460F980560002E04DD504610F092FD0028D6D194
:208FA000F9690E988847FF208BF8000088F800000020069007904B466A4608A906A8FFF7D5
:208FC00077FEA00502D46FF001002AE714F0240F0AD0E00714D1DDE906123868031D3B601A
:208FE0000068C0E900120BE0DDE90601FFF764FC0146E00704D13868021D3A60006801601B
:2090000028460EE7000014400000F03FF1D8FFFF426842B1016811F8013B23B1521EC0E96B
:209020000012184670470121C160881E704742685AB1C368016843B983688B4205D0491E30
:20904000521CC0E90012002070474FF0FF3070472DE9F04D00231A461B1A8A4103DB002017
:209060000146BDE8F08DC1F30A52C1F3130141F480154FF0000BD10702D100186D41521EBA
:209080000027044640F2FF11384601EB620A3E468046024600204FF48011FFF74EFCC219A6
:2090A0007141BB1846EB0100B4EB030C75EB000C04D3E41A65EB000517460E46241908F1CE
:2090C00001006D4180463428E3DDF91946EB0600091BA84103D24FF0FF32134601E0002208
:2090E00013461BEB070046EB0A51BDE8F04DFFF71ABD0EB540F2334202920022CDE90022D7
:209100001346FFF71FFD03B000BD70B58C1810F8015B15F0070301D110F8013B2A1106D110
:2091200010F8012B03E010F8016B01F8016B5B1EF9D12B0705D40023521E0DD401F8013B48
:20914000FAE710F8013BCB1A921C03E013F8015B01F8015B521EF9D5A142D8D3002070BD9F
:209160004268024B1A400A4342607047FFFD3FFF426822F01F020A434260704741628262B4
:2091800070476FEA1121016070470029816802D041F0010101E021F00101816070470000D2
:2091A000084B10B5D3F8042307490A40D0E900142143D0E90240044321431143C3F804130E
:2091C00010BD000000200140E030FCFF0021016041608160C16070470029816802D041F461
:2091E000807101E021F48071816070470029816802D041F4007101E021F400718160704776
:20920000826822F440120A438260704730B50246002053680C0A01258D4011682B402142BE
:2092200002D0002B00D0012030BD08B5084428300090006880B208BD70B52E4E4FF4837527
:2092400029463046FFF7E2FF2B4CC0B129463046FFF797FF2068B0F87010C9040AD4B0F8F6
:209260006C00C00406D40EF0E5FA2068C16E41F48051C16600222946304600F043F81F4E84
:2092800029463046FFF7C2FFC0B129463046FFF778FF2068B0F87010C9040AD4B0F86C0000
:2092A000C00406D40EF0C6FA2068C16E41F48051C16600222946304600F024F8104E29468E
:2092C0003046FFF7A3FF002813D029463046FFF758FF2068B0F87010C9040AD4B0F86C00D4
:2092E000C00406D40EF0A6FA2068C16E41F48051C16670BD00200140380000200021014006
:209300000022014001238B4041680AB1194300E0994341607047000030B542680F4B0C79B9
:209320001A400B6842EA04221343436082680C4B4D791A40D1E9034323438C6844EA4504E3
:20934000234313438360C26A097D22F47002491EC9B242EA0151C16230BD0000FFFEFFFCCC
:20936000FDF7FFC070B5072409290AD9C568A1F10A0606EB4606B440A543B3401D43C56075
:2093800007E0056901EB4106B440A543B3401D430561836BC3F30154121B921C02EB820469
:2093A0001F22A2409343A1400B43836370BD826B491E22F4401242EA01518163704770B578
:2093C000072409290AD9C568A1F10A0606EB4606B440A543B3401D43C56007E0056901EBAC
:2093E0004106B440A543B3401D4305611F23072A09D2446B521E02EB820293409C43914030
:209400000C43446370BD0D2A09D2046BD21F02EB820293409C4391400C43046370BDC46AB2
:209420000D3A02EB820293409C4391400C43C46270BD816841F0804181607047816841F4BE
:2094400080018160704700210160017141718160C160016101210175704700000649002823
:20946000D1F8040302D040F4000001E020F40000C1F8040370470000002001402DE9F04102
:2094800080461A480D4686B00168194811F044F9064614216846FEF720FF164C206800F5F1
:2094A0007A70F0602068144E4719142230684146406810F0D4F97DB9002006B0BDE8F0813C
:2094C000306814226946006810F0B3F910B10098A42807D011F078F92068B842F0DB4FF001
:2094E000FF30EAE79DF80B00E7E7000038000020A9FF000880020020500100202DE9F0419C
:2095000001217F2007F0E6FC08F05AFCA0210120FEF73DFF7F4C011D0025A0630160058158
:20952000026864210226D18002684FF00C0840F6A9171182006801214FF47A720180A06B38
:2095400000684280A06B03681A810268917201680E770268A2F80C800268A2F80E800168EA
:209560001E228F8201684F820168CD8201680D8301684D83011D2230FEF796FEA06B40F63C
:20958000B8318565056680F84C60A0F84870A0F8428020F8408FC1808180C5863C21A0F856
:2095A000441005F0FBFB4FF4612005F01FFF4FF4E135E063284605F07BFF2064284605F035
:2095C000DBFF6064002005F075F95349086004F093FF05F04BFC4CF250325821002005F056
:2095E00005FB4E4908604FF40E710120FEF7CFFEA16BC1F89C00E16B21B1002348A24B48A8
:2096000011F066F8216C21B1002349A2474811F05FF8616C21B1002348A2444811F058F80E
:20962000002349A24A48A16B11F052F8002349A24A48A16B11F04CF8012349A24A48A16B95
:2096400011F046F8002349A24A48A16B11F040F8012349A24B48A16B11F03AF800234AA2F6
:2096600019464C4811F034F800234BA24C494D4811F02EF808F082FB0021A06B08F02CFAAA
:20968000A06B08F025FA4FF496700EF092F805F083F9E06B11F0F4F87C2007F0B3FC0128C3
:2096A00026D07D2007F0AEFC01282AD07E2007F0A9FC012827D07B2007F0A4FC012824D0AA
:2096C0007A2007F09FFC00BF07F04CFC36A012F0D7F8A06B012234A1D0F89C0012F09EFDB5
:2096E00032A015F003F9BDE8F041002011F0C8B8314832490068B0FBF1F131A00FF0E8FF80
:20970000E2E736A002E03AA000E03EA00FF0E0FFDAE700000000002050010020400200209E
:20972000434F4D3120706172736572001D070108434F4D332070617273657200434F4D366B
:20974000207061727365720043414E2074780000ED05010843414E2072780000A9FF0008F7
:209760007374617475730000E10A01086576656E747300006D09010863686172676572362B
:2097800000000000750701087761746368646F67000000009B7701086C6564730000000030
:2097A000800200203DF60008303A0000406366672E696E690D0000005405002040420F006D
:2097C0000D202E2E2E205357522072657365742C2025644D487A0D0A3E0000000D202E2EB1
:2097E0002E20495744472072657365740D0A3E000D202E2E2E205757444720726573657405
:209800000D0A3E000D202E2E2E20706F776572206F6E2072657365740D0A3E0000B585B070
:209820006A460021054800F05DF90548142269460068006810F013F805B000BD00640040A1
:20984000500100200248016841F0040101607047046400400A4800B5006885B0142240686C
:2098600069460FF0E6FF0100064804D0694600F091F905B000BD0022012100F0B7F8F8E7D5
:20988000500100200064004000B585B06A460021054800F027F90548142269460068006899
:2098A0000FF0DDFF05B000BD00680040500100200248016841F00401016070470468004095
:2098C0000A4800B5006885B01422406869460FF0B0FF0100064804D0694600F05BF905B0DE
:2098E00000BD0022012100F081F8F8E75001002000680040094910B588424FF0010101D112
:209900004C0601E04FF08064204607F007FB2046BDE81040002107F001BB000000640040BF
:20992000F0B5827A012191402E4A136843F0010313602C4B1C331C688C431C60294D067B6A
:20994000294C0C35A6B92E688E432E604688C78846EA0746877A04EBC707C7F840660688B2
:20996000878846EA0746877A04EBC707C7F84466067B012E12D12E680E432E60867A0568BF
:2099800004EBC6064FEA3545C6F84056867A456804EBC6044FEA3545C4F84456114CC57AFA
:2099A000241D002D256806D00D4325600D4C0589143415B104E08D43F7E725688D43256098
:2099C0000589012D02D125680D432560407B012802D1186808431860106820F001001060A3
:2099E000F0BD00000066004000600040002A426901D00A4300E08A434261704710B503684A
:209A0000002223F002030360036843F0010303604FF6FF7300E0521C4468E40701D19A425A
:209A2000F9D14268D2073ED08A79012A02683CD022F080020260CA79012A026838D022F03F
:209A4000400202600A7A012A026834D022F0200202604A7A012A026830D022F010020260D0
:209A60008A7A012A02682CD022F008020260CA7A012A026828D022F0040202608A78CC7842
:209A8000920742EA04620C7942EA04424C79098842EA0452491E0A43C261016821F0010179
:209AA0000160002114E0002010BD42F08002C1E742F04002C5E742F02002C9E742F010027F
:209AC000CDE742F00802D1E742F00402D5E7491C4268D20701D09942F9D14068C007E2D16A
:209AE000012010BD10B500EB0113D3F8B04114F004041472D3F8B04134D0E408C2F80440BC
:209B0000D3F8B04104F002045472D3F8B44104F00F049472D3F8B441240AD474D3F8B84102
:209B2000D472D3F8B841240A1473D3F8B841240C5473D3F8B841240E9473D3F8BC41D4739F
:209B4000D3F8BC41240A1474D3F8BC41240C5474D3F8BC311B0E937439B1016941F0200139
:209B6000016110BD640D1460CAE7C16841F02001C16010BD00218171C17101724172817259
:209B8000C1728170C170032101710221417101210180704730B50246002093685B0108D42B
:209BA0009068000101D5012003E09068C00037D5022002EB0012D2F8803103F00103C2F8C1
:209BC00080310B7A73B3D2F880414D681C434B7A43EAC5031C43C2F880418B7A03F00F03EC
:209BE0008B72D2F8843123F00F03C2F88431D2F884318C7A2343C2F88431CB7ACC6843EA55
:209C00000423C2F88831CB7B096943EA0121C2F88C11D2F8801141F00101C2F8801130BD86
:209C2000042030BDD2F880314C7A23430C8843EA4453C2F88031D0E7002221B1012905D0FF
:209C4000022906D112E08268114801E08268114802401149501A8A4214D00ADCA2B16FF05B
:209C6000806010180FD002280CD10FE082680B48EEE7B0F5007F09D00949401803D0B0F5D6
:209C8000003F03D000207047022070470120704703000004000300080001000800000310FC
:209CA0000001FFF72DE9F0432848DFF8A480294FA1B00168C8F81C10DFF89C903868012116
:209CC00009EB401080F8781224A00FF001FD0D2000907623B02229A101A80EF085F801A8BE
:209CE00000F00CFE01AE0025184813F06FFB0446401C0CD0052C0AD005EB4500304422462B
:209D000022A1001D0EF070F86D1C082DECDB002D02DD01A800F0F2FD10F056FD052CE2D1AD
:209D2000B0221CA101A80EF05FF801A800F0E6FD3968002009EB411181F87802C8F81C0044
:209D400016A00FF0C5FC21B0BDE8F0838C020020DC00002038000020001000220D0A2072C7
:209D6000656D6F746520636F6E736F6C65206F70656E2E2E2E200D0A3E0000003E2530331F
:209D800058202530325820253032580020253032580000003E253033580000000D0A202EEB
:209DA0002E2E2E72656D6F746520636F6E736F6C6520636C6F7365640D0A3E0010B50022A4
:209DC000044B03E050F822401C60521C8A42F9D3186810BD0030024001490120886070475C
:209DE0000030024071B585B014216846FEF775FA0598401C059003F00DFFE0BB022105A857
:209E000014F073FA0546042105A814F06EFA214EB18800EB0144022105A814F066FA06280E
:209E200034D2DFE800F0033333332E2E1A48844221DBA2200090CDF80B4004208DF80A0034
:209E400000216846FFF71AFBA32000246E46009014E0022105A814F048FA3119641CC872EF
:209E6000082C00D055B98DF80A40002464216846FFF704FB10B1002006B070BD6D1EE8D2AC
:209E800004E0042105A814F030FA70604FF0FF30F2E70000FC000020008000080FB414222A
:209EA00070B588B038496846FEF7FEF90DAD374C40E001CD059011F8012B05A80C91582A69
:209EC00020D008DC2E2A0DD0452A19D0492A0FD0502A2FD112E0632A18D0692A1AD0772AD0
:209EE00028D115E0142268460599FEF7DDF921E00598206308B070BC5DF814FB402003E07B
:209F0000432001E09DF81400009013E0002202E0012200E003220DF10B0100BF9DF80A60DD
:209F200010F8013B73549DF80A305B1C8DF80A30521EF3D20C9908780028BAD1206BD8B1F0
:209F400010F09EFC206312A000990FF0C1FB00256E4606E070192E21C27A10A00FF0B8FBA9
:209F60006D1C9DF80A00A842F4DC0EA00FF0B0FB206B10F085FC20630B4814226946006878
:209F800040680FF06CFCB5E740EC010800000020253032582E3C3C2E000000002563253031
:209FA000325800000D0A3E0050010020044A01238340106809B1184300E0984310607047AD
:209FC0000074004010B501214C07204606F0A6FF2046BDE81040002106F0A0BF054900284B
:209FE000086802D040F0030001E020F0030008607047000004740040044908B501EB90009B
:020000040800F2
:20A000002C300090006880B208BD00000074004030B5084C236840F6FE7282409343D1E985
:20A0200000252A43D1E902510D432A4382401A43226030BD00740040082805D042EA01410F
:20A04000034A10440162704742EA0121F8E70000007400400021016041608160C160704788
:20A0600010B50A460C0601F07F0303EB830100EBC10102D501F58E7101E001F55D71D209DB
:20A080000B704A700CF04EF8002010BD0A4610B5090602F07F0306D503EB830100EBC101CA
:20A0A00001F58E7105E002EB820100EBC10101F55D7100248C700B70D2094A700CF019F8A8
:20A0C000002010BD10B50A0604D501F07F010CF057F901E00CF038F9002010BD70B50C46B6
:20A0E0000E0601F07F0505EB850100EBC10102D501F58E7101E001F55D71E4090D704C701D
:20A100008A60CB7000D0CD80022B01D100220A710BF0C6FF002070BD10B501F07F0404EB2C
:20A12000840100EBC101C1F88833C1F880230023C1F88C3381F8753381F87443C37801F500
:20A140005D71012B00D10A6114F0FF0F03D00CF01BF8002010BD0BF035FFFAE7006900224D
:20A1600061F30A1201681143016070470A4610B5090602F07F0306D503EB830100EBC10108
:20A1800001F58E7105E002EB820100EBC10101F55D7101248C700B70D2094A700BF0DCFFFD
:20A1A000002010BD70B511F07F0404EB840100EBC1014FF0010581F81D5181F81C41C1F82D
:20A1C0002821C1F82C2101F58E714FF00002C1E9053203D00BF0D8FF002070BD0BF0F2FE3C
:20A1E000FAE700002DE9F041064600250CF04CFA074655E0F80751D03069EAB20369416B95
:20A20000D14006EB820201F00101926943EAC11194680C40E1071AD00124426B04FA05F1EB
:20A220008A43426306EB8500806984601F48E9B20068426830469047F078012807D135B9B1
:20A2400096F81101042802D130460BF017FF200704D506EB8500082480698460E00604D5AA
:20A2600006EB8500102480698460600604D506EB8500402480698460A00704D506EB85008B
:20A28000022480698460200608D52946304600F067F906EB85018020896988607F086D1C92
:20A2A000002FA7D10120BDE8F0810000780300202DE9F041064600240CF0ECF90746DFF869
:20A2C000988043E0F8073FD0E1B230460CF0E8F90546C00725D006EB84000125416D8D6012
:20A2E000F17801290CD1406D016904EB840006EBC000C1F31201D0F87C23511AC0F88C13C3
:20A30000D8F80000E1B2026830469047F078012807D134B996F81101052802D130460BF0BC
:20A32000ADFEA80704D506EB84000225406D8560280709D5D8F8000081683046884706EBC0
:20A3400084010820496D88607F08641C002FB9D10120BDE8F08100007803002070B50646AF
:20A36000C068816921F010018161F068056A05F00F0000EB800006EBC004C5F3434004F5A8
:20A380005D74072821D2DFE800F0202004202020150047F6F070054217D0C5F30A152A4648
:20A3A0003046E1680CF08DF9E0682844E060A069284409E0082206F2CC5130460CF081F9DF
:20A3C000A069C5F30A110844A061F068816941F010018161012070BD38B5044600208DF8C4
:20A3E000000094F812018DF800001548006841692046884720698068E2684FF40061516184
:20A40000A17AD1B1C00718D094F81501012814D19DF80000032810D1D4F80C01016841F02C
:20A4200001010160D4F80C01016841F0030101600448016841F006010160012038BD00007D
:20A440007803002010ED00E070B50446006900250126416821F001014160294620460BF033
:20A460008FFF0020FF2106E004EB800293699960526D9160401C62788242F5D821694FF082
:20A48000FF3088612846216966F30F0066F31F40C861216945F00B004861216945F00B0026
:20A4A00008612069016821F4FE61016020460BF0E5FDE1684FF48050486103480068016907
:20A4C00020468847012070BD7803002070B504460CF01CF90122002384F8122184F8143128
:20A4E0001946402511E000BF01EB810004EBC00080F81D2180F81C11A0F8221180F81F31DE
:20A50000C0E94953491CC0F8303160788842EBD8002110E001EB810004EBC00282F87533C2
:20A5200082F87413A2F87A1382F87733C2E9DF53491CC2F8883360788842EBD820460BF052
:20A54000FFFC20460BF0A0FB002120460CF03EF920460BF0D9FB2046BDE870400BF0CFBED2
:20A560002DE9F0470E46054601EB860005EBC004D4E94C01421AD4F8240104F58E749042A5
:20A5800000D20246D21C970805EB860923E000BFA0EB0108A168414500D2884608F1030014
:20A5A00087081FFA88F3F2B22846E1680DF00CF8E16801EB0800E060A16901EB0800A061A0
:20A5C0006169884207D321780120884029694A6B82434A630BE0D9F81800806980B2B842E9
:20A5E00005D9D4E90501814201D20028D0D10120BDE8F087002008F08BBD0000074A90429B
:20A6000001D2074801E005481038064A8B0001EA020101D5C16070478160704710640240DD
:20A62000006002407D0F7D0F074A904201D2074801E005481038064A8B0001EA020101D506
:20A64000C16070478160704710640240006002407D0F7D0F0029016802D041F0010101E0A2
:20A6600021F00101016070472DE9F04190B00546684600F030F90121880506F02BFCDFF873
:20A680008880404600F044F8204F4FF00066CDE90067686800246946006802904020CDE91C
:20A6A0000304C002CDE90940C011CDE90540089407940D9440460E9400F0DCF8012140469A
:20A6C000FFF7C8FFDFF84080A8F17808404600F01FF8CDE90067286869460068CDE9020400
:20A6E0008020049040000990404600F0C3F801214046FFF7AFFF0122C021381F08F0B0FECF
:20A7000010B0BDE8F0810000B8640240041001402DE9F043016821F0010101600021016008
:20A7200041608160C1600161212141613C493C4A3D251039904202D18D60BDE8F083384A4E
:20A740004FF474661832904201D18E60F5E7344A4FF474173032904201D18F60EDE7304A95
:20A760004FF0746C4832904202D1C1F808C0E4E72B4B2C4A6033984201D1CA60DDE7284CC2
:20A78000294B7834A04201D1CB60D6E7DFF89080264C08F19008404501D1CC60CDE7DFF805
:20A7A00080804FF03D5908F1A808404502D1C1F80C90C2E71E49DFF878800839404501D1F7
:20A7C0000D60BAE71A4D1835A84201D10E60B4E7174D3035A84201D10F60AEE7144D48358B
:20A7E000A84202D1C1F800C0A7E7114D10496035091FA84201D10A609FE70D4A78329042A2
:20A8000001D10B6099E70A4A9032904201D10C6093E7074AA83290428FD1C1F800908CE7C2
:20A82000106002403D000020400F002000003D2010640240014600200968C90700D00120EE
:20A840007047406880B270470B0607D5436912B143F0800301E023F080034361802908D002
:20A86000002A026801F01E0101D00A4300E08A430260704730B50368124ACC6813400A68AB
:20A880002243D1E905452C432243CC6922430C6A22434C6A22438C6A22434C6B22438C6B7D
:20A8A00022431A430260426922F00703D1E90B2422431A4342610A6942604A6882608968C5
:20A8C000C16030BD3F801CF00AB101617047C1607047416070470021016041608160C16076
:20A8E000016141618161C161016241628162C1620163416381637047704700002DE9F14F94
:20A900002DED0A8B92B01C9949B308784FF0640A4D1C4FF0250B4FF000089FEDF3AB9FED93
:20A92000F48B9FEDF59B9FEDF6BB0127F64CDFF8DC93F74E53287BD03FDC3C2879D024DCBC
:20A94000DFF8D0A32E2875D015DC242801F078830ADC212801F0548323286CD17AE2EEA080
:20A960000EF0B6FE01F06ABB2B2801F0F4832D28F3D101F0EBBB302801F0FC833128FBD0B8
:20A980003228F9D03A28E8D1ECE7422856D00BDC3D2801F0EA833E2870D03F2801F0E0830B
:20A9A0004028DAD101F0CDBB442868D0492867D04C287DD05028D0D1C5E2553824283AD259
:20A9C000DFE810F0D30A24005F00DB07390039003900390039003900390039000907AA03E9
:20A9E00039006E03A407200839003900B905390039003900390039003900C1025A04D4015E
:20AA0000EB04F407BE0824000B02BF070121080306F060FAFFF7E0F9C048C149081A810886
:20AA2000BE48FFF7CBF90722BEA31146009003E06BE0DCE0A0E089E0BDA0ABE328462C226B
:20AA400009A91C9513F064FC089000287ED001280CDD102200210A98FDF7A7FC0446102208
:20AA600000210998FDF7A1FC04707BE7102200210998FDF79AFC0178B2A023E0FAE04CE05B
:20AA8000EEE328462C2209A91C9513F041FC08900028DBD001280EDD102200210A98FDF71E
:20AAA00084FC0446102200210998FDF77EFC00E00BE0048056E7102200210998FDF775FC85
:20AAC0000188A2A00EF004FE4CE728462C2209A91C9513F01DFC08900028B7D001280CDDE4
:20AAE000102200210A98FDF760FC0446102200210998FDF75AFC046034E710220021099816
:20AB0000FDF753FC016893A0DCE7084613F048F912B0BDEC0A8BBDE8F88F28462C2209A967
:20AB20001C9513F0F5FB089002280FDB032803D10B980078692810D04FF0FF3421460A98BF
:20AB400012F02AFB08902146099800E08FE112F023FB089913F0EAF804E74FF0FF34214674
:20AB60000A9812F019FB08902146099812F014FB089912F039FDF5E6142278496846FDF71F
:20AB800093FB1C95287878B300246D460AE01C980221204412F000FB04EBD47105EB61012C
:20ABA000A41CC8721C98FDF7C5FBA042EFD804EBD47040086A4C8DF80A000022022120461F
:20ABC000FEF714FF674814226946006800680EF046FE012202212046FEF708FF01F0ADBAC7
:20ABE00061A0FFF75BF9BDE6FFE70021F8E714216846FDF772FB284610221CA91C95FDF733
:20AC0000D4FB0090A8B301E0401C1C901C9801782029F9D08DF80A800DF10B040BE0102219
:20AC20001CA9FDF7C2FB9DF80A1008559DF80A00401C8DF80A001C98017819B19DF80A1062
:20AC40000829ECD3464C002202212046FEF7CEFE444814226946006800680EF000FE0122A6
:20AC600002212046FEF7C2FE1C9800780028CDD178E616E014216846FDF72FFB28461022AF
:20AC80001CA91C95FDF791FB009050B1354E45460DF10B041C980178202904D08DF80A50E9
:20ACA00010E0032034E7401C1C90F3E710221CA9FDF77BFB9DF80A1008559DF80A00401C1C
:20ACC0008DF80A001C98017819B19DF80A100829ECD330681422694640680EF0C0FD1C98BB
:20ACE00000780028D6D13DE6000000000000E03F6666666666660A40000000000000303FAE
:20AD00000434D7F79751703F3800002000100022CC5F01208C0200200D0A3E000080000835
:20AD2000000004084A616E2032392032303231002025642E253032642025732C203C253027
:20AD400038583E002C253032580000002C253034580000002C2530385800000074EC010893
:20AD600000680040500100204900000028462C2209A91C9513F0CCFA0890002877D0012859
:20AD800004DD0A98FDF782FB119000E011974FF0FF31099812F000FA0890FF2807DD4FF6A2
:20ADA000FF7101EA0021C0F3072001430891FA4808A9119A006812F0FFFE78B3F7A00EF09B
:20ADC00087FC1198C10007FA01F20899521E0A404100F3A00EF07CFCC4E528462C2209A9D6
:20ADE0001C9513F095FA0890022840D14FF0FF342146099812F0D0F90890FF280FDD210C20
:20AE000001EA0021C0F307200143089121460A9812F0C2F9089941EA004007E017E0214658
:20AE20000A9812F0B9F9089941EA002008900998FDF780FA44080A98FDF77CFA04EB500290
:20AE4000D54808A9006813F07BFE0028C4D10421D5A037E628462C2209A91C9513F058FA58
:20AE6000D64C4FF48061089010B102280CD00EE24FEA080204EB80035A8024F82020401CF6
:20AE800008908842F6DB6DE50897089834F8202022B1401C08908842F7DB63E50998FDF742
:20AEA000F5FA0A25401D90FBF5F000EB80004000002809DD0998FDF7E9FA401D90FBF5F0A9
:20AEC00000EB8000400000E00020089924F821000A98FDF7DBFA002803DD0A98FDF7D6FA10
:20AEE00000E00020089905B204EB8100458034F92100FDF760FC41EC180B2846FDF75BFC1E
:20AF000041EC100B9FEDAE1B0DF0C6FC53EC182B51EC100BFDF76EFB9FEDAB1B53EC112BD1
:20AF2000FDF7DAFB53EC1A2BFDF7BDFA41EC180B2068FDF740FC53EC182BFDF7B4FAFDF7F9
:20AF400058FC20600EE528462C2209A91C9512F0FDFC9FED9FCB0890002827D019DD0998CC
:20AF6000FDF794FA21680968C8800898012810DD0A980DF075FC53EC1C2B51EC100BFDF775
:20AF800039FBFDF736FC216809688880089803285AD01C98401E1C90007850285BD02068FF
:20AFA00000688772089804285AD061E12568B5F97600FDF700FC53EC182BFDF71BFB53EC8C
:20AFC000192BFDF717FB53EC1B2BFDF785FB53EC1A2BFDF768FAFDF70CFC2968B1F90C20F1
:20AFE000B1F9061050434FF4167290FBF2F27AA00EF06EFB20680068C48A14B9018B002983
:20B00000A0D0008BB2EE048A00EE100AF8EE400A80EE880A10EE100AFDF723FC00EE104A5C
:20B0200005460E46F8EE400A80EE880A10EE100AFDF717FC41EC100BCDE9005653EC102B54
:20B040006FA00EF045FB8DE40B98FDF71FFA216809688872A6E72068072100688172A1E76E
:20B060000B980DF0FDFB53EC1C2B51EC100BFDF7C1FAFDF7DDFB21680968C8820C980DF0FA
:20B08000EFFB53EC1C2B51EC100BFDF7B3FAFDF7CFFB21680A681083084604F07BFEE7E079
:20B0A00028462C2209A91C9512F050FC089000281AD018DD0998FDF7E9F921680968088289
:20B0C000089801280FDD0A980DF0CAFB9FED571B51EC100B53EC112BFDF78CFAFDF789FB94
:20B0E00021680968C881C3E020680468B4F90E0000EE100AF8EEC00A9FED4E1A80EE810A16
:20B1000010EE100AFDF7ADFB41EC100BB4F9101053EC102B48A0A5E028462C2209A91C9560
:20B1200012F014FC089000282AD032DD0998FDF7ADF90028F9DD0998FDF7A8F921680968CB
:20B1400008800898012826DD0A98FDF79FF9216809684880089802281DDD0B98FDF796F9C1
:20B16000216809680881089803287EDD0C98FDF78DF92168086609EB411181F81C8277E05D
:20B1800020680068B0F90830B0F90220B0F9001067E0DFE12AE168E0400200202C00000072
:20B1A00025302A5800000000202E2E2E493243206572726F722825303258290000070020AF
:20B1C000000000000000084000000000006A184100000000000024400D3E7028756C736564
:20B1E000292020542C5520202020202020202020202E2E2E20256475732C2564560000008B
:20B200000D0A3E71287377636829202064656C61792C77696474682020202E2E2E20252E6A
:20B22000316675732C252E31667573000000000000C08240000016440D3E6428656C617933
:20B24000292020542C5057202020202020202020202E2E2E20256475732C252E32660000EC
:20B2600074E2FBA00EF034FA24E42168C1F86080206806F02DFC1DE428462C2209A91C95C0
:20B2800012F064FBFD4F089010B105283DD0C7E3FBA00EF01DFA00252BE02068B0F976003D
:20B2A000FDF789FA53EC182BFDF7A4F953EC192BFDF7A0F953EC1B2BFDF70EFA53EC1A2BEF
:20B2C000FDF7F1F8FDF795FAB6F9021048434FF4167100F5967090FBF1F2B6F90610CDE914
:20B2E0000018B6F9043037F91910EDA00EF0F0F96D1C05EB850907EB4906B6F908005FEA3E
